{"contracts/olderVaultV2.sol":{"UserVault_V2":{"abi":[{"inputs":[{"internalType":"address","name":"_owner","type":"address"},{"internalType":"address","name":"_admin","type":"address"},{"internalType":"address","name":"_asset","type":"address"},{"internalType":"address[]","name":"_initialVaults","type":"address[]"},{"internalType":"address","name":"_revenueAddress","type":"address"},{"internalType":"uint256","name":"_feePercentage","type":"uint256"},{"internalType":"uint256","name":"_initialDepositAmount","type":"uint256"}],"stateMutability":"nonpayable","type":"constructor"},{"inputs":[],"name":"EnforcedPause","type":"error"},{"inputs":[],"name":"ExpectedPause","type":"error"},{"inputs":[],"name":"ReentrancyGuardReentrantCall","type":"error"},{"inputs":[{"internalType":"address","name":"token","type":"address"}],"name":"SafeERC20FailedOperation","type":"error"},{"anonymous":false,"inputs":[{"indexed":true,"internalType":"address","name":"oldAdmin","type":"address"},{"indexed":true,"internalType":"address","name":"newAdmin","type":"address"}],"name":"AdminUpdated","type":"event"},{"anonymous":false,"inputs":[{"indexed":true,"internalType":"address","name":"fromAsset","type":"address"},{"indexed":true,"internalType":"address","name":"toAsset","type":"address"},{"indexed":false,"internalType":"uint256","name":"amountIn","type":"uint256"},{"indexed":false,"internalType":"uint256","name":"amountOut","type":"uint256"}],"name":"AssetSwapped","type":"event"},{"anonymous":false,"inputs":[{"indexed":true,"internalType":"address","name":"vault","type":"address"},{"indexed":false,"internalType":"uint256","name":"feeAmount","type":"uint256"},{"indexed":false,"internalType":"uint256","name":"userAmount","type":"uint256"}],"name":"FeeCollected","type":"event"},{"anonymous":false,"inputs":[{"indexed":false,"internalType":"uint256","name":"oldFee","type":"uint256"},{"indexed":false,"internalType":"uint256","name":"newFee","type":"uint256"}],"name":"FeePercentageUpdated","type":"event"},{"anonymous":false,"inputs":[{"indexed":true,"internalType":"address","name":"vault","type":"address"},{"indexed":false,"internalType":"uint256","name":"amount","type":"uint256"}],"name":"InitialDeposit","type":"event"},{"anonymous":false,"inputs":[{"indexed":true,"internalType":"address","name":"vault","type":"address"},{"indexed":false,"internalType":"uint256","name":"amount","type":"uint256"}],"name":"InitialDepositExecuted","type":"event"},{"anonymous":false,"inputs":[{"indexed":false,"internalType":"address","name":"account","type":"address"}],"name":"Paused","type":"event"},{"anonymous":false,"inputs":[{"indexed":true,"internalType":"address","name":"fromVault","type":"address"},{"indexed":true,"internalType":"address","name":"toVault","type":"address"},{"indexed":false,"internalType":"uint256","name":"amount","type":"uint256"}],"name":"PeriodicDeposit","type":"event"},{"anonymous":false,"inputs":[{"indexed":true,"internalType":"address","name":"fromVault","type":"address"},{"indexed":true,"internalType":"address","name":"toVault","type":"address"},{"indexed":false,"internalType":"uint256","name":"profit","type":"uint256"},{"indexed":false,"internalType":"uint256","name":"feeAmount","type":"uint256"}],"name":"RebalanceFeeCollected","type":"event"},{"anonymous":false,"inputs":[{"indexed":true,"internalType":"address","name":"fromVault","type":"address"},{"indexed":true,"internalType":"address","name":"toVault","type":"address"},{"indexed":false,"internalType":"uint256","name":"amount","type":"uint256"}],"name":"Rebalanced","type":"event"},{"anonymous":false,"inputs":[{"indexed":true,"internalType":"address","name":"oldAddress","type":"address"},{"indexed":true,"internalType":"address","name":"newAddress","type":"address"}],"name":"RevenueAddressUpdated","type":"event"},{"anonymous":false,"inputs":[{"indexed":false,"internalType":"address","name":"account","type":"address"}],"name":"Unpaused","type":"event"},{"anonymous":false,"inputs":[{"indexed":true,"internalType":"address","name":"vault","type":"address"}],"name":"VaultAdded","type":"event"},{"anonymous":false,"inputs":[{"indexed":true,"internalType":"address","name":"vault","type":"address"}],"name":"VaultRemoved","type":"event"},{"anonymous":false,"inputs":[{"indexed":true,"internalType":"address","name":"vault","type":"address"},{"indexed":true,"internalType":"address","name":"recipient","type":"address"},{"indexed":false,"internalType":"uint256","name":"amount","type":"uint256"}],"name":"Withdrawal","type":"event"},{"inputs":[],"name":"AERODROME_FACTORY","outputs":[{"internalType":"address","name":"","type":"address"}],"stateMutability":"view","type":"function"},{"inputs":[],"name":"AERODROME_ROUTER","outputs":[{"internalType":"address","name":"","type":"address"}],"stateMutability":"view","type":"function"},{"inputs":[],"name":"DEPOSIT_INTERVAL","outputs":[{"internalType":"uint256","name":"","type":"uint256"}],"stateMutability":"view","type":"function"},{"inputs":[],"name":"MAX_FEE_PERCENTAGE","outputs":[{"internalType":"uint256","name":"","type":"uint256"}],"stateMutability":"view","type":"function"},{"inputs":[],"name":"MIN_PROFIT_FOR_FEE","outputs":[{"internalType":"uint256","name":"","type":"uint256"}],"stateMutability":"view","type":"function"},{"inputs":[],"name":"REBALANCE_FEE_PERCENTAGE","outputs":[{"internalType":"uint256","name":"","type":"uint256"}],"stateMutability":"view","type":"function"},{"inputs":[],"name":"SLIPPAGE_TOLERANCE","outputs":[{"internalType":"uint256","name":"","type":"uint256"}],"stateMutability":"view","type":"function"},{"inputs":[{"internalType":"address","name":"vault","type":"address"}],"name":"addVault","outputs":[],"stateMutability":"nonpayable","type":"function"},{"inputs":[],"name":"admin","outputs":[{"internalType":"address","name":"","type":"address"}],"stateMutability":"view","type":"function"},{"inputs":[{"internalType":"uint256","name":"","type":"uint256"}],"name":"allowedVaults","outputs":[{"internalType":"address","name":"","type":"address"}],"stateMutability":"view","type":"function"},{"inputs":[],"name":"asset","outputs":[{"internalType":"address","name":"","type":"address"}],"stateMutability":"view","type":"function"},{"inputs":[{"internalType":"uint256","name":"totalAmount","type":"uint256"}],"name":"calculateFeeFromProfit","outputs":[{"internalType":"uint256","name":"feeAmount","type":"uint256"},{"internalType":"uint256","name":"userAmount","type":"uint256"}],"stateMutability":"view","type":"function"},{"inputs":[],"name":"canDeposit","outputs":[{"internalType":"bool","name":"","type":"bool"}],"stateMutability":"view","type":"function"},{"inputs":[],"name":"currentVault","outputs":[{"internalType":"address","name":"","type":"address"}],"stateMutability":"view","type":"function"},{"inputs":[{"internalType":"address","name":"bestVault","type":"address"}],"name":"deposit","outputs":[],"stateMutability":"nonpayable","type":"function"},{"inputs":[{"internalType":"address","name":"vault","type":"address"}],"name":"emergencyWithdraw","outputs":[],"stateMutability":"nonpayable","type":"function"},{"inputs":[],"name":"feePercentage","outputs":[{"internalType":"uint256","name":"","type":"uint256"}],"stateMutability":"view","type":"function"},{"inputs":[],"name":"getAllowedVaults","outputs":[{"internalType":"address[]","name":"","type":"address[]"}],"stateMutability":"view","type":"function"},{"inputs":[],"name":"getAllowedVaultsCount","outputs":[{"internalType":"uint256","name":"","type":"uint256"}],"stateMutability":"view","type":"function"},{"inputs":[],"name":"getCurrentVaultAssets","outputs":[{"internalType":"uint256","name":"","type":"uint256"}],"stateMutability":"view","type":"function"},{"inputs":[],"name":"getCurrentVaultAssetsInPrimaryAsset","outputs":[{"internalType":"uint256","name":"","type":"uint256"}],"stateMutability":"view","type":"function"},{"inputs":[],"name":"getCurrentVaultBalance","outputs":[{"internalType":"uint256","name":"","type":"uint256"}],"stateMutability":"view","type":"function"},{"inputs":[],"name":"getFeeInfo","outputs":[{"internalType":"address","name":"_revenueAddress","type":"address"},{"internalType":"uint256","name":"_feePercentage","type":"uint256"},{"internalType":"uint256","name":"_totalFeesCollected","type":"uint256"}],"stateMutability":"view","type":"function"},{"inputs":[{"internalType":"address","name":"tokenIn","type":"address"},{"internalType":"address","name":"tokenOut","type":"address"},{"internalType":"uint256","name":"amountIn","type":"uint256"}],"name":"getOptimalPoolInfo","outputs":[{"internalType":"bool","name":"useStable","type":"bool"},{"internalType":"uint256","name":"stableOutput","type":"uint256"},{"internalType":"uint256","name":"volatileOutput","type":"uint256"}],"stateMutability":"view","type":"function"},{"inputs":[],"name":"getPotentialFee","outputs":[{"internalType":"uint256","name":"","type":"uint256"}],"stateMutability":"view","type":"function"},{"inputs":[],"name":"getProfit","outputs":[{"internalType":"int256","name":"","type":"int256"}],"stateMutability":"view","type":"function"},{"inputs":[],"name":"getProfitPercentage","outputs":[{"internalType":"int256","name":"","type":"int256"}],"stateMutability":"view","type":"function"},{"inputs":[],"name":"getTaxableProfit","outputs":[{"internalType":"uint256","name":"","type":"uint256"}],"stateMutability":"view","type":"function"},{"inputs":[{"internalType":"address","name":"vault","type":"address"}],"name":"getVaultAsset","outputs":[{"internalType":"address","name":"","type":"address"}],"stateMutability":"view","type":"function"},{"inputs":[{"internalType":"uint256","name":"withdrawAmount","type":"uint256"}],"name":"getWithdrawFeePreview","outputs":[{"internalType":"uint256","name":"feeAmount","type":"uint256"},{"internalType":"uint256","name":"userAmount","type":"uint256"}],"stateMutability":"view","type":"function"},{"inputs":[],"name":"hasInitialDeposit","outputs":[{"internalType":"bool","name":"","type":"bool"}],"stateMutability":"view","type":"function"},{"inputs":[{"internalType":"address","name":"vault","type":"address"},{"internalType":"uint256","name":"amount","type":"uint256"}],"name":"initialDeposit","outputs":[],"stateMutability":"nonpayable","type":"function"},{"inputs":[],"name":"initialDepositAmount","outputs":[{"internalType":"uint256","name":"","type":"uint256"}],"stateMutability":"view","type":"function"},{"inputs":[],"name":"initialDepositMade","outputs":[{"internalType":"bool","name":"","type":"bool"}],"stateMutability":"view","type":"function"},{"inputs":[{"internalType":"address","name":"","type":"address"}],"name":"isAllowedVault","outputs":[{"internalType":"bool","name":"","type":"bool"}],"stateMutability":"view","type":"function"},{"inputs":[],"name":"lastDepositTime","outputs":[{"internalType":"uint256","name":"","type":"uint256"}],"stateMutability":"view","type":"function"},{"inputs":[{"internalType":"address","name":"vault","type":"address"}],"name":"needsSwap","outputs":[{"internalType":"bool","name":"","type":"bool"}],"stateMutability":"view","type":"function"},{"inputs":[],"name":"owner","outputs":[{"internalType":"address","name":"","type":"address"}],"stateMutability":"view","type":"function"},{"inputs":[],"name":"pause","outputs":[],"stateMutability":"nonpayable","type":"function"},{"inputs":[],"name":"paused","outputs":[{"internalType":"bool","name":"","type":"bool"}],"stateMutability":"view","type":"function"},{"inputs":[{"internalType":"address","name":"fromVault","type":"address"},{"internalType":"address","name":"toVault","type":"address"}],"name":"rebalanceToVault","outputs":[],"stateMutability":"nonpayable","type":"function"},{"inputs":[{"internalType":"address","name":"vault","type":"address"}],"name":"removeVault","outputs":[],"stateMutability":"nonpayable","type":"function"},{"inputs":[],"name":"revenueAddress","outputs":[{"internalType":"address","name":"","type":"address"}],"stateMutability":"view","type":"function"},{"inputs":[],"name":"timeUntilNextDeposit","outputs":[{"internalType":"uint256","name":"","type":"uint256"}],"stateMutability":"view","type":"function"},{"inputs":[],"name":"totalDeposited","outputs":[{"internalType":"uint256","name":"","type":"uint256"}],"stateMutability":"view","type":"function"},{"inputs":[],"name":"totalFeesCollected","outputs":[{"internalType":"uint256","name":"","type":"uint256"}],"stateMutability":"view","type":"function"},{"inputs":[],"name":"unpause","outputs":[],"stateMutability":"nonpayable","type":"function"},{"inputs":[{"internalType":"address","name":"newAdmin","type":"address"}],"name":"updateAdmin","outputs":[],"stateMutability":"nonpayable","type":"function"},{"inputs":[{"internalType":"uint256","name":"newFeePercentage","type":"uint256"}],"name":"updateFeePercentage","outputs":[],"stateMutability":"nonpayable","type":"function"},{"inputs":[{"internalType":"address","name":"newRevenueAddress","type":"address"}],"name":"updateRevenueAddress","outputs":[],"stateMutability":"nonpayable","type":"function"},{"inputs":[{"internalType":"address","name":"vault","type":"address"},{"internalType":"uint256","name":"amount","type":"uint256"}],"name":"withdraw","outputs":[],"stateMutability":"nonpayable","type":"function"}],"evm":{"bytecode":{"linkReferences":{},"object":"60c0604052346104b25761384280380380610019816104b6565b92833981019060e0818303126104b257610032816104db565b9061003f602082016104db565b9161004c604083016104db565b60608301516001600160401b0381116104b25783019480601f870112156104b2578551956001600160401b038711610245578660051b906020806100918185016104b6565b809a815201928201019283116104b257602001905b82821061049a575050506100bc608084016104db565b60a084015160c09094015160015f5594906001600160a01b03841615610465576001600160a01b03821615610430576001600160a01b038316156103fb578651156103c2576001600160a01b031692831561037d576103e885116103495785156103055760805260018054610100600160a81b031916600892831b610100600160a81b031617905560a091909152600580546001600160a01b03191692909217909155600691909155555f5b815181101561029e576001600160a01b0361018382846104ef565b511615610259576001600160a01b0361019c82846104ef565b51165f908152600a60205260409020805460ff191660011790556001600160a01b036101c882846104ef565b511690600b549168010000000000000000831015610245576001830180600b5583101561023157600b5f527f0175b7a638427703f0dbe7bb9bbf987a2551717b34e79f33b5b1008d1fa01db990920180546001600160a01b031916909217909155600101610168565b634e487b7160e01b5f52603260045260245ffd5b634e487b7160e01b5f52604160045260245ffd5b60405162461bcd60e51b815260206004820152601560248201527f496e76616c6964207661756c74206164647265737300000000000000000000006044820152606490fd5b60405161333e908161050482396080518181816103d50152818161065101528181610f85015281816110cd0152611710015260a0518181816104ce01528181610d4e0152818161119c01528181611463015281816117ae01528181611e1b01526120a90152f35b606460405162461bcd60e51b815260206004820152602060248201527f496e697469616c206465706f736974206d75737420626520706f7369746976656044820152fd5b60405162461bcd60e51b815260206004820152600c60248201526b08ccaca40e8dede40d0d2ced60a31b6044820152606490fd5b60405162461bcd60e51b815260206004820152601760248201527f496e76616c696420726576656e756520616464726573730000000000000000006044820152606490fd5b60405162461bcd60e51b81526020600482015260116024820152704e6f20696e697469616c207661756c747360781b6044820152606490fd5b60405162461bcd60e51b815260206004820152600d60248201526c125b9d985b1a5908185cdcd95d609a1b6044820152606490fd5b60405162461bcd60e51b815260206004820152600d60248201526c24b73b30b634b21030b236b4b760991b6044820152606490fd5b60405162461bcd60e51b815260206004820152600d60248201526c24b73b30b634b21037bbb732b960991b6044820152606490fd5b602080916104a7846104db565b8152019101906100a6565b5f80fd5b6040519190601f01601f191682016001600160401b0381118382101761024557604052565b51906001600160a01b03821682036104b257565b80518210156102315760209160051b01019056fe6080806040526004361015610012575f80fd5b5f3560e01c90816202eab714611b2a575080630147cb7b146116ed5780630b61905f146116d35780630d2b32c7146116b957806310f55679146113e357806315cb51ce146116925780631746a22b146116505780631ec06ecc1461163657806321edd09714611619578063256b5a02146114d45780632b0c6c45146114ac5780632f5ce3451461149257806338d52e0f1461144e5780633f4ba83a146113e85780634c203786146113e3578063558e44d3146113c75780635a46d32f146113ad5780635c975abb1461138b57806360c6d8ae1461136e57806366aeb1c114611350578063679dffb4146113365780636cad3fb0146112945780636db4b69d1461126f5780636ff1c9bc146110b257806372a7d477146110855780637f68237a1461105b5780638456cb5914610ff35780638bbed95814610fd15780638c8d944f14610fb45780638da5cb5b14610f70578063a001ecdd14610f53578063a3c1eb8b14610c4e578063b410908d14610c26578063b723bcc314610c09578063bd28f35114610bec578063ca9d67c814610bb7578063ceb68c23146109fe578063d0e56347146109ba578063d81b464b146109a0578063db37bab414610972578063e2f273bd146108a7578063e44fef95146107fc578063e78a5875146107b9578063edcf63161461079c578063f340fa0114610635578063f3fef3a3146103ba578063f851a4401461038e578063f8c0ae051461036c578063fd8120941461032f578063fdd288591461026d5763ff50abdc1461024c575f80fd5b34610269575f366003190112610269576020600354604051908152f35b5f80fd5b3461026957602036600319011261026957610286611b5f565b61029e60018060a01b0360015460081c163314611ee4565b6001600160a01b031680156102f057600580546001600160a01b0319811683179091556001600160a01b03167f9c18ec49f4aa2c93ab2db0f2f75da25811971a22646a4da0409e945bd48e8af75f80a3005b60405162461bcd60e51b8152602060048201526017602482015276496e76616c696420726576656e7565206164647265737360481b6044820152606490fd5b34610269576020366003190112610269576001600160a01b03610350611b5f565b165f52600a602052602060ff60405f2054166040519015158152f35b34610269575f3660031901126102695760206103866125a8565b604051908152f35b34610269575f3660031901126102695760015460405160089190911c6001600160a01b03168152602090f35b34610269576040366003190112610269576103d3611b5f565b7f00000000000000000000000000000000000000000000000000000000000000006001600160a01b03811691602435919061040f338514611bd3565b60018060a01b03811692835f52600a60205261043160ff60405f205416611c0c565b6104396125e3565b610441612601565b61046660025461045660ff8260a01c16612169565b6001600160a01b031685146121b0565b61046f82612c4a565b9182156105fc57610492928215818482156105f2575b50506105ea575b50612c84565b906040516338d52e0f60e01b8152602081600481875afa9182156105df575f5160206132c95f395f51905f529360209386935f916105b2575b507f00000000000000000000000000000000000000000000000000000000000000006001600160a01b038181169290811683900361059d575b50508192610514610525936120f9565b9581879492610552575b5050612e29565b600354908082111561054a5761053a91611cb6565b600355604051908152a360015f55005b50505f61053a565b6005545f5160206132895f395f51905f529160409161057c9082906001600160a01b031687612e29565b61058881600754611c4c565b6007558151908152868b820152a2888b61051e565b926105ab91610525946127d3565b9189610504565b6105d29150853d87116105d8575b6105ca8183611c74565b810190611c97565b886104cb565b503d6105c0565b6040513d5f823e3d90fd5b91508661048c565b1190508189610485565b60405162461bcd60e51b8152602060048201526011602482015270139bc8199d5b991cc81a5b881d985d5b1d607a1b6044820152606490fd5b346102695760203660031901126102695761064e611b5f565b337f00000000000000000000000000000000000000000000000000000000000000006001600160a01b0316148015610782575b15610747576001600160a01b0381165f908152600a60205260409020546106aa9060ff16611c0c565b6004546201518081018082116107335742109081159161072a575b50156106ea576106e4906106d76125e3565b6106df612601565b612423565b60015f55005b60405162461bcd60e51b815260206004820152601860248201527711195c1bdcda5d081a5b9d195c9d985b081b9bdd081b595d60421b6044820152606490fd5b905015826106c5565b634e487b7160e01b5f52601160045260245ffd5b60405162461bcd60e51b815260206004820152601360248201527227b7363c9037bbb732b91037b91030b236b4b760691b6044820152606490fd5b506001543360089190911c6001600160a01b031614610681565b34610269575f366003190112610269576020604051629896808152f35b34610269575f3660031901126102695760045462015180810190818111610733576020914210908115916107f3575b506040519015158152f35b905015826107e8565b34610269575f36600319011261026957604051806020600b5492838152018092600b5f5260205f20905f5b818110610888575050508161083d910382611c74565b604051918291602083019060208452518091526040830191905f5b818110610866575050500390f35b82516001600160a01b0316845285945060209384019390920191600101610858565b82546001600160a01b0316845260209093019260019283019201610827565b34610269576020366003190112610269576108c0611b5f565b600154600881901c6001600160a01b0316906108dd338314611ee4565b6001600160a01b03831692831561093557610100600160a81b031990911660089190911b610100600160a81b0316176001557f101b8081ff3b56bbf45deb824d86a3b0fd38b7e3dd42421105cf8abe9106db0b5f80a3005b60405162461bcd60e51b8152602060048201526015602482015274496e76616c69642061646d696e206164647265737360581b6044820152606490fd5b34610269575f36600319011261026957602060405173cf77a3ba9a5ca399b7c97c74d54e5b1beb874e438152f35b34610269575f3660031901126102695760206103866123b2565b346102695760603660031901126102695760606109e96109d8611b5f565b6109e0611b75565b60443591612289565b90604051921515835260208301526040820152f35b3461026957602036600319011261026957610a17611b5f565b610a2f60018060a01b0360015460081c163314611ee4565b6001600160a01b03165f818152600a6020526040902054610a529060ff16611c0c565b6002546001600160a01b03168114610b74575f818152600a60205260408120805460ff191690555b600b549081811015610b6d5782610a9082611ba7565b905460039190911b1c6001600160a01b031614610ab1576001915001610a7a565b5f19820191821161073357610ae3610acb610b0793611ba7565b905460039190911b1c6001600160a01b031691611ba7565b9080546001600160a01b0360039390931b83811b199091169290931690921b179055565b600b548015610b59575f1901610b1c81611ba7565b81549060018060a01b039060031b1b19169055600b555b7fe71f3a50e5ad81964f352c411f1d45e35438ecd1acecef59ac81d9fbbf6cbc0a5f80a2005b634e487b7160e01b5f52603160045260245ffd5b5050610b33565b60405162461bcd60e51b815260206004820152601b60248201527a10d85b9b9bdd081c995b5bdd994818dd5c9c995b9d081d985d5b1d602a1b6044820152606490fd5b34610269576020366003190112610269576020610bda610bd5611b5f565b612238565b6040516001600160a01b039091168152f35b34610269575f366003190112610269576020600454604051908152f35b34610269575f366003190112610269576020604051620151808152f35b34610269575f366003190112610269576005546040516001600160a01b039091168152602090f35b3461026957604036600319011261026957610c67611b5f565b610c6f611b75565b610c8760018060a01b0360015460081c163314611ee4565b60018060a01b03821690815f52600a602052610ca960ff60405f205416611c0c565b60018060a01b03811692835f52600a602052610ccb60ff60405f205416611c0c565b610cd36125e3565b610cdb612601565b610d00600254610cf060ff8260a01c16612169565b6001600160a01b031684146121b0565b838314610f215780610d14610d2592612c4a565b90610d208215156121f4565b612c84565b6040516338d52e0f60e01b81529091602082600481875afa9182156105df575f92610f00575b507f000000000000000000000000000000000000000000000000000000000000000092916001600160a01b038085169184918691908116849003610eec575b50505082600354808211610e4a575b50506040516338d52e0f60e01b8152926020846004818a5afa9081156105df575f5160206132e95f395f51905f52956020955f93610e2b575b5090928391906001600160a01b03841603610e14575b505081610df59293612b85565b600280546001600160a01b03191686179055604051908152a360015f55005b610df593509082610e24926127d3565b9188610de8565b610e43919350863d88116105d8576105ca8183611c74565b9189610dd2565b610e549082611cb6565b6101f481028181046101f414821517156107335788916127108992049384610e7f575b505050610d99565b84975090610ed685604093610ec27fa9e2d36289e8eb47bd6121c0058a0ba6fda9c98026a9bd634b6c008799484efd96979860018060a01b03600554168b612e29565b610ece82600754611c4c565b600755611cb6565b9782519182526020820152a38686868280610e77565b610ef79395506127d3565b91868481610d8a565b610f1a91925060203d6020116105d8576105ca8183611c74565b9085610d4b565b60405162461bcd60e51b815260206004820152600a60248201526914d85b59481d985d5b1d60b21b6044820152606490fd5b34610269575f366003190112610269576020600654604051908152f35b34610269575f366003190112610269576040517f00000000000000000000000000000000000000000000000000000000000000006001600160a01b03168152602090f35b34610269575f366003190112610269576020600b54604051908152f35b34610269575f36600319011261026957602060ff600954166040519015158152f35b34610269575f366003190112610269576001805461101f33600883901c6001600160a01b031614611ee4565b611027612601565b60ff1916176001557f62e78cea01bee320cd4e420270b5ea74000d11b0c9f74754ebdbfc544b05a2586020604051338152a1005b346102695760203660031901126102695760406110796004356120f9565b82519182526020820152f35b346102695760203660031901126102695760206110a86110a3611b5f565b612071565b6040519015158152f35b34610269576020366003190112610269576110cb611b5f565b7f00000000000000000000000000000000000000000000000000000000000000006001600160a01b0381169190611103338414611bd3565b61110b612e0d565b6111136125e3565b60018060a01b03821691825f52600a60205261113560ff60405f205416611c0c565b61113e81612c4a565b806111495760015f55005b61115291612c84565b906040516338d52e0f60e01b8152602081600481875afa80156105df575f5160206132c95f395f51905f52936020936111d26111e29388955f91611252575b506001600160a01b037f000000000000000000000000000000000000000000000000000000000000000081811695918316869003611242575b5090506120f9565b94818694926111f7575050612e29565b5f600355604051908152a380808080806106e4565b6005545f5160206132895f395f51905f52916040916112219082906001600160a01b031687612e29565b61122d81600754611c4c565b6007558151908152868a820152a2878a61051e565b61124b926127d3565b808b6111ca565b6112699150873d89116105d8576105ca8183611c74565b8a611191565b34610269575f36600319011261026957602060ff60025460a01c166040519015158152f35b34610269576020366003190112610269576004356112c060018060a01b0360015460081c163314611ee4565b6103e881116113025760407fb27c12a91635e11c22bffa7bd8e0a8735da52b94aaefd7f249776c7590ba789491600654908060065582519182526020820152a1005b60405162461bcd60e51b815260206004820152600c60248201526b08ccaca40e8dede40d0d2ced60a31b6044820152606490fd5b34610269575f36600319011261026957602061038661202a565b34610269576020366003190112610269576040611079600435611fbd565b34610269575f366003190112610269576020600754604051908152f35b34610269575f36600319011261026957602060ff600154166040519015158152f35b34610269575f366003190112610269576020610386611f94565b34610269575f3660031901126102695760206040516103e88152f35b611b8b565b34610269575f3660031901126102695760015461141333600883901c6001600160a01b031614611ee4565b61141b612e0d565b60ff19166001557f5db9ee0a495bf2e6ff9c91a7834c1ba4fdd244a5e8aa4e537bd38aeae4b073aa6020604051338152a1005b34610269575f366003190112610269576040517f00000000000000000000000000000000000000000000000000000000000000006001600160a01b03168152602090f35b34610269575f366003190112610269576020610386611f1d565b34610269575f366003190112610269576002546040516001600160a01b039091168152602090f35b34610269576020366003190112610269576114ed611b5f565b61150560018060a01b0360015460081c163314611ee4565b6001600160a01b0381169081156115dc57815f52600a60205260ff60405f20541661159f575f828152600a60205260409020805460ff19166001179055600b5490600160401b82101561158b57610ae38260016115659401600b55611ba7565b7f7b7ef7a864d96a85497a1ed846adb39940dd6ccef678ff6ac8d55505e09b8cc45f80a2005b634e487b7160e01b5f52604160045260245ffd5b60405162461bcd60e51b815260206004820152601560248201527415985d5b1d08185b1c9958591e48185b1b1bddd959605a1b6044820152606490fd5b60405162461bcd60e51b8152602060048201526015602482015274496e76616c6964207661756c74206164647265737360581b6044820152606490fd5b34610269575f366003190112610269576020600854604051908152f35b34610269575f366003190112610269576020610386611ec9565b3461026957602036600319011261026957600435600b5481101561026957611679602091611ba7565b905460405160039290921b1c6001600160a01b03168152f35b34610269575f3660031901126102695760206040515f5160206132a95f395f51905f528152f35b34610269575f366003190112610269576020610386611daa565b34610269575f366003190112610269576020610386611d04565b3461026957604036600319011261026957611706611b5f565b6024359061173e337f00000000000000000000000000000000000000000000000000000000000000006001600160a01b031614611bd3565b60018060a01b03811691825f52600a60205261176060ff60405f205416611c0c565b6117686125e3565b611770612601565b6009548160ff821615611abd575b50508015611a81576040516323b872dd60e01b6020820152336024820152306044820152606480820183905281527f000000000000000000000000000000000000000000000000000000000000000091906001600160a01b038316906117ef906117e9608482611c74565b82613210565b6040516338d52e0f60e01b815290602082600481895afa9182156105df575f92611a60575b50919283926001600160a01b038316811415919082611a4d575b8760025460ff8160a01c16155f146118935750505050509061186283926020945f5160206132695f395f51905f5296612b85565b600280546003929092556001600160a81b03199091168517600160a01b17905542600455604051908152a260015f55005b9397949695929492939192916001600160a01b031614611a24576002546118c2906001600160a01b0316612c4a565b80156119e85760025460049392916118e2916001600160a01b0316612c84565b6002546040516338d52e0f60e01b81529460209186919082906001600160a01b03165afa9182156105df575f5160206132695f395f51905f52996020998861195e898f99978e976119929d8c9b5f5160206132e95f395f51905f529b5f946119c9575b506001600160a01b038416036119b9575b509050611c4c565b926119a5575b50816119709293612b85565b600280546001600160a01b03191685179055604051908152a35b600354611c4c565b60035542600455604051908152a26106e4565b61197092826119b3926127d3565b91611964565b6119c2926127d3565b8084611956565b6119e19194508b3d8d116105d8576105ca8183611c74565b925f611945565b505f5160206132695f395f51905f5296506119929350611a0d91509484602096612b85565b600280546001600160a01b0319168717905561198a565b5f5160206132695f395f51905f5296506119929350611a4891509484602096612b85565b61198a565b9450611a5a8484836127d3565b9461182e565b611a7a91925060203d6020116105d8576105ca8183611c74565b9086611814565b60405162461bcd60e51b8152602060048201526014602482015273139bc8185b5bdd5b9d081d1bc819195c1bdcda5d60621b6044820152606490fd5b6008549192508115611ae557600191611ad591611c4c565b9160ff191617600955838061177e565b60405162461bcd60e51b815260206004820152601d60248201527f4e6f20696e697469616c206465706f73697420616d6f756e74207365740000006044820152606490fd5b34610269575f366003190112610269576005546006546007546001600160a01b03909216835260208301526040820152606090f35b600435906001600160a01b038216820361026957565b602435906001600160a01b038216820361026957565b34610269575f3660031901126102695760206040516101f48152f35b600b54811015611bbf57600b5f5260205f2001905f90565b634e487b7160e01b5f52603260045260245ffd5b15611bda57565b60405162461bcd60e51b815260206004820152600a60248201526927b7363c9037bbb732b960b11b6044820152606490fd5b15611c1357565b60405162461bcd60e51b815260206004820152601160248201527015985d5b1d081b9bdd08185b1b1bddd959607a1b6044820152606490fd5b9190820180921161073357565b608081019081106001600160401b0382111761158b57604052565b601f909101601f19168101906001600160401b0382119082101761158b57604052565b9081602091031261026957516001600160a01b03811681036102695790565b9190820391821161073357565b8181029291811591840414171561073357565b8115611ce0570490565b634e487b7160e01b5f52601260045260245ffd5b600160ff1b8114610733575f0390565b60ff60025460a01c16158015611d91575b611d8d57611d21611daa565b6003549081808210611d5a57611d3691611cb6565b90620f4240820291808304620f4240149015171561073357611d5791611cd6565b90565b90611d6491611cb6565b620f4240810290808204620f4240149015171561073357611d5791611d8891611cd6565b611cf4565b5f90565b5060035415611d15565b90816020910312610269575190565b6002546001600160a01b038116908115908115611eba575b50611eb557604051632f5ce34560e01b8152602081600481305afa9081156105df575f91611e83575b508015611e7d576020600492604051938480926338d52e0f60e01b82525afa9182156105df575f92611e5c575b507f00000000000000000000000000000000000000000000000000000000000000006001600160a01b0383811690821614611e5657611d5792612cce565b50905090565b611e7691925060203d6020116105d8576105ca8183611c74565b905f611e18565b50505f90565b90506020813d602011611ead575b81611e9e60209383611c74565b8101031261026957515f611deb565b3d9150611e91565b505f90565b60ff915060a01c16155f611dc2565b6002546001600160a01b03168015611eb557611d5790612c4a565b15611eeb57565b60405162461bcd60e51b815260206004820152600a60248201526927b7363c9030b236b4b760b11b6044820152606490fd5b6002546001600160a01b03168015611eb5576020611f3a82612c4a565b6024604051809481936303d1689d60e11b835260048301525afa9081156105df575f91611f65575090565b90506020813d602011611f8c575b81611f8060209383611c74565b81010312610269575190565b3d9150611f73565b6004548015611eb5576201518081018091116107335780421015611eb557611d57904290611cb6565b6002549060ff8260a01c16158015612022575b61201b57611fee611fdf611daa565b926001600160a01b0316612c4a565b8015612012576120046120099261200e94611cc3565b611cd6565b6120f9565b9091565b5050505f905f90565b5f92909150565b508015611fd0565b60ff60025460a01c16158015612067575b611d8d57612047611daa565b60035480821061205a57611d5791611cb6565b611d5791611d8891611cb6565b506003541561203b565b6001600160a01b03168015611eb5576020600491604051928380926338d52e0f60e01b82525afa9081156105df575f916120da575b507f00000000000000000000000000000000000000000000000000000000000000006001600160a01b039081169116141590565b6120f3915060203d6020116105d8576105ca8183611c74565b5f6120a6565b9060ff60025460a01c1615801561215f575b8015612153575b61214e5761212260035483611cb6565b6298968081111561214857612710612140611d579260065490611cc3565b048093611cb6565b505f9190565b5f9190565b50600354821115612112565b506003541561210b565b1561217057565b60405162461bcd60e51b8152602060048201526018602482015277496e697469616c206465706f736974206e6f74206d61646560401b6044820152606490fd5b156121b757565b60405162461bcd60e51b8152602060048201526015602482015274139bdd081d1a194818dd5c9c995b9d081d985d5b1d605a1b6044820152606490fd5b156121fb57565b60405162461bcd60e51b81526020600482015260156024820152744e6f2066756e647320746f20726562616c616e636560581b6044820152606490fd5b6001600160a01b03168015611eb5576020600491604051928380926338d52e0f60e01b82525afa9081156105df575f91612270575090565b611d57915060203d6020116105d8576105ca8183611c74565b909290916001600160a01b038084169190851682811480156123aa575b61239b57604051906379bc57d560e01b8252836004830152806024830152600160448301526020826064815f5160206132a95f395f51905f525afa9182156105df575f9261237a575b50604051936379bc57d560e01b8552600485015260248401525f60448401526020836064815f5160206132a95f395f51905f525afa9182156105df57612354935f93612359575b50612342818888612e65565b9661234e828289612fb8565b96613165565b929190565b61237391935060203d6020116105d8576105ca8183611c74565b915f612336565b61239491925060203d6020116105d8576105ca8183611c74565b905f6122ef565b5050509150506001905f905f90565b5081156122a6565b60405163f8c0ae0560e01b8152602081600481305afa9081156105df575f916123f1575b508015611eb5576123ed6127109160065490611cc3565b0490565b90506020813d60201161241b575b8161240c60209383611c74565b8101031261026957515f6123d6565b3d91506123ff565b60025461243560ff8260a01c16612169565b61244260035415156121f4565b6001600160a01b038281169291169082821461259f5761246182612c4a565b9182612481575b50505060018060a01b0319600254161760025542600455565b60049261248d91612c84565b6002546040516338d52e0f60e01b81529360209185919082906001600160a01b03165afa9283156105df575f9361257e575b506040516338d52e0f60e01b815292602084600481885afa9081156105df5785945f9261255d575b506001600160a01b0382811690821603612549575b50816125089293612b85565b6002546040519182526001600160a01b0316907f31accdbf14eddbe4e8220e420ec5151c1ef1895bee03e2ba7b9403837bda611e90602090a35f8080612468565b6125089282612557926127d3565b916124fc565b61257791925060203d6020116105d8576105ca8183611c74565b905f6124e7565b61259891935060203d6020116105d8576105ca8183611c74565b915f6124bf565b50505042600455565b60ff60025460a01c161580156125d9575b611d8d576125c5611daa565b60035480821115611e7d57611d5791611cb6565b50600354156125b9565b60025f54146125f25760025f55565b633ee5aeb560e01b5f5260045ffd5b60ff6001541661260d57565b63d93c066560e01b5f5260045ffd5b90816020910312610269575180151581036102695790565b6001600160a01b039091168152602081019190915260400190565b6001600160401b03811161158b5760051b60200190565b604080519091906126778382611c74565b6001815291601f1901825f5b82811061268f57505050565b60209060405161269e81611c59565b5f81525f838201525f60408201525f606082015282828501015201612683565b805115611bbf5760200190565b805160011015611bbf5760400190565b602081830312610269578051906001600160401b03821161026957019080601f8301121561026957815161270e8161264f565b9261271c6040519485611c74565b81845260208085019260051b82010192831161026957602001905b8282106127445750505090565b8151815260209182019101612737565b90602080835192838152019201905f5b8181106127715750505090565b825180516001600160a01b0390811686526020828101518216818801526040808401511515908801526060928301519091169186019190915260809094019390920191600101612764565b604090611d57939281528160208201520190612754565b9192916001600160a01b038281169290821691828414612b53578515612b20576040516379bc57d560e01b8152836004820152846024820152600160448201526020816064815f5160206132a95f395f51905f525afa9081156105df575f91612b01575b50604051916379bc57d560e01b83528460048401528560248401525f60448401526020836064815f5160206132a95f395f51905f525afa9283156105df575f93612ae0575b506001600160a01b03821615801590612ace575b15612a98576128a0938891613165565b60405163095ea7b360e01b815273cf77a3ba9a5ca399b7c97c74d54e5b1beb874e436004820152602481018690526020816044815f875af180156105df57612a6b575b506128ec612666565b90604051906128fa82611c59565b838252846020830152151560408201525f5160206132a95f395f51905f526060820152612926826126be565b52612930816126be565b50604051631542686b60e21b81525f818061294f858a600484016127bc565b038173cf77a3ba9a5ca399b7c97c74d54e5b1beb874e435afa80156105df5761297f915f91612a49575b506126cb565b5161251c81029080820461251c14901517156107335761012c4201804211610733575f91612710916129d9604051958694859463cac88ea960e01b86528c600487015204602485015260a0604485015260a4840190612754565b90306064840152608483015203818373cf77a3ba9a5ca399b7c97c74d54e5b1beb874e435af180156105df57612a396040917f4ac5df40d910feab74f02c4430568f99e711257906dd0df11643df22f2ee3cf6935f91612a4957506126cb565b51958151908152866020820152a3565b612a6591503d805f833e612a5d8183611c74565b8101906126db565b5f612979565b612a8c9060203d602011612a91575b612a848183611c74565b81019061261c565b6128e3565b503d612a7a565b60405162461bcd60e51b815260206004820152600e60248201526d139bc81c1bdbdb1cc8195e1a5cdd60921b6044820152606490fd5b506001600160a01b0383161515612890565b612afa91935060203d6020116105d8576105ca8183611c74565b915f61287c565b612b1a915060203d6020116105d8576105ca8183611c74565b5f612837565b60405162461bcd60e51b815260206004820152600b60248201526a16995c9bc8185b5bdd5b9d60aa1b6044820152606490fd5b60405162461bcd60e51b815260206004820152600a60248201526929b0b6b2903a37b5b2b760b11b6044820152606490fd5b60405163095ea7b360e01b815291926020908390815f81612baa898860048401612634565b03926001600160a01b03165af180156105df575f93602093604492612c2f575b50604051636e553f6560e01b815260048101919091523060248201529384928391906001600160a01b03165af180156105df57612c045750565b612c259060203d602011612c28575b612c1d8183611c74565b810190611d9b565b50565b503d612c13565b612c4590853d8711612a9157612a848183611c74565b612bca565b6040516370a0823160e01b815230600482015290602090829060249082906001600160a01b03165afa9081156105df575f91611f65575090565b604051635d043b2960e11b8152600481019290925230602483018190526044830152602090829060649082905f906001600160a01b03165af19081156105df575f91611f65575090565b6001600160a01b038082169391929081168481148015612e05575b612dfd57604051906379bc57d560e01b8252856004830152806024830152600160448301526020826064815f5160206132a95f395f51905f525afa9182156105df575f92612ddc575b50604051956379bc57d560e01b8752600487015260248601525f60448601526020856064815f5160206132a95f395f51905f525afa9485156105df575f95612dbb575b506001600160a01b0381161580612daa575b612da157611d5794612d9b91848487613165565b92613089565b50505050505f90565b506001600160a01b03851615612d87565b612dd591955060203d6020116105d8576105ca8183611c74565b935f612d75565b612df691925060203d6020116105d8576105ca8183611c74565b905f612d32565b505091505090565b508215612ce9565b60ff6001541615612e1a57565b638dfc202b60e01b5f5260045ffd5b612e5e612e639392612e5060405194859263a9059cbb60e01b602085015260248401612634565b03601f198101845283611c74565b613210565b565b6040516379bc57d560e01b81526001600160a01b03808316600483015283166024820152600160448201529091906020816064815f5160206132a95f395f51905f525afa9081156105df575f91612f99575b506001600160a01b031615612f9257612f3e925f92612ed4612666565b9260405191612ee283611c59565b6001600160a01b039081168352166020820152600160408201525f5160206132a95f395f51905f526060820152612f18836126be565b52612f22826126be565b50604051631542686b60e21b81529384928392600484016127bc565b038173cf77a3ba9a5ca399b7c97c74d54e5b1beb874e435afa5f9181612f76575b50612f6957505f90565b612f72906126cb565b5190565b612f8b9192503d805f833e612a5d8183611c74565b905f612f5f565b5050505f90565b612fb2915060203d6020116105d8576105ca8183611c74565b5f612eb7565b6040516379bc57d560e01b81526001600160a01b038083166004830152831660248201525f60448201529091906020816064815f5160206132a95f395f51905f525afa9081156105df575f9161306a575b506001600160a01b031615612f9257612f3e925f92613026612666565b926040519161303483611c59565b6001600160a01b039081168352166020820152604081018490525f5160206132a95f395f51905f526060820152612f18836126be565b613083915060203d6020116105d8576105ca8183611c74565b5f613009565b6040516379bc57d560e01b81526001600160a01b038281166004830152831660248201528415156044820152909392906020816064815f5160206132a95f395f51905f525afa9081156105df575f91613146575b506001600160a01b03161561313e57612f3e935f936130fa612666565b936040519261310884611c59565b6001600160a01b039081168452166020830152151560408201525f5160206132a95f395f51905f526060820152612f18836126be565b505050505f90565b61315f915060203d6020116105d8576105ca8183611c74565b5f6130dd565b6001600160a01b03909316159384806131fe575b612da1576001600160a01b0316159283806131f6575b6131ec575f935f95156131d9575b156131c5575b5050506103e98102908082046103e91490151715610733576103e89004101590565b6131d0939450612fb8565b905f80806131a3565b93506131e6838383612e65565b9361319d565b5050505050600190565b50841561318f565b506001600160a01b0381161515613179565b905f602091828151910182855af1156105df575f513d61325f57506001600160a01b0381163b155b61323f5750565b635274afe760e01b5f9081526001600160a01b0391909116600452602490fd5b6001141561323856fe1aa88527987680f71e6ace8f3d2ab4871db1862850458125715e5175f088c609108516ddcf5ba43cea6bb2cd5ff6d59ac196c1c86ccb9178332b9dd72d1ca561000000000000000000000000420dd381b31aef6683db6b902084cb0ffece40da2717ead6b9200dd235aad468c9809ea400fe33ac69b5bfaa6d3e90fc922b63984ce94e8bd94f62017197ba464f629a366572732970f6fe47c76f97bb53f76303a26469706673582212208900498105a7a79c3232562d6577502b20ab557dc1c7e399acabf8398e16a95d64736f6c634300081e0033","opcodes":"PUSH1 0xC0 PUSH1 0x40 MSTORE CALLVALUE PUSH2 0x4B2 JUMPI PUSH2 0x3842 DUP1 CODESIZE SUB DUP1 PUSH2 0x19 DUP2 PUSH2 0x4B6 JUMP JUMPDEST SWAP3 DUP4 CODECOPY DUP2 ADD SWAP1 PUSH1 0xE0 DUP2 DUP4 SUB SLT PUSH2 0x4B2 JUMPI PUSH2 0x32 DUP2 PUSH2 0x4DB JUMP JUMPDEST SWAP1 PUSH2 0x3F PUSH1 0x20 DUP3 ADD PUSH2 0x4DB JUMP JUMPDEST SWAP2 PUSH2 0x4C PUSH1 0x40 DUP4 ADD PUSH2 0x4DB JUMP JUMPDEST PUSH1 0x60 DUP4 ADD MLOAD PUSH1 0x1 PUSH1 0x1 PUSH1 0x40 SHL SUB DUP2 GT PUSH2 0x4B2 JUMPI DUP4 ADD SWAP5 DUP1 PUSH1 0x1F DUP8 ADD SLT ISZERO PUSH2 0x4B2 JUMPI DUP6 MLOAD SWAP6 PUSH1 0x1 PUSH1 0x1 PUSH1 0x40 SHL SUB DUP8 GT PUSH2 0x245 JUMPI DUP7 PUSH1 0x5 SHL SWAP1 PUSH1 0x20 DUP1 PUSH2 0x91 DUP2 DUP6 ADD PUSH2 0x4B6 JUMP JUMPDEST DUP1 SWAP11 DUP2 MSTORE ADD SWAP3 DUP3 ADD ADD SWAP3 DUP4 GT PUSH2 0x4B2 JUMPI PUSH1 0x20 ADD SWAP1 JUMPDEST DUP3 DUP3 LT PUSH2 0x49A JUMPI POP POP POP PUSH2 0xBC PUSH1 0x80 DUP5 ADD PUSH2 0x4DB JUMP JUMPDEST PUSH1 0xA0 DUP5 ADD MLOAD PUSH1 0xC0 SWAP1 SWAP5 ADD MLOAD PUSH1 0x1 PUSH0 SSTORE SWAP5 SWAP1 PUSH1 0x1 PUSH1 0x1 PUSH1 0xA0 SHL SUB DUP5 AND ISZERO PUSH2 0x465 JUMPI PUSH1 0x1 PUSH1 0x1 PUSH1 0xA0 SHL SUB DUP3 AND ISZERO PUSH2 0x430 JUMPI PUSH1 0x1 PUSH1 0x1 PUSH1 0xA0 SHL SUB DUP4 AND ISZERO PUSH2 0x3FB JUMPI DUP7 MLOAD ISZERO PUSH2 0x3C2 JUMPI PUSH1 0x1 PUSH1 0x1 PUSH1 0xA0 SHL SUB AND SWAP3 DUP4 ISZERO PUSH2 0x37D JUMPI PUSH2 0x3E8 DUP6 GT PUSH2 0x349 JUMPI DUP6 ISZERO PUSH2 0x305 JUMPI PUSH1 0x80 MSTORE PUSH1 0x1 DUP1 SLOAD PUSH2 0x100 PUSH1 0x1 PUSH1 0xA8 SHL SUB NOT AND PUSH1 0x8 SWAP3 DUP4 SHL PUSH2 0x100 PUSH1 0x1 PUSH1 0xA8 SHL SUB AND OR SWAP1 SSTORE PUSH1 0xA0 SWAP2 SWAP1 SWAP2 MSTORE PUSH1 0x5 DUP1 SLOAD PUSH1 0x1 PUSH1 0x1 PUSH1 0xA0 SHL SUB NOT AND SWAP3 SWAP1 SWAP3 OR SWAP1 SWAP2 SSTORE PUSH1 0x6 SWAP2 SWAP1 SWAP2 SSTORE SSTORE PUSH0 JUMPDEST DUP2 MLOAD DUP2 LT ISZERO PUSH2 0x29E JUMPI PUSH1 0x1 PUSH1 0x1 PUSH1 0xA0 SHL SUB PUSH2 0x183 DUP3 DUP5 PUSH2 0x4EF JUMP JUMPDEST MLOAD AND ISZERO PUSH2 0x259 JUMPI PUSH1 0x1 PUSH1 0x1 PUSH1 0xA0 SHL SUB PUSH2 0x19C DUP3 DUP5 PUSH2 0x4EF JUMP JUMPDEST MLOAD AND PUSH0 SWAP1 DUP2 MSTORE PUSH1 0xA PUSH1 0x20 MSTORE PUSH1 0x40 SWAP1 KECCAK256 DUP1 SLOAD PUSH1 0xFF NOT AND PUSH1 0x1 OR SWAP1 SSTORE PUSH1 0x1 PUSH1 0x1 PUSH1 0xA0 SHL SUB PUSH2 0x1C8 DUP3 DUP5 PUSH2 0x4EF JUMP JUMPDEST MLOAD AND SWAP1 PUSH1 0xB SLOAD SWAP2 PUSH9 0x10000000000000000 DUP4 LT ISZERO PUSH2 0x245 JUMPI PUSH1 0x1 DUP4 ADD DUP1 PUSH1 0xB SSTORE DUP4 LT ISZERO PUSH2 0x231 JUMPI PUSH1 0xB PUSH0 MSTORE PUSH32 0x175B7A638427703F0DBE7BB9BBF987A2551717B34E79F33B5B1008D1FA01DB9 SWAP1 SWAP3 ADD DUP1 SLOAD PUSH1 0x1 PUSH1 0x1 PUSH1 0xA0 SHL SUB NOT AND SWAP1 SWAP3 OR SWAP1 SWAP2 SSTORE PUSH1 0x1 ADD PUSH2 0x168 JUMP JUMPDEST PUSH4 0x4E487B71 PUSH1 0xE0 SHL PUSH0 MSTORE PUSH1 0x32 PUSH1 0x4 MSTORE PUSH1 0x24 PUSH0 REVERT JUMPDEST PUSH4 0x4E487B71 PUSH1 0xE0 SHL PUSH0 MSTORE PUSH1 0x41 PUSH1 0x4 MSTORE PUSH1 0x24 PUSH0 REVERT JUMPDEST PUSH1 0x40 MLOAD PUSH3 0x461BCD PUSH1 0xE5 SHL DUP2 MSTORE PUSH1 0x20 PUSH1 0x4 DUP3 ADD MSTORE PUSH1 0x15 PUSH1 0x24 DUP3 ADD MSTORE PUSH32 0x496E76616C6964207661756C7420616464726573730000000000000000000000 PUSH1 0x44 DUP3 ADD MSTORE PUSH1 0x64 SWAP1 REVERT JUMPDEST PUSH1 0x40 MLOAD PUSH2 0x333E SWAP1 DUP2 PUSH2 0x504 DUP3 CODECOPY PUSH1 0x80 MLOAD DUP2 DUP2 DUP2 PUSH2 0x3D5 ADD MSTORE DUP2 DUP2 PUSH2 0x651 ADD MSTORE DUP2 DUP2 PUSH2 0xF85 ADD MSTORE DUP2 DUP2 PUSH2 0x10CD ADD MSTORE PUSH2 0x1710 ADD MSTORE PUSH1 0xA0 MLOAD DUP2 DUP2 DUP2 PUSH2 0x4CE ADD MSTORE DUP2 DUP2 PUSH2 0xD4E ADD MSTORE DUP2 DUP2 PUSH2 0x119C ADD MSTORE DUP2 DUP2 PUSH2 0x1463 ADD MSTORE DUP2 DUP2 PUSH2 0x17AE ADD MSTORE DUP2 DUP2 PUSH2 0x1E1B ADD MSTORE PUSH2 0x20A9 ADD MSTORE RETURN JUMPDEST PUSH1 0x64 PUSH1 0x40 MLOAD PUSH3 0x461BCD PUSH1 0xE5 SHL DUP2 MSTORE PUSH1 0x20 PUSH1 0x4 DUP3 ADD MSTORE PUSH1 0x20 PUSH1 0x24 DUP3 ADD MSTORE PUSH32 0x496E697469616C206465706F736974206D75737420626520706F736974697665 PUSH1 0x44 DUP3 ADD MSTORE REVERT JUMPDEST PUSH1 0x40 MLOAD PUSH3 0x461BCD PUSH1 0xE5 SHL DUP2 MSTORE PUSH1 0x20 PUSH1 0x4 DUP3 ADD MSTORE PUSH1 0xC PUSH1 0x24 DUP3 ADD MSTORE PUSH12 0x8CCACA40E8DEDE40D0D2CED PUSH1 0xA3 SHL PUSH1 0x44 DUP3 ADD MSTORE PUSH1 0x64 SWAP1 REVERT JUMPDEST PUSH1 0x40 MLOAD PUSH3 0x461BCD PUSH1 0xE5 SHL DUP2 MSTORE PUSH1 0x20 PUSH1 0x4 DUP3 ADD MSTORE PUSH1 0x17 PUSH1 0x24 DUP3 ADD MSTORE PUSH32 0x496E76616C696420726576656E75652061646472657373000000000000000000 PUSH1 0x44 DUP3 ADD MSTORE PUSH1 0x64 SWAP1 REVERT JUMPDEST PUSH1 0x40 MLOAD PUSH3 0x461BCD PUSH1 0xE5 SHL DUP2 MSTORE PUSH1 0x20 PUSH1 0x4 DUP3 ADD MSTORE PUSH1 0x11 PUSH1 0x24 DUP3 ADD MSTORE PUSH17 0x4E6F20696E697469616C207661756C7473 PUSH1 0x78 SHL PUSH1 0x44 DUP3 ADD MSTORE PUSH1 0x64 SWAP1 REVERT JUMPDEST PUSH1 0x40 MLOAD PUSH3 0x461BCD PUSH1 0xE5 SHL DUP2 MSTORE PUSH1 0x20 PUSH1 0x4 DUP3 ADD MSTORE PUSH1 0xD PUSH1 0x24 DUP3 ADD MSTORE PUSH13 0x125B9D985B1A5908185CDCD95D PUSH1 0x9A SHL PUSH1 0x44 DUP3 ADD MSTORE PUSH1 0x64 SWAP1 REVERT JUMPDEST PUSH1 0x40 MLOAD PUSH3 0x461BCD PUSH1 0xE5 SHL DUP2 MSTORE PUSH1 0x20 PUSH1 0x4 DUP3 ADD MSTORE PUSH1 0xD PUSH1 0x24 DUP3 ADD MSTORE PUSH13 0x24B73B30B634B21030B236B4B7 PUSH1 0x99 SHL PUSH1 0x44 DUP3 ADD MSTORE PUSH1 0x64 SWAP1 REVERT JUMPDEST PUSH1 0x40 MLOAD PUSH3 0x461BCD PUSH1 0xE5 SHL DUP2 MSTORE PUSH1 0x20 PUSH1 0x4 DUP3 ADD MSTORE PUSH1 0xD PUSH1 0x24 DUP3 ADD MSTORE PUSH13 0x24B73B30B634B21037BBB732B9 PUSH1 0x99 SHL PUSH1 0x44 DUP3 ADD MSTORE PUSH1 0x64 SWAP1 REVERT JUMPDEST PUSH1 0x20 DUP1 SWAP2 PUSH2 0x4A7 DUP5 PUSH2 0x4DB JUMP JUMPDEST DUP2 MSTORE ADD SWAP2 ADD SWAP1 PUSH2 0xA6 JUMP JUMPDEST PUSH0 DUP1 REVERT JUMPDEST PUSH1 0x40 MLOAD SWAP2 SWAP1 PUSH1 0x1F ADD PUSH1 0x1F NOT AND DUP3 ADD PUSH1 0x1 PUSH1 0x1 PUSH1 0x40 SHL SUB DUP2 GT DUP4 DUP3 LT OR PUSH2 0x245 JUMPI PUSH1 0x40 MSTORE JUMP JUMPDEST MLOAD SWAP1 PUSH1 0x1 PUSH1 0x1 PUSH1 0xA0 SHL SUB DUP3 AND DUP3 SUB PUSH2 0x4B2 JUMPI JUMP JUMPDEST DUP1 MLOAD DUP3 LT ISZERO PUSH2 0x231 JUMPI PUSH1 0x20 SWAP2 PUSH1 0x5 SHL ADD ADD SWAP1 JUMP INVALID PUSH1 0x80 DUP1 PUSH1 0x40 MSTORE PUSH1 0x4 CALLDATASIZE LT ISZERO PUSH2 0x12 JUMPI PUSH0 DUP1 REVERT JUMPDEST PUSH0 CALLDATALOAD PUSH1 0xE0 SHR SWAP1 DUP2 PUSH3 0x2EAB7 EQ PUSH2 0x1B2A JUMPI POP DUP1 PUSH4 0x147CB7B EQ PUSH2 0x16ED JUMPI DUP1 PUSH4 0xB61905F EQ PUSH2 0x16D3 JUMPI DUP1 PUSH4 0xD2B32C7 EQ PUSH2 0x16B9 JUMPI DUP1 PUSH4 0x10F55679 EQ PUSH2 0x13E3 JUMPI DUP1 PUSH4 0x15CB51CE EQ PUSH2 0x1692 JUMPI DUP1 PUSH4 0x1746A22B EQ PUSH2 0x1650 JUMPI DUP1 PUSH4 0x1EC06ECC EQ PUSH2 0x1636 JUMPI DUP1 PUSH4 0x21EDD097 EQ PUSH2 0x1619 JUMPI DUP1 PUSH4 0x256B5A02 EQ PUSH2 0x14D4 JUMPI DUP1 PUSH4 0x2B0C6C45 EQ PUSH2 0x14AC JUMPI DUP1 PUSH4 0x2F5CE345 EQ PUSH2 0x1492 JUMPI DUP1 PUSH4 0x38D52E0F EQ PUSH2 0x144E JUMPI DUP1 PUSH4 0x3F4BA83A EQ PUSH2 0x13E8 JUMPI DUP1 PUSH4 0x4C203786 EQ PUSH2 0x13E3 JUMPI DUP1 PUSH4 0x558E44D3 EQ PUSH2 0x13C7 JUMPI DUP1 PUSH4 0x5A46D32F EQ PUSH2 0x13AD JUMPI DUP1 PUSH4 0x5C975ABB EQ PUSH2 0x138B JUMPI DUP1 PUSH4 0x60C6D8AE EQ PUSH2 0x136E JUMPI DUP1 PUSH4 0x66AEB1C1 EQ PUSH2 0x1350 JUMPI DUP1 PUSH4 0x679DFFB4 EQ PUSH2 0x1336 JUMPI DUP1 PUSH4 0x6CAD3FB0 EQ PUSH2 0x1294 JUMPI DUP1 PUSH4 0x6DB4B69D EQ PUSH2 0x126F JUMPI DUP1 PUSH4 0x6FF1C9BC EQ PUSH2 0x10B2 JUMPI DUP1 PUSH4 0x72A7D477 EQ PUSH2 0x1085 JUMPI DUP1 PUSH4 0x7F68237A EQ PUSH2 0x105B JUMPI DUP1 PUSH4 0x8456CB59 EQ PUSH2 0xFF3 JUMPI DUP1 PUSH4 0x8BBED958 EQ PUSH2 0xFD1 JUMPI DUP1 PUSH4 0x8C8D944F EQ PUSH2 0xFB4 JUMPI DUP1 PUSH4 0x8DA5CB5B EQ PUSH2 0xF70 JUMPI DUP1 PUSH4 0xA001ECDD EQ PUSH2 0xF53 JUMPI DUP1 PUSH4 0xA3C1EB8B EQ PUSH2 0xC4E JUMPI DUP1 PUSH4 0xB410908D EQ PUSH2 0xC26 JUMPI DUP1 PUSH4 0xB723BCC3 EQ PUSH2 0xC09 JUMPI DUP1 PUSH4 0xBD28F351 EQ PUSH2 0xBEC JUMPI DUP1 PUSH4 0xCA9D67C8 EQ PUSH2 0xBB7 JUMPI DUP1 PUSH4 0xCEB68C23 EQ PUSH2 0x9FE JUMPI DUP1 PUSH4 0xD0E56347 EQ PUSH2 0x9BA JUMPI DUP1 PUSH4 0xD81B464B EQ PUSH2 0x9A0 JUMPI DUP1 PUSH4 0xDB37BAB4 EQ PUSH2 0x972 JUMPI DUP1 PUSH4 0xE2F273BD EQ PUSH2 0x8A7 JUMPI DUP1 PUSH4 0xE44FEF95 EQ PUSH2 0x7FC JUMPI DUP1 PUSH4 0xE78A5875 EQ PUSH2 0x7B9 JUMPI DUP1 PUSH4 0xEDCF6316 EQ PUSH2 0x79C JUMPI DUP1 PUSH4 0xF340FA01 EQ PUSH2 0x635 JUMPI DUP1 PUSH4 0xF3FEF3A3 EQ PUSH2 0x3BA JUMPI DUP1 PUSH4 0xF851A440 EQ PUSH2 0x38E JUMPI DUP1 PUSH4 0xF8C0AE05 EQ PUSH2 0x36C JUMPI DUP1 PUSH4 0xFD812094 EQ PUSH2 0x32F JUMPI DUP1 PUSH4 0xFDD28859 EQ PUSH2 0x26D JUMPI PUSH4 0xFF50ABDC EQ PUSH2 0x24C JUMPI PUSH0 DUP1 REVERT JUMPDEST CALLVALUE PUSH2 0x269 JUMPI PUSH0 CALLDATASIZE PUSH1 0x3 NOT ADD SLT PUSH2 0x269 JUMPI PUSH1 0x20 PUSH1 0x3 SLOAD PUSH1 0x40 MLOAD SWAP1 DUP2 MSTORE RETURN JUMPDEST PUSH0 DUP1 REVERT JUMPDEST CALLVALUE PUSH2 0x269 JUMPI PUSH1 0x20 CALLDATASIZE PUSH1 0x3 NOT ADD SLT PUSH2 0x269 JUMPI PUSH2 0x286 PUSH2 0x1B5F JUMP JUMPDEST PUSH2 0x29E PUSH1 0x1 DUP1 PUSH1 0xA0 SHL SUB PUSH1 0x1 SLOAD PUSH1 0x8 SHR AND CALLER EQ PUSH2 0x1EE4 JUMP JUMPDEST PUSH1 0x1 PUSH1 0x1 PUSH1 0xA0 SHL SUB AND DUP1 ISZERO PUSH2 0x2F0 JUMPI PUSH1 0x5 DUP1 SLOAD PUSH1 0x1 PUSH1 0x1 PUSH1 0xA0 SHL SUB NOT DUP2 AND DUP4 OR SWAP1 SWAP2 SSTORE PUSH1 0x1 PUSH1 0x1 PUSH1 0xA0 SHL SUB AND PUSH32 0x9C18EC49F4AA2C93AB2DB0F2F75DA25811971A22646A4DA0409E945BD48E8AF7 PUSH0 DUP1 LOG3 STOP JUMPDEST PUSH1 0x40 MLOAD PUSH3 0x461BCD PUSH1 0xE5 SHL DUP2 MSTORE PUSH1 0x20 PUSH1 0x4 DUP3 ADD MSTORE PUSH1 0x17 PUSH1 0x24 DUP3 ADD MSTORE PUSH23 0x496E76616C696420726576656E75652061646472657373 PUSH1 0x48 SHL PUSH1 0x44 DUP3 ADD MSTORE PUSH1 0x64 SWAP1 REVERT JUMPDEST CALLVALUE PUSH2 0x269 JUMPI PUSH1 0x20 CALLDATASIZE PUSH1 0x3 NOT ADD SLT PUSH2 0x269 JUMPI PUSH1 0x1 PUSH1 0x1 PUSH1 0xA0 SHL SUB PUSH2 0x350 PUSH2 0x1B5F JUMP JUMPDEST AND PUSH0 MSTORE PUSH1 0xA PUSH1 0x20 MSTORE PUSH1 0x20 PUSH1 0xFF PUSH1 0x40 PUSH0 KECCAK256 SLOAD AND PUSH1 0x40 MLOAD SWAP1 ISZERO ISZERO DUP2 MSTORE RETURN JUMPDEST CALLVALUE PUSH2 0x269 JUMPI PUSH0 CALLDATASIZE PUSH1 0x3 NOT ADD SLT PUSH2 0x269 JUMPI PUSH1 0x20 PUSH2 0x386 PUSH2 0x25A8 JUMP JUMPDEST PUSH1 0x40 MLOAD SWAP1 DUP2 MSTORE RETURN JUMPDEST CALLVALUE PUSH2 0x269 JUMPI PUSH0 CALLDATASIZE PUSH1 0x3 NOT ADD SLT PUSH2 0x269 JUMPI PUSH1 0x1 SLOAD PUSH1 0x40 MLOAD PUSH1 0x8 SWAP2 SWAP1 SWAP2 SHR PUSH1 0x1 PUSH1 0x1 PUSH1 0xA0 SHL SUB AND DUP2 MSTORE PUSH1 0x20 SWAP1 RETURN JUMPDEST CALLVALUE PUSH2 0x269 JUMPI PUSH1 0x40 CALLDATASIZE PUSH1 0x3 NOT ADD SLT PUSH2 0x269 JUMPI PUSH2 0x3D3 PUSH2 0x1B5F JUMP JUMPDEST PUSH32 0x0 PUSH1 0x1 PUSH1 0x1 PUSH1 0xA0 SHL SUB DUP2 AND SWAP2 PUSH1 0x24 CALLDATALOAD SWAP2 SWAP1 PUSH2 0x40F CALLER DUP6 EQ PUSH2 0x1BD3 JUMP JUMPDEST PUSH1 0x1 DUP1 PUSH1 0xA0 SHL SUB DUP2 AND SWAP3 DUP4 PUSH0 MSTORE PUSH1 0xA PUSH1 0x20 MSTORE PUSH2 0x431 PUSH1 0xFF PUSH1 0x40 PUSH0 KECCAK256 SLOAD AND PUSH2 0x1C0C JUMP JUMPDEST PUSH2 0x439 PUSH2 0x25E3 JUMP JUMPDEST PUSH2 0x441 PUSH2 0x2601 JUMP JUMPDEST PUSH2 0x466 PUSH1 0x2 SLOAD PUSH2 0x456 PUSH1 0xFF DUP3 PUSH1 0xA0 SHR AND PUSH2 0x2169 JUMP JUMPDEST PUSH1 0x1 PUSH1 0x1 PUSH1 0xA0 SHL SUB AND DUP6 EQ PUSH2 0x21B0 JUMP JUMPDEST PUSH2 0x46F DUP3 PUSH2 0x2C4A JUMP JUMPDEST SWAP2 DUP3 ISZERO PUSH2 0x5FC JUMPI PUSH2 0x492 SWAP3 DUP3 ISZERO DUP2 DUP5 DUP3 ISZERO PUSH2 0x5F2 JUMPI JUMPDEST POP POP PUSH2 0x5EA JUMPI JUMPDEST POP PUSH2 0x2C84 JUMP JUMPDEST SWAP1 PUSH1 0x40 MLOAD PUSH4 0x38D52E0F PUSH1 0xE0 SHL DUP2 MSTORE PUSH1 0x20 DUP2 PUSH1 0x4 DUP2 DUP8 GAS STATICCALL SWAP2 DUP3 ISZERO PUSH2 0x5DF JUMPI PUSH0 MLOAD PUSH1 0x20 PUSH2 0x32C9 PUSH0 CODECOPY PUSH0 MLOAD SWAP1 PUSH0 MSTORE SWAP4 PUSH1 0x20 SWAP4 DUP7 SWAP4 PUSH0 SWAP2 PUSH2 0x5B2 JUMPI JUMPDEST POP PUSH32 0x0 PUSH1 0x1 PUSH1 0x1 PUSH1 0xA0 SHL SUB DUP2 DUP2 AND SWAP3 SWAP1 DUP2 AND DUP4 SWAP1 SUB PUSH2 0x59D JUMPI JUMPDEST POP POP DUP2 SWAP3 PUSH2 0x514 PUSH2 0x525 SWAP4 PUSH2 0x20F9 JUMP JUMPDEST SWAP6 DUP2 DUP8 SWAP5 SWAP3 PUSH2 0x552 JUMPI JUMPDEST POP POP PUSH2 0x2E29 JUMP JUMPDEST PUSH1 0x3 SLOAD SWAP1 DUP1 DUP3 GT ISZERO PUSH2 0x54A JUMPI PUSH2 0x53A SWAP2 PUSH2 0x1CB6 JUMP JUMPDEST PUSH1 0x3 SSTORE PUSH1 0x40 MLOAD SWAP1 DUP2 MSTORE LOG3 PUSH1 0x1 PUSH0 SSTORE STOP JUMPDEST POP POP PUSH0 PUSH2 0x53A JUMP JUMPDEST PUSH1 0x5 SLOAD PUSH0 MLOAD PUSH1 0x20 PUSH2 0x3289 PUSH0 CODECOPY PUSH0 MLOAD SWAP1 PUSH0 MSTORE SWAP2 PUSH1 0x40 SWAP2 PUSH2 0x57C SWAP1 DUP3 SWAP1 PUSH1 0x1 PUSH1 0x1 PUSH1 0xA0 SHL SUB AND DUP8 PUSH2 0x2E29 JUMP JUMPDEST PUSH2 0x588 DUP2 PUSH1 0x7 SLOAD PUSH2 0x1C4C JUMP JUMPDEST PUSH1 0x7 SSTORE DUP2 MLOAD SWAP1 DUP2 MSTORE DUP7 DUP12 DUP3 ADD MSTORE LOG2 DUP9 DUP12 PUSH2 0x51E JUMP JUMPDEST SWAP3 PUSH2 0x5AB SWAP2 PUSH2 0x525 SWAP5 PUSH2 0x27D3 JUMP JUMPDEST SWAP2 DUP10 PUSH2 0x504 JUMP JUMPDEST PUSH2 0x5D2 SWAP2 POP DUP6 RETURNDATASIZE DUP8 GT PUSH2 0x5D8 JUMPI JUMPDEST PUSH2 0x5CA DUP2 DUP4 PUSH2 0x1C74 JUMP JUMPDEST DUP2 ADD SWAP1 PUSH2 0x1C97 JUMP JUMPDEST DUP9 PUSH2 0x4CB JUMP JUMPDEST POP RETURNDATASIZE PUSH2 0x5C0 JUMP JUMPDEST PUSH1 0x40 MLOAD RETURNDATASIZE PUSH0 DUP3 RETURNDATACOPY RETURNDATASIZE SWAP1 REVERT JUMPDEST SWAP2 POP DUP7 PUSH2 0x48C JUMP JUMPDEST GT SWAP1 POP DUP2 DUP10 PUSH2 0x485 JUMP JUMPDEST PUSH1 0x40 MLOAD PUSH3 0x461BCD PUSH1 0xE5 SHL DUP2 MSTORE PUSH1 0x20 PUSH1 0x4 DUP3 ADD MSTORE PUSH1 0x11 PUSH1 0x24 DUP3 ADD MSTORE PUSH17 0x139BC8199D5B991CC81A5B881D985D5B1D PUSH1 0x7A SHL PUSH1 0x44 DUP3 ADD MSTORE PUSH1 0x64 SWAP1 REVERT JUMPDEST CALLVALUE PUSH2 0x269 JUMPI PUSH1 0x20 CALLDATASIZE PUSH1 0x3 NOT ADD SLT PUSH2 0x269 JUMPI PUSH2 0x64E PUSH2 0x1B5F JUMP JUMPDEST CALLER PUSH32 0x0 PUSH1 0x1 PUSH1 0x1 PUSH1 0xA0 SHL SUB AND EQ DUP1 ISZERO PUSH2 0x782 JUMPI JUMPDEST ISZERO PUSH2 0x747 JUMPI PUSH1 0x1 PUSH1 0x1 PUSH1 0xA0 SHL SUB DUP2 AND PUSH0 SWAP1 DUP2 MSTORE PUSH1 0xA PUSH1 0x20 MSTORE PUSH1 0x40 SWAP1 KECCAK256 SLOAD PUSH2 0x6AA SWAP1 PUSH1 0xFF AND PUSH2 0x1C0C JUMP JUMPDEST PUSH1 0x4 SLOAD PUSH3 0x15180 DUP2 ADD DUP1 DUP3 GT PUSH2 0x733 JUMPI TIMESTAMP LT SWAP1 DUP2 ISZERO SWAP2 PUSH2 0x72A JUMPI JUMPDEST POP ISZERO PUSH2 0x6EA JUMPI PUSH2 0x6E4 SWAP1 PUSH2 0x6D7 PUSH2 0x25E3 JUMP JUMPDEST PUSH2 0x6DF PUSH2 0x2601 JUMP JUMPDEST PUSH2 0x2423 JUMP JUMPDEST PUSH1 0x1 PUSH0 SSTORE STOP JUMPDEST PUSH1 0x40 MLOAD PUSH3 0x461BCD PUSH1 0xE5 SHL DUP2 MSTORE PUSH1 0x20 PUSH1 0x4 DUP3 ADD MSTORE PUSH1 0x18 PUSH1 0x24 DUP3 ADD MSTORE PUSH24 0x11195C1BDCDA5D081A5B9D195C9D985B081B9BDD081B595D PUSH1 0x42 SHL PUSH1 0x44 DUP3 ADD MSTORE PUSH1 0x64 SWAP1 REVERT JUMPDEST SWAP1 POP ISZERO DUP3 PUSH2 0x6C5 JUMP JUMPDEST PUSH4 0x4E487B71 PUSH1 0xE0 SHL PUSH0 MSTORE PUSH1 0x11 PUSH1 0x4 MSTORE PUSH1 0x24 PUSH0 REVERT JUMPDEST PUSH1 0x40 MLOAD PUSH3 0x461BCD PUSH1 0xE5 SHL DUP2 MSTORE PUSH1 0x20 PUSH1 0x4 DUP3 ADD MSTORE PUSH1 0x13 PUSH1 0x24 DUP3 ADD MSTORE PUSH19 0x27B7363C9037BBB732B91037B91030B236B4B7 PUSH1 0x69 SHL PUSH1 0x44 DUP3 ADD MSTORE PUSH1 0x64 SWAP1 REVERT JUMPDEST POP PUSH1 0x1 SLOAD CALLER PUSH1 0x8 SWAP2 SWAP1 SWAP2 SHR PUSH1 0x1 PUSH1 0x1 PUSH1 0xA0 SHL SUB AND EQ PUSH2 0x681 JUMP JUMPDEST CALLVALUE PUSH2 0x269 JUMPI PUSH0 CALLDATASIZE PUSH1 0x3 NOT ADD SLT PUSH2 0x269 JUMPI PUSH1 0x20 PUSH1 0x40 MLOAD PUSH3 0x989680 DUP2 MSTORE RETURN JUMPDEST CALLVALUE PUSH2 0x269 JUMPI PUSH0 CALLDATASIZE PUSH1 0x3 NOT ADD SLT PUSH2 0x269 JUMPI PUSH1 0x4 SLOAD PUSH3 0x15180 DUP2 ADD SWAP1 DUP2 DUP2 GT PUSH2 0x733 JUMPI PUSH1 0x20 SWAP2 TIMESTAMP LT SWAP1 DUP2 ISZERO SWAP2 PUSH2 0x7F3 JUMPI JUMPDEST POP PUSH1 0x40 MLOAD SWAP1 ISZERO ISZERO DUP2 MSTORE RETURN JUMPDEST SWAP1 POP ISZERO DUP3 PUSH2 0x7E8 JUMP JUMPDEST CALLVALUE PUSH2 0x269 JUMPI PUSH0 CALLDATASIZE PUSH1 0x3 NOT ADD SLT PUSH2 0x269 JUMPI PUSH1 0x40 MLOAD DUP1 PUSH1 0x20 PUSH1 0xB SLOAD SWAP3 DUP4 DUP2 MSTORE ADD DUP1 SWAP3 PUSH1 0xB PUSH0 MSTORE PUSH1 0x20 PUSH0 KECCAK256 SWAP1 PUSH0 JUMPDEST DUP2 DUP2 LT PUSH2 0x888 JUMPI POP POP POP DUP2 PUSH2 0x83D SWAP2 SUB DUP3 PUSH2 0x1C74 JUMP JUMPDEST PUSH1 0x40 MLOAD SWAP2 DUP3 SWAP2 PUSH1 0x20 DUP4 ADD SWAP1 PUSH1 0x20 DUP5 MSTORE MLOAD DUP1 SWAP2 MSTORE PUSH1 0x40 DUP4 ADD SWAP2 SWAP1 PUSH0 JUMPDEST DUP2 DUP2 LT PUSH2 0x866 JUMPI POP POP POP SUB SWAP1 RETURN JUMPDEST DUP3 MLOAD PUSH1 0x1 PUSH1 0x1 PUSH1 0xA0 SHL SUB AND DUP5 MSTORE DUP6 SWAP5 POP PUSH1 0x20 SWAP4 DUP5 ADD SWAP4 SWAP1 SWAP3 ADD SWAP2 PUSH1 0x1 ADD PUSH2 0x858 JUMP JUMPDEST DUP3 SLOAD PUSH1 0x1 PUSH1 0x1 PUSH1 0xA0 SHL SUB AND DUP5 MSTORE PUSH1 0x20 SWAP1 SWAP4 ADD SWAP3 PUSH1 0x1 SWAP3 DUP4 ADD SWAP3 ADD PUSH2 0x827 JUMP JUMPDEST CALLVALUE PUSH2 0x269 JUMPI PUSH1 0x20 CALLDATASIZE PUSH1 0x3 NOT ADD SLT PUSH2 0x269 JUMPI PUSH2 0x8C0 PUSH2 0x1B5F JUMP JUMPDEST PUSH1 0x1 SLOAD PUSH1 0x8 DUP2 SWAP1 SHR PUSH1 0x1 PUSH1 0x1 PUSH1 0xA0 SHL SUB AND SWAP1 PUSH2 0x8DD CALLER DUP4 EQ PUSH2 0x1EE4 JUMP JUMPDEST PUSH1 0x1 PUSH1 0x1 PUSH1 0xA0 SHL SUB DUP4 AND SWAP3 DUP4 ISZERO PUSH2 0x935 JUMPI PUSH2 0x100 PUSH1 0x1 PUSH1 0xA8 SHL SUB NOT SWAP1 SWAP2 AND PUSH1 0x8 SWAP2 SWAP1 SWAP2 SHL PUSH2 0x100 PUSH1 0x1 PUSH1 0xA8 SHL SUB AND OR PUSH1 0x1 SSTORE PUSH32 0x101B8081FF3B56BBF45DEB824D86A3B0FD38B7E3DD42421105CF8ABE9106DB0B PUSH0 DUP1 LOG3 STOP JUMPDEST PUSH1 0x40 MLOAD PUSH3 0x461BCD PUSH1 0xE5 SHL DUP2 MSTORE PUSH1 0x20 PUSH1 0x4 DUP3 ADD MSTORE PUSH1 0x15 PUSH1 0x24 DUP3 ADD MSTORE PUSH21 0x496E76616C69642061646D696E2061646472657373 PUSH1 0x58 SHL PUSH1 0x44 DUP3 ADD MSTORE PUSH1 0x64 SWAP1 REVERT JUMPDEST CALLVALUE PUSH2 0x269 JUMPI PUSH0 CALLDATASIZE PUSH1 0x3 NOT ADD SLT PUSH2 0x269 JUMPI PUSH1 0x20 PUSH1 0x40 MLOAD PUSH20 0xCF77A3BA9A5CA399B7C97C74D54E5B1BEB874E43 DUP2 MSTORE RETURN JUMPDEST CALLVALUE PUSH2 0x269 JUMPI PUSH0 CALLDATASIZE PUSH1 0x3 NOT ADD SLT PUSH2 0x269 JUMPI PUSH1 0x20 PUSH2 0x386 PUSH2 0x23B2 JUMP JUMPDEST CALLVALUE PUSH2 0x269 JUMPI PUSH1 0x60 CALLDATASIZE PUSH1 0x3 NOT ADD SLT PUSH2 0x269 JUMPI PUSH1 0x60 PUSH2 0x9E9 PUSH2 0x9D8 PUSH2 0x1B5F JUMP JUMPDEST PUSH2 0x9E0 PUSH2 0x1B75 JUMP JUMPDEST PUSH1 0x44 CALLDATALOAD SWAP2 PUSH2 0x2289 JUMP JUMPDEST SWAP1 PUSH1 0x40 MLOAD SWAP3 ISZERO ISZERO DUP4 MSTORE PUSH1 0x20 DUP4 ADD MSTORE PUSH1 0x40 DUP3 ADD MSTORE RETURN JUMPDEST CALLVALUE PUSH2 0x269 JUMPI PUSH1 0x20 CALLDATASIZE PUSH1 0x3 NOT ADD SLT PUSH2 0x269 JUMPI PUSH2 0xA17 PUSH2 0x1B5F JUMP JUMPDEST PUSH2 0xA2F PUSH1 0x1 DUP1 PUSH1 0xA0 SHL SUB PUSH1 0x1 SLOAD PUSH1 0x8 SHR AND CALLER EQ PUSH2 0x1EE4 JUMP JUMPDEST PUSH1 0x1 PUSH1 0x1 PUSH1 0xA0 SHL SUB AND PUSH0 DUP2 DUP2 MSTORE PUSH1 0xA PUSH1 0x20 MSTORE PUSH1 0x40 SWAP1 KECCAK256 SLOAD PUSH2 0xA52 SWAP1 PUSH1 0xFF AND PUSH2 0x1C0C JUMP JUMPDEST PUSH1 0x2 SLOAD PUSH1 0x1 PUSH1 0x1 PUSH1 0xA0 SHL SUB AND DUP2 EQ PUSH2 0xB74 JUMPI PUSH0 DUP2 DUP2 MSTORE PUSH1 0xA PUSH1 0x20 MSTORE PUSH1 0x40 DUP2 KECCAK256 DUP1 SLOAD PUSH1 0xFF NOT AND SWAP1 SSTORE JUMPDEST PUSH1 0xB SLOAD SWAP1 DUP2 DUP2 LT ISZERO PUSH2 0xB6D JUMPI DUP3 PUSH2 0xA90 DUP3 PUSH2 0x1BA7 JUMP JUMPDEST SWAP1 SLOAD PUSH1 0x3 SWAP2 SWAP1 SWAP2 SHL SHR PUSH1 0x1 PUSH1 0x1 PUSH1 0xA0 SHL SUB AND EQ PUSH2 0xAB1 JUMPI PUSH1 0x1 SWAP2 POP ADD PUSH2 0xA7A JUMP JUMPDEST PUSH0 NOT DUP3 ADD SWAP2 DUP3 GT PUSH2 0x733 JUMPI PUSH2 0xAE3 PUSH2 0xACB PUSH2 0xB07 SWAP4 PUSH2 0x1BA7 JUMP JUMPDEST SWAP1 SLOAD PUSH1 0x3 SWAP2 SWAP1 SWAP2 SHL SHR PUSH1 0x1 PUSH1 0x1 PUSH1 0xA0 SHL SUB AND SWAP2 PUSH2 0x1BA7 JUMP JUMPDEST SWAP1 DUP1 SLOAD PUSH1 0x1 PUSH1 0x1 PUSH1 0xA0 SHL SUB PUSH1 0x3 SWAP4 SWAP1 SWAP4 SHL DUP4 DUP2 SHL NOT SWAP1 SWAP2 AND SWAP3 SWAP1 SWAP4 AND SWAP1 SWAP3 SHL OR SWAP1 SSTORE JUMP JUMPDEST PUSH1 0xB SLOAD DUP1 ISZERO PUSH2 0xB59 JUMPI PUSH0 NOT ADD PUSH2 0xB1C DUP2 PUSH2 0x1BA7 JUMP JUMPDEST DUP2 SLOAD SWAP1 PUSH1 0x1 DUP1 PUSH1 0xA0 SHL SUB SWAP1 PUSH1 0x3 SHL SHL NOT AND SWAP1 SSTORE PUSH1 0xB SSTORE JUMPDEST PUSH32 0xE71F3A50E5AD81964F352C411F1D45E35438ECD1ACECEF59AC81D9FBBF6CBC0A PUSH0 DUP1 LOG2 STOP JUMPDEST PUSH4 0x4E487B71 PUSH1 0xE0 SHL PUSH0 MSTORE PUSH1 0x31 PUSH1 0x4 MSTORE PUSH1 0x24 PUSH0 REVERT JUMPDEST POP POP PUSH2 0xB33 JUMP JUMPDEST PUSH1 0x40 MLOAD PUSH3 0x461BCD PUSH1 0xE5 SHL DUP2 MSTORE PUSH1 0x20 PUSH1 0x4 DUP3 ADD MSTORE PUSH1 0x1B PUSH1 0x24 DUP3 ADD MSTORE PUSH27 0x10D85B9B9BDD081C995B5BDD994818DD5C9C995B9D081D985D5B1D PUSH1 0x2A SHL PUSH1 0x44 DUP3 ADD MSTORE PUSH1 0x64 SWAP1 REVERT JUMPDEST CALLVALUE PUSH2 0x269 JUMPI PUSH1 0x20 CALLDATASIZE PUSH1 0x3 NOT ADD SLT PUSH2 0x269 JUMPI PUSH1 0x20 PUSH2 0xBDA PUSH2 0xBD5 PUSH2 0x1B5F JUMP JUMPDEST PUSH2 0x2238 JUMP JUMPDEST PUSH1 0x40 MLOAD PUSH1 0x1 PUSH1 0x1 PUSH1 0xA0 SHL SUB SWAP1 SWAP2 AND DUP2 MSTORE RETURN JUMPDEST CALLVALUE PUSH2 0x269 JUMPI PUSH0 CALLDATASIZE PUSH1 0x3 NOT ADD SLT PUSH2 0x269 JUMPI PUSH1 0x20 PUSH1 0x4 SLOAD PUSH1 0x40 MLOAD SWAP1 DUP2 MSTORE RETURN JUMPDEST CALLVALUE PUSH2 0x269 JUMPI PUSH0 CALLDATASIZE PUSH1 0x3 NOT ADD SLT PUSH2 0x269 JUMPI PUSH1 0x20 PUSH1 0x40 MLOAD PUSH3 0x15180 DUP2 MSTORE RETURN JUMPDEST CALLVALUE PUSH2 0x269 JUMPI PUSH0 CALLDATASIZE PUSH1 0x3 NOT ADD SLT PUSH2 0x269 JUMPI PUSH1 0x5 SLOAD PUSH1 0x40 MLOAD PUSH1 0x1 PUSH1 0x1 PUSH1 0xA0 SHL SUB SWAP1 SWAP2 AND DUP2 MSTORE PUSH1 0x20 SWAP1 RETURN JUMPDEST CALLVALUE PUSH2 0x269 JUMPI PUSH1 0x40 CALLDATASIZE PUSH1 0x3 NOT ADD SLT PUSH2 0x269 JUMPI PUSH2 0xC67 PUSH2 0x1B5F JUMP JUMPDEST PUSH2 0xC6F PUSH2 0x1B75 JUMP JUMPDEST PUSH2 0xC87 PUSH1 0x1 DUP1 PUSH1 0xA0 SHL SUB PUSH1 0x1 SLOAD PUSH1 0x8 SHR AND CALLER EQ PUSH2 0x1EE4 JUMP JUMPDEST PUSH1 0x1 DUP1 PUSH1 0xA0 SHL SUB DUP3 AND SWAP1 DUP2 PUSH0 MSTORE PUSH1 0xA PUSH1 0x20 MSTORE PUSH2 0xCA9 PUSH1 0xFF PUSH1 0x40 PUSH0 KECCAK256 SLOAD AND PUSH2 0x1C0C JUMP JUMPDEST PUSH1 0x1 DUP1 PUSH1 0xA0 SHL SUB DUP2 AND SWAP3 DUP4 PUSH0 MSTORE PUSH1 0xA PUSH1 0x20 MSTORE PUSH2 0xCCB PUSH1 0xFF PUSH1 0x40 PUSH0 KECCAK256 SLOAD AND PUSH2 0x1C0C JUMP JUMPDEST PUSH2 0xCD3 PUSH2 0x25E3 JUMP JUMPDEST PUSH2 0xCDB PUSH2 0x2601 JUMP JUMPDEST PUSH2 0xD00 PUSH1 0x2 SLOAD PUSH2 0xCF0 PUSH1 0xFF DUP3 PUSH1 0xA0 SHR AND PUSH2 0x2169 JUMP JUMPDEST PUSH1 0x1 PUSH1 0x1 PUSH1 0xA0 SHL SUB AND DUP5 EQ PUSH2 0x21B0 JUMP JUMPDEST DUP4 DUP4 EQ PUSH2 0xF21 JUMPI DUP1 PUSH2 0xD14 PUSH2 0xD25 SWAP3 PUSH2 0x2C4A JUMP JUMPDEST SWAP1 PUSH2 0xD20 DUP3 ISZERO ISZERO PUSH2 0x21F4 JUMP JUMPDEST PUSH2 0x2C84 JUMP JUMPDEST PUSH1 0x40 MLOAD PUSH4 0x38D52E0F PUSH1 0xE0 SHL DUP2 MSTORE SWAP1 SWAP2 PUSH1 0x20 DUP3 PUSH1 0x4 DUP2 DUP8 GAS STATICCALL SWAP2 DUP3 ISZERO PUSH2 0x5DF JUMPI PUSH0 SWAP3 PUSH2 0xF00 JUMPI JUMPDEST POP PUSH32 0x0 SWAP3 SWAP2 PUSH1 0x1 PUSH1 0x1 PUSH1 0xA0 SHL SUB DUP1 DUP6 AND SWAP2 DUP5 SWAP2 DUP7 SWAP2 SWAP1 DUP2 AND DUP5 SWAP1 SUB PUSH2 0xEEC JUMPI JUMPDEST POP POP POP DUP3 PUSH1 0x3 SLOAD DUP1 DUP3 GT PUSH2 0xE4A JUMPI JUMPDEST POP POP PUSH1 0x40 MLOAD PUSH4 0x38D52E0F PUSH1 0xE0 SHL DUP2 MSTORE SWAP3 PUSH1 0x20 DUP5 PUSH1 0x4 DUP2 DUP11 GAS STATICCALL SWAP1 DUP2 ISZERO PUSH2 0x5DF JUMPI PUSH0 MLOAD PUSH1 0x20 PUSH2 0x32E9 PUSH0 CODECOPY PUSH0 MLOAD SWAP1 PUSH0 MSTORE SWAP6 PUSH1 0x20 SWAP6 PUSH0 SWAP4 PUSH2 0xE2B JUMPI JUMPDEST POP SWAP1 SWAP3 DUP4 SWAP2 SWAP1 PUSH1 0x1 PUSH1 0x1 PUSH1 0xA0 SHL SUB DUP5 AND SUB PUSH2 0xE14 JUMPI JUMPDEST POP POP DUP2 PUSH2 0xDF5 SWAP3 SWAP4 PUSH2 0x2B85 JUMP JUMPDEST PUSH1 0x2 DUP1 SLOAD PUSH1 0x1 PUSH1 0x1 PUSH1 0xA0 SHL SUB NOT AND DUP7 OR SWAP1 SSTORE PUSH1 0x40 MLOAD SWAP1 DUP2 MSTORE LOG3 PUSH1 0x1 PUSH0 SSTORE STOP JUMPDEST PUSH2 0xDF5 SWAP4 POP SWAP1 DUP3 PUSH2 0xE24 SWAP3 PUSH2 0x27D3 JUMP JUMPDEST SWAP2 DUP9 PUSH2 0xDE8 JUMP JUMPDEST PUSH2 0xE43 SWAP2 SWAP4 POP DUP7 RETURNDATASIZE DUP9 GT PUSH2 0x5D8 JUMPI PUSH2 0x5CA DUP2 DUP4 PUSH2 0x1C74 JUMP JUMPDEST SWAP2 DUP10 PUSH2 0xDD2 JUMP JUMPDEST PUSH2 0xE54 SWAP1 DUP3 PUSH2 0x1CB6 JUMP JUMPDEST PUSH2 0x1F4 DUP2 MUL DUP2 DUP2 DIV PUSH2 0x1F4 EQ DUP3 ISZERO OR ISZERO PUSH2 0x733 JUMPI DUP9 SWAP2 PUSH2 0x2710 DUP10 SWAP3 DIV SWAP4 DUP5 PUSH2 0xE7F JUMPI JUMPDEST POP POP POP PUSH2 0xD99 JUMP JUMPDEST DUP5 SWAP8 POP SWAP1 PUSH2 0xED6 DUP6 PUSH1 0x40 SWAP4 PUSH2 0xEC2 PUSH32 0xA9E2D36289E8EB47BD6121C0058A0BA6FDA9C98026A9BD634B6C008799484EFD SWAP7 SWAP8 SWAP9 PUSH1 0x1 DUP1 PUSH1 0xA0 SHL SUB PUSH1 0x5 SLOAD AND DUP12 PUSH2 0x2E29 JUMP JUMPDEST PUSH2 0xECE DUP3 PUSH1 0x7 SLOAD PUSH2 0x1C4C JUMP JUMPDEST PUSH1 0x7 SSTORE PUSH2 0x1CB6 JUMP JUMPDEST SWAP8 DUP3 MLOAD SWAP2 DUP3 MSTORE PUSH1 0x20 DUP3 ADD MSTORE LOG3 DUP7 DUP7 DUP7 DUP3 DUP1 PUSH2 0xE77 JUMP JUMPDEST PUSH2 0xEF7 SWAP4 SWAP6 POP PUSH2 0x27D3 JUMP JUMPDEST SWAP2 DUP7 DUP5 DUP2 PUSH2 0xD8A JUMP JUMPDEST PUSH2 0xF1A SWAP2 SWAP3 POP PUSH1 0x20 RETURNDATASIZE PUSH1 0x20 GT PUSH2 0x5D8 JUMPI PUSH2 0x5CA DUP2 DUP4 PUSH2 0x1C74 JUMP JUMPDEST SWAP1 DUP6 PUSH2 0xD4B JUMP JUMPDEST PUSH1 0x40 MLOAD PUSH3 0x461BCD PUSH1 0xE5 SHL DUP2 MSTORE PUSH1 0x20 PUSH1 0x4 DUP3 ADD MSTORE PUSH1 0xA PUSH1 0x24 DUP3 ADD MSTORE PUSH10 0x14D85B59481D985D5B1D PUSH1 0xB2 SHL PUSH1 0x44 DUP3 ADD MSTORE PUSH1 0x64 SWAP1 REVERT JUMPDEST CALLVALUE PUSH2 0x269 JUMPI PUSH0 CALLDATASIZE PUSH1 0x3 NOT ADD SLT PUSH2 0x269 JUMPI PUSH1 0x20 PUSH1 0x6 SLOAD PUSH1 0x40 MLOAD SWAP1 DUP2 MSTORE RETURN JUMPDEST CALLVALUE PUSH2 0x269 JUMPI PUSH0 CALLDATASIZE PUSH1 0x3 NOT ADD SLT PUSH2 0x269 JUMPI PUSH1 0x40 MLOAD PUSH32 0x0 PUSH1 0x1 PUSH1 0x1 PUSH1 0xA0 SHL SUB AND DUP2 MSTORE PUSH1 0x20 SWAP1 RETURN JUMPDEST CALLVALUE PUSH2 0x269 JUMPI PUSH0 CALLDATASIZE PUSH1 0x3 NOT ADD SLT PUSH2 0x269 JUMPI PUSH1 0x20 PUSH1 0xB SLOAD PUSH1 0x40 MLOAD SWAP1 DUP2 MSTORE RETURN JUMPDEST CALLVALUE PUSH2 0x269 JUMPI PUSH0 CALLDATASIZE PUSH1 0x3 NOT ADD SLT PUSH2 0x269 JUMPI PUSH1 0x20 PUSH1 0xFF PUSH1 0x9 SLOAD AND PUSH1 0x40 MLOAD SWAP1 ISZERO ISZERO DUP2 MSTORE RETURN JUMPDEST CALLVALUE PUSH2 0x269 JUMPI PUSH0 CALLDATASIZE PUSH1 0x3 NOT ADD SLT PUSH2 0x269 JUMPI PUSH1 0x1 DUP1 SLOAD PUSH2 0x101F CALLER PUSH1 0x8 DUP4 SWAP1 SHR PUSH1 0x1 PUSH1 0x1 PUSH1 0xA0 SHL SUB AND EQ PUSH2 0x1EE4 JUMP JUMPDEST PUSH2 0x1027 PUSH2 0x2601 JUMP JUMPDEST PUSH1 0xFF NOT AND OR PUSH1 0x1 SSTORE PUSH32 0x62E78CEA01BEE320CD4E420270B5EA74000D11B0C9F74754EBDBFC544B05A258 PUSH1 0x20 PUSH1 0x40 MLOAD CALLER DUP2 MSTORE LOG1 STOP JUMPDEST CALLVALUE PUSH2 0x269 JUMPI PUSH1 0x20 CALLDATASIZE PUSH1 0x3 NOT ADD SLT PUSH2 0x269 JUMPI PUSH1 0x40 PUSH2 0x1079 PUSH1 0x4 CALLDATALOAD PUSH2 0x20F9 JUMP JUMPDEST DUP3 MLOAD SWAP2 DUP3 MSTORE PUSH1 0x20 DUP3 ADD MSTORE RETURN JUMPDEST CALLVALUE PUSH2 0x269 JUMPI PUSH1 0x20 CALLDATASIZE PUSH1 0x3 NOT ADD SLT PUSH2 0x269 JUMPI PUSH1 0x20 PUSH2 0x10A8 PUSH2 0x10A3 PUSH2 0x1B5F JUMP JUMPDEST PUSH2 0x2071 JUMP JUMPDEST PUSH1 0x40 MLOAD SWAP1 ISZERO ISZERO DUP2 MSTORE RETURN JUMPDEST CALLVALUE PUSH2 0x269 JUMPI PUSH1 0x20 CALLDATASIZE PUSH1 0x3 NOT ADD SLT PUSH2 0x269 JUMPI PUSH2 0x10CB PUSH2 0x1B5F JUMP JUMPDEST PUSH32 0x0 PUSH1 0x1 PUSH1 0x1 PUSH1 0xA0 SHL SUB DUP2 AND SWAP2 SWAP1 PUSH2 0x1103 CALLER DUP5 EQ PUSH2 0x1BD3 JUMP JUMPDEST PUSH2 0x110B PUSH2 0x2E0D JUMP JUMPDEST PUSH2 0x1113 PUSH2 0x25E3 JUMP JUMPDEST PUSH1 0x1 DUP1 PUSH1 0xA0 SHL SUB DUP3 AND SWAP2 DUP3 PUSH0 MSTORE PUSH1 0xA PUSH1 0x20 MSTORE PUSH2 0x1135 PUSH1 0xFF PUSH1 0x40 PUSH0 KECCAK256 SLOAD AND PUSH2 0x1C0C JUMP JUMPDEST PUSH2 0x113E DUP2 PUSH2 0x2C4A JUMP JUMPDEST DUP1 PUSH2 0x1149 JUMPI PUSH1 0x1 PUSH0 SSTORE STOP JUMPDEST PUSH2 0x1152 SWAP2 PUSH2 0x2C84 JUMP JUMPDEST SWAP1 PUSH1 0x40 MLOAD PUSH4 0x38D52E0F PUSH1 0xE0 SHL DUP2 MSTORE PUSH1 0x20 DUP2 PUSH1 0x4 DUP2 DUP8 GAS STATICCALL DUP1 ISZERO PUSH2 0x5DF JUMPI PUSH0 MLOAD PUSH1 0x20 PUSH2 0x32C9 PUSH0 CODECOPY PUSH0 MLOAD SWAP1 PUSH0 MSTORE SWAP4 PUSH1 0x20 SWAP4 PUSH2 0x11D2 PUSH2 0x11E2 SWAP4 DUP9 SWAP6 PUSH0 SWAP2 PUSH2 0x1252 JUMPI JUMPDEST POP PUSH1 0x1 PUSH1 0x1 PUSH1 0xA0 SHL SUB PUSH32 0x0 DUP2 DUP2 AND SWAP6 SWAP2 DUP4 AND DUP7 SWAP1 SUB PUSH2 0x1242 JUMPI JUMPDEST POP SWAP1 POP PUSH2 0x20F9 JUMP JUMPDEST SWAP5 DUP2 DUP7 SWAP5 SWAP3 PUSH2 0x11F7 JUMPI POP POP PUSH2 0x2E29 JUMP JUMPDEST PUSH0 PUSH1 0x3 SSTORE PUSH1 0x40 MLOAD SWAP1 DUP2 MSTORE LOG3 DUP1 DUP1 DUP1 DUP1 DUP1 PUSH2 0x6E4 JUMP JUMPDEST PUSH1 0x5 SLOAD PUSH0 MLOAD PUSH1 0x20 PUSH2 0x3289 PUSH0 CODECOPY PUSH0 MLOAD SWAP1 PUSH0 MSTORE SWAP2 PUSH1 0x40 SWAP2 PUSH2 0x1221 SWAP1 DUP3 SWAP1 PUSH1 0x1 PUSH1 0x1 PUSH1 0xA0 SHL SUB AND DUP8 PUSH2 0x2E29 JUMP JUMPDEST PUSH2 0x122D DUP2 PUSH1 0x7 SLOAD PUSH2 0x1C4C JUMP JUMPDEST PUSH1 0x7 SSTORE DUP2 MLOAD SWAP1 DUP2 MSTORE DUP7 DUP11 DUP3 ADD MSTORE LOG2 DUP8 DUP11 PUSH2 0x51E JUMP JUMPDEST PUSH2 0x124B SWAP3 PUSH2 0x27D3 JUMP JUMPDEST DUP1 DUP12 PUSH2 0x11CA JUMP JUMPDEST PUSH2 0x1269 SWAP2 POP DUP8 RETURNDATASIZE DUP10 GT PUSH2 0x5D8 JUMPI PUSH2 0x5CA DUP2 DUP4 PUSH2 0x1C74 JUMP JUMPDEST DUP11 PUSH2 0x1191 JUMP JUMPDEST CALLVALUE PUSH2 0x269 JUMPI PUSH0 CALLDATASIZE PUSH1 0x3 NOT ADD SLT PUSH2 0x269 JUMPI PUSH1 0x20 PUSH1 0xFF PUSH1 0x2 SLOAD PUSH1 0xA0 SHR AND PUSH1 0x40 MLOAD SWAP1 ISZERO ISZERO DUP2 MSTORE RETURN JUMPDEST CALLVALUE PUSH2 0x269 JUMPI PUSH1 0x20 CALLDATASIZE PUSH1 0x3 NOT ADD SLT PUSH2 0x269 JUMPI PUSH1 0x4 CALLDATALOAD PUSH2 0x12C0 PUSH1 0x1 DUP1 PUSH1 0xA0 SHL SUB PUSH1 0x1 SLOAD PUSH1 0x8 SHR AND CALLER EQ PUSH2 0x1EE4 JUMP JUMPDEST PUSH2 0x3E8 DUP2 GT PUSH2 0x1302 JUMPI PUSH1 0x40 PUSH32 0xB27C12A91635E11C22BFFA7BD8E0A8735DA52B94AAEFD7F249776C7590BA7894 SWAP2 PUSH1 0x6 SLOAD SWAP1 DUP1 PUSH1 0x6 SSTORE DUP3 MLOAD SWAP2 DUP3 MSTORE PUSH1 0x20 DUP3 ADD MSTORE LOG1 STOP JUMPDEST PUSH1 0x40 MLOAD PUSH3 0x461BCD PUSH1 0xE5 SHL DUP2 MSTORE PUSH1 0x20 PUSH1 0x4 DUP3 ADD MSTORE PUSH1 0xC PUSH1 0x24 DUP3 ADD MSTORE PUSH12 0x8CCACA40E8DEDE40D0D2CED PUSH1 0xA3 SHL PUSH1 0x44 DUP3 ADD MSTORE PUSH1 0x64 SWAP1 REVERT JUMPDEST CALLVALUE PUSH2 0x269 JUMPI PUSH0 CALLDATASIZE PUSH1 0x3 NOT ADD SLT PUSH2 0x269 JUMPI PUSH1 0x20 PUSH2 0x386 PUSH2 0x202A JUMP JUMPDEST CALLVALUE PUSH2 0x269 JUMPI PUSH1 0x20 CALLDATASIZE PUSH1 0x3 NOT ADD SLT PUSH2 0x269 JUMPI PUSH1 0x40 PUSH2 0x1079 PUSH1 0x4 CALLDATALOAD PUSH2 0x1FBD JUMP JUMPDEST CALLVALUE PUSH2 0x269 JUMPI PUSH0 CALLDATASIZE PUSH1 0x3 NOT ADD SLT PUSH2 0x269 JUMPI PUSH1 0x20 PUSH1 0x7 SLOAD PUSH1 0x40 MLOAD SWAP1 DUP2 MSTORE RETURN JUMPDEST CALLVALUE PUSH2 0x269 JUMPI PUSH0 CALLDATASIZE PUSH1 0x3 NOT ADD SLT PUSH2 0x269 JUMPI PUSH1 0x20 PUSH1 0xFF PUSH1 0x1 SLOAD AND PUSH1 0x40 MLOAD SWAP1 ISZERO ISZERO DUP2 MSTORE RETURN JUMPDEST CALLVALUE PUSH2 0x269 JUMPI PUSH0 CALLDATASIZE PUSH1 0x3 NOT ADD SLT PUSH2 0x269 JUMPI PUSH1 0x20 PUSH2 0x386 PUSH2 0x1F94 JUMP JUMPDEST CALLVALUE PUSH2 0x269 JUMPI PUSH0 CALLDATASIZE PUSH1 0x3 NOT ADD SLT PUSH2 0x269 JUMPI PUSH1 0x20 PUSH1 0x40 MLOAD PUSH2 0x3E8 DUP2 MSTORE RETURN JUMPDEST PUSH2 0x1B8B JUMP JUMPDEST CALLVALUE PUSH2 0x269 JUMPI PUSH0 CALLDATASIZE PUSH1 0x3 NOT ADD SLT PUSH2 0x269 JUMPI PUSH1 0x1 SLOAD PUSH2 0x1413 CALLER PUSH1 0x8 DUP4 SWAP1 SHR PUSH1 0x1 PUSH1 0x1 PUSH1 0xA0 SHL SUB AND EQ PUSH2 0x1EE4 JUMP JUMPDEST PUSH2 0x141B PUSH2 0x2E0D JUMP JUMPDEST PUSH1 0xFF NOT AND PUSH1 0x1 SSTORE PUSH32 0x5DB9EE0A495BF2E6FF9C91A7834C1BA4FDD244A5E8AA4E537BD38AEAE4B073AA PUSH1 0x20 PUSH1 0x40 MLOAD CALLER DUP2 MSTORE LOG1 STOP JUMPDEST CALLVALUE PUSH2 0x269 JUMPI PUSH0 CALLDATASIZE PUSH1 0x3 NOT ADD SLT PUSH2 0x269 JUMPI PUSH1 0x40 MLOAD PUSH32 0x0 PUSH1 0x1 PUSH1 0x1 PUSH1 0xA0 SHL SUB AND DUP2 MSTORE PUSH1 0x20 SWAP1 RETURN JUMPDEST CALLVALUE PUSH2 0x269 JUMPI PUSH0 CALLDATASIZE PUSH1 0x3 NOT ADD SLT PUSH2 0x269 JUMPI PUSH1 0x20 PUSH2 0x386 PUSH2 0x1F1D JUMP JUMPDEST CALLVALUE PUSH2 0x269 JUMPI PUSH0 CALLDATASIZE PUSH1 0x3 NOT ADD SLT PUSH2 0x269 JUMPI PUSH1 0x2 SLOAD PUSH1 0x40 MLOAD PUSH1 0x1 PUSH1 0x1 PUSH1 0xA0 SHL SUB SWAP1 SWAP2 AND DUP2 MSTORE PUSH1 0x20 SWAP1 RETURN JUMPDEST CALLVALUE PUSH2 0x269 JUMPI PUSH1 0x20 CALLDATASIZE PUSH1 0x3 NOT ADD SLT PUSH2 0x269 JUMPI PUSH2 0x14ED PUSH2 0x1B5F JUMP JUMPDEST PUSH2 0x1505 PUSH1 0x1 DUP1 PUSH1 0xA0 SHL SUB PUSH1 0x1 SLOAD PUSH1 0x8 SHR AND CALLER EQ PUSH2 0x1EE4 JUMP JUMPDEST PUSH1 0x1 PUSH1 0x1 PUSH1 0xA0 SHL SUB DUP2 AND SWAP1 DUP2 ISZERO PUSH2 0x15DC JUMPI DUP2 PUSH0 MSTORE PUSH1 0xA PUSH1 0x20 MSTORE PUSH1 0xFF PUSH1 0x40 PUSH0 KECCAK256 SLOAD AND PUSH2 0x159F JUMPI PUSH0 DUP3 DUP2 MSTORE PUSH1 0xA PUSH1 0x20 MSTORE PUSH1 0x40 SWAP1 KECCAK256 DUP1 SLOAD PUSH1 0xFF NOT AND PUSH1 0x1 OR SWAP1 SSTORE PUSH1 0xB SLOAD SWAP1 PUSH1 0x1 PUSH1 0x40 SHL DUP3 LT ISZERO PUSH2 0x158B JUMPI PUSH2 0xAE3 DUP3 PUSH1 0x1 PUSH2 0x1565 SWAP5 ADD PUSH1 0xB SSTORE PUSH2 0x1BA7 JUMP JUMPDEST PUSH32 0x7B7EF7A864D96A85497A1ED846ADB39940DD6CCEF678FF6AC8D55505E09B8CC4 PUSH0 DUP1 LOG2 STOP JUMPDEST PUSH4 0x4E487B71 PUSH1 0xE0 SHL PUSH0 MSTORE PUSH1 0x41 PUSH1 0x4 MSTORE PUSH1 0x24 PUSH0 REVERT JUMPDEST PUSH1 0x40 MLOAD PUSH3 0x461BCD PUSH1 0xE5 SHL DUP2 MSTORE PUSH1 0x20 PUSH1 0x4 DUP3 ADD MSTORE PUSH1 0x15 PUSH1 0x24 DUP3 ADD MSTORE PUSH21 0x15985D5B1D08185B1C9958591E48185B1B1BDDD959 PUSH1 0x5A SHL PUSH1 0x44 DUP3 ADD MSTORE PUSH1 0x64 SWAP1 REVERT JUMPDEST PUSH1 0x40 MLOAD PUSH3 0x461BCD PUSH1 0xE5 SHL DUP2 MSTORE PUSH1 0x20 PUSH1 0x4 DUP3 ADD MSTORE PUSH1 0x15 PUSH1 0x24 DUP3 ADD MSTORE PUSH21 0x496E76616C6964207661756C742061646472657373 PUSH1 0x58 SHL PUSH1 0x44 DUP3 ADD MSTORE PUSH1 0x64 SWAP1 REVERT JUMPDEST CALLVALUE PUSH2 0x269 JUMPI PUSH0 CALLDATASIZE PUSH1 0x3 NOT ADD SLT PUSH2 0x269 JUMPI PUSH1 0x20 PUSH1 0x8 SLOAD PUSH1 0x40 MLOAD SWAP1 DUP2 MSTORE RETURN JUMPDEST CALLVALUE PUSH2 0x269 JUMPI PUSH0 CALLDATASIZE PUSH1 0x3 NOT ADD SLT PUSH2 0x269 JUMPI PUSH1 0x20 PUSH2 0x386 PUSH2 0x1EC9 JUMP JUMPDEST CALLVALUE PUSH2 0x269 JUMPI PUSH1 0x20 CALLDATASIZE PUSH1 0x3 NOT ADD SLT PUSH2 0x269 JUMPI PUSH1 0x4 CALLDATALOAD PUSH1 0xB SLOAD DUP2 LT ISZERO PUSH2 0x269 JUMPI PUSH2 0x1679 PUSH1 0x20 SWAP2 PUSH2 0x1BA7 JUMP JUMPDEST SWAP1 SLOAD PUSH1 0x40 MLOAD PUSH1 0x3 SWAP3 SWAP1 SWAP3 SHL SHR PUSH1 0x1 PUSH1 0x1 PUSH1 0xA0 SHL SUB AND DUP2 MSTORE RETURN JUMPDEST CALLVALUE PUSH2 0x269 JUMPI PUSH0 CALLDATASIZE PUSH1 0x3 NOT ADD SLT PUSH2 0x269 JUMPI PUSH1 0x20 PUSH1 0x40 MLOAD PUSH0 MLOAD PUSH1 0x20 PUSH2 0x32A9 PUSH0 CODECOPY PUSH0 MLOAD SWAP1 PUSH0 MSTORE DUP2 MSTORE RETURN JUMPDEST CALLVALUE PUSH2 0x269 JUMPI PUSH0 CALLDATASIZE PUSH1 0x3 NOT ADD SLT PUSH2 0x269 JUMPI PUSH1 0x20 PUSH2 0x386 PUSH2 0x1DAA JUMP JUMPDEST CALLVALUE PUSH2 0x269 JUMPI PUSH0 CALLDATASIZE PUSH1 0x3 NOT ADD SLT PUSH2 0x269 JUMPI PUSH1 0x20 PUSH2 0x386 PUSH2 0x1D04 JUMP JUMPDEST CALLVALUE PUSH2 0x269 JUMPI PUSH1 0x40 CALLDATASIZE PUSH1 0x3 NOT ADD SLT PUSH2 0x269 JUMPI PUSH2 0x1706 PUSH2 0x1B5F JUMP JUMPDEST PUSH1 0x24 CALLDATALOAD SWAP1 PUSH2 0x173E CALLER PUSH32 0x0 PUSH1 0x1 PUSH1 0x1 PUSH1 0xA0 SHL SUB AND EQ PUSH2 0x1BD3 JUMP JUMPDEST PUSH1 0x1 DUP1 PUSH1 0xA0 SHL SUB DUP2 AND SWAP2 DUP3 PUSH0 MSTORE PUSH1 0xA PUSH1 0x20 MSTORE PUSH2 0x1760 PUSH1 0xFF PUSH1 0x40 PUSH0 KECCAK256 SLOAD AND PUSH2 0x1C0C JUMP JUMPDEST PUSH2 0x1768 PUSH2 0x25E3 JUMP JUMPDEST PUSH2 0x1770 PUSH2 0x2601 JUMP JUMPDEST PUSH1 0x9 SLOAD DUP2 PUSH1 0xFF DUP3 AND ISZERO PUSH2 0x1ABD JUMPI JUMPDEST POP POP DUP1 ISZERO PUSH2 0x1A81 JUMPI PUSH1 0x40 MLOAD PUSH4 0x23B872DD PUSH1 0xE0 SHL PUSH1 0x20 DUP3 ADD MSTORE CALLER PUSH1 0x24 DUP3 ADD MSTORE ADDRESS PUSH1 0x44 DUP3 ADD MSTORE PUSH1 0x64 DUP1 DUP3 ADD DUP4 SWAP1 MSTORE DUP2 MSTORE PUSH32 0x0 SWAP2 SWAP1 PUSH1 0x1 PUSH1 0x1 PUSH1 0xA0 SHL SUB DUP4 AND SWAP1 PUSH2 0x17EF SWAP1 PUSH2 0x17E9 PUSH1 0x84 DUP3 PUSH2 0x1C74 JUMP JUMPDEST DUP3 PUSH2 0x3210 JUMP JUMPDEST PUSH1 0x40 MLOAD PUSH4 0x38D52E0F PUSH1 0xE0 SHL DUP2 MSTORE SWAP1 PUSH1 0x20 DUP3 PUSH1 0x4 DUP2 DUP10 GAS STATICCALL SWAP2 DUP3 ISZERO PUSH2 0x5DF JUMPI PUSH0 SWAP3 PUSH2 0x1A60 JUMPI JUMPDEST POP SWAP2 SWAP3 DUP4 SWAP3 PUSH1 0x1 PUSH1 0x1 PUSH1 0xA0 SHL SUB DUP4 AND DUP2 EQ ISZERO SWAP2 SWAP1 DUP3 PUSH2 0x1A4D JUMPI JUMPDEST DUP8 PUSH1 0x2 SLOAD PUSH1 0xFF DUP2 PUSH1 0xA0 SHR AND ISZERO PUSH0 EQ PUSH2 0x1893 JUMPI POP POP POP POP POP SWAP1 PUSH2 0x1862 DUP4 SWAP3 PUSH1 0x20 SWAP5 PUSH0 MLOAD PUSH1 0x20 PUSH2 0x3269 PUSH0 CODECOPY PUSH0 MLOAD SWAP1 PUSH0 MSTORE SWAP7 PUSH2 0x2B85 JUMP JUMPDEST PUSH1 0x2 DUP1 SLOAD PUSH1 0x3 SWAP3 SWAP1 SWAP3 SSTORE PUSH1 0x1 PUSH1 0x1 PUSH1 0xA8 SHL SUB NOT SWAP1 SWAP2 AND DUP6 OR PUSH1 0x1 PUSH1 0xA0 SHL OR SWAP1 SSTORE TIMESTAMP PUSH1 0x4 SSTORE PUSH1 0x40 MLOAD SWAP1 DUP2 MSTORE LOG2 PUSH1 0x1 PUSH0 SSTORE STOP JUMPDEST SWAP4 SWAP8 SWAP5 SWAP7 SWAP6 SWAP3 SWAP5 SWAP3 SWAP4 SWAP2 SWAP3 SWAP2 PUSH1 0x1 PUSH1 0x1 PUSH1 0xA0 SHL SUB AND EQ PUSH2 0x1A24 JUMPI PUSH1 0x2 SLOAD PUSH2 0x18C2 SWAP1 PUSH1 0x1 PUSH1 0x1 PUSH1 0xA0 SHL SUB AND PUSH2 0x2C4A JUMP JUMPDEST DUP1 ISZERO PUSH2 0x19E8 JUMPI PUSH1 0x2 SLOAD PUSH1 0x4 SWAP4 SWAP3 SWAP2 PUSH2 0x18E2 SWAP2 PUSH1 0x1 PUSH1 0x1 PUSH1 0xA0 SHL SUB AND PUSH2 0x2C84 JUMP JUMPDEST PUSH1 0x2 SLOAD PUSH1 0x40 MLOAD PUSH4 0x38D52E0F PUSH1 0xE0 SHL DUP2 MSTORE SWAP5 PUSH1 0x20 SWAP2 DUP7 SWAP2 SWAP1 DUP3 SWAP1 PUSH1 0x1 PUSH1 0x1 PUSH1 0xA0 SHL SUB AND GAS STATICCALL SWAP2 DUP3 ISZERO PUSH2 0x5DF JUMPI PUSH0 MLOAD PUSH1 0x20 PUSH2 0x3269 PUSH0 CODECOPY PUSH0 MLOAD SWAP1 PUSH0 MSTORE SWAP10 PUSH1 0x20 SWAP10 DUP9 PUSH2 0x195E DUP10 DUP16 SWAP10 SWAP8 DUP15 SWAP8 PUSH2 0x1992 SWAP14 DUP13 SWAP12 PUSH0 MLOAD PUSH1 0x20 PUSH2 0x32E9 PUSH0 CODECOPY PUSH0 MLOAD SWAP1 PUSH0 MSTORE SWAP12 PUSH0 SWAP5 PUSH2 0x19C9 JUMPI JUMPDEST POP PUSH1 0x1 PUSH1 0x1 PUSH1 0xA0 SHL SUB DUP5 AND SUB PUSH2 0x19B9 JUMPI JUMPDEST POP SWAP1 POP PUSH2 0x1C4C JUMP JUMPDEST SWAP3 PUSH2 0x19A5 JUMPI JUMPDEST POP DUP2 PUSH2 0x1970 SWAP3 SWAP4 PUSH2 0x2B85 JUMP JUMPDEST PUSH1 0x2 DUP1 SLOAD PUSH1 0x1 PUSH1 0x1 PUSH1 0xA0 SHL SUB NOT AND DUP6 OR SWAP1 SSTORE PUSH1 0x40 MLOAD SWAP1 DUP2 MSTORE LOG3 JUMPDEST PUSH1 0x3 SLOAD PUSH2 0x1C4C JUMP JUMPDEST PUSH1 0x3 SSTORE TIMESTAMP PUSH1 0x4 SSTORE PUSH1 0x40 MLOAD SWAP1 DUP2 MSTORE LOG2 PUSH2 0x6E4 JUMP JUMPDEST PUSH2 0x1970 SWAP3 DUP3 PUSH2 0x19B3 SWAP3 PUSH2 0x27D3 JUMP JUMPDEST SWAP2 PUSH2 0x1964 JUMP JUMPDEST PUSH2 0x19C2 SWAP3 PUSH2 0x27D3 JUMP JUMPDEST DUP1 DUP5 PUSH2 0x1956 JUMP JUMPDEST PUSH2 0x19E1 SWAP2 SWAP5 POP DUP12 RETURNDATASIZE DUP14 GT PUSH2 0x5D8 JUMPI PUSH2 0x5CA DUP2 DUP4 PUSH2 0x1C74 JUMP JUMPDEST SWAP3 PUSH0 PUSH2 0x1945 JUMP JUMPDEST POP PUSH0 MLOAD PUSH1 0x20 PUSH2 0x3269 PUSH0 CODECOPY PUSH0 MLOAD SWAP1 PUSH0 MSTORE SWAP7 POP PUSH2 0x1992 SWAP4 POP PUSH2 0x1A0D SWAP2 POP SWAP5 DUP5 PUSH1 0x20 SWAP7 PUSH2 0x2B85 JUMP JUMPDEST PUSH1 0x2 DUP1 SLOAD PUSH1 0x1 PUSH1 0x1 PUSH1 0xA0 SHL SUB NOT AND DUP8 OR SWAP1 SSTORE PUSH2 0x198A JUMP JUMPDEST PUSH0 MLOAD PUSH1 0x20 PUSH2 0x3269 PUSH0 CODECOPY PUSH0 MLOAD SWAP1 PUSH0 MSTORE SWAP7 POP PUSH2 0x1992 SWAP4 POP PUSH2 0x1A48 SWAP2 POP SWAP5 DUP5 PUSH1 0x20 SWAP7 PUSH2 0x2B85 JUMP JUMPDEST PUSH2 0x198A JUMP JUMPDEST SWAP5 POP PUSH2 0x1A5A DUP5 DUP5 DUP4 PUSH2 0x27D3 JUMP JUMPDEST SWAP5 PUSH2 0x182E JUMP JUMPDEST PUSH2 0x1A7A SWAP2 SWAP3 POP PUSH1 0x20 RETURNDATASIZE PUSH1 0x20 GT PUSH2 0x5D8 JUMPI PUSH2 0x5CA DUP2 DUP4 PUSH2 0x1C74 JUMP JUMPDEST SWAP1 DUP7 PUSH2 0x1814 JUMP JUMPDEST PUSH1 0x40 MLOAD PUSH3 0x461BCD PUSH1 0xE5 SHL DUP2 MSTORE PUSH1 0x20 PUSH1 0x4 DUP3 ADD MSTORE PUSH1 0x14 PUSH1 0x24 DUP3 ADD MSTORE PUSH20 0x139BC8185B5BDD5B9D081D1BC819195C1BDCDA5D PUSH1 0x62 SHL PUSH1 0x44 DUP3 ADD MSTORE PUSH1 0x64 SWAP1 REVERT JUMPDEST PUSH1 0x8 SLOAD SWAP2 SWAP3 POP DUP2 ISZERO PUSH2 0x1AE5 JUMPI PUSH1 0x1 SWAP2 PUSH2 0x1AD5 SWAP2 PUSH2 0x1C4C JUMP JUMPDEST SWAP2 PUSH1 0xFF NOT AND OR PUSH1 0x9 SSTORE DUP4 DUP1 PUSH2 0x177E JUMP JUMPDEST PUSH1 0x40 MLOAD PUSH3 0x461BCD PUSH1 0xE5 SHL DUP2 MSTORE PUSH1 0x20 PUSH1 0x4 DUP3 ADD MSTORE PUSH1 0x1D PUSH1 0x24 DUP3 ADD MSTORE PUSH32 0x4E6F20696E697469616C206465706F73697420616D6F756E7420736574000000 PUSH1 0x44 DUP3 ADD MSTORE PUSH1 0x64 SWAP1 REVERT JUMPDEST CALLVALUE PUSH2 0x269 JUMPI PUSH0 CALLDATASIZE PUSH1 0x3 NOT ADD SLT PUSH2 0x269 JUMPI PUSH1 0x5 SLOAD PUSH1 0x6 SLOAD PUSH1 0x7 SLOAD PUSH1 0x1 PUSH1 0x1 PUSH1 0xA0 SHL SUB SWAP1 SWAP3 AND DUP4 MSTORE PUSH1 0x20 DUP4 ADD MSTORE PUSH1 0x40 DUP3 ADD MSTORE PUSH1 0x60 SWAP1 RETURN JUMPDEST PUSH1 0x4 CALLDATALOAD SWAP1 PUSH1 0x1 PUSH1 0x1 PUSH1 0xA0 SHL SUB DUP3 AND DUP3 SUB PUSH2 0x269 JUMPI JUMP JUMPDEST PUSH1 0x24 CALLDATALOAD SWAP1 PUSH1 0x1 PUSH1 0x1 PUSH1 0xA0 SHL SUB DUP3 AND DUP3 SUB PUSH2 0x269 JUMPI JUMP JUMPDEST CALLVALUE PUSH2 0x269 JUMPI PUSH0 CALLDATASIZE PUSH1 0x3 NOT ADD SLT PUSH2 0x269 JUMPI PUSH1 0x20 PUSH1 0x40 MLOAD PUSH2 0x1F4 DUP2 MSTORE RETURN JUMPDEST PUSH1 0xB SLOAD DUP2 LT ISZERO PUSH2 0x1BBF JUMPI PUSH1 0xB PUSH0 MSTORE PUSH1 0x20 PUSH0 KECCAK256 ADD SWAP1 PUSH0 SWAP1 JUMP JUMPDEST PUSH4 0x4E487B71 PUSH1 0xE0 SHL PUSH0 MSTORE PUSH1 0x32 PUSH1 0x4 MSTORE PUSH1 0x24 PUSH0 REVERT JUMPDEST ISZERO PUSH2 0x1BDA JUMPI JUMP JUMPDEST PUSH1 0x40 MLOAD PUSH3 0x461BCD PUSH1 0xE5 SHL DUP2 MSTORE PUSH1 0x20 PUSH1 0x4 DUP3 ADD MSTORE PUSH1 0xA PUSH1 0x24 DUP3 ADD MSTORE PUSH10 0x27B7363C9037BBB732B9 PUSH1 0xB1 SHL PUSH1 0x44 DUP3 ADD MSTORE PUSH1 0x64 SWAP1 REVERT JUMPDEST ISZERO PUSH2 0x1C13 JUMPI JUMP JUMPDEST PUSH1 0x40 MLOAD PUSH3 0x461BCD PUSH1 0xE5 SHL DUP2 MSTORE PUSH1 0x20 PUSH1 0x4 DUP3 ADD MSTORE PUSH1 0x11 PUSH1 0x24 DUP3 ADD MSTORE PUSH17 0x15985D5B1D081B9BDD08185B1B1BDDD959 PUSH1 0x7A SHL PUSH1 0x44 DUP3 ADD MSTORE PUSH1 0x64 SWAP1 REVERT JUMPDEST SWAP2 SWAP1 DUP3 ADD DUP1 SWAP3 GT PUSH2 0x733 JUMPI JUMP JUMPDEST PUSH1 0x80 DUP2 ADD SWAP1 DUP2 LT PUSH1 0x1 PUSH1 0x1 PUSH1 0x40 SHL SUB DUP3 GT OR PUSH2 0x158B JUMPI PUSH1 0x40 MSTORE JUMP JUMPDEST PUSH1 0x1F SWAP1 SWAP2 ADD PUSH1 0x1F NOT AND DUP2 ADD SWAP1 PUSH1 0x1 PUSH1 0x1 PUSH1 0x40 SHL SUB DUP3 GT SWAP1 DUP3 LT OR PUSH2 0x158B JUMPI PUSH1 0x40 MSTORE JUMP JUMPDEST SWAP1 DUP2 PUSH1 0x20 SWAP2 SUB SLT PUSH2 0x269 JUMPI MLOAD PUSH1 0x1 PUSH1 0x1 PUSH1 0xA0 SHL SUB DUP2 AND DUP2 SUB PUSH2 0x269 JUMPI SWAP1 JUMP JUMPDEST SWAP2 SWAP1 DUP3 SUB SWAP2 DUP3 GT PUSH2 0x733 JUMPI JUMP JUMPDEST DUP2 DUP2 MUL SWAP3 SWAP2 DUP2 ISZERO SWAP2 DUP5 DIV EQ OR ISZERO PUSH2 0x733 JUMPI JUMP JUMPDEST DUP2 ISZERO PUSH2 0x1CE0 JUMPI DIV SWAP1 JUMP JUMPDEST PUSH4 0x4E487B71 PUSH1 0xE0 SHL PUSH0 MSTORE PUSH1 0x12 PUSH1 0x4 MSTORE PUSH1 0x24 PUSH0 REVERT JUMPDEST PUSH1 0x1 PUSH1 0xFF SHL DUP2 EQ PUSH2 0x733 JUMPI PUSH0 SUB SWAP1 JUMP JUMPDEST PUSH1 0xFF PUSH1 0x2 SLOAD PUSH1 0xA0 SHR AND ISZERO DUP1 ISZERO PUSH2 0x1D91 JUMPI JUMPDEST PUSH2 0x1D8D JUMPI PUSH2 0x1D21 PUSH2 0x1DAA JUMP JUMPDEST PUSH1 0x3 SLOAD SWAP1 DUP2 DUP1 DUP3 LT PUSH2 0x1D5A JUMPI PUSH2 0x1D36 SWAP2 PUSH2 0x1CB6 JUMP JUMPDEST SWAP1 PUSH3 0xF4240 DUP3 MUL SWAP2 DUP1 DUP4 DIV PUSH3 0xF4240 EQ SWAP1 ISZERO OR ISZERO PUSH2 0x733 JUMPI PUSH2 0x1D57 SWAP2 PUSH2 0x1CD6 JUMP JUMPDEST SWAP1 JUMP JUMPDEST SWAP1 PUSH2 0x1D64 SWAP2 PUSH2 0x1CB6 JUMP JUMPDEST PUSH3 0xF4240 DUP2 MUL SWAP1 DUP1 DUP3 DIV PUSH3 0xF4240 EQ SWAP1 ISZERO OR ISZERO PUSH2 0x733 JUMPI PUSH2 0x1D57 SWAP2 PUSH2 0x1D88 SWAP2 PUSH2 0x1CD6 JUMP JUMPDEST PUSH2 0x1CF4 JUMP JUMPDEST PUSH0 SWAP1 JUMP JUMPDEST POP PUSH1 0x3 SLOAD ISZERO PUSH2 0x1D15 JUMP JUMPDEST SWAP1 DUP2 PUSH1 0x20 SWAP2 SUB SLT PUSH2 0x269 JUMPI MLOAD SWAP1 JUMP JUMPDEST PUSH1 0x2 SLOAD PUSH1 0x1 PUSH1 0x1 PUSH1 0xA0 SHL SUB DUP2 AND SWAP1 DUP2 ISZERO SWAP1 DUP2 ISZERO PUSH2 0x1EBA JUMPI JUMPDEST POP PUSH2 0x1EB5 JUMPI PUSH1 0x40 MLOAD PUSH4 0x2F5CE345 PUSH1 0xE0 SHL DUP2 MSTORE PUSH1 0x20 DUP2 PUSH1 0x4 DUP2 ADDRESS GAS STATICCALL SWAP1 DUP2 ISZERO PUSH2 0x5DF JUMPI PUSH0 SWAP2 PUSH2 0x1E83 JUMPI JUMPDEST POP DUP1 ISZERO PUSH2 0x1E7D JUMPI PUSH1 0x20 PUSH1 0x4 SWAP3 PUSH1 0x40 MLOAD SWAP4 DUP5 DUP1 SWAP3 PUSH4 0x38D52E0F PUSH1 0xE0 SHL DUP3 MSTORE GAS STATICCALL SWAP2 DUP3 ISZERO PUSH2 0x5DF JUMPI PUSH0 SWAP3 PUSH2 0x1E5C JUMPI JUMPDEST POP PUSH32 0x0 PUSH1 0x1 PUSH1 0x1 PUSH1 0xA0 SHL SUB DUP4 DUP2 AND SWAP1 DUP3 AND EQ PUSH2 0x1E56 JUMPI PUSH2 0x1D57 SWAP3 PUSH2 0x2CCE JUMP JUMPDEST POP SWAP1 POP SWAP1 JUMP JUMPDEST PUSH2 0x1E76 SWAP2 SWAP3 POP PUSH1 0x20 RETURNDATASIZE PUSH1 0x20 GT PUSH2 0x5D8 JUMPI PUSH2 0x5CA DUP2 DUP4 PUSH2 0x1C74 JUMP JUMPDEST SWAP1 PUSH0 PUSH2 0x1E18 JUMP JUMPDEST POP POP PUSH0 SWAP1 JUMP JUMPDEST SWAP1 POP PUSH1 0x20 DUP2 RETURNDATASIZE PUSH1 0x20 GT PUSH2 0x1EAD JUMPI JUMPDEST DUP2 PUSH2 0x1E9E PUSH1 0x20 SWAP4 DUP4 PUSH2 0x1C74 JUMP JUMPDEST DUP2 ADD SUB SLT PUSH2 0x269 JUMPI MLOAD PUSH0 PUSH2 0x1DEB JUMP JUMPDEST RETURNDATASIZE SWAP2 POP PUSH2 0x1E91 JUMP JUMPDEST POP PUSH0 SWAP1 JUMP JUMPDEST PUSH1 0xFF SWAP2 POP PUSH1 0xA0 SHR AND ISZERO PUSH0 PUSH2 0x1DC2 JUMP JUMPDEST PUSH1 0x2 SLOAD PUSH1 0x1 PUSH1 0x1 PUSH1 0xA0 SHL SUB AND DUP1 ISZERO PUSH2 0x1EB5 JUMPI PUSH2 0x1D57 SWAP1 PUSH2 0x2C4A JUMP JUMPDEST ISZERO PUSH2 0x1EEB JUMPI JUMP JUMPDEST PUSH1 0x40 MLOAD PUSH3 0x461BCD PUSH1 0xE5 SHL DUP2 MSTORE PUSH1 0x20 PUSH1 0x4 DUP3 ADD MSTORE PUSH1 0xA PUSH1 0x24 DUP3 ADD MSTORE PUSH10 0x27B7363C9030B236B4B7 PUSH1 0xB1 SHL PUSH1 0x44 DUP3 ADD MSTORE PUSH1 0x64 SWAP1 REVERT JUMPDEST PUSH1 0x2 SLOAD PUSH1 0x1 PUSH1 0x1 PUSH1 0xA0 SHL SUB AND DUP1 ISZERO PUSH2 0x1EB5 JUMPI PUSH1 0x20 PUSH2 0x1F3A DUP3 PUSH2 0x2C4A JUMP JUMPDEST PUSH1 0x24 PUSH1 0x40 MLOAD DUP1 SWAP5 DUP2 SWAP4 PUSH4 0x3D1689D PUSH1 0xE1 SHL DUP4 MSTORE PUSH1 0x4 DUP4 ADD MSTORE GAS STATICCALL SWAP1 DUP2 ISZERO PUSH2 0x5DF JUMPI PUSH0 SWAP2 PUSH2 0x1F65 JUMPI POP SWAP1 JUMP JUMPDEST SWAP1 POP PUSH1 0x20 DUP2 RETURNDATASIZE PUSH1 0x20 GT PUSH2 0x1F8C JUMPI JUMPDEST DUP2 PUSH2 0x1F80 PUSH1 0x20 SWAP4 DUP4 PUSH2 0x1C74 JUMP JUMPDEST DUP2 ADD SUB SLT PUSH2 0x269 JUMPI MLOAD SWAP1 JUMP JUMPDEST RETURNDATASIZE SWAP2 POP PUSH2 0x1F73 JUMP JUMPDEST PUSH1 0x4 SLOAD DUP1 ISZERO PUSH2 0x1EB5 JUMPI PUSH3 0x15180 DUP2 ADD DUP1 SWAP2 GT PUSH2 0x733 JUMPI DUP1 TIMESTAMP LT ISZERO PUSH2 0x1EB5 JUMPI PUSH2 0x1D57 SWAP1 TIMESTAMP SWAP1 PUSH2 0x1CB6 JUMP JUMPDEST PUSH1 0x2 SLOAD SWAP1 PUSH1 0xFF DUP3 PUSH1 0xA0 SHR AND ISZERO DUP1 ISZERO PUSH2 0x2022 JUMPI JUMPDEST PUSH2 0x201B JUMPI PUSH2 0x1FEE PUSH2 0x1FDF PUSH2 0x1DAA JUMP JUMPDEST SWAP3 PUSH1 0x1 PUSH1 0x1 PUSH1 0xA0 SHL SUB AND PUSH2 0x2C4A JUMP JUMPDEST DUP1 ISZERO PUSH2 0x2012 JUMPI PUSH2 0x2004 PUSH2 0x2009 SWAP3 PUSH2 0x200E SWAP5 PUSH2 0x1CC3 JUMP JUMPDEST PUSH2 0x1CD6 JUMP JUMPDEST PUSH2 0x20F9 JUMP JUMPDEST SWAP1 SWAP2 JUMP JUMPDEST POP POP POP PUSH0 SWAP1 PUSH0 SWAP1 JUMP JUMPDEST PUSH0 SWAP3 SWAP1 SWAP2 POP JUMP JUMPDEST POP DUP1 ISZERO PUSH2 0x1FD0 JUMP JUMPDEST PUSH1 0xFF PUSH1 0x2 SLOAD PUSH1 0xA0 SHR AND ISZERO DUP1 ISZERO PUSH2 0x2067 JUMPI JUMPDEST PUSH2 0x1D8D JUMPI PUSH2 0x2047 PUSH2 0x1DAA JUMP JUMPDEST PUSH1 0x3 SLOAD DUP1 DUP3 LT PUSH2 0x205A JUMPI PUSH2 0x1D57 SWAP2 PUSH2 0x1CB6 JUMP JUMPDEST PUSH2 0x1D57 SWAP2 PUSH2 0x1D88 SWAP2 PUSH2 0x1CB6 JUMP JUMPDEST POP PUSH1 0x3 SLOAD ISZERO PUSH2 0x203B JUMP JUMPDEST PUSH1 0x1 PUSH1 0x1 PUSH1 0xA0 SHL SUB AND DUP1 ISZERO PUSH2 0x1EB5 JUMPI PUSH1 0x20 PUSH1 0x4 SWAP2 PUSH1 0x40 MLOAD SWAP3 DUP4 DUP1 SWAP3 PUSH4 0x38D52E0F PUSH1 0xE0 SHL DUP3 MSTORE GAS STATICCALL SWAP1 DUP2 ISZERO PUSH2 0x5DF JUMPI PUSH0 SWAP2 PUSH2 0x20DA JUMPI JUMPDEST POP PUSH32 0x0 PUSH1 0x1 PUSH1 0x1 PUSH1 0xA0 SHL SUB SWAP1 DUP2 AND SWAP2 AND EQ ISZERO SWAP1 JUMP JUMPDEST PUSH2 0x20F3 SWAP2 POP PUSH1 0x20 RETURNDATASIZE PUSH1 0x20 GT PUSH2 0x5D8 JUMPI PUSH2 0x5CA DUP2 DUP4 PUSH2 0x1C74 JUMP JUMPDEST PUSH0 PUSH2 0x20A6 JUMP JUMPDEST SWAP1 PUSH1 0xFF PUSH1 0x2 SLOAD PUSH1 0xA0 SHR AND ISZERO DUP1 ISZERO PUSH2 0x215F JUMPI JUMPDEST DUP1 ISZERO PUSH2 0x2153 JUMPI JUMPDEST PUSH2 0x214E JUMPI PUSH2 0x2122 PUSH1 0x3 SLOAD DUP4 PUSH2 0x1CB6 JUMP JUMPDEST PUSH3 0x989680 DUP2 GT ISZERO PUSH2 0x2148 JUMPI PUSH2 0x2710 PUSH2 0x2140 PUSH2 0x1D57 SWAP3 PUSH1 0x6 SLOAD SWAP1 PUSH2 0x1CC3 JUMP JUMPDEST DIV DUP1 SWAP4 PUSH2 0x1CB6 JUMP JUMPDEST POP PUSH0 SWAP2 SWAP1 JUMP JUMPDEST PUSH0 SWAP2 SWAP1 JUMP JUMPDEST POP PUSH1 0x3 SLOAD DUP3 GT ISZERO PUSH2 0x2112 JUMP JUMPDEST POP PUSH1 0x3 SLOAD ISZERO PUSH2 0x210B JUMP JUMPDEST ISZERO PUSH2 0x2170 JUMPI JUMP JUMPDEST PUSH1 0x40 MLOAD PUSH3 0x461BCD PUSH1 0xE5 SHL DUP2 MSTORE PUSH1 0x20 PUSH1 0x4 DUP3 ADD MSTORE PUSH1 0x18 PUSH1 0x24 DUP3 ADD MSTORE PUSH24 0x496E697469616C206465706F736974206E6F74206D616465 PUSH1 0x40 SHL PUSH1 0x44 DUP3 ADD MSTORE PUSH1 0x64 SWAP1 REVERT JUMPDEST ISZERO PUSH2 0x21B7 JUMPI JUMP JUMPDEST PUSH1 0x40 MLOAD PUSH3 0x461BCD PUSH1 0xE5 SHL DUP2 MSTORE PUSH1 0x20 PUSH1 0x4 DUP3 ADD MSTORE PUSH1 0x15 PUSH1 0x24 DUP3 ADD MSTORE PUSH21 0x139BDD081D1A194818DD5C9C995B9D081D985D5B1D PUSH1 0x5A SHL PUSH1 0x44 DUP3 ADD MSTORE PUSH1 0x64 SWAP1 REVERT JUMPDEST ISZERO PUSH2 0x21FB JUMPI JUMP JUMPDEST PUSH1 0x40 MLOAD PUSH3 0x461BCD PUSH1 0xE5 SHL DUP2 MSTORE PUSH1 0x20 PUSH1 0x4 DUP3 ADD MSTORE PUSH1 0x15 PUSH1 0x24 DUP3 ADD MSTORE PUSH21 0x4E6F2066756E647320746F20726562616C616E6365 PUSH1 0x58 SHL PUSH1 0x44 DUP3 ADD MSTORE PUSH1 0x64 SWAP1 REVERT JUMPDEST PUSH1 0x1 PUSH1 0x1 PUSH1 0xA0 SHL SUB AND DUP1 ISZERO PUSH2 0x1EB5 JUMPI PUSH1 0x20 PUSH1 0x4 SWAP2 PUSH1 0x40 MLOAD SWAP3 DUP4 DUP1 SWAP3 PUSH4 0x38D52E0F PUSH1 0xE0 SHL DUP3 MSTORE GAS STATICCALL SWAP1 DUP2 ISZERO PUSH2 0x5DF JUMPI PUSH0 SWAP2 PUSH2 0x2270 JUMPI POP SWAP1 JUMP JUMPDEST PUSH2 0x1D57 SWAP2 POP PUSH1 0x20 RETURNDATASIZE PUSH1 0x20 GT PUSH2 0x5D8 JUMPI PUSH2 0x5CA DUP2 DUP4 PUSH2 0x1C74 JUMP JUMPDEST SWAP1 SWAP3 SWAP1 SWAP2 PUSH1 0x1 PUSH1 0x1 PUSH1 0xA0 SHL SUB DUP1 DUP5 AND SWAP2 SWAP1 DUP6 AND DUP3 DUP2 EQ DUP1 ISZERO PUSH2 0x23AA JUMPI JUMPDEST PUSH2 0x239B JUMPI PUSH1 0x40 MLOAD SWAP1 PUSH4 0x79BC57D5 PUSH1 0xE0 SHL DUP3 MSTORE DUP4 PUSH1 0x4 DUP4 ADD MSTORE DUP1 PUSH1 0x24 DUP4 ADD MSTORE PUSH1 0x1 PUSH1 0x44 DUP4 ADD MSTORE PUSH1 0x20 DUP3 PUSH1 0x64 DUP2 PUSH0 MLOAD PUSH1 0x20 PUSH2 0x32A9 PUSH0 CODECOPY PUSH0 MLOAD SWAP1 PUSH0 MSTORE GAS STATICCALL SWAP2 DUP3 ISZERO PUSH2 0x5DF JUMPI PUSH0 SWAP3 PUSH2 0x237A JUMPI JUMPDEST POP PUSH1 0x40 MLOAD SWAP4 PUSH4 0x79BC57D5 PUSH1 0xE0 SHL DUP6 MSTORE PUSH1 0x4 DUP6 ADD MSTORE PUSH1 0x24 DUP5 ADD MSTORE PUSH0 PUSH1 0x44 DUP5 ADD MSTORE PUSH1 0x20 DUP4 PUSH1 0x64 DUP2 PUSH0 MLOAD PUSH1 0x20 PUSH2 0x32A9 PUSH0 CODECOPY PUSH0 MLOAD SWAP1 PUSH0 MSTORE GAS STATICCALL SWAP2 DUP3 ISZERO PUSH2 0x5DF JUMPI PUSH2 0x2354 SWAP4 PUSH0 SWAP4 PUSH2 0x2359 JUMPI JUMPDEST POP PUSH2 0x2342 DUP2 DUP9 DUP9 PUSH2 0x2E65 JUMP JUMPDEST SWAP7 PUSH2 0x234E DUP3 DUP3 DUP10 PUSH2 0x2FB8 JUMP JUMPDEST SWAP7 PUSH2 0x3165 JUMP JUMPDEST SWAP3 SWAP2 SWAP1 JUMP JUMPDEST PUSH2 0x2373 SWAP2 SWAP4 POP PUSH1 0x20 RETURNDATASIZE PUSH1 0x20 GT PUSH2 0x5D8 JUMPI PUSH2 0x5CA DUP2 DUP4 PUSH2 0x1C74 JUMP JUMPDEST SWAP2 PUSH0 PUSH2 0x2336 JUMP JUMPDEST PUSH2 0x2394 SWAP2 SWAP3 POP PUSH1 0x20 RETURNDATASIZE PUSH1 0x20 GT PUSH2 0x5D8 JUMPI PUSH2 0x5CA DUP2 DUP4 PUSH2 0x1C74 JUMP JUMPDEST SWAP1 PUSH0 PUSH2 0x22EF JUMP JUMPDEST POP POP POP SWAP2 POP POP PUSH1 0x1 SWAP1 PUSH0 SWAP1 PUSH0 SWAP1 JUMP JUMPDEST POP DUP2 ISZERO PUSH2 0x22A6 JUMP JUMPDEST PUSH1 0x40 MLOAD PUSH4 0xF8C0AE05 PUSH1 0xE0 SHL DUP2 MSTORE PUSH1 0x20 DUP2 PUSH1 0x4 DUP2 ADDRESS GAS STATICCALL SWAP1 DUP2 ISZERO PUSH2 0x5DF JUMPI PUSH0 SWAP2 PUSH2 0x23F1 JUMPI JUMPDEST POP DUP1 ISZERO PUSH2 0x1EB5 JUMPI PUSH2 0x23ED PUSH2 0x2710 SWAP2 PUSH1 0x6 SLOAD SWAP1 PUSH2 0x1CC3 JUMP JUMPDEST DIV SWAP1 JUMP JUMPDEST SWAP1 POP PUSH1 0x20 DUP2 RETURNDATASIZE PUSH1 0x20 GT PUSH2 0x241B JUMPI JUMPDEST DUP2 PUSH2 0x240C PUSH1 0x20 SWAP4 DUP4 PUSH2 0x1C74 JUMP JUMPDEST DUP2 ADD SUB SLT PUSH2 0x269 JUMPI MLOAD PUSH0 PUSH2 0x23D6 JUMP JUMPDEST RETURNDATASIZE SWAP2 POP PUSH2 0x23FF JUMP JUMPDEST PUSH1 0x2 SLOAD PUSH2 0x2435 PUSH1 0xFF DUP3 PUSH1 0xA0 SHR AND PUSH2 0x2169 JUMP JUMPDEST PUSH2 0x2442 PUSH1 0x3 SLOAD ISZERO ISZERO PUSH2 0x21F4 JUMP JUMPDEST PUSH1 0x1 PUSH1 0x1 PUSH1 0xA0 SHL SUB DUP3 DUP2 AND SWAP3 SWAP2 AND SWAP1 DUP3 DUP3 EQ PUSH2 0x259F JUMPI PUSH2 0x2461 DUP3 PUSH2 0x2C4A JUMP JUMPDEST SWAP2 DUP3 PUSH2 0x2481 JUMPI JUMPDEST POP POP POP PUSH1 0x1 DUP1 PUSH1 0xA0 SHL SUB NOT PUSH1 0x2 SLOAD AND OR PUSH1 0x2 SSTORE TIMESTAMP PUSH1 0x4 SSTORE JUMP JUMPDEST PUSH1 0x4 SWAP3 PUSH2 0x248D SWAP2 PUSH2 0x2C84 JUMP JUMPDEST PUSH1 0x2 SLOAD PUSH1 0x40 MLOAD PUSH4 0x38D52E0F PUSH1 0xE0 SHL DUP2 MSTORE SWAP4 PUSH1 0x20 SWAP2 DUP6 SWAP2 SWAP1 DUP3 SWAP1 PUSH1 0x1 PUSH1 0x1 PUSH1 0xA0 SHL SUB AND GAS STATICCALL SWAP3 DUP4 ISZERO PUSH2 0x5DF JUMPI PUSH0 SWAP4 PUSH2 0x257E JUMPI JUMPDEST POP PUSH1 0x40 MLOAD PUSH4 0x38D52E0F PUSH1 0xE0 SHL DUP2 MSTORE SWAP3 PUSH1 0x20 DUP5 PUSH1 0x4 DUP2 DUP9 GAS STATICCALL SWAP1 DUP2 ISZERO PUSH2 0x5DF JUMPI DUP6 SWAP5 PUSH0 SWAP3 PUSH2 0x255D JUMPI JUMPDEST POP PUSH1 0x1 PUSH1 0x1 PUSH1 0xA0 SHL SUB DUP3 DUP2 AND SWAP1 DUP3 AND SUB PUSH2 0x2549 JUMPI JUMPDEST POP DUP2 PUSH2 0x2508 SWAP3 SWAP4 PUSH2 0x2B85 JUMP JUMPDEST PUSH1 0x2 SLOAD PUSH1 0x40 MLOAD SWAP2 DUP3 MSTORE PUSH1 0x1 PUSH1 0x1 PUSH1 0xA0 SHL SUB AND SWAP1 PUSH32 0x31ACCDBF14EDDBE4E8220E420EC5151C1EF1895BEE03E2BA7B9403837BDA611E SWAP1 PUSH1 0x20 SWAP1 LOG3 PUSH0 DUP1 DUP1 PUSH2 0x2468 JUMP JUMPDEST PUSH2 0x2508 SWAP3 DUP3 PUSH2 0x2557 SWAP3 PUSH2 0x27D3 JUMP JUMPDEST SWAP2 PUSH2 0x24FC JUMP JUMPDEST PUSH2 0x2577 SWAP2 SWAP3 POP PUSH1 0x20 RETURNDATASIZE PUSH1 0x20 GT PUSH2 0x5D8 JUMPI PUSH2 0x5CA DUP2 DUP4 PUSH2 0x1C74 JUMP JUMPDEST SWAP1 PUSH0 PUSH2 0x24E7 JUMP JUMPDEST PUSH2 0x2598 SWAP2 SWAP4 POP PUSH1 0x20 RETURNDATASIZE PUSH1 0x20 GT PUSH2 0x5D8 JUMPI PUSH2 0x5CA DUP2 DUP4 PUSH2 0x1C74 JUMP JUMPDEST SWAP2 PUSH0 PUSH2 0x24BF JUMP JUMPDEST POP POP POP TIMESTAMP PUSH1 0x4 SSTORE JUMP JUMPDEST PUSH1 0xFF PUSH1 0x2 SLOAD PUSH1 0xA0 SHR AND ISZERO DUP1 ISZERO PUSH2 0x25D9 JUMPI JUMPDEST PUSH2 0x1D8D JUMPI PUSH2 0x25C5 PUSH2 0x1DAA JUMP JUMPDEST PUSH1 0x3 SLOAD DUP1 DUP3 GT ISZERO PUSH2 0x1E7D JUMPI PUSH2 0x1D57 SWAP2 PUSH2 0x1CB6 JUMP JUMPDEST POP PUSH1 0x3 SLOAD ISZERO PUSH2 0x25B9 JUMP JUMPDEST PUSH1 0x2 PUSH0 SLOAD EQ PUSH2 0x25F2 JUMPI PUSH1 0x2 PUSH0 SSTORE JUMP JUMPDEST PUSH4 0x3EE5AEB5 PUSH1 0xE0 SHL PUSH0 MSTORE PUSH1 0x4 PUSH0 REVERT JUMPDEST PUSH1 0xFF PUSH1 0x1 SLOAD AND PUSH2 0x260D JUMPI JUMP JUMPDEST PUSH4 0xD93C0665 PUSH1 0xE0 SHL PUSH0 MSTORE PUSH1 0x4 PUSH0 REVERT JUMPDEST SWAP1 DUP2 PUSH1 0x20 SWAP2 SUB SLT PUSH2 0x269 JUMPI MLOAD DUP1 ISZERO ISZERO DUP2 SUB PUSH2 0x269 JUMPI SWAP1 JUMP JUMPDEST PUSH1 0x1 PUSH1 0x1 PUSH1 0xA0 SHL SUB SWAP1 SWAP2 AND DUP2 MSTORE PUSH1 0x20 DUP2 ADD SWAP2 SWAP1 SWAP2 MSTORE PUSH1 0x40 ADD SWAP1 JUMP JUMPDEST PUSH1 0x1 PUSH1 0x1 PUSH1 0x40 SHL SUB DUP2 GT PUSH2 0x158B JUMPI PUSH1 0x5 SHL PUSH1 0x20 ADD SWAP1 JUMP JUMPDEST PUSH1 0x40 DUP1 MLOAD SWAP1 SWAP2 SWAP1 PUSH2 0x2677 DUP4 DUP3 PUSH2 0x1C74 JUMP JUMPDEST PUSH1 0x1 DUP2 MSTORE SWAP2 PUSH1 0x1F NOT ADD DUP3 PUSH0 JUMPDEST DUP3 DUP2 LT PUSH2 0x268F JUMPI POP POP POP JUMP JUMPDEST PUSH1 0x20 SWAP1 PUSH1 0x40 MLOAD PUSH2 0x269E DUP2 PUSH2 0x1C59 JUMP JUMPDEST PUSH0 DUP2 MSTORE PUSH0 DUP4 DUP3 ADD MSTORE PUSH0 PUSH1 0x40 DUP3 ADD MSTORE PUSH0 PUSH1 0x60 DUP3 ADD MSTORE DUP3 DUP3 DUP6 ADD ADD MSTORE ADD PUSH2 0x2683 JUMP JUMPDEST DUP1 MLOAD ISZERO PUSH2 0x1BBF JUMPI PUSH1 0x20 ADD SWAP1 JUMP JUMPDEST DUP1 MLOAD PUSH1 0x1 LT ISZERO PUSH2 0x1BBF JUMPI PUSH1 0x40 ADD SWAP1 JUMP JUMPDEST PUSH1 0x20 DUP2 DUP4 SUB SLT PUSH2 0x269 JUMPI DUP1 MLOAD SWAP1 PUSH1 0x1 PUSH1 0x1 PUSH1 0x40 SHL SUB DUP3 GT PUSH2 0x269 JUMPI ADD SWAP1 DUP1 PUSH1 0x1F DUP4 ADD SLT ISZERO PUSH2 0x269 JUMPI DUP2 MLOAD PUSH2 0x270E DUP2 PUSH2 0x264F JUMP JUMPDEST SWAP3 PUSH2 0x271C PUSH1 0x40 MLOAD SWAP5 DUP6 PUSH2 0x1C74 JUMP JUMPDEST DUP2 DUP5 MSTORE PUSH1 0x20 DUP1 DUP6 ADD SWAP3 PUSH1 0x5 SHL DUP3 ADD ADD SWAP3 DUP4 GT PUSH2 0x269 JUMPI PUSH1 0x20 ADD SWAP1 JUMPDEST DUP3 DUP3 LT PUSH2 0x2744 JUMPI POP POP POP SWAP1 JUMP JUMPDEST DUP2 MLOAD DUP2 MSTORE PUSH1 0x20 SWAP2 DUP3 ADD SWAP2 ADD PUSH2 0x2737 JUMP JUMPDEST SWAP1 PUSH1 0x20 DUP1 DUP4 MLOAD SWAP3 DUP4 DUP2 MSTORE ADD SWAP3 ADD SWAP1 PUSH0 JUMPDEST DUP2 DUP2 LT PUSH2 0x2771 JUMPI POP POP POP SWAP1 JUMP JUMPDEST DUP3 MLOAD DUP1 MLOAD PUSH1 0x1 PUSH1 0x1 PUSH1 0xA0 SHL SUB SWAP1 DUP2 AND DUP7 MSTORE PUSH1 0x20 DUP3 DUP2 ADD MLOAD DUP3 AND DUP2 DUP9 ADD MSTORE PUSH1 0x40 DUP1 DUP5 ADD MLOAD ISZERO ISZERO SWAP1 DUP9 ADD MSTORE PUSH1 0x60 SWAP3 DUP4 ADD MLOAD SWAP1 SWAP2 AND SWAP2 DUP7 ADD SWAP2 SWAP1 SWAP2 MSTORE PUSH1 0x80 SWAP1 SWAP5 ADD SWAP4 SWAP1 SWAP3 ADD SWAP2 PUSH1 0x1 ADD PUSH2 0x2764 JUMP JUMPDEST PUSH1 0x40 SWAP1 PUSH2 0x1D57 SWAP4 SWAP3 DUP2 MSTORE DUP2 PUSH1 0x20 DUP3 ADD MSTORE ADD SWAP1 PUSH2 0x2754 JUMP JUMPDEST SWAP2 SWAP3 SWAP2 PUSH1 0x1 PUSH1 0x1 PUSH1 0xA0 SHL SUB DUP3 DUP2 AND SWAP3 SWAP1 DUP3 AND SWAP2 DUP3 DUP5 EQ PUSH2 0x2B53 JUMPI DUP6 ISZERO PUSH2 0x2B20 JUMPI PUSH1 0x40 MLOAD PUSH4 0x79BC57D5 PUSH1 0xE0 SHL DUP2 MSTORE DUP4 PUSH1 0x4 DUP3 ADD MSTORE DUP5 PUSH1 0x24 DUP3 ADD MSTORE PUSH1 0x1 PUSH1 0x44 DUP3 ADD MSTORE PUSH1 0x20 DUP2 PUSH1 0x64 DUP2 PUSH0 MLOAD PUSH1 0x20 PUSH2 0x32A9 PUSH0 CODECOPY PUSH0 MLOAD SWAP1 PUSH0 MSTORE GAS STATICCALL SWAP1 DUP2 ISZERO PUSH2 0x5DF JUMPI PUSH0 SWAP2 PUSH2 0x2B01 JUMPI JUMPDEST POP PUSH1 0x40 MLOAD SWAP2 PUSH4 0x79BC57D5 PUSH1 0xE0 SHL DUP4 MSTORE DUP5 PUSH1 0x4 DUP5 ADD MSTORE DUP6 PUSH1 0x24 DUP5 ADD MSTORE PUSH0 PUSH1 0x44 DUP5 ADD MSTORE PUSH1 0x20 DUP4 PUSH1 0x64 DUP2 PUSH0 MLOAD PUSH1 0x20 PUSH2 0x32A9 PUSH0 CODECOPY PUSH0 MLOAD SWAP1 PUSH0 MSTORE GAS STATICCALL SWAP3 DUP4 ISZERO PUSH2 0x5DF JUMPI PUSH0 SWAP4 PUSH2 0x2AE0 JUMPI JUMPDEST POP PUSH1 0x1 PUSH1 0x1 PUSH1 0xA0 SHL SUB DUP3 AND ISZERO DUP1 ISZERO SWAP1 PUSH2 0x2ACE JUMPI JUMPDEST ISZERO PUSH2 0x2A98 JUMPI PUSH2 0x28A0 SWAP4 DUP9 SWAP2 PUSH2 0x3165 JUMP JUMPDEST PUSH1 0x40 MLOAD PUSH4 0x95EA7B3 PUSH1 0xE0 SHL DUP2 MSTORE PUSH20 0xCF77A3BA9A5CA399B7C97C74D54E5B1BEB874E43 PUSH1 0x4 DUP3 ADD MSTORE PUSH1 0x24 DUP2 ADD DUP7 SWAP1 MSTORE PUSH1 0x20 DUP2 PUSH1 0x44 DUP2 PUSH0 DUP8 GAS CALL DUP1 ISZERO PUSH2 0x5DF JUMPI PUSH2 0x2A6B JUMPI JUMPDEST POP PUSH2 0x28EC PUSH2 0x2666 JUMP JUMPDEST SWAP1 PUSH1 0x40 MLOAD SWAP1 PUSH2 0x28FA DUP3 PUSH2 0x1C59 JUMP JUMPDEST DUP4 DUP3 MSTORE DUP5 PUSH1 0x20 DUP4 ADD MSTORE ISZERO ISZERO PUSH1 0x40 DUP3 ADD MSTORE PUSH0 MLOAD PUSH1 0x20 PUSH2 0x32A9 PUSH0 CODECOPY PUSH0 MLOAD SWAP1 PUSH0 MSTORE PUSH1 0x60 DUP3 ADD MSTORE PUSH2 0x2926 DUP3 PUSH2 0x26BE JUMP JUMPDEST MSTORE PUSH2 0x2930 DUP2 PUSH2 0x26BE JUMP JUMPDEST POP PUSH1 0x40 MLOAD PUSH4 0x1542686B PUSH1 0xE2 SHL DUP2 MSTORE PUSH0 DUP2 DUP1 PUSH2 0x294F DUP6 DUP11 PUSH1 0x4 DUP5 ADD PUSH2 0x27BC JUMP JUMPDEST SUB DUP2 PUSH20 0xCF77A3BA9A5CA399B7C97C74D54E5B1BEB874E43 GAS STATICCALL DUP1 ISZERO PUSH2 0x5DF JUMPI PUSH2 0x297F SWAP2 PUSH0 SWAP2 PUSH2 0x2A49 JUMPI JUMPDEST POP PUSH2 0x26CB JUMP JUMPDEST MLOAD PUSH2 0x251C DUP2 MUL SWAP1 DUP1 DUP3 DIV PUSH2 0x251C EQ SWAP1 ISZERO OR ISZERO PUSH2 0x733 JUMPI PUSH2 0x12C TIMESTAMP ADD DUP1 TIMESTAMP GT PUSH2 0x733 JUMPI PUSH0 SWAP2 PUSH2 0x2710 SWAP2 PUSH2 0x29D9 PUSH1 0x40 MLOAD SWAP6 DUP7 SWAP5 DUP6 SWAP5 PUSH4 0xCAC88EA9 PUSH1 0xE0 SHL DUP7 MSTORE DUP13 PUSH1 0x4 DUP8 ADD MSTORE DIV PUSH1 0x24 DUP6 ADD MSTORE PUSH1 0xA0 PUSH1 0x44 DUP6 ADD MSTORE PUSH1 0xA4 DUP5 ADD SWAP1 PUSH2 0x2754 JUMP JUMPDEST SWAP1 ADDRESS PUSH1 0x64 DUP5 ADD MSTORE PUSH1 0x84 DUP4 ADD MSTORE SUB DUP2 DUP4 PUSH20 0xCF77A3BA9A5CA399B7C97C74D54E5B1BEB874E43 GAS CALL DUP1 ISZERO PUSH2 0x5DF JUMPI PUSH2 0x2A39 PUSH1 0x40 SWAP2 PUSH32 0x4AC5DF40D910FEAB74F02C4430568F99E711257906DD0DF11643DF22F2EE3CF6 SWAP4 PUSH0 SWAP2 PUSH2 0x2A49 JUMPI POP PUSH2 0x26CB JUMP JUMPDEST MLOAD SWAP6 DUP2 MLOAD SWAP1 DUP2 MSTORE DUP7 PUSH1 0x20 DUP3 ADD MSTORE LOG3 JUMP JUMPDEST PUSH2 0x2A65 SWAP2 POP RETURNDATASIZE DUP1 PUSH0 DUP4 RETURNDATACOPY PUSH2 0x2A5D DUP2 DUP4 PUSH2 0x1C74 JUMP JUMPDEST DUP2 ADD SWAP1 PUSH2 0x26DB JUMP JUMPDEST PUSH0 PUSH2 0x2979 JUMP JUMPDEST PUSH2 0x2A8C SWAP1 PUSH1 0x20 RETURNDATASIZE PUSH1 0x20 GT PUSH2 0x2A91 JUMPI JUMPDEST PUSH2 0x2A84 DUP2 DUP4 PUSH2 0x1C74 JUMP JUMPDEST DUP2 ADD SWAP1 PUSH2 0x261C JUMP JUMPDEST PUSH2 0x28E3 JUMP JUMPDEST POP RETURNDATASIZE PUSH2 0x2A7A JUMP JUMPDEST PUSH1 0x40 MLOAD PUSH3 0x461BCD PUSH1 0xE5 SHL DUP2 MSTORE PUSH1 0x20 PUSH1 0x4 DUP3 ADD MSTORE PUSH1 0xE PUSH1 0x24 DUP3 ADD MSTORE PUSH14 0x139BC81C1BDBDB1CC8195E1A5CDD PUSH1 0x92 SHL PUSH1 0x44 DUP3 ADD MSTORE PUSH1 0x64 SWAP1 REVERT JUMPDEST POP PUSH1 0x1 PUSH1 0x1 PUSH1 0xA0 SHL SUB DUP4 AND ISZERO ISZERO PUSH2 0x2890 JUMP JUMPDEST PUSH2 0x2AFA SWAP2 SWAP4 POP PUSH1 0x20 RETURNDATASIZE PUSH1 0x20 GT PUSH2 0x5D8 JUMPI PUSH2 0x5CA DUP2 DUP4 PUSH2 0x1C74 JUMP JUMPDEST SWAP2 PUSH0 PUSH2 0x287C JUMP JUMPDEST PUSH2 0x2B1A SWAP2 POP PUSH1 0x20 RETURNDATASIZE PUSH1 0x20 GT PUSH2 0x5D8 JUMPI PUSH2 0x5CA DUP2 DUP4 PUSH2 0x1C74 JUMP JUMPDEST PUSH0 PUSH2 0x2837 JUMP JUMPDEST PUSH1 0x40 MLOAD PUSH3 0x461BCD PUSH1 0xE5 SHL DUP2 MSTORE PUSH1 0x20 PUSH1 0x4 DUP3 ADD MSTORE PUSH1 0xB PUSH1 0x24 DUP3 ADD MSTORE PUSH11 0x16995C9BC8185B5BDD5B9D PUSH1 0xAA SHL PUSH1 0x44 DUP3 ADD MSTORE PUSH1 0x64 SWAP1 REVERT JUMPDEST PUSH1 0x40 MLOAD PUSH3 0x461BCD PUSH1 0xE5 SHL DUP2 MSTORE PUSH1 0x20 PUSH1 0x4 DUP3 ADD MSTORE PUSH1 0xA PUSH1 0x24 DUP3 ADD MSTORE PUSH10 0x29B0B6B2903A37B5B2B7 PUSH1 0xB1 SHL PUSH1 0x44 DUP3 ADD MSTORE PUSH1 0x64 SWAP1 REVERT JUMPDEST PUSH1 0x40 MLOAD PUSH4 0x95EA7B3 PUSH1 0xE0 SHL DUP2 MSTORE SWAP2 SWAP3 PUSH1 0x20 SWAP1 DUP4 SWAP1 DUP2 PUSH0 DUP2 PUSH2 0x2BAA DUP10 DUP9 PUSH1 0x4 DUP5 ADD PUSH2 0x2634 JUMP JUMPDEST SUB SWAP3 PUSH1 0x1 PUSH1 0x1 PUSH1 0xA0 SHL SUB AND GAS CALL DUP1 ISZERO PUSH2 0x5DF JUMPI PUSH0 SWAP4 PUSH1 0x20 SWAP4 PUSH1 0x44 SWAP3 PUSH2 0x2C2F JUMPI JUMPDEST POP PUSH1 0x40 MLOAD PUSH4 0x6E553F65 PUSH1 0xE0 SHL DUP2 MSTORE PUSH1 0x4 DUP2 ADD SWAP2 SWAP1 SWAP2 MSTORE ADDRESS PUSH1 0x24 DUP3 ADD MSTORE SWAP4 DUP5 SWAP3 DUP4 SWAP2 SWAP1 PUSH1 0x1 PUSH1 0x1 PUSH1 0xA0 SHL SUB AND GAS CALL DUP1 ISZERO PUSH2 0x5DF JUMPI PUSH2 0x2C04 JUMPI POP JUMP JUMPDEST PUSH2 0x2C25 SWAP1 PUSH1 0x20 RETURNDATASIZE PUSH1 0x20 GT PUSH2 0x2C28 JUMPI JUMPDEST PUSH2 0x2C1D DUP2 DUP4 PUSH2 0x1C74 JUMP JUMPDEST DUP2 ADD SWAP1 PUSH2 0x1D9B JUMP JUMPDEST POP JUMP JUMPDEST POP RETURNDATASIZE PUSH2 0x2C13 JUMP JUMPDEST PUSH2 0x2C45 SWAP1 DUP6 RETURNDATASIZE DUP8 GT PUSH2 0x2A91 JUMPI PUSH2 0x2A84 DUP2 DUP4 PUSH2 0x1C74 JUMP JUMPDEST PUSH2 0x2BCA JUMP JUMPDEST PUSH1 0x40 MLOAD PUSH4 0x70A08231 PUSH1 0xE0 SHL DUP2 MSTORE ADDRESS PUSH1 0x4 DUP3 ADD MSTORE SWAP1 PUSH1 0x20 SWAP1 DUP3 SWAP1 PUSH1 0x24 SWAP1 DUP3 SWAP1 PUSH1 0x1 PUSH1 0x1 PUSH1 0xA0 SHL SUB AND GAS STATICCALL SWAP1 DUP2 ISZERO PUSH2 0x5DF JUMPI PUSH0 SWAP2 PUSH2 0x1F65 JUMPI POP SWAP1 JUMP JUMPDEST PUSH1 0x40 MLOAD PUSH4 0x5D043B29 PUSH1 0xE1 SHL DUP2 MSTORE PUSH1 0x4 DUP2 ADD SWAP3 SWAP1 SWAP3 MSTORE ADDRESS PUSH1 0x24 DUP4 ADD DUP2 SWAP1 MSTORE PUSH1 0x44 DUP4 ADD MSTORE PUSH1 0x20 SWAP1 DUP3 SWAP1 PUSH1 0x64 SWAP1 DUP3 SWAP1 PUSH0 SWAP1 PUSH1 0x1 PUSH1 0x1 PUSH1 0xA0 SHL SUB AND GAS CALL SWAP1 DUP2 ISZERO PUSH2 0x5DF JUMPI PUSH0 SWAP2 PUSH2 0x1F65 JUMPI POP SWAP1 JUMP JUMPDEST PUSH1 0x1 PUSH1 0x1 PUSH1 0xA0 SHL SUB DUP1 DUP3 AND SWAP4 SWAP2 SWAP3 SWAP1 DUP2 AND DUP5 DUP2 EQ DUP1 ISZERO PUSH2 0x2E05 JUMPI JUMPDEST PUSH2 0x2DFD JUMPI PUSH1 0x40 MLOAD SWAP1 PUSH4 0x79BC57D5 PUSH1 0xE0 SHL DUP3 MSTORE DUP6 PUSH1 0x4 DUP4 ADD MSTORE DUP1 PUSH1 0x24 DUP4 ADD MSTORE PUSH1 0x1 PUSH1 0x44 DUP4 ADD MSTORE PUSH1 0x20 DUP3 PUSH1 0x64 DUP2 PUSH0 MLOAD PUSH1 0x20 PUSH2 0x32A9 PUSH0 CODECOPY PUSH0 MLOAD SWAP1 PUSH0 MSTORE GAS STATICCALL SWAP2 DUP3 ISZERO PUSH2 0x5DF JUMPI PUSH0 SWAP3 PUSH2 0x2DDC JUMPI JUMPDEST POP PUSH1 0x40 MLOAD SWAP6 PUSH4 0x79BC57D5 PUSH1 0xE0 SHL DUP8 MSTORE PUSH1 0x4 DUP8 ADD MSTORE PUSH1 0x24 DUP7 ADD MSTORE PUSH0 PUSH1 0x44 DUP7 ADD MSTORE PUSH1 0x20 DUP6 PUSH1 0x64 DUP2 PUSH0 MLOAD PUSH1 0x20 PUSH2 0x32A9 PUSH0 CODECOPY PUSH0 MLOAD SWAP1 PUSH0 MSTORE GAS STATICCALL SWAP5 DUP6 ISZERO PUSH2 0x5DF JUMPI PUSH0 SWAP6 PUSH2 0x2DBB JUMPI JUMPDEST POP PUSH1 0x1 PUSH1 0x1 PUSH1 0xA0 SHL SUB DUP2 AND ISZERO DUP1 PUSH2 0x2DAA JUMPI JUMPDEST PUSH2 0x2DA1 JUMPI PUSH2 0x1D57 SWAP5 PUSH2 0x2D9B SWAP2 DUP5 DUP5 DUP8 PUSH2 0x3165 JUMP JUMPDEST SWAP3 PUSH2 0x3089 JUMP JUMPDEST POP POP POP POP POP PUSH0 SWAP1 JUMP JUMPDEST POP PUSH1 0x1 PUSH1 0x1 PUSH1 0xA0 SHL SUB DUP6 AND ISZERO PUSH2 0x2D87 JUMP JUMPDEST PUSH2 0x2DD5 SWAP2 SWAP6 POP PUSH1 0x20 RETURNDATASIZE PUSH1 0x20 GT PUSH2 0x5D8 JUMPI PUSH2 0x5CA DUP2 DUP4 PUSH2 0x1C74 JUMP JUMPDEST SWAP4 PUSH0 PUSH2 0x2D75 JUMP JUMPDEST PUSH2 0x2DF6 SWAP2 SWAP3 POP PUSH1 0x20 RETURNDATASIZE PUSH1 0x20 GT PUSH2 0x5D8 JUMPI PUSH2 0x5CA DUP2 DUP4 PUSH2 0x1C74 JUMP JUMPDEST SWAP1 PUSH0 PUSH2 0x2D32 JUMP JUMPDEST POP POP SWAP2 POP POP SWAP1 JUMP JUMPDEST POP DUP3 ISZERO PUSH2 0x2CE9 JUMP JUMPDEST PUSH1 0xFF PUSH1 0x1 SLOAD AND ISZERO PUSH2 0x2E1A JUMPI JUMP JUMPDEST PUSH4 0x8DFC202B PUSH1 0xE0 SHL PUSH0 MSTORE PUSH1 0x4 PUSH0 REVERT JUMPDEST PUSH2 0x2E5E PUSH2 0x2E63 SWAP4 SWAP3 PUSH2 0x2E50 PUSH1 0x40 MLOAD SWAP5 DUP6 SWAP3 PUSH4 0xA9059CBB PUSH1 0xE0 SHL PUSH1 0x20 DUP6 ADD MSTORE PUSH1 0x24 DUP5 ADD PUSH2 0x2634 JUMP JUMPDEST SUB PUSH1 0x1F NOT DUP2 ADD DUP5 MSTORE DUP4 PUSH2 0x1C74 JUMP JUMPDEST PUSH2 0x3210 JUMP JUMPDEST JUMP JUMPDEST PUSH1 0x40 MLOAD PUSH4 0x79BC57D5 PUSH1 0xE0 SHL DUP2 MSTORE PUSH1 0x1 PUSH1 0x1 PUSH1 0xA0 SHL SUB DUP1 DUP4 AND PUSH1 0x4 DUP4 ADD MSTORE DUP4 AND PUSH1 0x24 DUP3 ADD MSTORE PUSH1 0x1 PUSH1 0x44 DUP3 ADD MSTORE SWAP1 SWAP2 SWAP1 PUSH1 0x20 DUP2 PUSH1 0x64 DUP2 PUSH0 MLOAD PUSH1 0x20 PUSH2 0x32A9 PUSH0 CODECOPY PUSH0 MLOAD SWAP1 PUSH0 MSTORE GAS STATICCALL SWAP1 DUP2 ISZERO PUSH2 0x5DF JUMPI PUSH0 SWAP2 PUSH2 0x2F99 JUMPI JUMPDEST POP PUSH1 0x1 PUSH1 0x1 PUSH1 0xA0 SHL SUB AND ISZERO PUSH2 0x2F92 JUMPI PUSH2 0x2F3E SWAP3 PUSH0 SWAP3 PUSH2 0x2ED4 PUSH2 0x2666 JUMP JUMPDEST SWAP3 PUSH1 0x40 MLOAD SWAP2 PUSH2 0x2EE2 DUP4 PUSH2 0x1C59 JUMP JUMPDEST PUSH1 0x1 PUSH1 0x1 PUSH1 0xA0 SHL SUB SWAP1 DUP2 AND DUP4 MSTORE AND PUSH1 0x20 DUP3 ADD MSTORE PUSH1 0x1 PUSH1 0x40 DUP3 ADD MSTORE PUSH0 MLOAD PUSH1 0x20 PUSH2 0x32A9 PUSH0 CODECOPY PUSH0 MLOAD SWAP1 PUSH0 MSTORE PUSH1 0x60 DUP3 ADD MSTORE PUSH2 0x2F18 DUP4 PUSH2 0x26BE JUMP JUMPDEST MSTORE PUSH2 0x2F22 DUP3 PUSH2 0x26BE JUMP JUMPDEST POP PUSH1 0x40 MLOAD PUSH4 0x1542686B PUSH1 0xE2 SHL DUP2 MSTORE SWAP4 DUP5 SWAP3 DUP4 SWAP3 PUSH1 0x4 DUP5 ADD PUSH2 0x27BC JUMP JUMPDEST SUB DUP2 PUSH20 0xCF77A3BA9A5CA399B7C97C74D54E5B1BEB874E43 GAS STATICCALL PUSH0 SWAP2 DUP2 PUSH2 0x2F76 JUMPI JUMPDEST POP PUSH2 0x2F69 JUMPI POP PUSH0 SWAP1 JUMP JUMPDEST PUSH2 0x2F72 SWAP1 PUSH2 0x26CB JUMP JUMPDEST MLOAD SWAP1 JUMP JUMPDEST PUSH2 0x2F8B SWAP2 SWAP3 POP RETURNDATASIZE DUP1 PUSH0 DUP4 RETURNDATACOPY PUSH2 0x2A5D DUP2 DUP4 PUSH2 0x1C74 JUMP JUMPDEST SWAP1 PUSH0 PUSH2 0x2F5F JUMP JUMPDEST POP POP POP PUSH0 SWAP1 JUMP JUMPDEST PUSH2 0x2FB2 SWAP2 POP PUSH1 0x20 RETURNDATASIZE PUSH1 0x20 GT PUSH2 0x5D8 JUMPI PUSH2 0x5CA DUP2 DUP4 PUSH2 0x1C74 JUMP JUMPDEST PUSH0 PUSH2 0x2EB7 JUMP JUMPDEST PUSH1 0x40 MLOAD PUSH4 0x79BC57D5 PUSH1 0xE0 SHL DUP2 MSTORE PUSH1 0x1 PUSH1 0x1 PUSH1 0xA0 SHL SUB DUP1 DUP4 AND PUSH1 0x4 DUP4 ADD MSTORE DUP4 AND PUSH1 0x24 DUP3 ADD MSTORE PUSH0 PUSH1 0x44 DUP3 ADD MSTORE SWAP1 SWAP2 SWAP1 PUSH1 0x20 DUP2 PUSH1 0x64 DUP2 PUSH0 MLOAD PUSH1 0x20 PUSH2 0x32A9 PUSH0 CODECOPY PUSH0 MLOAD SWAP1 PUSH0 MSTORE GAS STATICCALL SWAP1 DUP2 ISZERO PUSH2 0x5DF JUMPI PUSH0 SWAP2 PUSH2 0x306A JUMPI JUMPDEST POP PUSH1 0x1 PUSH1 0x1 PUSH1 0xA0 SHL SUB AND ISZERO PUSH2 0x2F92 JUMPI PUSH2 0x2F3E SWAP3 PUSH0 SWAP3 PUSH2 0x3026 PUSH2 0x2666 JUMP JUMPDEST SWAP3 PUSH1 0x40 MLOAD SWAP2 PUSH2 0x3034 DUP4 PUSH2 0x1C59 JUMP JUMPDEST PUSH1 0x1 PUSH1 0x1 PUSH1 0xA0 SHL SUB SWAP1 DUP2 AND DUP4 MSTORE AND PUSH1 0x20 DUP3 ADD MSTORE PUSH1 0x40 DUP2 ADD DUP5 SWAP1 MSTORE PUSH0 MLOAD PUSH1 0x20 PUSH2 0x32A9 PUSH0 CODECOPY PUSH0 MLOAD SWAP1 PUSH0 MSTORE PUSH1 0x60 DUP3 ADD MSTORE PUSH2 0x2F18 DUP4 PUSH2 0x26BE JUMP JUMPDEST PUSH2 0x3083 SWAP2 POP PUSH1 0x20 RETURNDATASIZE PUSH1 0x20 GT PUSH2 0x5D8 JUMPI PUSH2 0x5CA DUP2 DUP4 PUSH2 0x1C74 JUMP JUMPDEST PUSH0 PUSH2 0x3009 JUMP JUMPDEST PUSH1 0x40 MLOAD PUSH4 0x79BC57D5 PUSH1 0xE0 SHL DUP2 MSTORE PUSH1 0x1 PUSH1 0x1 PUSH1 0xA0 SHL SUB DUP3 DUP2 AND PUSH1 0x4 DUP4 ADD MSTORE DUP4 AND PUSH1 0x24 DUP3 ADD MSTORE DUP5 ISZERO ISZERO PUSH1 0x44 DUP3 ADD MSTORE SWAP1 SWAP4 SWAP3 SWAP1 PUSH1 0x20 DUP2 PUSH1 0x64 DUP2 PUSH0 MLOAD PUSH1 0x20 PUSH2 0x32A9 PUSH0 CODECOPY PUSH0 MLOAD SWAP1 PUSH0 MSTORE GAS STATICCALL SWAP1 DUP2 ISZERO PUSH2 0x5DF JUMPI PUSH0 SWAP2 PUSH2 0x3146 JUMPI JUMPDEST POP PUSH1 0x1 PUSH1 0x1 PUSH1 0xA0 SHL SUB AND ISZERO PUSH2 0x313E JUMPI PUSH2 0x2F3E SWAP4 PUSH0 SWAP4 PUSH2 0x30FA PUSH2 0x2666 JUMP JUMPDEST SWAP4 PUSH1 0x40 MLOAD SWAP3 PUSH2 0x3108 DUP5 PUSH2 0x1C59 JUMP JUMPDEST PUSH1 0x1 PUSH1 0x1 PUSH1 0xA0 SHL SUB SWAP1 DUP2 AND DUP5 MSTORE AND PUSH1 0x20 DUP4 ADD MSTORE ISZERO ISZERO PUSH1 0x40 DUP3 ADD MSTORE PUSH0 MLOAD PUSH1 0x20 PUSH2 0x32A9 PUSH0 CODECOPY PUSH0 MLOAD SWAP1 PUSH0 MSTORE PUSH1 0x60 DUP3 ADD MSTORE PUSH2 0x2F18 DUP4 PUSH2 0x26BE JUMP JUMPDEST POP POP POP POP PUSH0 SWAP1 JUMP JUMPDEST PUSH2 0x315F SWAP2 POP PUSH1 0x20 RETURNDATASIZE PUSH1 0x20 GT PUSH2 0x5D8 JUMPI PUSH2 0x5CA DUP2 DUP4 PUSH2 0x1C74 JUMP JUMPDEST PUSH0 PUSH2 0x30DD JUMP JUMPDEST PUSH1 0x1 PUSH1 0x1 PUSH1 0xA0 SHL SUB SWAP1 SWAP4 AND ISZERO SWAP4 DUP5 DUP1 PUSH2 0x31FE JUMPI JUMPDEST PUSH2 0x2DA1 JUMPI PUSH1 0x1 PUSH1 0x1 PUSH1 0xA0 SHL SUB AND ISZERO SWAP3 DUP4 DUP1 PUSH2 0x31F6 JUMPI JUMPDEST PUSH2 0x31EC JUMPI PUSH0 SWAP4 PUSH0 SWAP6 ISZERO PUSH2 0x31D9 JUMPI JUMPDEST ISZERO PUSH2 0x31C5 JUMPI JUMPDEST POP POP POP PUSH2 0x3E9 DUP2 MUL SWAP1 DUP1 DUP3 DIV PUSH2 0x3E9 EQ SWAP1 ISZERO OR ISZERO PUSH2 0x733 JUMPI PUSH2 0x3E8 SWAP1 DIV LT ISZERO SWAP1 JUMP JUMPDEST PUSH2 0x31D0 SWAP4 SWAP5 POP PUSH2 0x2FB8 JUMP JUMPDEST SWAP1 PUSH0 DUP1 DUP1 PUSH2 0x31A3 JUMP JUMPDEST SWAP4 POP PUSH2 0x31E6 DUP4 DUP4 DUP4 PUSH2 0x2E65 JUMP JUMPDEST SWAP4 PUSH2 0x319D JUMP JUMPDEST POP POP POP POP POP PUSH1 0x1 SWAP1 JUMP JUMPDEST POP DUP5 ISZERO PUSH2 0x318F JUMP JUMPDEST POP PUSH1 0x1 PUSH1 0x1 PUSH1 0xA0 SHL SUB DUP2 AND ISZERO ISZERO PUSH2 0x3179 JUMP JUMPDEST SWAP1 PUSH0 PUSH1 0x20 SWAP2 DUP3 DUP2 MLOAD SWAP2 ADD DUP3 DUP6 GAS CALL ISZERO PUSH2 0x5DF JUMPI PUSH0 MLOAD RETURNDATASIZE PUSH2 0x325F JUMPI POP PUSH1 0x1 PUSH1 0x1 PUSH1 0xA0 SHL SUB DUP2 AND EXTCODESIZE ISZERO JUMPDEST PUSH2 0x323F JUMPI POP JUMP JUMPDEST PUSH4 0x5274AFE7 PUSH1 0xE0 SHL PUSH0 SWAP1 DUP2 MSTORE PUSH1 0x1 PUSH1 0x1 PUSH1 0xA0 SHL SUB SWAP2 SWAP1 SWAP2 AND PUSH1 0x4 MSTORE PUSH1 0x24 SWAP1 REVERT JUMPDEST PUSH1 0x1 EQ ISZERO PUSH2 0x3238 JUMP INVALID BYTE 0xA8 DUP6 0x27 SWAP9 PUSH23 0x80F71E6ACE8F3D2AB4871DB1862850458125715E5175F0 DUP9 0xC6 MULMOD LT DUP6 AND 0xDD 0xCF JUMPDEST LOG4 EXTCODECOPY 0xEA PUSH12 0xB2CD5FF6D59AC196C1C86CCB SWAP2 PUSH25 0x332B9DD72D1CA561000000000000000000000000420DD381B3 BYTE 0xEF PUSH7 0x83DB6B902084CB 0xF INVALID 0xCE BLOCKHASH 0xDA 0x27 OR 0xEA 0xD6 0xB9 KECCAK256 0xD 0xD2 CALLDATALOAD 0xAA 0xD4 PUSH9 0xC9809EA400FE33AC69 0xB5 0xBF 0xAA PUSH14 0x3E90FC922B63984CE94E8BD94F62 ADD PUSH18 0x97BA464F629A366572732970F6FE47C76F97 0xBB MSTORE8 0xF7 PUSH4 0x3A26469 PUSH17 0x6673582212208900498105A7A79C323256 0x2D PUSH6 0x77502B20AB55 PUSH30 0xC1C7E399ACABF8398E16A95D64736F6C634300081E003300000000000000 "},"methodIdentifiers":{"AERODROME_FACTORY()":"15cb51ce","AERODROME_ROUTER()":"db37bab4","DEPOSIT_INTERVAL()":"b723bcc3","MAX_FEE_PERCENTAGE()":"558e44d3","MIN_PROFIT_FOR_FEE()":"edcf6316","REBALANCE_FEE_PERCENTAGE()":"10f55679","SLIPPAGE_TOLERANCE()":"4c203786","addVault(address)":"256b5a02","admin()":"f851a440","allowedVaults(uint256)":"1746a22b","asset()":"38d52e0f","calculateFeeFromProfit(uint256)":"7f68237a","canDeposit()":"e78a5875","currentVault()":"2b0c6c45","deposit(address)":"f340fa01","emergencyWithdraw(address)":"6ff1c9bc","feePercentage()":"a001ecdd","getAllowedVaults()":"e44fef95","getAllowedVaultsCount()":"8c8d944f","getCurrentVaultAssets()":"2f5ce345","getCurrentVaultAssetsInPrimaryAsset()":"0d2b32c7","getCurrentVaultBalance()":"1ec06ecc","getFeeInfo()":"0002eab7","getOptimalPoolInfo(address,address,uint256)":"d0e56347","getPotentialFee()":"d81b464b","getProfit()":"679dffb4","getProfitPercentage()":"0b61905f","getTaxableProfit()":"f8c0ae05","getVaultAsset(address)":"ca9d67c8","getWithdrawFeePreview(uint256)":"66aeb1c1","hasInitialDeposit()":"6db4b69d","initialDeposit(address,uint256)":"0147cb7b","initialDepositAmount()":"21edd097","initialDepositMade()":"8bbed958","isAllowedVault(address)":"fd812094","lastDepositTime()":"bd28f351","needsSwap(address)":"72a7d477","owner()":"8da5cb5b","pause()":"8456cb59","paused()":"5c975abb","rebalanceToVault(address,address)":"a3c1eb8b","removeVault(address)":"ceb68c23","revenueAddress()":"b410908d","timeUntilNextDeposit()":"5a46d32f","totalDeposited()":"ff50abdc","totalFeesCollected()":"60c6d8ae","unpause()":"3f4ba83a","updateAdmin(address)":"e2f273bd","updateFeePercentage(uint256)":"6cad3fb0","updateRevenueAddress(address)":"fdd28859","withdraw(address,uint256)":"f3fef3a3"}}}}}