{"contracts/UserVaultFactory.sol":{"UserVaultFactory":{"abi":[{"inputs":[{"internalType":"address","name":"_initialOwner","type":"address"},{"internalType":"uint256","name":"_deploymentFee","type":"uint256"},{"internalType":"address","name":"_feeRecipient","type":"address"}],"stateMutability":"nonpayable","type":"constructor"},{"inputs":[],"name":"EnforcedPause","type":"error"},{"inputs":[],"name":"ExpectedPause","type":"error"},{"inputs":[{"internalType":"address","name":"owner","type":"address"}],"name":"OwnableInvalidOwner","type":"error"},{"inputs":[{"internalType":"address","name":"account","type":"address"}],"name":"OwnableUnauthorizedAccount","type":"error"},{"inputs":[],"name":"ReentrancyGuardReentrantCall","type":"error"},{"anonymous":false,"inputs":[{"indexed":true,"internalType":"address","name":"previousOwner","type":"address"},{"indexed":true,"internalType":"address","name":"newOwner","type":"address"}],"name":"OwnershipTransferred","type":"event"},{"anonymous":false,"inputs":[{"indexed":false,"internalType":"address","name":"account","type":"address"}],"name":"Paused","type":"event"},{"anonymous":false,"inputs":[{"indexed":false,"internalType":"address","name":"account","type":"address"}],"name":"Unpaused","type":"event"},{"anonymous":false,"inputs":[{"indexed":true,"internalType":"address","name":"vaultAddress","type":"address"},{"indexed":true,"internalType":"address","name":"owner","type":"address"},{"indexed":true,"internalType":"address","name":"admin","type":"address"},{"indexed":false,"internalType":"bytes32","name":"salt","type":"bytes32"},{"indexed":false,"internalType":"uint256","name":"chainId","type":"uint256"}],"name":"VaultDeployed","type":"event"},{"anonymous":false,"inputs":[{"indexed":true,"internalType":"address","name":"vaultAddress","type":"address"},{"indexed":true,"internalType":"address","name":"owner","type":"address"},{"indexed":true,"internalType":"uint256","name":"chainId","type":"uint256"}],"name":"VaultRegistered","type":"event"},{"inputs":[{"internalType":"address","name":"owner","type":"address"},{"internalType":"address","name":"admin","type":"address"},{"internalType":"address","name":"asset","type":"address"},{"internalType":"address[]","name":"initialVaults","type":"address[]"},{"internalType":"address","name":"revenueAddress","type":"address"},{"internalType":"uint256","name":"feePercentage","type":"uint256"},{"internalType":"uint256","name":"initialDepositAmount","type":"uint256"},{"internalType":"bytes32","name":"salt","type":"bytes32"}],"name":"computeVaultAddress","outputs":[{"internalType":"address","name":"predictedAddress","type":"address"}],"stateMutability":"view","type":"function"},{"inputs":[{"internalType":"address","name":"owner","type":"address"},{"internalType":"address","name":"admin","type":"address"},{"internalType":"address","name":"asset","type":"address"},{"internalType":"address[]","name":"initialVaults","type":"address[]"},{"internalType":"address","name":"revenueAddress","type":"address"},{"internalType":"uint256","name":"feePercentage","type":"uint256"},{"internalType":"uint256","name":"initialDepositAmount","type":"uint256"},{"internalType":"bytes32","name":"salt","type":"bytes32"}],"name":"deployVault","outputs":[{"internalType":"address","name":"vaultAddress","type":"address"}],"stateMutability":"payable","type":"function"},{"inputs":[{"internalType":"address","name":"owner","type":"address"},{"internalType":"address","name":"admin","type":"address"},{"internalType":"address","name":"asset","type":"address"},{"internalType":"address[]","name":"initialVaults","type":"address[]"},{"internalType":"address","name":"revenueAddress","type":"address"},{"internalType":"uint256","name":"feePercentage","type":"uint256"},{"internalType":"uint256","name":"initialDepositAmount","type":"uint256"},{"internalType":"uint256","name":"nonce","type":"uint256"}],"name":"deployVaultWithNonce","outputs":[{"internalType":"address","name":"vaultAddress","type":"address"},{"internalType":"bytes32","name":"salt","type":"bytes32"}],"stateMutability":"payable","type":"function"},{"inputs":[{"internalType":"address","name":"","type":"address"},{"internalType":"bytes32","name":"","type":"bytes32"}],"name":"deployedVaults","outputs":[{"internalType":"address","name":"","type":"address"}],"stateMutability":"view","type":"function"},{"inputs":[],"name":"deploymentFee","outputs":[{"internalType":"uint256","name":"","type":"uint256"}],"stateMutability":"view","type":"function"},{"inputs":[],"name":"emergencyWithdraw","outputs":[],"stateMutability":"nonpayable","type":"function"},{"inputs":[],"name":"feeRecipient","outputs":[{"internalType":"address","name":"","type":"address"}],"stateMutability":"view","type":"function"},{"inputs":[{"internalType":"address","name":"owner","type":"address"},{"internalType":"uint256","name":"nonce","type":"uint256"}],"name":"generateDeterministicSalt","outputs":[{"internalType":"bytes32","name":"","type":"bytes32"}],"stateMutability":"pure","type":"function"},{"inputs":[{"internalType":"address","name":"owner","type":"address"}],"name":"getOwnerVaults","outputs":[{"internalType":"address[]","name":"","type":"address[]"}],"stateMutability":"view","type":"function"},{"inputs":[],"name":"getTotalVaults","outputs":[{"internalType":"uint256","name":"","type":"uint256"}],"stateMutability":"view","type":"function"},{"inputs":[{"internalType":"address","name":"owner","type":"address"}],"name":"getVaultIndicesByOwner","outputs":[{"internalType":"uint256[]","name":"","type":"uint256[]"}],"stateMutability":"view","type":"function"},{"inputs":[{"internalType":"uint256","name":"index","type":"uint256"}],"name":"getVaultInfo","outputs":[{"components":[{"internalType":"address","name":"vaultAddress","type":"address"},{"internalType":"address","name":"owner","type":"address"},{"internalType":"address","name":"admin","type":"address"},{"internalType":"uint256","name":"chainId","type":"uint256"},{"internalType":"bytes32","name":"salt","type":"bytes32"},{"internalType":"uint256","name":"deployedAt","type":"uint256"}],"internalType":"struct UserVaultFactory.VaultInfo","name":"","type":"tuple"}],"stateMutability":"view","type":"function"},{"inputs":[{"internalType":"address","name":"","type":"address"}],"name":"isFactoryVault","outputs":[{"internalType":"bool","name":"","type":"bool"}],"stateMutability":"view","type":"function"},{"inputs":[{"internalType":"address","name":"vault","type":"address"}],"name":"isVaultFromFactory","outputs":[{"internalType":"bool","name":"","type":"bool"}],"stateMutability":"view","type":"function"},{"inputs":[],"name":"owner","outputs":[{"internalType":"address","name":"","type":"address"}],"stateMutability":"view","type":"function"},{"inputs":[{"internalType":"address","name":"","type":"address"},{"internalType":"uint256","name":"","type":"uint256"}],"name":"ownerVaults","outputs":[{"internalType":"address","name":"","type":"address"}],"stateMutability":"view","type":"function"},{"inputs":[],"name":"pause","outputs":[],"stateMutability":"nonpayable","type":"function"},{"inputs":[],"name":"paused","outputs":[{"internalType":"bool","name":"","type":"bool"}],"stateMutability":"view","type":"function"},{"inputs":[{"internalType":"address","name":"vaultAddress","type":"address"},{"internalType":"address","name":"owner","type":"address"},{"internalType":"address","name":"admin","type":"address"},{"internalType":"uint256","name":"chainId","type":"uint256"},{"internalType":"bytes32","name":"salt","type":"bytes32"}],"name":"registerCrossChainVault","outputs":[],"stateMutability":"nonpayable","type":"function"},{"inputs":[],"name":"renounceOwnership","outputs":[],"stateMutability":"nonpayable","type":"function"},{"inputs":[{"internalType":"uint256","name":"newFee","type":"uint256"}],"name":"setDeploymentFee","outputs":[],"stateMutability":"nonpayable","type":"function"},{"inputs":[{"internalType":"address","name":"newRecipient","type":"address"}],"name":"setFeeRecipient","outputs":[],"stateMutability":"nonpayable","type":"function"},{"inputs":[{"internalType":"address","name":"newOwner","type":"address"}],"name":"transferOwnership","outputs":[],"stateMutability":"nonpayable","type":"function"},{"inputs":[],"name":"unpause","outputs":[],"stateMutability":"nonpayable","type":"function"},{"inputs":[{"internalType":"uint256","name":"","type":"uint256"}],"name":"vaultRegistry","outputs":[{"internalType":"address","name":"vaultAddress","type":"address"},{"internalType":"address","name":"owner","type":"address"},{"internalType":"address","name":"admin","type":"address"},{"internalType":"uint256","name":"chainId","type":"uint256"},{"internalType":"bytes32","name":"salt","type":"bytes32"},{"internalType":"uint256","name":"deployedAt","type":"uint256"}],"stateMutability":"view","type":"function"},{"inputs":[{"internalType":"address","name":"","type":"address"},{"internalType":"uint256","name":"","type":"uint256"}],"name":"vaultsByOwner","outputs":[{"internalType":"uint256","name":"","type":"uint256"}],"stateMutability":"view","type":"function"}],"evm":{"bytecode":{"linkReferences":{},"object":"60803461011157601f61699c38819003918201601f19168301916001600160401b03831184841017610115578084926060946040528339810103126101115761004781610129565b610058604060208401519301610129565b6001600160a01b0382169290919083156100fe575f80546001600160a01b031981168617825560405195916001600160a01b03909116907f8be0079c531659141344cd1fd0a4f28419497f9722a3daafe3b4186f6b6457e09080a3600180556007556001600160a01b038216156100f757505b600880546001600160a01b0319166001600160a01b039290921691909117905561685e908161013e8239f35b90506100cb565b631e4fbdf760e01b5f525f60045260245ffd5b5f80fd5b634e487b7160e01b5f52604160045260245ffd5b51906001600160a01b03821682036101115756fe60806040526004361015610011575f80fd5b5f3560e01c80630121bfe3146101af5780630c90d7b5146101aa5780631a0121db146101a55780632f6071c7146101875780633a0f555d146101a05780633f4ba83a1461019b57806346904840146101965780634c8210c9146101915780635486f1001461018c57806358c62442146101875780635c975abb14610182578063715018a61461017d5780638456cb59146101785780638da5cb5b14610173578063921d4eb41461016e5780639a9748cf146101695780639e56ae2a14610164578063b1ba96201461015f578063c8f3f9091461015a578063cb1b7d9014610155578063d002462b14610150578063db2e21bc1461014b578063e399703314610146578063e74b981b14610141578063f2cff57f1461013c5763f2fde38b14610137575f80fd5b611187565b61116a565b6110e7565b610fa1565b610eea565b610ec9565b610e96565b610e48565b610d58565b610a77565b6109f5565b61093f565b6108df565b61087f565b61083b565b610817565b610403565b6107fa565b61070b565b61058d565b610521565b610493565b6103a7565b610342565b6101c9565b6001600160a01b038116036101c557565b5f80fd5b346101c55760a03660031901126101c5576004356101e6816101b4565b602435906101f3826101b4565b60443590610200826101b4565b6102a96102986064359461029360843594610219611848565b6001600160a01b0381169561022f8715156111fd565b6001600160a01b0384169761027d906102498a1515611241565b610255468c141561127d565b61026761026061060c565b94856112d3565b61027486602086016112d3565b604084016112d3565b88606083015260808201524260a0820152611301565b6102cf565b6102a36005546113a2565b906113d1565b7fbdf39c8e4504706c3ee61ab487623ef56ab40afa1c9bd55cc1732562ab38114a5f80a4005b6001600160a01b03165f90815260066020526040902090565b6001600160a01b03165f90815260026020526040902090565b634e487b7160e01b5f52603260045260245ffd5b805482101561032a575f5260205f2001905f90565b610301565b6001600160a01b03909116815260200190565b346101c55760403660031901126101c55760043561035f816101b4565b6001600160a01b03165f9081526003602052604090208054602435908110156101c55761038b91610315565b905460405160039290921b1c6001600160a01b03168152602090f35b346101c55760403660031901126101c5576004356103c4816101b4565b6001600160a01b03165f908152600660205260409020805460243591908210156101c5576020916103f491610315565b90549060031b1c604051908152f35b346101c55760203660031901126101c557600435610420816101b4565b60018060a01b03165f526004602052602060ff60405f2054166040519015158152f35b90602080835192838152019201905f5b8181106104605750505090565b82516001600160a01b0316845260209384019390920191600101610453565b906020610490928181520190610443565b90565b346101c55760203660031901126101c5576004356104b0816101b4565b60018060a01b03165f52600360205260405f206040519081602082549182815201915f5260205f20905f5b818110610502576104fe856104f2818703826105e9565b6040519182918261047f565b0390f35b82546001600160a01b03168452602090930192600192830192016104db565b346101c5575f3660031901126101c557610539611848565b5f5460ff8160a01c161561057e5760ff60a01b19165f556040513381527f5db9ee0a495bf2e6ff9c91a7834c1ba4fdd244a5e8aa4e537bd38aeae4b073aa90602090a1005b638dfc202b60e01b5f5260045ffd5b346101c5575f3660031901126101c5576008546040516001600160a01b039091168152602090f35b634e487b7160e01b5f52604160045260245ffd5b60c081019081106001600160401b038211176105e457604052565b6105b5565b601f909101601f19168101906001600160401b038211908210176105e457604052565b6040519061061b60c0836105e9565b565b9061061b60405192836105e9565b9080601f830112156101c5578135916001600160401b0383116105e4578260051b906040519361065e60208401866105e9565b84526020808501928201019283116101c557602001905b8282106106825750505090565b602080918335610691816101b4565b815201910190610675565b906101006003198301126101c5576004356106b6816101b4565b916024356106c3816101b4565b916044356106d0816101b4565b91606435906001600160401b0382116101c5576106ef9160040161062b565b906084356106fc816101b4565b9060a4359060c4359060e43590565b346101c5576104fe6107ee6107e26107766107686107d36107686107686107906107343661069c565b9c9596949993929092614f7d9a61074d60208d0161061d565b8c81529b61188c60208e013960405198899760208901611405565b03601f1981018352826105e9565b60405192839161078a60208401809761145c565b9061145c565b5190206040516001600160f81b0319602082019081523060601b6001600160601b0319166021830152603582019590955260558101919091529182906075820190565b5190206001600160a01b031690565b6001600160a01b031690565b6040519182918261032f565b346101c5575f3660031901126101c5576020600554604051908152f35b346101c5575f3660031901126101c557602060ff5f5460a01c166040519015158152f35b346101c5575f3660031901126101c557610853611848565b5f80546001600160a01b0319811682556001600160a01b03165f5160206168095f395f51905f528280a3005b346101c5575f3660031901126101c557610897611848565b61089f61186e565b5f805460ff60a01b1916600160a01b1790556040513381527f62e78cea01bee320cd4e420270b5ea74000d11b0c9f74754ebdbfc544b05a25890602090a1005b346101c5575f3660031901126101c5575f546040516001600160a01b039091168152602090f35b60206040818301928281528451809452019201905f5b8181106109295750505090565b825184526020938401939092019160010161091c565b346101c55760203660031901126101c55760043561095c816101b4565b60018060a01b03165f52600660205260405f206040519081602082549182815201915f5260205f20905f5b8181106109aa576104fe8561099e818703826105e9565b60405191829182610906565b8254845260209093019260019283019201610987565b60055481101561032a5760055f52600660205f20910201905f90565b805482101561032a575f52600660205f20910201905f90565b346101c55760203660031901126101c5576004356005548110156101c557610a1c906109c0565b5080546001820154600283015460038401546004850154600590950154604080516001600160a01b039687168152948616602086015294909216938301939093526060820192909252608081019290925260a082015260c090f35b610a803661069c565b929094919593600260015414610d495783926002600155610a9f61186e565b60075480610ce6575b506001600160a01b0384610abb8b6102e8565b5f91825260205260409020546001600160a01b03161615610adb90611574565b6001600160a01b038916968990610af3891515611241565b6001600160a01b03881699610b098b15156115cc565b610b1d6001600160a01b0385161515611608565b84511515610b2a90611644565b610b3e6001600160a01b0387161515611684565b610b498215156116ca565b614f7d95610b596020880161061d565b9680885261188c60208901396040519586958b6020880196610b7a97611405565b03601f1981018252610b8c90826105e9565b6040518091602082019384610ba09161145c565b610ba99161145c565b03601f1981018252610bbb90826105e9565b51905ff5946001600160a01b03861692610bd6841515611716565b8683610be1846102e8565b5f9182526020526040902090610bf6916112e2565b6001600160a01b0382165f90815260036020526040902087610c179161175c565b6001600160a01b0387165f908152600460205260409020805460ff19166001179055610c4161060c565b90610c4c88836112d3565b610c5983602084016112d3565b610c6690604083016112d3565b4660608201528260808201524260a0820152610c8190611301565b610c8a906102cf565b600554610c96906113a2565b610c9f916113d1565b604080519182524660208301527f30f7c1411599514d4a6ee3d132cced214b34bbe4c49d77f74391224dc6d8d63591a4610cd860018055565b6040516104fe81928261032f565b5f80808084610cfa610d169634101561146e565b6008546001600160a01b03165af1610d106114b8565b506114f6565b60075480341115610aa8575f808080610d32610d4395346113c4565b335af1610d3d6114b8565b50611538565b5f610aa8565b633ee5aeb560e01b5f5260045ffd5b346101c55760203660031901126101c5576004355f60a0604051610d7b816105c9565b8281528260208201528260408201528260608201528260808201520152600554811015610e0d57610db7610db16104fe926109c0565b5061179d565b6040805182516001600160a01b039081168252602080850151821690830152838301511691810191909152606080830151908201526080808301519082015260a0918201519181019190915290819060c0820190565b60405162461bcd60e51b8152602060048201526013602482015272496e646578206f7574206f6620626f756e647360681b6044820152606490fd5b346101c55760403660031901126101c557600435610e65816101b4565b6001600160a01b039081165f9081526002602090815260408083206024358452825291829020549151919092168152f35b346101c55760403660031901126101c5576020610ec1600435610eb8816101b4565b602435906117f1565b604051908152f35b346101c55760203660031901126101c557600435610ee5611848565b600755005b346101c5575f3660031901126101c557610f02611848565b478015610f63575f8080809360018060a01b038254165af1610f226114b8565b5015610f2a57005b60405162461bcd60e51b815260206004820152601160248201527015da5d1a191c985dd85b0819985a5b1959607a1b6044820152606490fd5b60405162461bcd60e51b81526020600482015260166024820152754e6f2062616c616e636520746f20776974686472617760501b6044820152606490fd5b6101003660031901126101c557600435610fba816101b4565b602435610fc6816101b4565b60443590610fd3826101b4565b606435906001600160401b0382116101c557610ff5602092369060040161062b565b93608435611002816101b4565b60c43560a43561106161101760e435866117f1565b604051634f2b571560e11b81526001600160a01b03968716600482015296861660248801529790941660448601526101006064860152959693958694859490610104860190610443565b6001600160a01b03909316608485015260a484015260c483015260e48201869052038134305af19081156110e2575f916110b3575b50604080516001600160a01b039290921682526020820192909252f35b6110d5915060203d6020116110db575b6110cd81836105e9565b810190611828565b5f611096565b503d6110c3565b61183d565b346101c55760203660031901126101c557600435611104816101b4565b61110c611848565b6001600160a01b0316801561113157600880546001600160a01b031916919091179055005b60405162461bcd60e51b8152602060048201526011602482015270125b9d985b1a59081c9958da5c1a595b9d607a1b6044820152606490fd5b346101c5575f3660031901126101c5576020600754604051908152f35b346101c55760203660031901126101c5576004356111a4816101b4565b6111ac611848565b6001600160a01b031680156111ea575f80546001600160a01b03198116831782556001600160a01b0316905f5160206168095f395f51905f529080a3005b631e4fbdf760e01b5f525f60045260245ffd5b1561120457565b60405162461bcd60e51b8152602060048201526015602482015274496e76616c6964207661756c74206164647265737360581b6044820152606490fd5b1561124857565b60405162461bcd60e51b815260206004820152600d60248201526c24b73b30b634b21037bbb732b960991b6044820152606490fd5b1561128457565b60405162461bcd60e51b815260206004820152602160248201527f557365206465706c6f795661756c7420666f722063757272656e7420636861696044820152603760f91b6064820152608490fd5b6001600160a01b039091169052565b80546001600160a01b0319166001600160a01b03909216919091179055565b600554600160401b8110156105e457806001611322920160055560056109dc565b91909161138f57805160059160a091611344906001600160a01b0316856112e2565b61135c600180841b03602083015116600186016112e2565b611374600180841b03604083015116600286016112e2565b60608101516003850155608081015160048501550151910155565b634e487b7160e01b5f525f60045260245ffd5b5f198101919082116113b057565b634e487b7160e01b5f52601160045260245ffd5b919082039182116113b057565b8054600160401b8110156105e4576113ee91600182018155610315565b819291549060031b91821b915f19901b1916179055565b6001600160a01b0391821681529181166020830152909116604082015260e0606082018190529295949360c093919290916114439190840190610443565b6001600160a01b03909616608083015260a08201520152565b805191908290602001825e015f815290565b1561147557565b60405162461bcd60e51b815260206004820152601b60248201527a496e73756666696369656e74206465706c6f796d656e742066656560281b6044820152606490fd5b3d156114f1573d906001600160401b0382116105e457604051916114e6601f8201601f1916602001846105e9565b82523d5f602084013e565b606090565b156114fd57565b60405162461bcd60e51b8152602060048201526013602482015272119959481d1c985b9cd9995c8819985a5b1959606a1b6044820152606490fd5b1561153f57565b60405162461bcd60e51b815260206004820152600d60248201526c1499599d5b990819985a5b1959609a1b6044820152606490fd5b1561157b57565b60405162461bcd60e51b815260206004820152602360248201527f5661756c7420616c726561647920657869737473207769746820746869732073604482015262185b1d60ea1b6064820152608490fd5b156115d357565b60405162461bcd60e51b815260206004820152600d60248201526c24b73b30b634b21030b236b4b760991b6044820152606490fd5b1561160f57565b60405162461bcd60e51b815260206004820152600d60248201526c125b9d985b1a5908185cdcd95d609a1b6044820152606490fd5b1561164b57565b60405162461bcd60e51b81526020600482015260116024820152704e6f20696e697469616c207661756c747360781b6044820152606490fd5b1561168b57565b60405162461bcd60e51b8152602060048201526017602482015276496e76616c696420726576656e7565206164647265737360481b6044820152606490fd5b156116d157565b60405162461bcd60e51b815260206004820152601e60248201527f496e76616c696420696e697469616c206465706f73697420616d6f756e7400006044820152606490fd5b1561171d57565b60405162461bcd60e51b815260206004820152601760248201527615985d5b1d0819195c1b1bde5b595b9d0819985a5b1959604a1b6044820152606490fd5b8054600160401b8110156105e45761177991600182018155610315565b81546001600160a01b0393841660039290921b91821b9390911b1916919091179055565b906040516117aa816105c9565b82546001600160a01b0390811682526001840154811660208301526002840154166040820152600383015460608201526004830154608082015260059092015460a0830152565b60405160609190911b6001600160601b031916602082019081526034808301939093529181526118226054826105e9565b51902090565b908160209103126101c55751610490816101b4565b6040513d5f823e3d90fd5b5f546001600160a01b0316330361185b57565b63118cdaa760e01b5f523360045260245ffd5b60ff5f5460a01c1661187c57565b63d93c066560e01b5f5260045ffdfe60a06040523461046b57614f7d803803806100198161046f565b92833981019060e08183031261046b5761003281610494565b9061003f60208201610494565b9161004c60408301610494565b60608301519093906001600160401b03811161046b5783019480601f8701121561046b578551956001600160401b038711610250578660051b9060208061009481850161046f565b809a8152019282010192831161046b57602001905b828210610453575050506100bf60808401610494565b9060c060a08501519401519460015f556298968060095560018060a01b0384161561041e576001600160a01b038216156103e9576001600160a01b03169182156103b45786511561037b576001600160a01b03169283156103365785156102f25760805260018054610100600160a81b03191660089290921b610100600160a81b0316919091179055600280546001600160a01b031990811692909217905560068054909116919091179055600755600a555f5b81518110156102a9576001600160a01b0361018e82846104a8565b511615610264576001600160a01b036101a782846104a8565b51165f908152600c60205260409020805460ff191660011790556001600160a01b036101d382846104a8565b511690600d549168010000000000000000831015610250576001830180600d5583101561023c57600d5f527fd7b6990105719101dabeb77144f2a3385c8033acd3af97e9423a695e81ad1eb590920180546001600160a01b031916909217909155600101610173565b634e487b7160e01b5f52603260045260245ffd5b634e487b7160e01b5f52604160045260245ffd5b60405162461bcd60e51b815260206004820152601560248201527f496e76616c6964207661756c74206164647265737300000000000000000000006044820152606490fd5b604051614ac090816104bd8239608051818181610430015281816104c9015281816113da015281816115290152818161180701528181611e3b015281816121e101526125850152f35b606460405162461bcd60e51b815260206004820152602060248201527f496e697469616c206465706f736974206d75737420626520706f7369746976656044820152fd5b60405162461bcd60e51b815260206004820152601760248201527f496e76616c696420726576656e756520616464726573730000000000000000006044820152606490fd5b60405162461bcd60e51b81526020600482015260116024820152704e6f20696e697469616c207661756c747360781b6044820152606490fd5b60405162461bcd60e51b815260206004820152600d60248201526c125b9d985b1a5908185cdcd95d609a1b6044820152606490fd5b60405162461bcd60e51b815260206004820152600d60248201526c24b73b30b634b21030b236b4b760991b6044820152606490fd5b60405162461bcd60e51b815260206004820152600d60248201526c24b73b30b634b21037bbb732b960991b6044820152606490fd5b6020809161046084610494565b8152019101906100a9565b5f80fd5b6040519190601f01601f191682016001600160401b0381118382101761025057604052565b51906001600160a01b038216820361046b57565b805182101561023c5760209160051b01019056fe6080806040526004361015610012575f80fd5b5f905f3560e01c90816202eab71461285d575080630147cb7b14612563578063060b9c571461253c57806308687794146124f25780630b61905f146124d85780630d2b32c7146124be57806315cb51ce146124975780631746a22b146124555780631ec06ecc1461243b578063209caa00146121ce578063219461ed14611ffe57806321edd097146121b0578063256b5a021461206a5780632b0c6c45146120415780632f5ce345146120265780632fa4abea14611ffe578063317cb15114611e1f57806338d52e0f14611df657806339197ac514611dda5780633a8fcfe614611b695780633aecd0e314611b455780633f4ba83a14611add57806344cb903b146117ee5780634c203786146117d15780635c975abb146117ae57806360c6d8ae1461179057806366aeb1c114611771578063679dffb4146117565780636cad3fb0146116f05780636db4b69d146116ca5780636ff1c9bc1461150d57806372a7d477146114df5780637f68237a146114b45780638456cb591461144a5780638bbed958146114275780638c8d944f146114095780638da5cb5b146113c45780638e87b78514610faa578063923ceb6b146113145780639f54d54b146112f6578063a001ecdd146112d8578063a3c1eb8b14610fff578063a414266c14610fd9578063ad0ffd8b14610faa578063b410908d14610f81578063bd28f35114610f63578063ca9d67c814610f2d578063ceb68c2314610d60578063d0e5634714610d1b578063d4dcc9a214610a18578063d81b464b146109fd578063db37bab4146109ce578063e2f273bd14610901578063e44fef951461086b578063f18d3f6c146107d6578063f19dbf2414610724578063f3fef3a3146104ad578063f851a44014610480578063f868e76614610418578063f8c0ae05146103f5578063fd812094146103b6578063fdd28859146102f25763ff50abdc146102d2575f80fd5b346102ef57806003193601126102ef576020600454604051908152f35b80fd5b50346102ef5760203660031901126102ef5761030c612892565b61032460018060a01b0360015460081c163314612b55565b6001600160a01b0316801561037757600680546001600160a01b0319811683179091556001600160a01b03167f9c18ec49f4aa2c93ab2db0f2f75da25811971a22646a4da0409e945bd48e8af78380a380f35b60405162461bcd60e51b8152602060048201526017602482015276496e76616c696420726576656e7565206164647265737360481b6044820152606490fd5b50346102ef5760203660031901126102ef5760209060ff906040906001600160a01b036103e1612892565b168152600c84522054166040519015158152f35b50346102ef57806003193601126102ef5760206104106138ec565b604051908152f35b50346102ef5760203660031901126102ef5761045e337f00000000000000000000000000000000000000000000000000000000000000006001600160a01b031614612a0a565b610466613927565b61046e613945565b610479600435612bf6565b6001815580f35b50346102ef57806003193601126102ef5760015460405160089190911c6001600160a01b03168152602090f35b50346102ef5760403660031901126102ef576104c7612892565b7f00000000000000000000000000000000000000000000000000000000000000006001600160a01b038116916024359190610503338514612a0a565b6001600160a01b038116808652600c60205260408620549093906105299060ff16612a43565b610531613927565b610539613945565b61055e60035461054e60ff8260a01c16612b8e565b6001600160a01b031685146136bd565b61056782613319565b9182156106eb5761058a928215818482156106e1575b50506106d9575b50614356565b6040516338d52e0f60e01b8152602081600481875afa9182156106ce575f516020614a4b5f395f51905f5293602093869389916106a1575b506002546001600160a01b039081169190811682900361068a575b5050610609906105ec8361364e565b9481869392610637575b50506002546001600160a01b03166142ff565b600454908082111561062f5761061e91612d52565b600455604051908152a36001815580f35b50508561061e565b6002546006545f5160206149cb5f395f51905f529260409290916106699183916001600160a01b0390811691166142ff565b61067581600854612bd5565b6008558151908152858a820152a2875f6105f6565b92610699916106099394613b13565b91905f6105dd565b6106c19150853d87116106c7575b6106b98183612b13565b810190612b36565b5f6105c2565b503d6106af565b6040513d88823e3d90fd5b91505f610584565b119050815f61057d565b60405162461bcd60e51b8152602060048201526011602482015270139bc8199d5b991cc81a5b881d985d5b1d607a1b6044820152606490fd5b50346102ef5760203660031901126102ef5760043561075160018060a01b0360015460081c163314612b55565b80156107915760407f5cdfd4e6875894063a0c220faf9b9c9176a915c2dffee5f72267d1a5d55bcbe891600954908060095582519182526020820152a180f35b60405162461bcd60e51b815260206004820152601e60248201527f496e76616c6964206d696e696d756d2070726f66697420666f722066656500006044820152606490fd5b50346102ef5760203660031901126102ef576107f0612892565b61080860018060a01b0360015460081c163314612b55565b6001600160a01b0316801561082e57600280546001600160a01b03191691909117905580f35b60405162461bcd60e51b8152602060048201526015602482015274496e76616c6964206173736574206164647265737360581b6044820152606490fd5b50346102ef57806003193601126102ef57604051600d8054808352908352909160208301917fd7b6990105719101dabeb77144f2a3385c8033acd3af97e9423a695e81ad1eb5915b8181106108e2576108de856108ca81870382612b13565b6040519182916020835260208301906129ce565b0390f35b82546001600160a01b03168452602090930192600192830192016108b3565b50346102ef5760203660031901126102ef5761091b612892565b600154600881901c6001600160a01b031690610938338314612b55565b6001600160a01b03831692831561099157610100600160a81b031990911660089190911b610100600160a81b0316176001557f101b8081ff3b56bbf45deb824d86a3b0fd38b7e3dd42421105cf8abe9106db0b8380a380f35b60405162461bcd60e51b8152602060048201526015602482015274496e76616c69642061646d696e206164647265737360581b6044820152606490fd5b50346102ef57806003193601126102ef57602060405173cf77a3ba9a5ca399b7c97c74d54e5b1beb874e438152f35b50346102ef57806003193601126102ef57602061041061387b565b50346102ef5780610a2836612960565b91610a4460018060a09996991b0360015460081c163314612b55565b610a4c613927565b610a57818614613353565b610a62838614613353565b610a6d851515613397565b610a7685612fee565b845b868110610cc15750610a8986612fee565b97855b878110610c2757505f5160206149eb5f395f51905f523b15610c23576040516301c7ba5760e61b815294869486948594610ace94908b908d906004890161341a565b0381835f5160206149eb5f395f51905f525af18015610c1857610bff575b505b818110610afd57846001815580f35b60249060206001600160a01b03610b1d610b188487896133d2565b6133e2565b16604051938480926370a0823160e01b82523060048301525afa9182156106ce578692610bc6575b50610b5d600192610b568388613077565b5190612d52565b80610b6a575b5001610aee565b610b9381848060a01b03610b82610b1886898b6133d2565b16858060a01b0360065416906142ff565b5f516020614a6b5f395f51905f526020848060a01b03610bb7610b1886898b6133d2565b1692604051908152a25f610b63565b91506020823d8211610bf7575b81610be060209383612b13565b81010312610bf357905190610b5d610b45565b5f80fd5b3d9150610bd3565b81610c0991612b13565b610c1457835f610aec565b8380fd5b6040513d84823e3d90fd5b8580fd5b602460206001600160a01b03610c41610b18858d8f6133d2565b16604051928380926370a0823160e01b82523060048301525afa908115610cb6578891610c7f575b5090600191610c78828d613077565b5201610a8c565b919750506020813d8211610cae575b81610c9b60209383612b13565b81010312610bf357518a96906001610c69565b3d9150610c8e565b6040513d8a823e3d90fd5b9394509192909190600190610ced6001600160a01b03610ce5610b18848b8d6133d2565b161515612f54565b610d03610cfb82868c6133d2565b351515612f98565b30610d0e8285613077565b5201908894939291610a78565b50346102ef5760603660031901126102ef576060610d4b610d3a612892565b610d426128a8565b60443591613752565b90604051921515835260208301526040820152f35b50346102ef5760203660031901126102ef57610d7a612892565b610d9260018060a01b0360015460081c163314612b55565b6001600160a01b0316808252600c6020526040822054610db49060ff16612a43565b6003546001600160a01b03168114610eea57808252600c60205260408220805460ff19169055815b600d5480821015610ee35782610df1836128be565b905460039190911b1c6001600160a01b031614610e115750600101610ddc565b5f198101908111610ecf5790610e44610e2c610e68936128be565b905460039190911b1c6001600160a01b0316916128be565b9080546001600160a01b0360039390931b83811b199091169290931690921b179055565b600d548015610ebb575f1901610e7d816128be565b81549060018060a01b039060031b1b19169055600d555b7fe71f3a50e5ad81964f352c411f1d45e35438ecd1acecef59ac81d9fbbf6cbc0a8280a280f35b634e487b7160e01b83526031600452602483fd5b634e487b7160e01b84526011600452602484fd5b5050610e94565b60405162461bcd60e51b815260206004820152601b60248201527a10d85b9b9bdd081c995b5bdd994818dd5c9c995b9d081d985d5b1d602a1b6044820152606490fd5b50346102ef5760203660031901126102ef576020610f51610f4c612892565b613701565b6040516001600160a01b039091168152f35b50346102ef57806003193601126102ef576020600554604051908152f35b50346102ef57806003193601126102ef576006546040516001600160a01b039091168152602090f35b50346102ef57806003193601126102ef576020604051736bfd8137e702540e7a42b74178a4a49ba43920c48152f35b50346102ef57806003193601126102ef57602060ff600b5460081c166040519015158152f35b50346102ef5760403660031901126102ef57611019612892565b6110216128a8565b61103960018060a01b0360015460081c163314612b55565b6001600160a01b038216808452600c602052604084205490919061105f9060ff16612a43565b6001600160a01b038116808552600c60205260408520549093906110859060ff16612a43565b61108d613927565b611095613945565b6110ba6003546110aa60ff8260a01c16612b8e565b6001600160a01b031684146136bd565b8383146112a6576110ca81613319565b8015611269576110d991614356565b6040516338d52e0f60e01b815291602083600481875afa9283156106ce578693611248575b506040516338d52e0f60e01b815291602083600481895afa801561123d577f4ce94e8bd94f62017197ba464f629a366572732970f6fe47c76f97bb53f7630394602094899261121e575b50826001600160a01b0382811690841680820361118f575b505050508161116f9293613fd2565b600380546001600160a01b03191686179055604051908152a36001815580f35b60025461116f965085926001600160a01b03909116908114159182919082611213575b5050156111f55750506002546111e9926111d692916001600160a01b031690613b13565b60025483906001600160a01b0316613b13565b80935b93925f80611160565b1561120a5761120392613b13565b80936111ec565b61120392613b13565b141590505f806111b2565b611236919250853d87116106c7576106b98183612b13565b905f611148565b6040513d89823e3d90fd5b61126291935060203d6020116106c7576106b98183612b13565b915f6110fe565b60405162461bcd60e51b81526020600482015260156024820152744e6f2066756e647320746f20726562616c616e636560581b6044820152606490fd5b60405162461bcd60e51b815260206004820152600a60248201526914d85b59481d985d5b1d60b21b6044820152606490fd5b50346102ef57806003193601126102ef576020600754604051908152f35b50346102ef57806003193601126102ef576020600954604051908152f35b50346102ef57806003193601126102ef5760015460405163131bac4760e11b81529190602090839081906113589060081c6001600160a01b03163060048401613232565b03815f5160206149eb5f395f51905f525afa9081156113b85790611385575b602090600160405191148152f35b506020813d6020116113b0575b8161139f60209383612b13565b81010312610bf35760209051611377565b3d9150611392565b604051903d90823e3d90fd5b50346102ef57806003193601126102ef576040517f00000000000000000000000000000000000000000000000000000000000000006001600160a01b03168152602090f35b50346102ef57806003193601126102ef576020600d54604051908152f35b50346102ef57806003193601126102ef57602060ff600b54166040519015158152f35b50346102ef57806003193601126102ef576001805461147733600883901c6001600160a01b031614612b55565b61147f613945565b60ff1916176001557f62e78cea01bee320cd4e420270b5ea74000d11b0c9f74754ebdbfc544b05a2586020604051338152a180f35b50346102ef5760203660031901126102ef5760406114d360043561364e565b82519182526020820152f35b50346102ef5760203660031901126102ef5760206115036114fe612892565b6135e4565b6040519015158152f35b50346102ef5760203660031901126102ef57611527612892565b7f00000000000000000000000000000000000000000000000000000000000000006001600160a01b038116919061155f338414612a0a565b61156761433a565b61156f613927565b6001600160a01b038216808552600c60205260408520549092906115959060ff16612a43565b61159e81613319565b806115ac575b856001815580f35b6115b591614356565b6040516338d52e0f60e01b815290602082600481875afa9081156106ce575f516020614a4b5f395f51905f52936116178693611633936020968b926116ab575b506002546001600160a01b0390811690831681900361169b575b50905061364e565b93818593926116485750506002546001600160a01b03166142ff565b85600455604051908152a35f808080806115a4565b6002546006545f5160206149cb5f395f51905f5292604092909161167a9183916001600160a01b0390811691166142ff565b61168681600854612bd5565b60085581519081528589820152a2865f6105f6565b6116a492613b13565b805f61160f565b6116c3919250873d89116106c7576106b98183612b13565b905f6115f5565b50346102ef57806003193601126102ef57602060ff60035460a01c166040519015158152f35b50346102ef5760203660031901126102ef577fb27c12a91635e11c22bffa7bd8e0a8735da52b94aaefd7f249776c7590ba7894604060043561174060018060a01b0360015460081c163314612b55565b600754908060075582519182526020820152a180f35b50346102ef57806003193601126102ef57602061041061359d565b50346102ef5760203660031901126102ef5760406114d3600435613534565b50346102ef57806003193601126102ef576020600854604051908152f35b50346102ef57806003193601126102ef57602060ff600154166040519015158152f35b50346102ef57806003193601126102ef5760206040516101f48152f35b50346102ef57806117fe36612960565b909591939492957f00000000000000000000000000000000000000000000000000000000000000009461183a60018060a01b0387163314612a0a565b611842613927565b61184d818814613353565b611858838814613353565b611863871515613397565b61186c87612fee565b845b888110611a8b575061187f88612fee565b98855b8981106119f457505f5160206149eb5f395f51905f523b15610c23576040516301c7ba5760e61b8152948694869485946118c494908d908c906004890161341a565b0381835f5160206149eb5f395f51905f525af18015610c18576119db575b505b8381106118f357856001815580f35b60249060206001600160a01b0361190e610b188489886133d2565b16604051938480926370a0823160e01b82523060048301525afa91821561123d5787926119a6575b50611947600192610b568389613077565b80611954575b50016118e4565b6119738186858060a01b0361196d610b18878c8b6133d2565b166142ff565b5f516020614a6b5f395f51905f526020848060a01b03611997610b18868b8a6133d2565b1692604051908152a25f61194d565b91506020823d82116119d3575b816119c060209383612b13565b81010312610bf357905190611947611936565b3d91506119b3565b816119e591612b13565b6119f057845f6118e2565b8480fd5b97999897602460206001600160a01b03611a12610b18858e8e6133d2565b16604051928380926370a0823160e01b82523060048301525afa908115610cb6578891611a54575b5090600191611a49828d613077565b520199979899611882565b919750506020813d8211611a83575b81611a7060209383612b13565b81010312610bf357518b96906001611a3a565b3d9150611a63565b969897969394509192909190600190611ab36001600160a01b03610ce5610b18848c8c6133d2565b611ac1610cfb82868c6133d2565b30611acc8285613077565b52019089949392919896979861186e565b50346102ef57806003193601126102ef57600154611b0933600883901c6001600160a01b031614612b55565b611b1161433a565b60ff19166001557f5db9ee0a495bf2e6ff9c91a7834c1ba4fdd244a5e8aa4e537bd38aeae4b073aa6020604051338152a180f35b50346102ef5760203660031901126102ef576020610410611b64612892565b613319565b50346102ef5780611b793661291a565b9192611b9660018060a09794971b0360015460081c163314612b55565b611b9e613927565b6001600160a01b031693611bb3851515612f54565b611bbe841515612f98565b604093845193611bce8686612b13565b60018552611c41601f1987019384366020890137875192611bef8985612b13565b6001845285366020860137885195611c078a88612b13565b60018752366020880137611c19613020565b9430611c248a61305a565b528a611c2f8661305a565b52611c398761305a565b52369161308b565b611c4a8361305a565b52611c548261305a565b5085516370a0823160e01b8152306004820152946020866024818b5afa958615611dd0578596611d99575b505f5160206149eb5f395f51905f523b156119f057611cb38593885195869485946301c7ba5760e61b8652600486016130d7565b0381835f5160206149eb5f395f51905f525af18015611d8f57611d7a575b505081516370a0823160e01b8152306004820152602081602481875afa908115611d70578591611d3a575b5091611d186020925f516020614a6b5f395f51905f5294612d52565b90611d2e8260018060a01b0360065416876142ff565b51908152a26001815580f35b9290506020833d602011611d68575b81611d5660209383612b13565b81010312610bf3579151611d18611cfc565b3d9150611d49565b83513d87823e3d90fd5b81611d8491612b13565b610c1457835f611cd1565b84513d84823e3d90fd5b945094506020843d602011611dc8575b81611db660209383612b13565b81010312610bf357879351945f611c7f565b3d9150611da9565b87513d87823e3d90fd5b50346102ef57806003193601126102ef57611df361324c565b80f35b50346102ef57806003193601126102ef576002546040516001600160a01b039091168152602090f35b50346102ef5760403660031901126102ef57611e39612892565b7f00000000000000000000000000000000000000000000000000000000000000009060243590611e73336001600160a01b03851614612a0a565b611e7b613927565b6001600160a01b031691611e90831515612f54565b6002546001600160a01b03168314611faa576040516370a0823160e01b815230600482015291602083602481875afa928315611f9f578593611f6b575b508215611f2d5780611f275750815b8211611eeb57610479926142ff565b60405162461bcd60e51b8152602060048201526014602482015273496e73756666696369656e742062616c616e636560601b6044820152606490fd5b91611edc565b60405162461bcd60e51b81526020600482015260166024820152754e6f2062616c616e636520746f20776974686472617760501b6044820152606490fd5b9092506020813d602011611f97575b81611f8760209383612b13565b81010312610bf35751915f611ecd565b3d9150611f7a565b6040513d87823e3d90fd5b60405162461bcd60e51b815260206004820152602660248201527f55736520726567756c617220776974686472617720666f72207072696d61727960448201526508185cdcd95d60d21b6064820152608490fd5b50346102ef57806003193601126102ef5760206040515f5160206149eb5f395f51905f528152f35b50346102ef57806003193601126102ef5760206104106131bb565b50346102ef57806003193601126102ef576003546040516001600160a01b039091168152602090f35b50346102ef5760203660031901126102ef57612084612892565b61209c60018060a01b0360015460081c163314612b55565b6001600160a01b03811690811561217357818352600c60205260ff60408420541661213657818352600c60205260408320805460ff19166001179055600d54600160401b8110156121225790610e448260016120fb9401600d556128be565b7f7b7ef7a864d96a85497a1ed846adb39940dd6ccef678ff6ac8d55505e09b8cc48280a280f35b634e487b7160e01b84526041600452602484fd5b60405162461bcd60e51b815260206004820152601560248201527415985d5b1d08185b1c9958591e48185b1b1bddd959605a1b6044820152606490fd5b60405162461bcd60e51b8152602060048201526015602482015274496e76616c6964207661756c74206164647265737360581b6044820152606490fd5b50346102ef57806003193601126102ef576020600a54604051908152f35b5034610bf3576121dd3661291a565b90927f00000000000000000000000000000000000000000000000000000000000000009190612216336001600160a01b03851614612a0a565b61221e613927565b6001600160a01b031693612233851515612f54565b61223e841515612f98565b60409384519261224e8685612b13565b600184526122a4601f198701938436602088013787519261226f8985612b13565b60018452853660208601378851956122878a88612b13565b60018752366020880137612299613020565b9430611c248961305a565b6122ad8361305a565b526122b78261305a565b5085516370a0823160e01b8152306004820152936020856024818b5afa948515612431575f956123fd575b505f5160206149eb5f395f51905f523b15610bf3576123165f93885195869485946301c7ba5760e61b8652600486016130d7565b0381835f5160206149eb5f395f51905f525af180156123f3576123de575b5082516370a0823160e01b815230600482015290602082602481885afa80156123d45786906123a0575b6123689250612d52565b80612376575b846001815580f35b5f516020614a6b5f395f51905f529261239282602094876142ff565b51908152a25f80808061236e565b506020823d6020116123cc575b816123ba60209383612b13565b81010312610bf357612368915161235e565b3d91506123ad565b84513d88823e3d90fd5b6123eb9195505f90612b13565b5f935f612334565b84513d5f823e3d90fd5b9094506020813d602011612429575b8161241960209383612b13565b81010312610bf35751935f6122e2565b3d915061240c565b87513d5f823e3d90fd5b34610bf3575f366003190112610bf3576020610410612f39565b34610bf3576020366003190112610bf357600435600d54811015610bf35761247e6020916128be565b905460405160039290921b1c6001600160a01b03168152f35b34610bf3575f366003190112610bf35760206040515f516020614a0b5f395f51905f528152f35b34610bf3575f366003190112610bf3576020610410612e37565b34610bf3575f366003190112610bf3576020610410612da0565b34610bf3576020366003190112610bf35761251b60018060a01b0360015460081c163314612b55565b612523613927565b61252b613945565b612536600435612bf6565b60015f55005b34610bf3575f366003190112610bf35760206040515f516020614a2b5f395f51905f528152f35b34610bf3576040366003190112610bf35761257c612892565b6024356125b3337f00000000000000000000000000000000000000000000000000000000000000006001600160a01b031614612a0a565b60018060a01b03821691825f52600c6020526125d560ff60405f205416612a43565b6125dd613927565b6125e5613945565b60ff60035460a01c166128195760ff600b54166127ca57612607821515612a83565b600a54801561278557821061271a5761261e61324c565b600254612639908390309033906001600160a01b0316613960565b6040516338d52e0f60e01b815290602082600481875afa92831561270f575f5160206149ab5f395f51905f52936020935f916126f2575b50600254919283926001600160a01b039081169083168190036126d8575b50908361269a92613fd2565b600380546004929092556001600160a81b03199091168517600160a01b179055600b805460ff1916600117905542600555604051908152a260015f55005b829194508361269a936126ea92613b13565b93909161268e565b6127099150843d86116106c7576106b98183612b13565b86612670565b6040513d5f823e3d90fd5b60405162461bcd60e51b815260206004820152603e60248201527f416d6f756e74206d7573742062652067726561746572207468616e206f72206560448201527f7175616c20746f20696e697469616c206465706f73697420616d6f756e7400006064820152608490fd5b60405162461bcd60e51b815260206004820152601d60248201527f4e6f20696e697469616c206465706f73697420616d6f756e74207365740000006044820152606490fd5b60405162461bcd60e51b815260206004820152602160248201527f496e697469616c206465706f73697420616c726561647920636f6d706c6574656044820152601960fa1b6064820152608490fd5b60405162461bcd60e51b815260206004820152601c60248201527b496e697469616c206465706f73697420616c7265616479206d61646560201b6044820152606490fd5b34610bf3575f366003190112610bf3576006546007546008546001600160a01b03909216835260208301526040820152606090f35b600435906001600160a01b0382168203610bf357565b602435906001600160a01b0382168203610bf357565b600d548110156128d657600d5f5260205f2001905f90565b634e487b7160e01b5f52603260045260245ffd5b9181601f84011215610bf3578235916001600160401b038311610bf3576020808501948460051b010111610bf357565b6060600319820112610bf3576004356001600160a01b0381168103610bf3579160243591604435906001600160401b038211610bf35761295c916004016128ea565b9091565b6060600319820112610bf3576004356001600160401b038111610bf3578161298a916004016128ea565b909290916024356001600160401b038111610bf357816129ac916004016128ea565b90929091604435906001600160401b038211610bf35761295c916004016128ea565b90602080835192838152019201905f5b8181106129eb5750505090565b82516001600160a01b03168452602093840193909201916001016129de565b15612a1157565b60405162461bcd60e51b815260206004820152600a60248201526927b7363c9037bbb732b960b11b6044820152606490fd5b15612a4a57565b60405162461bcd60e51b815260206004820152601160248201527015985d5b1d081b9bdd08185b1b1bddd959607a1b6044820152606490fd5b15612a8a57565b60405162461bcd60e51b8152602060048201526017602482015276416d6f756e74206d75737420626520706f73697469766560481b6044820152606490fd5b608081019081106001600160401b03821117612ae457604052565b634e487b7160e01b5f52604160045260245ffd5b60a081019081106001600160401b03821117612ae457604052565b601f909101601f19168101906001600160401b03821190821017612ae457604052565b90816020910312610bf357516001600160a01b0381168103610bf35790565b15612b5c57565b60405162461bcd60e51b815260206004820152600a60248201526927b7363c9030b236b4b760b11b6044820152606490fd5b15612b9557565b60405162461bcd60e51b8152602060048201526018602482015277496e697469616c206465706f736974206e6f74206d61646560401b6044820152606490fd5b91908201809211612be257565b634e487b7160e01b5f52601160045260245ffd5b600354612c0860ff8260a01c16612b8e565b612c13821515612a83565b6001600160a01b031615612d1a5760025460049190612c40908290309033906001600160a01b0316613960565b6003546040516338d52e0f60e01b81529260209184919082906001600160a01b03165afa91821561270f575f92612cf9575b5060025481906001600160a01b03908116908416819003612cdf575b50612ca88293612cb09360018060a01b0360035416613fd2565b600454612bd5565b600455426005556003546040519182526001600160a01b0316905f5160206149ab5f395f51905f5290602090a2565b612cb09250612cf28285612ca893613b13565b9250612c8e565b612d1391925060203d6020116106c7576106b98183612b13565b905f612c72565b60405162461bcd60e51b815260206004820152601060248201526f139bc818dd5c9c995b9d081d985d5b1d60821b6044820152606490fd5b91908203918211612be257565b81810292918115918404141715612be257565b8115612d7c570490565b634e487b7160e01b5f52601260045260245ffd5b600160ff1b8114612be2575f0390565b60ff60035460a01c16158015612e2d575b612e2957612dbd612e37565b6004549081808210612df657612dd291612d52565b90620f4240820291808304620f42401490151715612be257612df391612d72565b90565b90612e0091612d52565b620f4240810290808204620f42401490151715612be257612df391612e2491612d72565b612d90565b5f90565b5060045415612db1565b6003546001600160a01b038116908115908115612f2a575b50612f2557604051632f5ce34560e01b8152602081600481305afa90811561270f575f91612ef3575b508015612eed576020600492604051938480926338d52e0f60e01b82525afa91821561270f575f92612ecc575b506002546001600160a01b039081169083168114612ec657612df3926141c0565b50905090565b612ee691925060203d6020116106c7576106b98183612b13565b905f612ea5565b50505f90565b90506020813d602011612f1d575b81612f0e60209383612b13565b81010312610bf357515f612e78565b3d9150612f01565b505f90565b60ff915060a01c16155f612e4f565b6003546001600160a01b03168015612f2557612df390613319565b15612f5b57565b60405162461bcd60e51b8152602060048201526015602482015274496e76616c696420746f6b656e206164647265737360581b6044820152606490fd5b15612f9f57565b60405162461bcd60e51b815260206004820152601060248201526f4e6f7468696e6720746f20636c61696d60801b6044820152606490fd5b6001600160401b038111612ae45760051b60200190565b90612ff882612fd7565b6130056040519182612b13565b8281528092613016601f1991612fd7565b0190602036910137565b604080519091906130318382612b13565b6001815291601f1901825f5b82811061304957505050565b80606060208093850101520161303d565b8051156128d65760200190565b8051600110156128d65760400190565b80518210156128d65760209160051b010190565b92919061309781612fd7565b936130a56040519586612b13565b602085838152019160051b8101928311610bf357905b8282106130c757505050565b81358152602091820191016130bb565b916130ed6130fb926080855260808501906129ce565b9083820360208501526129ce565b8181036040830152602080845192838152019301905f5b8181106131a5575050506060818303910152815180825260208201916020808360051b8301019401925f915b83831061314d57505050505090565b9091929394601f19828203018352855190602080835192838152019201905f905b80821061318d575050506020806001929701930193019193929061313e565b9091926020806001928651815201940192019061316e565b8251855260209485019490920191600101613112565b6003546001600160a01b03168015612f255760206131d882613319565b6024604051809481936303d1689d60e11b835260048301525afa90811561270f575f91613203575090565b90506020813d60201161322a575b8161321e60209383612b13565b81010312610bf3575190565b3d9150613211565b6001600160a01b0391821681529116602082015260400190565b600b5460ff5f9160081c161561325f5750565b60015460081c6001600160a01b03165f5160206149eb5f395f51905f523b15610bf3575f6132a2916040518093819263bdac7ca360e01b83523060048401613232565b0381835f5160206149eb5f395f51905f525af1801561270f57613306575b50600b805461ff00191661010017905560015460081c6001600160a01b0316907f08ea92db3a4bb72aee66d7d65a7c80ba70489af194b0544456e6f35702e25f649080a2565b61331291505f90612b13565b5f5f6132c0565b6040516370a0823160e01b815230600482015290602090829060249082906001600160a01b03165afa90811561270f575f91613203575090565b1561335a57565b60405162461bcd60e51b8152602060048201526015602482015274082e4e4c2f240d8cadccee8d040dad2e6dac2e8c6d605b1b6044820152606490fd5b1561339e57565b60405162461bcd60e51b815260206004820152600c60248201526b456d7074792061727261797360a01b6044820152606490fd5b91908110156128d65760051b0190565b356001600160a01b0381168103610bf35790565b81835290916001600160fb1b038311610bf35760209260051b809284830137010190565b9694929061343560209195939560808a5260808a01906129ce565b888103828a01528281520193905f905b8082106134f65750505090829186613462940360408801526133f6565b926060818503910152808352602083019060208160051b85010193835f91601e1982360301905b84841061349a575050505050505090565b90919293949596601f19828203018752873583811215610bf3578401602081019190356001600160401b038111610bf3578060051b36038313610bf3576134e760209283926001956133f6565b99019701959401929190613489565b9697959691949091908535906001600160a01b0382168203610bf3576001600160a01b03909116815295979695602090810195019160010190613445565b6003549060ff8260a01c16158015613595575b61358e57613565613556612e37565b926001600160a01b0316613319565b80156135855761357b6135809261295c94612d5f565b612d72565b61364e565b5050505f905f90565b5f92909150565b508015613547565b60ff60035460a01c161580156135da575b612e29576135ba612e37565b6004548082106135cd57612df391612d52565b612df391612e2491612d52565b50600454156135ae565b6001600160a01b03168015612f25576020600491604051928380926338d52e0f60e01b82525afa90811561270f575f9161362f575b506002546001600160a01b039182169116141590565b613648915060203d6020116106c7576106b98183612b13565b5f613619565b9060ff60035460a01c161580156136b3575b80156136a7575b6136a25761367760045483612d52565b60095481111561369c57612710613694612df39260075490612d5f565b048093612d52565b505f9190565b5f9190565b50600454821115613667565b5060045415613660565b156136c457565b60405162461bcd60e51b8152602060048201526015602482015274139bdd081d1a194818dd5c9c995b9d081d985d5b1d605a1b6044820152606490fd5b6001600160a01b03168015612f25576020600491604051928380926338d52e0f60e01b82525afa90811561270f575f91613739575090565b612df3915060203d6020116106c7576106b98183612b13565b909290916001600160a01b03808416919085168281148015613873575b61386457604051906379bc57d560e01b8252836004830152806024830152600160448301526020826064815f516020614a0b5f395f51905f525afa91821561270f575f92613843575b50604051936379bc57d560e01b8552600485015260248401525f60448401526020836064815f516020614a0b5f395f51905f525afa91821561270f5761381d935f93613822575b5061380b8188886145a7565b966138178282896146fa565b966148a7565b929190565b61383c91935060203d6020116106c7576106b98183612b13565b915f6137ff565b61385d91925060203d6020116106c7576106b98183612b13565b905f6137b8565b5050509150506001905f905f90565b50811561376f565b60405163f8c0ae0560e01b8152602081600481305afa90811561270f575f916138ba575b508015612f25576138b66127109160075490612d5f565b0490565b90506020813d6020116138e4575b816138d560209383612b13565b81010312610bf357515f61389f565b3d91506138c8565b60ff60035460a01c1615801561391d575b612e2957613909612e37565b60045480821115612eed57612df391612d52565b50600454156138fd565b60025f54146139365760025f55565b633ee5aeb560e01b5f5260045ffd5b60ff6001541661395157565b63d93c066560e01b5f5260045ffd5b6040516323b872dd60e01b60208201526001600160a01b0392831660248201529290911660448301526064808301939093529181526139a9916139a4608483612b13565b614952565b565b90816020910312610bf357518015158103610bf35790565b604080519091906139d48382612b13565b6001815291601f1901825f5b8281106139ec57505050565b6020906040516139fb81612ac9565b5f81525f838201525f60408201525f6060820152828285010152016139e0565b602081830312610bf3578051906001600160401b038211610bf357019080601f83011215610bf3578151613a4e81612fd7565b92613a5c6040519485612b13565b81845260208085019260051b820101928311610bf357602001905b828210613a845750505090565b8151815260209182019101613a77565b90602080835192838152019201905f5b818110613ab15750505090565b825180516001600160a01b0390811686526020828101518216818801526040808401511515908801526060928301519091169186019190915260809094019390920191600101613aa4565b604090612df3939281528160208201520190613a94565b9192916001600160a01b038281169290821691828414613e93578515613e60576040516379bc57d560e01b8152836004820152846024820152600160448201526020816064815f516020614a0b5f395f51905f525afa90811561270f575f91613e41575b50604051916379bc57d560e01b83528460048401528560248401525f60448401526020836064815f516020614a0b5f395f51905f525afa92831561270f575f93613e20575b506001600160a01b03821615801590613e0e575b15613dd857613be09388916148a7565b60405163095ea7b360e01b815273cf77a3ba9a5ca399b7c97c74d54e5b1beb874e436004820152602481018690526020816044815f875af1801561270f57613dab575b50613c2c6139c3565b9060405190613c3a82612ac9565b838252846020830152151560408201525f516020614a0b5f395f51905f526060820152613c668261305a565b52613c708161305a565b50604051631542686b60e21b81525f8180613c8f858a60048401613afc565b038173cf77a3ba9a5ca399b7c97c74d54e5b1beb874e435afa801561270f57613cbf915f91613d89575b50613067565b5161251c81029080820461251c1490151715612be25761012c4201804211612be2575f9161271091613d19604051958694859463cac88ea960e01b86528c600487015204602485015260a0604485015260a4840190613a94565b90306064840152608483015203818373cf77a3ba9a5ca399b7c97c74d54e5b1beb874e435af1801561270f57613d796040917f4ac5df40d910feab74f02c4430568f99e711257906dd0df11643df22f2ee3cf6935f91613d895750613067565b51958151908152866020820152a3565b613da591503d805f833e613d9d8183612b13565b810190613a1b565b5f613cb9565b613dcc9060203d602011613dd1575b613dc48183612b13565b8101906139ab565b613c23565b503d613dba565b60405162461bcd60e51b815260206004820152600e60248201526d139bc81c1bdbdb1cc8195e1a5cdd60921b6044820152606490fd5b506001600160a01b0383161515613bd0565b613e3a91935060203d6020116106c7576106b98183612b13565b915f613bbc565b613e5a915060203d6020116106c7576106b98183612b13565b5f613b77565b60405162461bcd60e51b815260206004820152600b60248201526a16995c9bc8185b5bdd5b9d60aa1b6044820152606490fd5b60405162461bcd60e51b815260206004820152600a60248201526929b0b6b2903a37b5b2b760b11b6044820152606490fd5b60405160609190613ed68382612b13565b6002815291601f1901825f5b828110613eee57505050565b602090604051613efd81612af8565b5f81526060838201525f60408201525f60608201525f608082015282828501015201613ee2565b602081016020825282518091526040820191602060408360051b8301019401925f915b838310613f5657505050505090565b909192939460208060c0600193603f198682030187528260808b51878060a01b0381511684528281015160a08486015280519384918260a0880152018686015e5f8584860101526040810151604085015260608101511515606085015201516080830152601f8019910116010197019301930191939290613f47565b60405163095ea7b360e01b81525f516020614a2b5f395f51905f526004820152602481018390526001600160a01b03909316929091906020816044815f885af1801561270f576141a3575b50614026613ec5565b926040519063d96ca0b960e01b602083015260248201525f516020614a2b5f395f51905f52604482015281606482015260648152614065608482612b13565b6040519061407282612af8565b5f516020614a2b5f395f51905f52825260208201525f60408201525f60608201525f60808201526140a28461305a565b526140ac8361305a565b5060405163377af75760e11b60208201526001600160a01b03909216602483015260448201525f1960648201523060848083019190915281526140f060a482612b13565b604051906140fd82612af8565b5f516020614a2b5f395f51905f52825260208201525f60408201525f60608201525f608082015261412d82613067565b5261413781613067565b50736bfd8137e702540e7a42b74178a4a49ba43920c43b15610bf3575f614172916040518093819263374f435d60e01b835260048301613f24565b038183736bfd8137e702540e7a42b74178a4a49ba43920c45af1801561270f576141995750565b5f6139a991612b13565b6141bb9060203d602011613dd157613dc48183612b13565b61401d565b6001600160a01b0380821693919290811684811480156142f7575b6142ef57604051906379bc57d560e01b8252856004830152806024830152600160448301526020826064815f516020614a0b5f395f51905f525afa91821561270f575f926142ce575b50604051956379bc57d560e01b8752600487015260248601525f60448601526020856064815f516020614a0b5f395f51905f525afa94851561270f575f956142ad575b506001600160a01b038116158061429c575b61429357612df39461428d918484876148a7565b926147cb565b50505050505f90565b506001600160a01b03851615614279565b6142c791955060203d6020116106c7576106b98183612b13565b935f614267565b6142e891925060203d6020116106c7576106b98183612b13565b905f614224565b505091505090565b5082156141db565b60405163a9059cbb60e01b60208201526001600160a01b0390921660248301526044808301939093529181526139a9916139a4606483612b13565b60ff600154161561434757565b638dfc202b60e01b5f5260045ffd5b60405163266d6a8360e11b81526004810183905291906001600160a01b0316602083602481845afa92831561270f575f93614573575b5060405163095ea7b360e01b81525f516020614a2b5f395f51905f526004820152602481018390526020816044815f865af1801561270f57614556575b506143d2613ec5565b9160405163d96ca0b960e01b60208201528260248201525f516020614a2b5f395f51905f52604482015281606482015260648152614411608482612b13565b6040519061441e82612af8565b5f516020614a2b5f395f51905f52825260208201525f60408201525f60608201525f608082015261444e8461305a565b526144588361305a565b50604051916353fb730360e11b6020840152602483015260448201525f60648201523060848201525f516020614a2b5f395f51905f5260a482015260a481526144a260c482612b13565b604051906144af82612af8565b5f516020614a2b5f395f51905f52825260208201525f60408201525f60608201525f60808201526144df82613067565b526144e981613067565b50736bfd8137e702540e7a42b74178a4a49ba43920c43b15610bf3575f614524916040518093819263374f435d60e01b835260048301613f24565b038183736bfd8137e702540e7a42b74178a4a49ba43920c45af1801561270f5761454c575090565b5f612df391612b13565b61456e9060203d602011613dd157613dc48183612b13565b6143c9565b9092506020813d60201161459f575b8161458f60209383612b13565b81010312610bf35751915f61438c565b3d9150614582565b6040516379bc57d560e01b81526001600160a01b03808316600483015283166024820152600160448201529091906020816064815f516020614a0b5f395f51905f525afa90811561270f575f916146db575b506001600160a01b0316156146d457614680925f926146166139c3565b926040519161462483612ac9565b6001600160a01b039081168352166020820152600160408201525f516020614a0b5f395f51905f52606082015261465a8361305a565b526146648261305a565b50604051631542686b60e21b8152938492839260048401613afc565b038173cf77a3ba9a5ca399b7c97c74d54e5b1beb874e435afa5f91816146b8575b506146ab57505f90565b6146b490613067565b5190565b6146cd9192503d805f833e613d9d8183612b13565b905f6146a1565b5050505f90565b6146f4915060203d6020116106c7576106b98183612b13565b5f6145f9565b6040516379bc57d560e01b81526001600160a01b038083166004830152831660248201525f60448201529091906020816064815f516020614a0b5f395f51905f525afa90811561270f575f916147ac575b506001600160a01b0316156146d457614680925f926147686139c3565b926040519161477683612ac9565b6001600160a01b039081168352166020820152604081018490525f516020614a0b5f395f51905f52606082015261465a8361305a565b6147c5915060203d6020116106c7576106b98183612b13565b5f61474b565b6040516379bc57d560e01b81526001600160a01b038281166004830152831660248201528415156044820152909392906020816064815f516020614a0b5f395f51905f525afa90811561270f575f91614888575b506001600160a01b03161561488057614680935f9361483c6139c3565b936040519261484a84612ac9565b6001600160a01b039081168452166020830152151560408201525f516020614a0b5f395f51905f52606082015261465a8361305a565b505050505f90565b6148a1915060203d6020116106c7576106b98183612b13565b5f61481f565b6001600160a01b0390931615938480614940575b614293576001600160a01b031615928380614938575b61492e575f935f951561491b575b15614907575b5050506103e98102908082046103e91490151715612be2576103e89004101590565b6149129394506146fa565b905f80806148e5565b93506149288383836145a7565b936148df565b5050505050600190565b5084156148d1565b506001600160a01b03811615156148bb565b905f602091828151910182855af11561270f575f513d6149a157506001600160a01b0381163b155b6149815750565b635274afe760e01b5f9081526001600160a01b0391909116600452602490fd5b6001141561497a56fe1aa88527987680f71e6ace8f3d2ab4871db1862850458125715e5175f088c609108516ddcf5ba43cea6bb2cd5ff6d59ac196c1c86ccb9178332b9dd72d1ca5610000000000000000000000003ef3d8ba38ebe18db133cec108f4d14ce00dd9ae000000000000000000000000420dd381b31aef6683db6b902084cb0ffece40da000000000000000000000000b98c948cfa24072e58935bc004a8a7b376ae746a2717ead6b9200dd235aad468c9809ea400fe33ac69b5bfaa6d3e90fc922b639860122ba74de0c62da8a59d9ceceb72c5d6b04357fa52bb7c972b5cf80da6fd60a26469706673582212206a6eaecf713938fe765568d6c497b77b9adde7bb8cad286b953cfbebac0d6a2364736f6c634300081e00338be0079c531659141344cd1fd0a4f28419497f9722a3daafe3b4186f6b6457e0a26469706673582212204529bfdd9fdd8938ed11ca429205bfc50ed4647749706fdc09c327593530f30664736f6c634300081e0033","opcodes":"PUSH1 0x80 CALLVALUE PUSH2 0x111 JUMPI PUSH1 0x1F PUSH2 0x699C CODESIZE DUP2 SWAP1 SUB SWAP2 DUP3 ADD PUSH1 0x1F NOT AND DUP4 ADD SWAP2 PUSH1 0x1 PUSH1 0x1 PUSH1 0x40 SHL SUB DUP4 GT DUP5 DUP5 LT OR PUSH2 0x115 JUMPI DUP1 DUP5 SWAP3 PUSH1 0x60 SWAP5 PUSH1 0x40 MSTORE DUP4 CODECOPY DUP2 ADD SUB SLT PUSH2 0x111 JUMPI PUSH2 0x47 DUP2 PUSH2 0x129 JUMP JUMPDEST PUSH2 0x58 PUSH1 0x40 PUSH1 0x20 DUP5 ADD MLOAD SWAP4 ADD PUSH2 0x129 JUMP JUMPDEST PUSH1 0x1 PUSH1 0x1 PUSH1 0xA0 SHL SUB DUP3 AND SWAP3 SWAP1 SWAP2 SWAP1 DUP4 ISZERO PUSH2 0xFE JUMPI PUSH0 DUP1 SLOAD PUSH1 0x1 PUSH1 0x1 PUSH1 0xA0 SHL SUB NOT DUP2 AND DUP7 OR DUP3 SSTORE PUSH1 0x40 MLOAD SWAP6 SWAP2 PUSH1 0x1 PUSH1 0x1 PUSH1 0xA0 SHL SUB SWAP1 SWAP2 AND SWAP1 PUSH32 0x8BE0079C531659141344CD1FD0A4F28419497F9722A3DAAFE3B4186F6B6457E0 SWAP1 DUP1 LOG3 PUSH1 0x1 DUP1 SSTORE PUSH1 0x7 SSTORE PUSH1 0x1 PUSH1 0x1 PUSH1 0xA0 SHL SUB DUP3 AND ISZERO PUSH2 0xF7 JUMPI POP JUMPDEST PUSH1 0x8 DUP1 SLOAD PUSH1 0x1 PUSH1 0x1 PUSH1 0xA0 SHL SUB NOT AND PUSH1 0x1 PUSH1 0x1 PUSH1 0xA0 SHL SUB SWAP3 SWAP1 SWAP3 AND SWAP2 SWAP1 SWAP2 OR SWAP1 SSTORE PUSH2 0x685E SWAP1 DUP2 PUSH2 0x13E DUP3 CODECOPY RETURN JUMPDEST SWAP1 POP PUSH2 0xCB JUMP JUMPDEST PUSH4 0x1E4FBDF7 PUSH1 0xE0 SHL PUSH0 MSTORE PUSH0 PUSH1 0x4 MSTORE PUSH1 0x24 PUSH0 REVERT JUMPDEST PUSH0 DUP1 REVERT JUMPDEST PUSH4 0x4E487B71 PUSH1 0xE0 SHL PUSH0 MSTORE PUSH1 0x41 PUSH1 0x4 MSTORE PUSH1 0x24 PUSH0 REVERT JUMPDEST MLOAD SWAP1 PUSH1 0x1 PUSH1 0x1 PUSH1 0xA0 SHL SUB DUP3 AND DUP3 SUB PUSH2 0x111 JUMPI JUMP INVALID PUSH1 0x80 PUSH1 0x40 MSTORE PUSH1 0x4 CALLDATASIZE LT ISZERO PUSH2 0x11 JUMPI PUSH0 DUP1 REVERT JUMPDEST PUSH0 CALLDATALOAD PUSH1 0xE0 SHR DUP1 PUSH4 0x121BFE3 EQ PUSH2 0x1AF JUMPI DUP1 PUSH4 0xC90D7B5 EQ PUSH2 0x1AA JUMPI DUP1 PUSH4 0x1A0121DB EQ PUSH2 0x1A5 JUMPI DUP1 PUSH4 0x2F6071C7 EQ PUSH2 0x187 JUMPI DUP1 PUSH4 0x3A0F555D EQ PUSH2 0x1A0 JUMPI DUP1 PUSH4 0x3F4BA83A EQ PUSH2 0x19B JUMPI DUP1 PUSH4 0x46904840 EQ PUSH2 0x196 JUMPI DUP1 PUSH4 0x4C8210C9 EQ PUSH2 0x191 JUMPI DUP1 PUSH4 0x5486F100 EQ PUSH2 0x18C JUMPI DUP1 PUSH4 0x58C62442 EQ PUSH2 0x187 JUMPI DUP1 PUSH4 0x5C975ABB EQ PUSH2 0x182 JUMPI DUP1 PUSH4 0x715018A6 EQ PUSH2 0x17D JUMPI DUP1 PUSH4 0x8456CB59 EQ PUSH2 0x178 JUMPI DUP1 PUSH4 0x8DA5CB5B EQ PUSH2 0x173 JUMPI DUP1 PUSH4 0x921D4EB4 EQ PUSH2 0x16E JUMPI DUP1 PUSH4 0x9A9748CF EQ PUSH2 0x169 JUMPI DUP1 PUSH4 0x9E56AE2A EQ PUSH2 0x164 JUMPI DUP1 PUSH4 0xB1BA9620 EQ PUSH2 0x15F JUMPI DUP1 PUSH4 0xC8F3F909 EQ PUSH2 0x15A JUMPI DUP1 PUSH4 0xCB1B7D90 EQ PUSH2 0x155 JUMPI DUP1 PUSH4 0xD002462B EQ PUSH2 0x150 JUMPI DUP1 PUSH4 0xDB2E21BC EQ PUSH2 0x14B JUMPI DUP1 PUSH4 0xE3997033 EQ PUSH2 0x146 JUMPI DUP1 PUSH4 0xE74B981B EQ PUSH2 0x141 JUMPI DUP1 PUSH4 0xF2CFF57F EQ PUSH2 0x13C JUMPI PUSH4 0xF2FDE38B EQ PUSH2 0x137 JUMPI PUSH0 DUP1 REVERT JUMPDEST PUSH2 0x1187 JUMP JUMPDEST PUSH2 0x116A JUMP JUMPDEST PUSH2 0x10E7 JUMP JUMPDEST PUSH2 0xFA1 JUMP JUMPDEST PUSH2 0xEEA JUMP JUMPDEST PUSH2 0xEC9 JUMP JUMPDEST PUSH2 0xE96 JUMP JUMPDEST PUSH2 0xE48 JUMP JUMPDEST PUSH2 0xD58 JUMP JUMPDEST PUSH2 0xA77 JUMP JUMPDEST PUSH2 0x9F5 JUMP JUMPDEST PUSH2 0x93F JUMP JUMPDEST PUSH2 0x8DF JUMP JUMPDEST PUSH2 0x87F JUMP JUMPDEST PUSH2 0x83B JUMP JUMPDEST PUSH2 0x817 JUMP JUMPDEST PUSH2 0x403 JUMP JUMPDEST PUSH2 0x7FA JUMP JUMPDEST PUSH2 0x70B JUMP JUMPDEST PUSH2 0x58D JUMP JUMPDEST PUSH2 0x521 JUMP JUMPDEST PUSH2 0x493 JUMP JUMPDEST PUSH2 0x3A7 JUMP JUMPDEST PUSH2 0x342 JUMP JUMPDEST PUSH2 0x1C9 JUMP JUMPDEST PUSH1 0x1 PUSH1 0x1 PUSH1 0xA0 SHL SUB DUP2 AND SUB PUSH2 0x1C5 JUMPI JUMP JUMPDEST PUSH0 DUP1 REVERT JUMPDEST CALLVALUE PUSH2 0x1C5 JUMPI PUSH1 0xA0 CALLDATASIZE PUSH1 0x3 NOT ADD SLT PUSH2 0x1C5 JUMPI PUSH1 0x4 CALLDATALOAD PUSH2 0x1E6 DUP2 PUSH2 0x1B4 JUMP JUMPDEST PUSH1 0x24 CALLDATALOAD SWAP1 PUSH2 0x1F3 DUP3 PUSH2 0x1B4 JUMP JUMPDEST PUSH1 0x44 CALLDATALOAD SWAP1 PUSH2 0x200 DUP3 PUSH2 0x1B4 JUMP JUMPDEST PUSH2 0x2A9 PUSH2 0x298 PUSH1 0x64 CALLDATALOAD SWAP5 PUSH2 0x293 PUSH1 0x84 CALLDATALOAD SWAP5 PUSH2 0x219 PUSH2 0x1848 JUMP JUMPDEST PUSH1 0x1 PUSH1 0x1 PUSH1 0xA0 SHL SUB DUP2 AND SWAP6 PUSH2 0x22F DUP8 ISZERO ISZERO PUSH2 0x11FD JUMP JUMPDEST PUSH1 0x1 PUSH1 0x1 PUSH1 0xA0 SHL SUB DUP5 AND SWAP8 PUSH2 0x27D SWAP1 PUSH2 0x249 DUP11 ISZERO ISZERO PUSH2 0x1241 JUMP JUMPDEST PUSH2 0x255 CHAINID DUP13 EQ ISZERO PUSH2 0x127D JUMP JUMPDEST PUSH2 0x267 PUSH2 0x260 PUSH2 0x60C JUMP JUMPDEST SWAP5 DUP6 PUSH2 0x12D3 JUMP JUMPDEST PUSH2 0x274 DUP7 PUSH1 0x20 DUP7 ADD PUSH2 0x12D3 JUMP JUMPDEST PUSH1 0x40 DUP5 ADD PUSH2 0x12D3 JUMP JUMPDEST DUP9 PUSH1 0x60 DUP4 ADD MSTORE PUSH1 0x80 DUP3 ADD MSTORE TIMESTAMP PUSH1 0xA0 DUP3 ADD MSTORE PUSH2 0x1301 JUMP JUMPDEST PUSH2 0x2CF JUMP JUMPDEST PUSH2 0x2A3 PUSH1 0x5 SLOAD PUSH2 0x13A2 JUMP JUMPDEST SWAP1 PUSH2 0x13D1 JUMP JUMPDEST PUSH32 0xBDF39C8E4504706C3EE61AB487623EF56AB40AFA1C9BD55CC1732562AB38114A PUSH0 DUP1 LOG4 STOP JUMPDEST PUSH1 0x1 PUSH1 0x1 PUSH1 0xA0 SHL SUB AND PUSH0 SWAP1 DUP2 MSTORE PUSH1 0x6 PUSH1 0x20 MSTORE PUSH1 0x40 SWAP1 KECCAK256 SWAP1 JUMP JUMPDEST PUSH1 0x1 PUSH1 0x1 PUSH1 0xA0 SHL SUB AND PUSH0 SWAP1 DUP2 MSTORE PUSH1 0x2 PUSH1 0x20 MSTORE PUSH1 0x40 SWAP1 KECCAK256 SWAP1 JUMP JUMPDEST PUSH4 0x4E487B71 PUSH1 0xE0 SHL PUSH0 MSTORE PUSH1 0x32 PUSH1 0x4 MSTORE PUSH1 0x24 PUSH0 REVERT JUMPDEST DUP1 SLOAD DUP3 LT ISZERO PUSH2 0x32A JUMPI PUSH0 MSTORE PUSH1 0x20 PUSH0 KECCAK256 ADD SWAP1 PUSH0 SWAP1 JUMP JUMPDEST PUSH2 0x301 JUMP JUMPDEST PUSH1 0x1 PUSH1 0x1 PUSH1 0xA0 SHL SUB SWAP1 SWAP2 AND DUP2 MSTORE PUSH1 0x20 ADD SWAP1 JUMP JUMPDEST CALLVALUE PUSH2 0x1C5 JUMPI PUSH1 0x40 CALLDATASIZE PUSH1 0x3 NOT ADD SLT PUSH2 0x1C5 JUMPI PUSH1 0x4 CALLDATALOAD PUSH2 0x35F DUP2 PUSH2 0x1B4 JUMP JUMPDEST PUSH1 0x1 PUSH1 0x1 PUSH1 0xA0 SHL SUB AND PUSH0 SWAP1 DUP2 MSTORE PUSH1 0x3 PUSH1 0x20 MSTORE PUSH1 0x40 SWAP1 KECCAK256 DUP1 SLOAD PUSH1 0x24 CALLDATALOAD SWAP1 DUP2 LT ISZERO PUSH2 0x1C5 JUMPI PUSH2 0x38B SWAP2 PUSH2 0x315 JUMP JUMPDEST SWAP1 SLOAD PUSH1 0x40 MLOAD PUSH1 0x3 SWAP3 SWAP1 SWAP3 SHL SHR PUSH1 0x1 PUSH1 0x1 PUSH1 0xA0 SHL SUB AND DUP2 MSTORE PUSH1 0x20 SWAP1 RETURN JUMPDEST CALLVALUE PUSH2 0x1C5 JUMPI PUSH1 0x40 CALLDATASIZE PUSH1 0x3 NOT ADD SLT PUSH2 0x1C5 JUMPI PUSH1 0x4 CALLDATALOAD PUSH2 0x3C4 DUP2 PUSH2 0x1B4 JUMP JUMPDEST PUSH1 0x1 PUSH1 0x1 PUSH1 0xA0 SHL SUB AND PUSH0 SWAP1 DUP2 MSTORE PUSH1 0x6 PUSH1 0x20 MSTORE PUSH1 0x40 SWAP1 KECCAK256 DUP1 SLOAD PUSH1 0x24 CALLDATALOAD SWAP2 SWAP1 DUP3 LT ISZERO PUSH2 0x1C5 JUMPI PUSH1 0x20 SWAP2 PUSH2 0x3F4 SWAP2 PUSH2 0x315 JUMP JUMPDEST SWAP1 SLOAD SWAP1 PUSH1 0x3 SHL SHR PUSH1 0x40 MLOAD SWAP1 DUP2 MSTORE RETURN JUMPDEST CALLVALUE PUSH2 0x1C5 JUMPI PUSH1 0x20 CALLDATASIZE PUSH1 0x3 NOT ADD SLT PUSH2 0x1C5 JUMPI PUSH1 0x4 CALLDATALOAD PUSH2 0x420 DUP2 PUSH2 0x1B4 JUMP JUMPDEST PUSH1 0x1 DUP1 PUSH1 0xA0 SHL SUB AND PUSH0 MSTORE PUSH1 0x4 PUSH1 0x20 MSTORE PUSH1 0x20 PUSH1 0xFF PUSH1 0x40 PUSH0 KECCAK256 SLOAD AND PUSH1 0x40 MLOAD SWAP1 ISZERO ISZERO DUP2 MSTORE RETURN JUMPDEST SWAP1 PUSH1 0x20 DUP1 DUP4 MLOAD SWAP3 DUP4 DUP2 MSTORE ADD SWAP3 ADD SWAP1 PUSH0 JUMPDEST DUP2 DUP2 LT PUSH2 0x460 JUMPI POP POP POP SWAP1 JUMP JUMPDEST DUP3 MLOAD PUSH1 0x1 PUSH1 0x1 PUSH1 0xA0 SHL SUB AND DUP5 MSTORE PUSH1 0x20 SWAP4 DUP5 ADD SWAP4 SWAP1 SWAP3 ADD SWAP2 PUSH1 0x1 ADD PUSH2 0x453 JUMP JUMPDEST SWAP1 PUSH1 0x20 PUSH2 0x490 SWAP3 DUP2 DUP2 MSTORE ADD SWAP1 PUSH2 0x443 JUMP JUMPDEST SWAP1 JUMP JUMPDEST CALLVALUE PUSH2 0x1C5 JUMPI PUSH1 0x20 CALLDATASIZE PUSH1 0x3 NOT ADD SLT PUSH2 0x1C5 JUMPI PUSH1 0x4 CALLDATALOAD PUSH2 0x4B0 DUP2 PUSH2 0x1B4 JUMP JUMPDEST PUSH1 0x1 DUP1 PUSH1 0xA0 SHL SUB AND PUSH0 MSTORE PUSH1 0x3 PUSH1 0x20 MSTORE PUSH1 0x40 PUSH0 KECCAK256 PUSH1 0x40 MLOAD SWAP1 DUP2 PUSH1 0x20 DUP3 SLOAD SWAP2 DUP3 DUP2 MSTORE ADD SWAP2 PUSH0 MSTORE PUSH1 0x20 PUSH0 KECCAK256 SWAP1 PUSH0 JUMPDEST DUP2 DUP2 LT PUSH2 0x502 JUMPI PUSH2 0x4FE DUP6 PUSH2 0x4F2 DUP2 DUP8 SUB DUP3 PUSH2 0x5E9 JUMP JUMPDEST PUSH1 0x40 MLOAD SWAP2 DUP3 SWAP2 DUP3 PUSH2 0x47F JUMP JUMPDEST SUB SWAP1 RETURN JUMPDEST DUP3 SLOAD PUSH1 0x1 PUSH1 0x1 PUSH1 0xA0 SHL SUB AND DUP5 MSTORE PUSH1 0x20 SWAP1 SWAP4 ADD SWAP3 PUSH1 0x1 SWAP3 DUP4 ADD SWAP3 ADD PUSH2 0x4DB JUMP JUMPDEST CALLVALUE PUSH2 0x1C5 JUMPI PUSH0 CALLDATASIZE PUSH1 0x3 NOT ADD SLT PUSH2 0x1C5 JUMPI PUSH2 0x539 PUSH2 0x1848 JUMP JUMPDEST PUSH0 SLOAD PUSH1 0xFF DUP2 PUSH1 0xA0 SHR AND ISZERO PUSH2 0x57E JUMPI PUSH1 0xFF PUSH1 0xA0 SHL NOT AND PUSH0 SSTORE PUSH1 0x40 MLOAD CALLER DUP2 MSTORE PUSH32 0x5DB9EE0A495BF2E6FF9C91A7834C1BA4FDD244A5E8AA4E537BD38AEAE4B073AA SWAP1 PUSH1 0x20 SWAP1 LOG1 STOP JUMPDEST PUSH4 0x8DFC202B PUSH1 0xE0 SHL PUSH0 MSTORE PUSH1 0x4 PUSH0 REVERT JUMPDEST CALLVALUE PUSH2 0x1C5 JUMPI PUSH0 CALLDATASIZE PUSH1 0x3 NOT ADD SLT PUSH2 0x1C5 JUMPI PUSH1 0x8 SLOAD PUSH1 0x40 MLOAD PUSH1 0x1 PUSH1 0x1 PUSH1 0xA0 SHL SUB SWAP1 SWAP2 AND DUP2 MSTORE PUSH1 0x20 SWAP1 RETURN JUMPDEST PUSH4 0x4E487B71 PUSH1 0xE0 SHL PUSH0 MSTORE PUSH1 0x41 PUSH1 0x4 MSTORE PUSH1 0x24 PUSH0 REVERT JUMPDEST PUSH1 0xC0 DUP2 ADD SWAP1 DUP2 LT PUSH1 0x1 PUSH1 0x1 PUSH1 0x40 SHL SUB DUP3 GT OR PUSH2 0x5E4 JUMPI PUSH1 0x40 MSTORE JUMP JUMPDEST PUSH2 0x5B5 JUMP JUMPDEST PUSH1 0x1F SWAP1 SWAP2 ADD PUSH1 0x1F NOT AND DUP2 ADD SWAP1 PUSH1 0x1 PUSH1 0x1 PUSH1 0x40 SHL SUB DUP3 GT SWAP1 DUP3 LT OR PUSH2 0x5E4 JUMPI PUSH1 0x40 MSTORE JUMP JUMPDEST PUSH1 0x40 MLOAD SWAP1 PUSH2 0x61B PUSH1 0xC0 DUP4 PUSH2 0x5E9 JUMP JUMPDEST JUMP JUMPDEST SWAP1 PUSH2 0x61B PUSH1 0x40 MLOAD SWAP3 DUP4 PUSH2 0x5E9 JUMP JUMPDEST SWAP1 DUP1 PUSH1 0x1F DUP4 ADD SLT ISZERO PUSH2 0x1C5 JUMPI DUP2 CALLDATALOAD SWAP2 PUSH1 0x1 PUSH1 0x1 PUSH1 0x40 SHL SUB DUP4 GT PUSH2 0x5E4 JUMPI DUP3 PUSH1 0x5 SHL SWAP1 PUSH1 0x40 MLOAD SWAP4 PUSH2 0x65E PUSH1 0x20 DUP5 ADD DUP7 PUSH2 0x5E9 JUMP JUMPDEST DUP5 MSTORE PUSH1 0x20 DUP1 DUP6 ADD SWAP3 DUP3 ADD ADD SWAP3 DUP4 GT PUSH2 0x1C5 JUMPI PUSH1 0x20 ADD SWAP1 JUMPDEST DUP3 DUP3 LT PUSH2 0x682 JUMPI POP POP POP SWAP1 JUMP JUMPDEST PUSH1 0x20 DUP1 SWAP2 DUP4 CALLDATALOAD PUSH2 0x691 DUP2 PUSH2 0x1B4 JUMP JUMPDEST DUP2 MSTORE ADD SWAP2 ADD SWAP1 PUSH2 0x675 JUMP JUMPDEST SWAP1 PUSH2 0x100 PUSH1 0x3 NOT DUP4 ADD SLT PUSH2 0x1C5 JUMPI PUSH1 0x4 CALLDATALOAD PUSH2 0x6B6 DUP2 PUSH2 0x1B4 JUMP JUMPDEST SWAP2 PUSH1 0x24 CALLDATALOAD PUSH2 0x6C3 DUP2 PUSH2 0x1B4 JUMP JUMPDEST SWAP2 PUSH1 0x44 CALLDATALOAD PUSH2 0x6D0 DUP2 PUSH2 0x1B4 JUMP JUMPDEST SWAP2 PUSH1 0x64 CALLDATALOAD SWAP1 PUSH1 0x1 PUSH1 0x1 PUSH1 0x40 SHL SUB DUP3 GT PUSH2 0x1C5 JUMPI PUSH2 0x6EF SWAP2 PUSH1 0x4 ADD PUSH2 0x62B JUMP JUMPDEST SWAP1 PUSH1 0x84 CALLDATALOAD PUSH2 0x6FC DUP2 PUSH2 0x1B4 JUMP JUMPDEST SWAP1 PUSH1 0xA4 CALLDATALOAD SWAP1 PUSH1 0xC4 CALLDATALOAD SWAP1 PUSH1 0xE4 CALLDATALOAD SWAP1 JUMP JUMPDEST CALLVALUE PUSH2 0x1C5 JUMPI PUSH2 0x4FE PUSH2 0x7EE PUSH2 0x7E2 PUSH2 0x776 PUSH2 0x768 PUSH2 0x7D3 PUSH2 0x768 PUSH2 0x768 PUSH2 0x790 PUSH2 0x734 CALLDATASIZE PUSH2 0x69C JUMP JUMPDEST SWAP13 SWAP6 SWAP7 SWAP5 SWAP10 SWAP4 SWAP3 SWAP1 SWAP3 PUSH2 0x4F7D SWAP11 PUSH2 0x74D PUSH1 0x20 DUP14 ADD PUSH2 0x61D JUMP JUMPDEST DUP13 DUP2 MSTORE SWAP12 PUSH2 0x188C PUSH1 0x20 DUP15 ADD CODECOPY PUSH1 0x40 MLOAD SWAP9 DUP10 SWAP8 PUSH1 0x20 DUP10 ADD PUSH2 0x1405 JUMP JUMPDEST SUB PUSH1 0x1F NOT DUP2 ADD DUP4 MSTORE DUP3 PUSH2 0x5E9 JUMP JUMPDEST PUSH1 0x40 MLOAD SWAP3 DUP4 SWAP2 PUSH2 0x78A PUSH1 0x20 DUP5 ADD DUP1 SWAP8 PUSH2 0x145C JUMP JUMPDEST SWAP1 PUSH2 0x145C JUMP JUMPDEST MLOAD SWAP1 KECCAK256 PUSH1 0x40 MLOAD PUSH1 0x1 PUSH1 0x1 PUSH1 0xF8 SHL SUB NOT PUSH1 0x20 DUP3 ADD SWAP1 DUP2 MSTORE ADDRESS PUSH1 0x60 SHL PUSH1 0x1 PUSH1 0x1 PUSH1 0x60 SHL SUB NOT AND PUSH1 0x21 DUP4 ADD MSTORE PUSH1 0x35 DUP3 ADD SWAP6 SWAP1 SWAP6 MSTORE PUSH1 0x55 DUP2 ADD SWAP2 SWAP1 SWAP2 MSTORE SWAP2 DUP3 SWAP1 PUSH1 0x75 DUP3 ADD SWAP1 JUMP JUMPDEST MLOAD SWAP1 KECCAK256 PUSH1 0x1 PUSH1 0x1 PUSH1 0xA0 SHL SUB AND SWAP1 JUMP JUMPDEST PUSH1 0x1 PUSH1 0x1 PUSH1 0xA0 SHL SUB AND SWAP1 JUMP JUMPDEST PUSH1 0x40 MLOAD SWAP2 DUP3 SWAP2 DUP3 PUSH2 0x32F JUMP JUMPDEST CALLVALUE PUSH2 0x1C5 JUMPI PUSH0 CALLDATASIZE PUSH1 0x3 NOT ADD SLT PUSH2 0x1C5 JUMPI PUSH1 0x20 PUSH1 0x5 SLOAD PUSH1 0x40 MLOAD SWAP1 DUP2 MSTORE RETURN JUMPDEST CALLVALUE PUSH2 0x1C5 JUMPI PUSH0 CALLDATASIZE PUSH1 0x3 NOT ADD SLT PUSH2 0x1C5 JUMPI PUSH1 0x20 PUSH1 0xFF PUSH0 SLOAD PUSH1 0xA0 SHR AND PUSH1 0x40 MLOAD SWAP1 ISZERO ISZERO DUP2 MSTORE RETURN JUMPDEST CALLVALUE PUSH2 0x1C5 JUMPI PUSH0 CALLDATASIZE PUSH1 0x3 NOT ADD SLT PUSH2 0x1C5 JUMPI PUSH2 0x853 PUSH2 0x1848 JUMP JUMPDEST PUSH0 DUP1 SLOAD PUSH1 0x1 PUSH1 0x1 PUSH1 0xA0 SHL SUB NOT DUP2 AND DUP3 SSTORE PUSH1 0x1 PUSH1 0x1 PUSH1 0xA0 SHL SUB AND PUSH0 MLOAD PUSH1 0x20 PUSH2 0x6809 PUSH0 CODECOPY PUSH0 MLOAD SWAP1 PUSH0 MSTORE DUP3 DUP1 LOG3 STOP JUMPDEST CALLVALUE PUSH2 0x1C5 JUMPI PUSH0 CALLDATASIZE PUSH1 0x3 NOT ADD SLT PUSH2 0x1C5 JUMPI PUSH2 0x897 PUSH2 0x1848 JUMP JUMPDEST PUSH2 0x89F PUSH2 0x186E JUMP JUMPDEST PUSH0 DUP1 SLOAD PUSH1 0xFF PUSH1 0xA0 SHL NOT AND PUSH1 0x1 PUSH1 0xA0 SHL OR SWAP1 SSTORE PUSH1 0x40 MLOAD CALLER DUP2 MSTORE PUSH32 0x62E78CEA01BEE320CD4E420270B5EA74000D11B0C9F74754EBDBFC544B05A258 SWAP1 PUSH1 0x20 SWAP1 LOG1 STOP JUMPDEST CALLVALUE PUSH2 0x1C5 JUMPI PUSH0 CALLDATASIZE PUSH1 0x3 NOT ADD SLT PUSH2 0x1C5 JUMPI PUSH0 SLOAD PUSH1 0x40 MLOAD PUSH1 0x1 PUSH1 0x1 PUSH1 0xA0 SHL SUB SWAP1 SWAP2 AND DUP2 MSTORE PUSH1 0x20 SWAP1 RETURN JUMPDEST PUSH1 0x20 PUSH1 0x40 DUP2 DUP4 ADD SWAP3 DUP3 DUP2 MSTORE DUP5 MLOAD DUP1 SWAP5 MSTORE ADD SWAP3 ADD SWAP1 PUSH0 JUMPDEST DUP2 DUP2 LT PUSH2 0x929 JUMPI POP POP POP SWAP1 JUMP JUMPDEST DUP3 MLOAD DUP5 MSTORE PUSH1 0x20 SWAP4 DUP5 ADD SWAP4 SWAP1 SWAP3 ADD SWAP2 PUSH1 0x1 ADD PUSH2 0x91C JUMP JUMPDEST CALLVALUE PUSH2 0x1C5 JUMPI PUSH1 0x20 CALLDATASIZE PUSH1 0x3 NOT ADD SLT PUSH2 0x1C5 JUMPI PUSH1 0x4 CALLDATALOAD PUSH2 0x95C DUP2 PUSH2 0x1B4 JUMP JUMPDEST PUSH1 0x1 DUP1 PUSH1 0xA0 SHL SUB AND PUSH0 MSTORE PUSH1 0x6 PUSH1 0x20 MSTORE PUSH1 0x40 PUSH0 KECCAK256 PUSH1 0x40 MLOAD SWAP1 DUP2 PUSH1 0x20 DUP3 SLOAD SWAP2 DUP3 DUP2 MSTORE ADD SWAP2 PUSH0 MSTORE PUSH1 0x20 PUSH0 KECCAK256 SWAP1 PUSH0 JUMPDEST DUP2 DUP2 LT PUSH2 0x9AA JUMPI PUSH2 0x4FE DUP6 PUSH2 0x99E DUP2 DUP8 SUB DUP3 PUSH2 0x5E9 JUMP JUMPDEST PUSH1 0x40 MLOAD SWAP2 DUP3 SWAP2 DUP3 PUSH2 0x906 JUMP JUMPDEST DUP3 SLOAD DUP5 MSTORE PUSH1 0x20 SWAP1 SWAP4 ADD SWAP3 PUSH1 0x1 SWAP3 DUP4 ADD SWAP3 ADD PUSH2 0x987 JUMP JUMPDEST PUSH1 0x5 SLOAD DUP2 LT ISZERO PUSH2 0x32A JUMPI PUSH1 0x5 PUSH0 MSTORE PUSH1 0x6 PUSH1 0x20 PUSH0 KECCAK256 SWAP2 MUL ADD SWAP1 PUSH0 SWAP1 JUMP JUMPDEST DUP1 SLOAD DUP3 LT ISZERO PUSH2 0x32A JUMPI PUSH0 MSTORE PUSH1 0x6 PUSH1 0x20 PUSH0 KECCAK256 SWAP2 MUL ADD SWAP1 PUSH0 SWAP1 JUMP JUMPDEST CALLVALUE PUSH2 0x1C5 JUMPI PUSH1 0x20 CALLDATASIZE PUSH1 0x3 NOT ADD SLT PUSH2 0x1C5 JUMPI PUSH1 0x4 CALLDATALOAD PUSH1 0x5 SLOAD DUP2 LT ISZERO PUSH2 0x1C5 JUMPI PUSH2 0xA1C SWAP1 PUSH2 0x9C0 JUMP JUMPDEST POP DUP1 SLOAD PUSH1 0x1 DUP3 ADD SLOAD PUSH1 0x2 DUP4 ADD SLOAD PUSH1 0x3 DUP5 ADD SLOAD PUSH1 0x4 DUP6 ADD SLOAD PUSH1 0x5 SWAP1 SWAP6 ADD SLOAD PUSH1 0x40 DUP1 MLOAD PUSH1 0x1 PUSH1 0x1 PUSH1 0xA0 SHL SUB SWAP7 DUP8 AND DUP2 MSTORE SWAP5 DUP7 AND PUSH1 0x20 DUP7 ADD MSTORE SWAP5 SWAP1 SWAP3 AND SWAP4 DUP4 ADD SWAP4 SWAP1 SWAP4 MSTORE PUSH1 0x60 DUP3 ADD SWAP3 SWAP1 SWAP3 MSTORE PUSH1 0x80 DUP2 ADD SWAP3 SWAP1 SWAP3 MSTORE PUSH1 0xA0 DUP3 ADD MSTORE PUSH1 0xC0 SWAP1 RETURN JUMPDEST PUSH2 0xA80 CALLDATASIZE PUSH2 0x69C JUMP JUMPDEST SWAP3 SWAP1 SWAP5 SWAP2 SWAP6 SWAP4 PUSH1 0x2 PUSH1 0x1 SLOAD EQ PUSH2 0xD49 JUMPI DUP4 SWAP3 PUSH1 0x2 PUSH1 0x1 SSTORE PUSH2 0xA9F PUSH2 0x186E JUMP JUMPDEST PUSH1 0x7 SLOAD DUP1 PUSH2 0xCE6 JUMPI JUMPDEST POP PUSH1 0x1 PUSH1 0x1 PUSH1 0xA0 SHL SUB DUP5 PUSH2 0xABB DUP12 PUSH2 0x2E8 JUMP JUMPDEST PUSH0 SWAP2 DUP3 MSTORE PUSH1 0x20 MSTORE PUSH1 0x40 SWAP1 KECCAK256 SLOAD PUSH1 0x1 PUSH1 0x1 PUSH1 0xA0 SHL SUB AND AND ISZERO PUSH2 0xADB SWAP1 PUSH2 0x1574 JUMP JUMPDEST PUSH1 0x1 PUSH1 0x1 PUSH1 0xA0 SHL SUB DUP10 AND SWAP7 DUP10 SWAP1 PUSH2 0xAF3 DUP10 ISZERO ISZERO PUSH2 0x1241 JUMP JUMPDEST PUSH1 0x1 PUSH1 0x1 PUSH1 0xA0 SHL SUB DUP9 AND SWAP10 PUSH2 0xB09 DUP12 ISZERO ISZERO PUSH2 0x15CC JUMP JUMPDEST PUSH2 0xB1D PUSH1 0x1 PUSH1 0x1 PUSH1 0xA0 SHL SUB DUP6 AND ISZERO ISZERO PUSH2 0x1608 JUMP JUMPDEST DUP5 MLOAD ISZERO ISZERO PUSH2 0xB2A SWAP1 PUSH2 0x1644 JUMP JUMPDEST PUSH2 0xB3E PUSH1 0x1 PUSH1 0x1 PUSH1 0xA0 SHL SUB DUP8 AND ISZERO ISZERO PUSH2 0x1684 JUMP JUMPDEST PUSH2 0xB49 DUP3 ISZERO ISZERO PUSH2 0x16CA JUMP JUMPDEST PUSH2 0x4F7D SWAP6 PUSH2 0xB59 PUSH1 0x20 DUP9 ADD PUSH2 0x61D JUMP JUMPDEST SWAP7 DUP1 DUP9 MSTORE PUSH2 0x188C PUSH1 0x20 DUP10 ADD CODECOPY PUSH1 0x40 MLOAD SWAP6 DUP7 SWAP6 DUP12 PUSH1 0x20 DUP9 ADD SWAP7 PUSH2 0xB7A SWAP8 PUSH2 0x1405 JUMP JUMPDEST SUB PUSH1 0x1F NOT DUP2 ADD DUP3 MSTORE PUSH2 0xB8C SWAP1 DUP3 PUSH2 0x5E9 JUMP JUMPDEST PUSH1 0x40 MLOAD DUP1 SWAP2 PUSH1 0x20 DUP3 ADD SWAP4 DUP5 PUSH2 0xBA0 SWAP2 PUSH2 0x145C JUMP JUMPDEST PUSH2 0xBA9 SWAP2 PUSH2 0x145C JUMP JUMPDEST SUB PUSH1 0x1F NOT DUP2 ADD DUP3 MSTORE PUSH2 0xBBB SWAP1 DUP3 PUSH2 0x5E9 JUMP JUMPDEST MLOAD SWAP1 PUSH0 CREATE2 SWAP5 PUSH1 0x1 PUSH1 0x1 PUSH1 0xA0 SHL SUB DUP7 AND SWAP3 PUSH2 0xBD6 DUP5 ISZERO ISZERO PUSH2 0x1716 JUMP JUMPDEST DUP7 DUP4 PUSH2 0xBE1 DUP5 PUSH2 0x2E8 JUMP JUMPDEST PUSH0 SWAP2 DUP3 MSTORE PUSH1 0x20 MSTORE PUSH1 0x40 SWAP1 KECCAK256 SWAP1 PUSH2 0xBF6 SWAP2 PUSH2 0x12E2 JUMP JUMPDEST PUSH1 0x1 PUSH1 0x1 PUSH1 0xA0 SHL SUB DUP3 AND PUSH0 SWAP1 DUP2 MSTORE PUSH1 0x3 PUSH1 0x20 MSTORE PUSH1 0x40 SWAP1 KECCAK256 DUP8 PUSH2 0xC17 SWAP2 PUSH2 0x175C JUMP JUMPDEST PUSH1 0x1 PUSH1 0x1 PUSH1 0xA0 SHL SUB DUP8 AND PUSH0 SWAP1 DUP2 MSTORE PUSH1 0x4 PUSH1 0x20 MSTORE PUSH1 0x40 SWAP1 KECCAK256 DUP1 SLOAD PUSH1 0xFF NOT AND PUSH1 0x1 OR SWAP1 SSTORE PUSH2 0xC41 PUSH2 0x60C JUMP JUMPDEST SWAP1 PUSH2 0xC4C DUP9 DUP4 PUSH2 0x12D3 JUMP JUMPDEST PUSH2 0xC59 DUP4 PUSH1 0x20 DUP5 ADD PUSH2 0x12D3 JUMP JUMPDEST PUSH2 0xC66 SWAP1 PUSH1 0x40 DUP4 ADD PUSH2 0x12D3 JUMP JUMPDEST CHAINID PUSH1 0x60 DUP3 ADD MSTORE DUP3 PUSH1 0x80 DUP3 ADD MSTORE TIMESTAMP PUSH1 0xA0 DUP3 ADD MSTORE PUSH2 0xC81 SWAP1 PUSH2 0x1301 JUMP JUMPDEST PUSH2 0xC8A SWAP1 PUSH2 0x2CF JUMP JUMPDEST PUSH1 0x5 SLOAD PUSH2 0xC96 SWAP1 PUSH2 0x13A2 JUMP JUMPDEST PUSH2 0xC9F SWAP2 PUSH2 0x13D1 JUMP JUMPDEST PUSH1 0x40 DUP1 MLOAD SWAP2 DUP3 MSTORE CHAINID PUSH1 0x20 DUP4 ADD MSTORE PUSH32 0x30F7C1411599514D4A6EE3D132CCED214B34BBE4C49D77F74391224DC6D8D635 SWAP2 LOG4 PUSH2 0xCD8 PUSH1 0x1 DUP1 SSTORE JUMP JUMPDEST PUSH1 0x40 MLOAD PUSH2 0x4FE DUP2 SWAP3 DUP3 PUSH2 0x32F JUMP JUMPDEST PUSH0 DUP1 DUP1 DUP1 DUP5 PUSH2 0xCFA PUSH2 0xD16 SWAP7 CALLVALUE LT ISZERO PUSH2 0x146E JUMP JUMPDEST PUSH1 0x8 SLOAD PUSH1 0x1 PUSH1 0x1 PUSH1 0xA0 SHL SUB AND GAS CALL PUSH2 0xD10 PUSH2 0x14B8 JUMP JUMPDEST POP PUSH2 0x14F6 JUMP JUMPDEST PUSH1 0x7 SLOAD DUP1 CALLVALUE GT ISZERO PUSH2 0xAA8 JUMPI PUSH0 DUP1 DUP1 DUP1 PUSH2 0xD32 PUSH2 0xD43 SWAP6 CALLVALUE PUSH2 0x13C4 JUMP JUMPDEST CALLER GAS CALL PUSH2 0xD3D PUSH2 0x14B8 JUMP JUMPDEST POP PUSH2 0x1538 JUMP JUMPDEST PUSH0 PUSH2 0xAA8 JUMP JUMPDEST PUSH4 0x3EE5AEB5 PUSH1 0xE0 SHL PUSH0 MSTORE PUSH1 0x4 PUSH0 REVERT JUMPDEST CALLVALUE PUSH2 0x1C5 JUMPI PUSH1 0x20 CALLDATASIZE PUSH1 0x3 NOT ADD SLT PUSH2 0x1C5 JUMPI PUSH1 0x4 CALLDATALOAD PUSH0 PUSH1 0xA0 PUSH1 0x40 MLOAD PUSH2 0xD7B DUP2 PUSH2 0x5C9 JUMP JUMPDEST DUP3 DUP2 MSTORE DUP3 PUSH1 0x20 DUP3 ADD MSTORE DUP3 PUSH1 0x40 DUP3 ADD MSTORE DUP3 PUSH1 0x60 DUP3 ADD MSTORE DUP3 PUSH1 0x80 DUP3 ADD MSTORE ADD MSTORE PUSH1 0x5 SLOAD DUP2 LT ISZERO PUSH2 0xE0D JUMPI PUSH2 0xDB7 PUSH2 0xDB1 PUSH2 0x4FE SWAP3 PUSH2 0x9C0 JUMP JUMPDEST POP PUSH2 0x179D JUMP JUMPDEST PUSH1 0x40 DUP1 MLOAD DUP3 MLOAD PUSH1 0x1 PUSH1 0x1 PUSH1 0xA0 SHL SUB SWAP1 DUP2 AND DUP3 MSTORE PUSH1 0x20 DUP1 DUP6 ADD MLOAD DUP3 AND SWAP1 DUP4 ADD MSTORE DUP4 DUP4 ADD MLOAD AND SWAP2 DUP2 ADD SWAP2 SWAP1 SWAP2 MSTORE PUSH1 0x60 DUP1 DUP4 ADD MLOAD SWAP1 DUP3 ADD MSTORE PUSH1 0x80 DUP1 DUP4 ADD MLOAD SWAP1 DUP3 ADD MSTORE PUSH1 0xA0 SWAP2 DUP3 ADD MLOAD SWAP2 DUP2 ADD SWAP2 SWAP1 SWAP2 MSTORE SWAP1 DUP2 SWAP1 PUSH1 0xC0 DUP3 ADD SWAP1 JUMP JUMPDEST PUSH1 0x40 MLOAD PUSH3 0x461BCD PUSH1 0xE5 SHL DUP2 MSTORE PUSH1 0x20 PUSH1 0x4 DUP3 ADD MSTORE PUSH1 0x13 PUSH1 0x24 DUP3 ADD MSTORE PUSH19 0x496E646578206F7574206F6620626F756E6473 PUSH1 0x68 SHL PUSH1 0x44 DUP3 ADD MSTORE PUSH1 0x64 SWAP1 REVERT JUMPDEST CALLVALUE PUSH2 0x1C5 JUMPI PUSH1 0x40 CALLDATASIZE PUSH1 0x3 NOT ADD SLT PUSH2 0x1C5 JUMPI PUSH1 0x4 CALLDATALOAD PUSH2 0xE65 DUP2 PUSH2 0x1B4 JUMP JUMPDEST PUSH1 0x1 PUSH1 0x1 PUSH1 0xA0 SHL SUB SWAP1 DUP2 AND PUSH0 SWAP1 DUP2 MSTORE PUSH1 0x2 PUSH1 0x20 SWAP1 DUP2 MSTORE PUSH1 0x40 DUP1 DUP4 KECCAK256 PUSH1 0x24 CALLDATALOAD DUP5 MSTORE DUP3 MSTORE SWAP2 DUP3 SWAP1 KECCAK256 SLOAD SWAP2 MLOAD SWAP2 SWAP1 SWAP3 AND DUP2 MSTORE RETURN JUMPDEST CALLVALUE PUSH2 0x1C5 JUMPI PUSH1 0x40 CALLDATASIZE PUSH1 0x3 NOT ADD SLT PUSH2 0x1C5 JUMPI PUSH1 0x20 PUSH2 0xEC1 PUSH1 0x4 CALLDATALOAD PUSH2 0xEB8 DUP2 PUSH2 0x1B4 JUMP JUMPDEST PUSH1 0x24 CALLDATALOAD SWAP1 PUSH2 0x17F1 JUMP JUMPDEST PUSH1 0x40 MLOAD SWAP1 DUP2 MSTORE RETURN JUMPDEST CALLVALUE PUSH2 0x1C5 JUMPI PUSH1 0x20 CALLDATASIZE PUSH1 0x3 NOT ADD SLT PUSH2 0x1C5 JUMPI PUSH1 0x4 CALLDATALOAD PUSH2 0xEE5 PUSH2 0x1848 JUMP JUMPDEST PUSH1 0x7 SSTORE STOP JUMPDEST CALLVALUE PUSH2 0x1C5 JUMPI PUSH0 CALLDATASIZE PUSH1 0x3 NOT ADD SLT PUSH2 0x1C5 JUMPI PUSH2 0xF02 PUSH2 0x1848 JUMP JUMPDEST SELFBALANCE DUP1 ISZERO PUSH2 0xF63 JUMPI PUSH0 DUP1 DUP1 DUP1 SWAP4 PUSH1 0x1 DUP1 PUSH1 0xA0 SHL SUB DUP3 SLOAD AND GAS CALL PUSH2 0xF22 PUSH2 0x14B8 JUMP JUMPDEST POP ISZERO PUSH2 0xF2A JUMPI STOP JUMPDEST PUSH1 0x40 MLOAD PUSH3 0x461BCD PUSH1 0xE5 SHL DUP2 MSTORE PUSH1 0x20 PUSH1 0x4 DUP3 ADD MSTORE PUSH1 0x11 PUSH1 0x24 DUP3 ADD MSTORE PUSH17 0x15DA5D1A191C985DD85B0819985A5B1959 PUSH1 0x7A SHL PUSH1 0x44 DUP3 ADD MSTORE PUSH1 0x64 SWAP1 REVERT JUMPDEST PUSH1 0x40 MLOAD PUSH3 0x461BCD PUSH1 0xE5 SHL DUP2 MSTORE PUSH1 0x20 PUSH1 0x4 DUP3 ADD MSTORE PUSH1 0x16 PUSH1 0x24 DUP3 ADD MSTORE PUSH22 0x4E6F2062616C616E636520746F207769746864726177 PUSH1 0x50 SHL PUSH1 0x44 DUP3 ADD MSTORE PUSH1 0x64 SWAP1 REVERT JUMPDEST PUSH2 0x100 CALLDATASIZE PUSH1 0x3 NOT ADD SLT PUSH2 0x1C5 JUMPI PUSH1 0x4 CALLDATALOAD PUSH2 0xFBA DUP2 PUSH2 0x1B4 JUMP JUMPDEST PUSH1 0x24 CALLDATALOAD PUSH2 0xFC6 DUP2 PUSH2 0x1B4 JUMP JUMPDEST PUSH1 0x44 CALLDATALOAD SWAP1 PUSH2 0xFD3 DUP3 PUSH2 0x1B4 JUMP JUMPDEST PUSH1 0x64 CALLDATALOAD SWAP1 PUSH1 0x1 PUSH1 0x1 PUSH1 0x40 SHL SUB DUP3 GT PUSH2 0x1C5 JUMPI PUSH2 0xFF5 PUSH1 0x20 SWAP3 CALLDATASIZE SWAP1 PUSH1 0x4 ADD PUSH2 0x62B JUMP JUMPDEST SWAP4 PUSH1 0x84 CALLDATALOAD PUSH2 0x1002 DUP2 PUSH2 0x1B4 JUMP JUMPDEST PUSH1 0xC4 CALLDATALOAD PUSH1 0xA4 CALLDATALOAD PUSH2 0x1061 PUSH2 0x1017 PUSH1 0xE4 CALLDATALOAD DUP7 PUSH2 0x17F1 JUMP JUMPDEST PUSH1 0x40 MLOAD PUSH4 0x4F2B5715 PUSH1 0xE1 SHL DUP2 MSTORE PUSH1 0x1 PUSH1 0x1 PUSH1 0xA0 SHL SUB SWAP7 DUP8 AND PUSH1 0x4 DUP3 ADD MSTORE SWAP7 DUP7 AND PUSH1 0x24 DUP9 ADD MSTORE SWAP8 SWAP1 SWAP5 AND PUSH1 0x44 DUP7 ADD MSTORE PUSH2 0x100 PUSH1 0x64 DUP7 ADD MSTORE SWAP6 SWAP7 SWAP4 SWAP6 DUP7 SWAP5 DUP6 SWAP5 SWAP1 PUSH2 0x104 DUP7 ADD SWAP1 PUSH2 0x443 JUMP JUMPDEST PUSH1 0x1 PUSH1 0x1 PUSH1 0xA0 SHL SUB SWAP1 SWAP4 AND PUSH1 0x84 DUP6 ADD MSTORE PUSH1 0xA4 DUP5 ADD MSTORE PUSH1 0xC4 DUP4 ADD MSTORE PUSH1 0xE4 DUP3 ADD DUP7 SWAP1 MSTORE SUB DUP2 CALLVALUE ADDRESS GAS CALL SWAP1 DUP2 ISZERO PUSH2 0x10E2 JUMPI PUSH0 SWAP2 PUSH2 0x10B3 JUMPI JUMPDEST POP PUSH1 0x40 DUP1 MLOAD PUSH1 0x1 PUSH1 0x1 PUSH1 0xA0 SHL SUB SWAP3 SWAP1 SWAP3 AND DUP3 MSTORE PUSH1 0x20 DUP3 ADD SWAP3 SWAP1 SWAP3 MSTORE RETURN JUMPDEST PUSH2 0x10D5 SWAP2 POP PUSH1 0x20 RETURNDATASIZE PUSH1 0x20 GT PUSH2 0x10DB JUMPI JUMPDEST PUSH2 0x10CD DUP2 DUP4 PUSH2 0x5E9 JUMP JUMPDEST DUP2 ADD SWAP1 PUSH2 0x1828 JUMP JUMPDEST PUSH0 PUSH2 0x1096 JUMP JUMPDEST POP RETURNDATASIZE PUSH2 0x10C3 JUMP JUMPDEST PUSH2 0x183D JUMP JUMPDEST CALLVALUE PUSH2 0x1C5 JUMPI PUSH1 0x20 CALLDATASIZE PUSH1 0x3 NOT ADD SLT PUSH2 0x1C5 JUMPI PUSH1 0x4 CALLDATALOAD PUSH2 0x1104 DUP2 PUSH2 0x1B4 JUMP JUMPDEST PUSH2 0x110C PUSH2 0x1848 JUMP JUMPDEST PUSH1 0x1 PUSH1 0x1 PUSH1 0xA0 SHL SUB AND DUP1 ISZERO PUSH2 0x1131 JUMPI PUSH1 0x8 DUP1 SLOAD PUSH1 0x1 PUSH1 0x1 PUSH1 0xA0 SHL SUB NOT AND SWAP2 SWAP1 SWAP2 OR SWAP1 SSTORE STOP JUMPDEST PUSH1 0x40 MLOAD PUSH3 0x461BCD PUSH1 0xE5 SHL DUP2 MSTORE PUSH1 0x20 PUSH1 0x4 DUP3 ADD MSTORE PUSH1 0x11 PUSH1 0x24 DUP3 ADD MSTORE PUSH17 0x125B9D985B1A59081C9958DA5C1A595B9D PUSH1 0x7A SHL PUSH1 0x44 DUP3 ADD MSTORE PUSH1 0x64 SWAP1 REVERT JUMPDEST CALLVALUE PUSH2 0x1C5 JUMPI PUSH0 CALLDATASIZE PUSH1 0x3 NOT ADD SLT PUSH2 0x1C5 JUMPI PUSH1 0x20 PUSH1 0x7 SLOAD PUSH1 0x40 MLOAD SWAP1 DUP2 MSTORE RETURN JUMPDEST CALLVALUE PUSH2 0x1C5 JUMPI PUSH1 0x20 CALLDATASIZE PUSH1 0x3 NOT ADD SLT PUSH2 0x1C5 JUMPI PUSH1 0x4 CALLDATALOAD PUSH2 0x11A4 DUP2 PUSH2 0x1B4 JUMP JUMPDEST PUSH2 0x11AC PUSH2 0x1848 JUMP JUMPDEST PUSH1 0x1 PUSH1 0x1 PUSH1 0xA0 SHL SUB AND DUP1 ISZERO PUSH2 0x11EA JUMPI PUSH0 DUP1 SLOAD PUSH1 0x1 PUSH1 0x1 PUSH1 0xA0 SHL SUB NOT DUP2 AND DUP4 OR DUP3 SSTORE PUSH1 0x1 PUSH1 0x1 PUSH1 0xA0 SHL SUB AND SWAP1 PUSH0 MLOAD PUSH1 0x20 PUSH2 0x6809 PUSH0 CODECOPY PUSH0 MLOAD SWAP1 PUSH0 MSTORE SWAP1 DUP1 LOG3 STOP JUMPDEST PUSH4 0x1E4FBDF7 PUSH1 0xE0 SHL PUSH0 MSTORE PUSH0 PUSH1 0x4 MSTORE PUSH1 0x24 PUSH0 REVERT JUMPDEST ISZERO PUSH2 0x1204 JUMPI JUMP JUMPDEST PUSH1 0x40 MLOAD PUSH3 0x461BCD PUSH1 0xE5 SHL DUP2 MSTORE PUSH1 0x20 PUSH1 0x4 DUP3 ADD MSTORE PUSH1 0x15 PUSH1 0x24 DUP3 ADD MSTORE PUSH21 0x496E76616C6964207661756C742061646472657373 PUSH1 0x58 SHL PUSH1 0x44 DUP3 ADD MSTORE PUSH1 0x64 SWAP1 REVERT JUMPDEST ISZERO PUSH2 0x1248 JUMPI JUMP JUMPDEST PUSH1 0x40 MLOAD PUSH3 0x461BCD PUSH1 0xE5 SHL DUP2 MSTORE PUSH1 0x20 PUSH1 0x4 DUP3 ADD MSTORE PUSH1 0xD PUSH1 0x24 DUP3 ADD MSTORE PUSH13 0x24B73B30B634B21037BBB732B9 PUSH1 0x99 SHL PUSH1 0x44 DUP3 ADD MSTORE PUSH1 0x64 SWAP1 REVERT JUMPDEST ISZERO PUSH2 0x1284 JUMPI JUMP JUMPDEST PUSH1 0x40 MLOAD PUSH3 0x461BCD PUSH1 0xE5 SHL DUP2 MSTORE PUSH1 0x20 PUSH1 0x4 DUP3 ADD MSTORE PUSH1 0x21 PUSH1 0x24 DUP3 ADD MSTORE PUSH32 0x557365206465706C6F795661756C7420666F722063757272656E742063686169 PUSH1 0x44 DUP3 ADD MSTORE PUSH1 0x37 PUSH1 0xF9 SHL PUSH1 0x64 DUP3 ADD MSTORE PUSH1 0x84 SWAP1 REVERT JUMPDEST PUSH1 0x1 PUSH1 0x1 PUSH1 0xA0 SHL SUB SWAP1 SWAP2 AND SWAP1 MSTORE JUMP JUMPDEST DUP1 SLOAD PUSH1 0x1 PUSH1 0x1 PUSH1 0xA0 SHL SUB NOT AND PUSH1 0x1 PUSH1 0x1 PUSH1 0xA0 SHL SUB SWAP1 SWAP3 AND SWAP2 SWAP1 SWAP2 OR SWAP1 SSTORE JUMP JUMPDEST PUSH1 0x5 SLOAD PUSH1 0x1 PUSH1 0x40 SHL DUP2 LT ISZERO PUSH2 0x5E4 JUMPI DUP1 PUSH1 0x1 PUSH2 0x1322 SWAP3 ADD PUSH1 0x5 SSTORE PUSH1 0x5 PUSH2 0x9DC JUMP JUMPDEST SWAP2 SWAP1 SWAP2 PUSH2 0x138F JUMPI DUP1 MLOAD PUSH1 0x5 SWAP2 PUSH1 0xA0 SWAP2 PUSH2 0x1344 SWAP1 PUSH1 0x1 PUSH1 0x1 PUSH1 0xA0 SHL SUB AND DUP6 PUSH2 0x12E2 JUMP JUMPDEST PUSH2 0x135C PUSH1 0x1 DUP1 DUP5 SHL SUB PUSH1 0x20 DUP4 ADD MLOAD AND PUSH1 0x1 DUP7 ADD PUSH2 0x12E2 JUMP JUMPDEST PUSH2 0x1374 PUSH1 0x1 DUP1 DUP5 SHL SUB PUSH1 0x40 DUP4 ADD MLOAD AND PUSH1 0x2 DUP7 ADD PUSH2 0x12E2 JUMP JUMPDEST PUSH1 0x60 DUP2 ADD MLOAD PUSH1 0x3 DUP6 ADD SSTORE PUSH1 0x80 DUP2 ADD MLOAD PUSH1 0x4 DUP6 ADD SSTORE ADD MLOAD SWAP2 ADD SSTORE JUMP JUMPDEST PUSH4 0x4E487B71 PUSH1 0xE0 SHL PUSH0 MSTORE PUSH0 PUSH1 0x4 MSTORE PUSH1 0x24 PUSH0 REVERT JUMPDEST PUSH0 NOT DUP2 ADD SWAP2 SWAP1 DUP3 GT PUSH2 0x13B0 JUMPI JUMP JUMPDEST PUSH4 0x4E487B71 PUSH1 0xE0 SHL PUSH0 MSTORE PUSH1 0x11 PUSH1 0x4 MSTORE PUSH1 0x24 PUSH0 REVERT JUMPDEST SWAP2 SWAP1 DUP3 SUB SWAP2 DUP3 GT PUSH2 0x13B0 JUMPI JUMP JUMPDEST DUP1 SLOAD PUSH1 0x1 PUSH1 0x40 SHL DUP2 LT ISZERO PUSH2 0x5E4 JUMPI PUSH2 0x13EE SWAP2 PUSH1 0x1 DUP3 ADD DUP2 SSTORE PUSH2 0x315 JUMP JUMPDEST DUP2 SWAP3 SWAP2 SLOAD SWAP1 PUSH1 0x3 SHL SWAP2 DUP3 SHL SWAP2 PUSH0 NOT SWAP1 SHL NOT AND OR SWAP1 SSTORE JUMP JUMPDEST PUSH1 0x1 PUSH1 0x1 PUSH1 0xA0 SHL SUB SWAP2 DUP3 AND DUP2 MSTORE SWAP2 DUP2 AND PUSH1 0x20 DUP4 ADD MSTORE SWAP1 SWAP2 AND PUSH1 0x40 DUP3 ADD MSTORE PUSH1 0xE0 PUSH1 0x60 DUP3 ADD DUP2 SWAP1 MSTORE SWAP3 SWAP6 SWAP5 SWAP4 PUSH1 0xC0 SWAP4 SWAP2 SWAP3 SWAP1 SWAP2 PUSH2 0x1443 SWAP2 SWAP1 DUP5 ADD SWAP1 PUSH2 0x443 JUMP JUMPDEST PUSH1 0x1 PUSH1 0x1 PUSH1 0xA0 SHL SUB SWAP1 SWAP7 AND PUSH1 0x80 DUP4 ADD MSTORE PUSH1 0xA0 DUP3 ADD MSTORE ADD MSTORE JUMP JUMPDEST DUP1 MLOAD SWAP2 SWAP1 DUP3 SWAP1 PUSH1 0x20 ADD DUP3 MCOPY ADD PUSH0 DUP2 MSTORE SWAP1 JUMP JUMPDEST ISZERO PUSH2 0x1475 JUMPI JUMP JUMPDEST PUSH1 0x40 MLOAD PUSH3 0x461BCD PUSH1 0xE5 SHL DUP2 MSTORE PUSH1 0x20 PUSH1 0x4 DUP3 ADD MSTORE PUSH1 0x1B PUSH1 0x24 DUP3 ADD MSTORE PUSH27 0x496E73756666696369656E74206465706C6F796D656E7420666565 PUSH1 0x28 SHL PUSH1 0x44 DUP3 ADD MSTORE PUSH1 0x64 SWAP1 REVERT JUMPDEST RETURNDATASIZE ISZERO PUSH2 0x14F1 JUMPI RETURNDATASIZE SWAP1 PUSH1 0x1 PUSH1 0x1 PUSH1 0x40 SHL SUB DUP3 GT PUSH2 0x5E4 JUMPI PUSH1 0x40 MLOAD SWAP2 PUSH2 0x14E6 PUSH1 0x1F DUP3 ADD PUSH1 0x1F NOT AND PUSH1 0x20 ADD DUP5 PUSH2 0x5E9 JUMP JUMPDEST DUP3 MSTORE RETURNDATASIZE PUSH0 PUSH1 0x20 DUP5 ADD RETURNDATACOPY JUMP JUMPDEST PUSH1 0x60 SWAP1 JUMP JUMPDEST ISZERO PUSH2 0x14FD JUMPI JUMP JUMPDEST PUSH1 0x40 MLOAD PUSH3 0x461BCD PUSH1 0xE5 SHL DUP2 MSTORE PUSH1 0x20 PUSH1 0x4 DUP3 ADD MSTORE PUSH1 0x13 PUSH1 0x24 DUP3 ADD MSTORE PUSH19 0x119959481D1C985B9CD9995C8819985A5B1959 PUSH1 0x6A SHL PUSH1 0x44 DUP3 ADD MSTORE PUSH1 0x64 SWAP1 REVERT JUMPDEST ISZERO PUSH2 0x153F JUMPI JUMP JUMPDEST PUSH1 0x40 MLOAD PUSH3 0x461BCD PUSH1 0xE5 SHL DUP2 MSTORE PUSH1 0x20 PUSH1 0x4 DUP3 ADD MSTORE PUSH1 0xD PUSH1 0x24 DUP3 ADD MSTORE PUSH13 0x1499599D5B990819985A5B1959 PUSH1 0x9A SHL PUSH1 0x44 DUP3 ADD MSTORE PUSH1 0x64 SWAP1 REVERT JUMPDEST ISZERO PUSH2 0x157B JUMPI JUMP JUMPDEST PUSH1 0x40 MLOAD PUSH3 0x461BCD PUSH1 0xE5 SHL DUP2 MSTORE PUSH1 0x20 PUSH1 0x4 DUP3 ADD MSTORE PUSH1 0x23 PUSH1 0x24 DUP3 ADD MSTORE PUSH32 0x5661756C7420616C726561647920657869737473207769746820746869732073 PUSH1 0x44 DUP3 ADD MSTORE PUSH3 0x185B1D PUSH1 0xEA SHL PUSH1 0x64 DUP3 ADD MSTORE PUSH1 0x84 SWAP1 REVERT JUMPDEST ISZERO PUSH2 0x15D3 JUMPI JUMP JUMPDEST PUSH1 0x40 MLOAD PUSH3 0x461BCD PUSH1 0xE5 SHL DUP2 MSTORE PUSH1 0x20 PUSH1 0x4 DUP3 ADD MSTORE PUSH1 0xD PUSH1 0x24 DUP3 ADD MSTORE PUSH13 0x24B73B30B634B21030B236B4B7 PUSH1 0x99 SHL PUSH1 0x44 DUP3 ADD MSTORE PUSH1 0x64 SWAP1 REVERT JUMPDEST ISZERO PUSH2 0x160F JUMPI JUMP JUMPDEST PUSH1 0x40 MLOAD PUSH3 0x461BCD PUSH1 0xE5 SHL DUP2 MSTORE PUSH1 0x20 PUSH1 0x4 DUP3 ADD MSTORE PUSH1 0xD PUSH1 0x24 DUP3 ADD MSTORE PUSH13 0x125B9D985B1A5908185CDCD95D PUSH1 0x9A SHL PUSH1 0x44 DUP3 ADD MSTORE PUSH1 0x64 SWAP1 REVERT JUMPDEST ISZERO PUSH2 0x164B JUMPI JUMP JUMPDEST PUSH1 0x40 MLOAD PUSH3 0x461BCD PUSH1 0xE5 SHL DUP2 MSTORE PUSH1 0x20 PUSH1 0x4 DUP3 ADD MSTORE PUSH1 0x11 PUSH1 0x24 DUP3 ADD MSTORE PUSH17 0x4E6F20696E697469616C207661756C7473 PUSH1 0x78 SHL PUSH1 0x44 DUP3 ADD MSTORE PUSH1 0x64 SWAP1 REVERT JUMPDEST ISZERO PUSH2 0x168B JUMPI JUMP JUMPDEST PUSH1 0x40 MLOAD PUSH3 0x461BCD PUSH1 0xE5 SHL DUP2 MSTORE PUSH1 0x20 PUSH1 0x4 DUP3 ADD MSTORE PUSH1 0x17 PUSH1 0x24 DUP3 ADD MSTORE PUSH23 0x496E76616C696420726576656E75652061646472657373 PUSH1 0x48 SHL PUSH1 0x44 DUP3 ADD MSTORE PUSH1 0x64 SWAP1 REVERT JUMPDEST ISZERO PUSH2 0x16D1 JUMPI JUMP JUMPDEST PUSH1 0x40 MLOAD PUSH3 0x461BCD PUSH1 0xE5 SHL DUP2 MSTORE PUSH1 0x20 PUSH1 0x4 DUP3 ADD MSTORE PUSH1 0x1E PUSH1 0x24 DUP3 ADD MSTORE PUSH32 0x496E76616C696420696E697469616C206465706F73697420616D6F756E740000 PUSH1 0x44 DUP3 ADD MSTORE PUSH1 0x64 SWAP1 REVERT JUMPDEST ISZERO PUSH2 0x171D JUMPI JUMP JUMPDEST PUSH1 0x40 MLOAD PUSH3 0x461BCD PUSH1 0xE5 SHL DUP2 MSTORE PUSH1 0x20 PUSH1 0x4 DUP3 ADD MSTORE PUSH1 0x17 PUSH1 0x24 DUP3 ADD MSTORE PUSH23 0x15985D5B1D0819195C1B1BDE5B595B9D0819985A5B1959 PUSH1 0x4A SHL PUSH1 0x44 DUP3 ADD MSTORE PUSH1 0x64 SWAP1 REVERT JUMPDEST DUP1 SLOAD PUSH1 0x1 PUSH1 0x40 SHL DUP2 LT ISZERO PUSH2 0x5E4 JUMPI PUSH2 0x1779 SWAP2 PUSH1 0x1 DUP3 ADD DUP2 SSTORE PUSH2 0x315 JUMP JUMPDEST DUP2 SLOAD PUSH1 0x1 PUSH1 0x1 PUSH1 0xA0 SHL SUB SWAP4 DUP5 AND PUSH1 0x3 SWAP3 SWAP1 SWAP3 SHL SWAP2 DUP3 SHL SWAP4 SWAP1 SWAP2 SHL NOT AND SWAP2 SWAP1 SWAP2 OR SWAP1 SSTORE JUMP JUMPDEST SWAP1 PUSH1 0x40 MLOAD PUSH2 0x17AA DUP2 PUSH2 0x5C9 JUMP JUMPDEST DUP3 SLOAD PUSH1 0x1 PUSH1 0x1 PUSH1 0xA0 SHL SUB SWAP1 DUP2 AND DUP3 MSTORE PUSH1 0x1 DUP5 ADD SLOAD DUP2 AND PUSH1 0x20 DUP4 ADD MSTORE PUSH1 0x2 DUP5 ADD SLOAD AND PUSH1 0x40 DUP3 ADD MSTORE PUSH1 0x3 DUP4 ADD SLOAD PUSH1 0x60 DUP3 ADD MSTORE PUSH1 0x4 DUP4 ADD SLOAD PUSH1 0x80 DUP3 ADD MSTORE PUSH1 0x5 SWAP1 SWAP3 ADD SLOAD PUSH1 0xA0 DUP4 ADD MSTORE JUMP JUMPDEST PUSH1 0x40 MLOAD PUSH1 0x60 SWAP2 SWAP1 SWAP2 SHL PUSH1 0x1 PUSH1 0x1 PUSH1 0x60 SHL SUB NOT AND PUSH1 0x20 DUP3 ADD SWAP1 DUP2 MSTORE PUSH1 0x34 DUP1 DUP4 ADD SWAP4 SWAP1 SWAP4 MSTORE SWAP2 DUP2 MSTORE PUSH2 0x1822 PUSH1 0x54 DUP3 PUSH2 0x5E9 JUMP JUMPDEST MLOAD SWAP1 KECCAK256 SWAP1 JUMP JUMPDEST SWAP1 DUP2 PUSH1 0x20 SWAP2 SUB SLT PUSH2 0x1C5 JUMPI MLOAD PUSH2 0x490 DUP2 PUSH2 0x1B4 JUMP JUMPDEST PUSH1 0x40 MLOAD RETURNDATASIZE PUSH0 DUP3 RETURNDATACOPY RETURNDATASIZE SWAP1 REVERT JUMPDEST PUSH0 SLOAD PUSH1 0x1 PUSH1 0x1 PUSH1 0xA0 SHL SUB AND CALLER SUB PUSH2 0x185B JUMPI JUMP JUMPDEST PUSH4 0x118CDAA7 PUSH1 0xE0 SHL PUSH0 MSTORE CALLER PUSH1 0x4 MSTORE PUSH1 0x24 PUSH0 REVERT JUMPDEST PUSH1 0xFF PUSH0 SLOAD PUSH1 0xA0 SHR AND PUSH2 0x187C JUMPI JUMP JUMPDEST PUSH4 0xD93C0665 PUSH1 0xE0 SHL PUSH0 MSTORE PUSH1 0x4 PUSH0 REVERT INVALID PUSH1 0xA0 PUSH1 0x40 MSTORE CALLVALUE PUSH2 0x46B JUMPI PUSH2 0x4F7D DUP1 CODESIZE SUB DUP1 PUSH2 0x19 DUP2 PUSH2 0x46F JUMP JUMPDEST SWAP3 DUP4 CODECOPY DUP2 ADD SWAP1 PUSH1 0xE0 DUP2 DUP4 SUB SLT PUSH2 0x46B JUMPI PUSH2 0x32 DUP2 PUSH2 0x494 JUMP JUMPDEST SWAP1 PUSH2 0x3F PUSH1 0x20 DUP3 ADD PUSH2 0x494 JUMP JUMPDEST SWAP2 PUSH2 0x4C PUSH1 0x40 DUP4 ADD PUSH2 0x494 JUMP JUMPDEST PUSH1 0x60 DUP4 ADD MLOAD SWAP1 SWAP4 SWAP1 PUSH1 0x1 PUSH1 0x1 PUSH1 0x40 SHL SUB DUP2 GT PUSH2 0x46B JUMPI DUP4 ADD SWAP5 DUP1 PUSH1 0x1F DUP8 ADD SLT ISZERO PUSH2 0x46B JUMPI DUP6 MLOAD SWAP6 PUSH1 0x1 PUSH1 0x1 PUSH1 0x40 SHL SUB DUP8 GT PUSH2 0x250 JUMPI DUP7 PUSH1 0x5 SHL SWAP1 PUSH1 0x20 DUP1 PUSH2 0x94 DUP2 DUP6 ADD PUSH2 0x46F JUMP JUMPDEST DUP1 SWAP11 DUP2 MSTORE ADD SWAP3 DUP3 ADD ADD SWAP3 DUP4 GT PUSH2 0x46B JUMPI PUSH1 0x20 ADD SWAP1 JUMPDEST DUP3 DUP3 LT PUSH2 0x453 JUMPI POP POP POP PUSH2 0xBF PUSH1 0x80 DUP5 ADD PUSH2 0x494 JUMP JUMPDEST SWAP1 PUSH1 0xC0 PUSH1 0xA0 DUP6 ADD MLOAD SWAP5 ADD MLOAD SWAP5 PUSH1 0x1 PUSH0 SSTORE PUSH3 0x989680 PUSH1 0x9 SSTORE PUSH1 0x1 DUP1 PUSH1 0xA0 SHL SUB DUP5 AND ISZERO PUSH2 0x41E JUMPI PUSH1 0x1 PUSH1 0x1 PUSH1 0xA0 SHL SUB DUP3 AND ISZERO PUSH2 0x3E9 JUMPI PUSH1 0x1 PUSH1 0x1 PUSH1 0xA0 SHL SUB AND SWAP2 DUP3 ISZERO PUSH2 0x3B4 JUMPI DUP7 MLOAD ISZERO PUSH2 0x37B JUMPI PUSH1 0x1 PUSH1 0x1 PUSH1 0xA0 SHL SUB AND SWAP3 DUP4 ISZERO PUSH2 0x336 JUMPI DUP6 ISZERO PUSH2 0x2F2 JUMPI PUSH1 0x80 MSTORE PUSH1 0x1 DUP1 SLOAD PUSH2 0x100 PUSH1 0x1 PUSH1 0xA8 SHL SUB NOT AND PUSH1 0x8 SWAP3 SWAP1 SWAP3 SHL PUSH2 0x100 PUSH1 0x1 PUSH1 0xA8 SHL SUB AND SWAP2 SWAP1 SWAP2 OR SWAP1 SSTORE PUSH1 0x2 DUP1 SLOAD PUSH1 0x1 PUSH1 0x1 PUSH1 0xA0 SHL SUB NOT SWAP1 DUP2 AND SWAP3 SWAP1 SWAP3 OR SWAP1 SSTORE PUSH1 0x6 DUP1 SLOAD SWAP1 SWAP2 AND SWAP2 SWAP1 SWAP2 OR SWAP1 SSTORE PUSH1 0x7 SSTORE PUSH1 0xA SSTORE PUSH0 JUMPDEST DUP2 MLOAD DUP2 LT ISZERO PUSH2 0x2A9 JUMPI PUSH1 0x1 PUSH1 0x1 PUSH1 0xA0 SHL SUB PUSH2 0x18E DUP3 DUP5 PUSH2 0x4A8 JUMP JUMPDEST MLOAD AND ISZERO PUSH2 0x264 JUMPI PUSH1 0x1 PUSH1 0x1 PUSH1 0xA0 SHL SUB PUSH2 0x1A7 DUP3 DUP5 PUSH2 0x4A8 JUMP JUMPDEST MLOAD AND PUSH0 SWAP1 DUP2 MSTORE PUSH1 0xC PUSH1 0x20 MSTORE PUSH1 0x40 SWAP1 KECCAK256 DUP1 SLOAD PUSH1 0xFF NOT AND PUSH1 0x1 OR SWAP1 SSTORE PUSH1 0x1 PUSH1 0x1 PUSH1 0xA0 SHL SUB PUSH2 0x1D3 DUP3 DUP5 PUSH2 0x4A8 JUMP JUMPDEST MLOAD AND SWAP1 PUSH1 0xD SLOAD SWAP2 PUSH9 0x10000000000000000 DUP4 LT ISZERO PUSH2 0x250 JUMPI PUSH1 0x1 DUP4 ADD DUP1 PUSH1 0xD SSTORE DUP4 LT ISZERO PUSH2 0x23C JUMPI PUSH1 0xD PUSH0 MSTORE PUSH32 0xD7B6990105719101DABEB77144F2A3385C8033ACD3AF97E9423A695E81AD1EB5 SWAP1 SWAP3 ADD DUP1 SLOAD PUSH1 0x1 PUSH1 0x1 PUSH1 0xA0 SHL SUB NOT AND SWAP1 SWAP3 OR SWAP1 SWAP2 SSTORE PUSH1 0x1 ADD PUSH2 0x173 JUMP JUMPDEST PUSH4 0x4E487B71 PUSH1 0xE0 SHL PUSH0 MSTORE PUSH1 0x32 PUSH1 0x4 MSTORE PUSH1 0x24 PUSH0 REVERT JUMPDEST PUSH4 0x4E487B71 PUSH1 0xE0 SHL PUSH0 MSTORE PUSH1 0x41 PUSH1 0x4 MSTORE PUSH1 0x24 PUSH0 REVERT JUMPDEST PUSH1 0x40 MLOAD PUSH3 0x461BCD PUSH1 0xE5 SHL DUP2 MSTORE PUSH1 0x20 PUSH1 0x4 DUP3 ADD MSTORE PUSH1 0x15 PUSH1 0x24 DUP3 ADD MSTORE PUSH32 0x496E76616C6964207661756C7420616464726573730000000000000000000000 PUSH1 0x44 DUP3 ADD MSTORE PUSH1 0x64 SWAP1 REVERT JUMPDEST PUSH1 0x40 MLOAD PUSH2 0x4AC0 SWAP1 DUP2 PUSH2 0x4BD DUP3 CODECOPY PUSH1 0x80 MLOAD DUP2 DUP2 DUP2 PUSH2 0x430 ADD MSTORE DUP2 DUP2 PUSH2 0x4C9 ADD MSTORE DUP2 DUP2 PUSH2 0x13DA ADD MSTORE DUP2 DUP2 PUSH2 0x1529 ADD MSTORE DUP2 DUP2 PUSH2 0x1807 ADD MSTORE DUP2 DUP2 PUSH2 0x1E3B ADD MSTORE DUP2 DUP2 PUSH2 0x21E1 ADD MSTORE PUSH2 0x2585 ADD MSTORE RETURN JUMPDEST PUSH1 0x64 PUSH1 0x40 MLOAD PUSH3 0x461BCD PUSH1 0xE5 SHL DUP2 MSTORE PUSH1 0x20 PUSH1 0x4 DUP3 ADD MSTORE PUSH1 0x20 PUSH1 0x24 DUP3 ADD MSTORE PUSH32 0x496E697469616C206465706F736974206D75737420626520706F736974697665 PUSH1 0x44 DUP3 ADD MSTORE REVERT JUMPDEST PUSH1 0x40 MLOAD PUSH3 0x461BCD PUSH1 0xE5 SHL DUP2 MSTORE PUSH1 0x20 PUSH1 0x4 DUP3 ADD MSTORE PUSH1 0x17 PUSH1 0x24 DUP3 ADD MSTORE PUSH32 0x496E76616C696420726576656E75652061646472657373000000000000000000 PUSH1 0x44 DUP3 ADD MSTORE PUSH1 0x64 SWAP1 REVERT JUMPDEST PUSH1 0x40 MLOAD PUSH3 0x461BCD PUSH1 0xE5 SHL DUP2 MSTORE PUSH1 0x20 PUSH1 0x4 DUP3 ADD MSTORE PUSH1 0x11 PUSH1 0x24 DUP3 ADD MSTORE PUSH17 0x4E6F20696E697469616C207661756C7473 PUSH1 0x78 SHL PUSH1 0x44 DUP3 ADD MSTORE PUSH1 0x64 SWAP1 REVERT JUMPDEST PUSH1 0x40 MLOAD PUSH3 0x461BCD PUSH1 0xE5 SHL DUP2 MSTORE PUSH1 0x20 PUSH1 0x4 DUP3 ADD MSTORE PUSH1 0xD PUSH1 0x24 DUP3 ADD MSTORE PUSH13 0x125B9D985B1A5908185CDCD95D PUSH1 0x9A SHL PUSH1 0x44 DUP3 ADD MSTORE PUSH1 0x64 SWAP1 REVERT JUMPDEST PUSH1 0x40 MLOAD PUSH3 0x461BCD PUSH1 0xE5 SHL DUP2 MSTORE PUSH1 0x20 PUSH1 0x4 DUP3 ADD MSTORE PUSH1 0xD PUSH1 0x24 DUP3 ADD MSTORE PUSH13 0x24B73B30B634B21030B236B4B7 PUSH1 0x99 SHL PUSH1 0x44 DUP3 ADD MSTORE PUSH1 0x64 SWAP1 REVERT JUMPDEST PUSH1 0x40 MLOAD PUSH3 0x461BCD PUSH1 0xE5 SHL DUP2 MSTORE PUSH1 0x20 PUSH1 0x4 DUP3 ADD MSTORE PUSH1 0xD PUSH1 0x24 DUP3 ADD MSTORE PUSH13 0x24B73B30B634B21037BBB732B9 PUSH1 0x99 SHL PUSH1 0x44 DUP3 ADD MSTORE PUSH1 0x64 SWAP1 REVERT JUMPDEST PUSH1 0x20 DUP1 SWAP2 PUSH2 0x460 DUP5 PUSH2 0x494 JUMP JUMPDEST DUP2 MSTORE ADD SWAP2 ADD SWAP1 PUSH2 0xA9 JUMP JUMPDEST PUSH0 DUP1 REVERT JUMPDEST PUSH1 0x40 MLOAD SWAP2 SWAP1 PUSH1 0x1F ADD PUSH1 0x1F NOT AND DUP3 ADD PUSH1 0x1 PUSH1 0x1 PUSH1 0x40 SHL SUB DUP2 GT DUP4 DUP3 LT OR PUSH2 0x250 JUMPI PUSH1 0x40 MSTORE JUMP JUMPDEST MLOAD SWAP1 PUSH1 0x1 PUSH1 0x1 PUSH1 0xA0 SHL SUB DUP3 AND DUP3 SUB PUSH2 0x46B JUMPI JUMP JUMPDEST DUP1 MLOAD DUP3 LT ISZERO PUSH2 0x23C JUMPI PUSH1 0x20 SWAP2 PUSH1 0x5 SHL ADD ADD SWAP1 JUMP INVALID PUSH1 0x80 DUP1 PUSH1 0x40 MSTORE PUSH1 0x4 CALLDATASIZE LT ISZERO PUSH2 0x12 JUMPI PUSH0 DUP1 REVERT JUMPDEST PUSH0 SWAP1 PUSH0 CALLDATALOAD PUSH1 0xE0 SHR SWAP1 DUP2 PUSH3 0x2EAB7 EQ PUSH2 0x285D JUMPI POP DUP1 PUSH4 0x147CB7B EQ PUSH2 0x2563 JUMPI DUP1 PUSH4 0x60B9C57 EQ PUSH2 0x253C JUMPI DUP1 PUSH4 0x8687794 EQ PUSH2 0x24F2 JUMPI DUP1 PUSH4 0xB61905F EQ PUSH2 0x24D8 JUMPI DUP1 PUSH4 0xD2B32C7 EQ PUSH2 0x24BE JUMPI DUP1 PUSH4 0x15CB51CE EQ PUSH2 0x2497 JUMPI DUP1 PUSH4 0x1746A22B EQ PUSH2 0x2455 JUMPI DUP1 PUSH4 0x1EC06ECC EQ PUSH2 0x243B JUMPI DUP1 PUSH4 0x209CAA00 EQ PUSH2 0x21CE JUMPI DUP1 PUSH4 0x219461ED EQ PUSH2 0x1FFE JUMPI DUP1 PUSH4 0x21EDD097 EQ PUSH2 0x21B0 JUMPI DUP1 PUSH4 0x256B5A02 EQ PUSH2 0x206A JUMPI DUP1 PUSH4 0x2B0C6C45 EQ PUSH2 0x2041 JUMPI DUP1 PUSH4 0x2F5CE345 EQ PUSH2 0x2026 JUMPI DUP1 PUSH4 0x2FA4ABEA EQ PUSH2 0x1FFE JUMPI DUP1 PUSH4 0x317CB151 EQ PUSH2 0x1E1F JUMPI DUP1 PUSH4 0x38D52E0F EQ PUSH2 0x1DF6 JUMPI DUP1 PUSH4 0x39197AC5 EQ PUSH2 0x1DDA JUMPI DUP1 PUSH4 0x3A8FCFE6 EQ PUSH2 0x1B69 JUMPI DUP1 PUSH4 0x3AECD0E3 EQ PUSH2 0x1B45 JUMPI DUP1 PUSH4 0x3F4BA83A EQ PUSH2 0x1ADD JUMPI DUP1 PUSH4 0x44CB903B EQ PUSH2 0x17EE JUMPI DUP1 PUSH4 0x4C203786 EQ PUSH2 0x17D1 JUMPI DUP1 PUSH4 0x5C975ABB EQ PUSH2 0x17AE JUMPI DUP1 PUSH4 0x60C6D8AE EQ PUSH2 0x1790 JUMPI DUP1 PUSH4 0x66AEB1C1 EQ PUSH2 0x1771 JUMPI DUP1 PUSH4 0x679DFFB4 EQ PUSH2 0x1756 JUMPI DUP1 PUSH4 0x6CAD3FB0 EQ PUSH2 0x16F0 JUMPI DUP1 PUSH4 0x6DB4B69D EQ PUSH2 0x16CA JUMPI DUP1 PUSH4 0x6FF1C9BC EQ PUSH2 0x150D JUMPI DUP1 PUSH4 0x72A7D477 EQ PUSH2 0x14DF JUMPI DUP1 PUSH4 0x7F68237A EQ PUSH2 0x14B4 JUMPI DUP1 PUSH4 0x8456CB59 EQ PUSH2 0x144A JUMPI DUP1 PUSH4 0x8BBED958 EQ PUSH2 0x1427 JUMPI DUP1 PUSH4 0x8C8D944F EQ PUSH2 0x1409 JUMPI DUP1 PUSH4 0x8DA5CB5B EQ PUSH2 0x13C4 JUMPI DUP1 PUSH4 0x8E87B785 EQ PUSH2 0xFAA JUMPI DUP1 PUSH4 0x923CEB6B EQ PUSH2 0x1314 JUMPI DUP1 PUSH4 0x9F54D54B EQ PUSH2 0x12F6 JUMPI DUP1 PUSH4 0xA001ECDD EQ PUSH2 0x12D8 JUMPI DUP1 PUSH4 0xA3C1EB8B EQ PUSH2 0xFFF JUMPI DUP1 PUSH4 0xA414266C EQ PUSH2 0xFD9 JUMPI DUP1 PUSH4 0xAD0FFD8B EQ PUSH2 0xFAA JUMPI DUP1 PUSH4 0xB410908D EQ PUSH2 0xF81 JUMPI DUP1 PUSH4 0xBD28F351 EQ PUSH2 0xF63 JUMPI DUP1 PUSH4 0xCA9D67C8 EQ PUSH2 0xF2D JUMPI DUP1 PUSH4 0xCEB68C23 EQ PUSH2 0xD60 JUMPI DUP1 PUSH4 0xD0E56347 EQ PUSH2 0xD1B JUMPI DUP1 PUSH4 0xD4DCC9A2 EQ PUSH2 0xA18 JUMPI DUP1 PUSH4 0xD81B464B EQ PUSH2 0x9FD JUMPI DUP1 PUSH4 0xDB37BAB4 EQ PUSH2 0x9CE JUMPI DUP1 PUSH4 0xE2F273BD EQ PUSH2 0x901 JUMPI DUP1 PUSH4 0xE44FEF95 EQ PUSH2 0x86B JUMPI DUP1 PUSH4 0xF18D3F6C EQ PUSH2 0x7D6 JUMPI DUP1 PUSH4 0xF19DBF24 EQ PUSH2 0x724 JUMPI DUP1 PUSH4 0xF3FEF3A3 EQ PUSH2 0x4AD JUMPI DUP1 PUSH4 0xF851A440 EQ PUSH2 0x480 JUMPI DUP1 PUSH4 0xF868E766 EQ PUSH2 0x418 JUMPI DUP1 PUSH4 0xF8C0AE05 EQ PUSH2 0x3F5 JUMPI DUP1 PUSH4 0xFD812094 EQ PUSH2 0x3B6 JUMPI DUP1 PUSH4 0xFDD28859 EQ PUSH2 0x2F2 JUMPI PUSH4 0xFF50ABDC EQ PUSH2 0x2D2 JUMPI PUSH0 DUP1 REVERT JUMPDEST CALLVALUE PUSH2 0x2EF JUMPI DUP1 PUSH1 0x3 NOT CALLDATASIZE ADD SLT PUSH2 0x2EF JUMPI PUSH1 0x20 PUSH1 0x4 SLOAD PUSH1 0x40 MLOAD SWAP1 DUP2 MSTORE RETURN JUMPDEST DUP1 REVERT JUMPDEST POP CALLVALUE PUSH2 0x2EF JUMPI PUSH1 0x20 CALLDATASIZE PUSH1 0x3 NOT ADD SLT PUSH2 0x2EF JUMPI PUSH2 0x30C PUSH2 0x2892 JUMP JUMPDEST PUSH2 0x324 PUSH1 0x1 DUP1 PUSH1 0xA0 SHL SUB PUSH1 0x1 SLOAD PUSH1 0x8 SHR AND CALLER EQ PUSH2 0x2B55 JUMP JUMPDEST PUSH1 0x1 PUSH1 0x1 PUSH1 0xA0 SHL SUB AND DUP1 ISZERO PUSH2 0x377 JUMPI PUSH1 0x6 DUP1 SLOAD PUSH1 0x1 PUSH1 0x1 PUSH1 0xA0 SHL SUB NOT DUP2 AND DUP4 OR SWAP1 SWAP2 SSTORE PUSH1 0x1 PUSH1 0x1 PUSH1 0xA0 SHL SUB AND PUSH32 0x9C18EC49F4AA2C93AB2DB0F2F75DA25811971A22646A4DA0409E945BD48E8AF7 DUP4 DUP1 LOG3 DUP1 RETURN JUMPDEST PUSH1 0x40 MLOAD PUSH3 0x461BCD PUSH1 0xE5 SHL DUP2 MSTORE PUSH1 0x20 PUSH1 0x4 DUP3 ADD MSTORE PUSH1 0x17 PUSH1 0x24 DUP3 ADD MSTORE PUSH23 0x496E76616C696420726576656E75652061646472657373 PUSH1 0x48 SHL PUSH1 0x44 DUP3 ADD MSTORE PUSH1 0x64 SWAP1 REVERT JUMPDEST POP CALLVALUE PUSH2 0x2EF JUMPI PUSH1 0x20 CALLDATASIZE PUSH1 0x3 NOT ADD SLT PUSH2 0x2EF JUMPI PUSH1 0x20 SWAP1 PUSH1 0xFF SWAP1 PUSH1 0x40 SWAP1 PUSH1 0x1 PUSH1 0x1 PUSH1 0xA0 SHL SUB PUSH2 0x3E1 PUSH2 0x2892 JUMP JUMPDEST AND DUP2 MSTORE PUSH1 0xC DUP5 MSTORE KECCAK256 SLOAD AND PUSH1 0x40 MLOAD SWAP1 ISZERO ISZERO DUP2 MSTORE RETURN JUMPDEST POP CALLVALUE PUSH2 0x2EF JUMPI DUP1 PUSH1 0x3 NOT CALLDATASIZE ADD SLT PUSH2 0x2EF JUMPI PUSH1 0x20 PUSH2 0x410 PUSH2 0x38EC JUMP JUMPDEST PUSH1 0x40 MLOAD SWAP1 DUP2 MSTORE RETURN JUMPDEST POP CALLVALUE PUSH2 0x2EF JUMPI PUSH1 0x20 CALLDATASIZE PUSH1 0x3 NOT ADD SLT PUSH2 0x2EF JUMPI PUSH2 0x45E CALLER PUSH32 0x0 PUSH1 0x1 PUSH1 0x1 PUSH1 0xA0 SHL SUB AND EQ PUSH2 0x2A0A JUMP JUMPDEST PUSH2 0x466 PUSH2 0x3927 JUMP JUMPDEST PUSH2 0x46E PUSH2 0x3945 JUMP JUMPDEST PUSH2 0x479 PUSH1 0x4 CALLDATALOAD PUSH2 0x2BF6 JUMP JUMPDEST PUSH1 0x1 DUP2 SSTORE DUP1 RETURN JUMPDEST POP CALLVALUE PUSH2 0x2EF JUMPI DUP1 PUSH1 0x3 NOT CALLDATASIZE ADD SLT PUSH2 0x2EF JUMPI PUSH1 0x1 SLOAD PUSH1 0x40 MLOAD PUSH1 0x8 SWAP2 SWAP1 SWAP2 SHR PUSH1 0x1 PUSH1 0x1 PUSH1 0xA0 SHL SUB AND DUP2 MSTORE PUSH1 0x20 SWAP1 RETURN JUMPDEST POP CALLVALUE PUSH2 0x2EF JUMPI PUSH1 0x40 CALLDATASIZE PUSH1 0x3 NOT ADD SLT PUSH2 0x2EF JUMPI PUSH2 0x4C7 PUSH2 0x2892 JUMP JUMPDEST PUSH32 0x0 PUSH1 0x1 PUSH1 0x1 PUSH1 0xA0 SHL SUB DUP2 AND SWAP2 PUSH1 0x24 CALLDATALOAD SWAP2 SWAP1 PUSH2 0x503 CALLER DUP6 EQ PUSH2 0x2A0A JUMP JUMPDEST PUSH1 0x1 PUSH1 0x1 PUSH1 0xA0 SHL SUB DUP2 AND DUP1 DUP7 MSTORE PUSH1 0xC PUSH1 0x20 MSTORE PUSH1 0x40 DUP7 KECCAK256 SLOAD SWAP1 SWAP4 SWAP1 PUSH2 0x529 SWAP1 PUSH1 0xFF AND PUSH2 0x2A43 JUMP JUMPDEST PUSH2 0x531 PUSH2 0x3927 JUMP JUMPDEST PUSH2 0x539 PUSH2 0x3945 JUMP JUMPDEST PUSH2 0x55E PUSH1 0x3 SLOAD PUSH2 0x54E PUSH1 0xFF DUP3 PUSH1 0xA0 SHR AND PUSH2 0x2B8E JUMP JUMPDEST PUSH1 0x1 PUSH1 0x1 PUSH1 0xA0 SHL SUB AND DUP6 EQ PUSH2 0x36BD JUMP JUMPDEST PUSH2 0x567 DUP3 PUSH2 0x3319 JUMP JUMPDEST SWAP2 DUP3 ISZERO PUSH2 0x6EB JUMPI PUSH2 0x58A SWAP3 DUP3 ISZERO DUP2 DUP5 DUP3 ISZERO PUSH2 0x6E1 JUMPI JUMPDEST POP POP PUSH2 0x6D9 JUMPI JUMPDEST POP PUSH2 0x4356 JUMP JUMPDEST PUSH1 0x40 MLOAD PUSH4 0x38D52E0F PUSH1 0xE0 SHL DUP2 MSTORE PUSH1 0x20 DUP2 PUSH1 0x4 DUP2 DUP8 GAS STATICCALL SWAP2 DUP3 ISZERO PUSH2 0x6CE JUMPI PUSH0 MLOAD PUSH1 0x20 PUSH2 0x4A4B PUSH0 CODECOPY PUSH0 MLOAD SWAP1 PUSH0 MSTORE SWAP4 PUSH1 0x20 SWAP4 DUP7 SWAP4 DUP10 SWAP2 PUSH2 0x6A1 JUMPI JUMPDEST POP PUSH1 0x2 SLOAD PUSH1 0x1 PUSH1 0x1 PUSH1 0xA0 SHL SUB SWAP1 DUP2 AND SWAP2 SWAP1 DUP2 AND DUP3 SWAP1 SUB PUSH2 0x68A JUMPI JUMPDEST POP POP PUSH2 0x609 SWAP1 PUSH2 0x5EC DUP4 PUSH2 0x364E JUMP JUMPDEST SWAP5 DUP2 DUP7 SWAP4 SWAP3 PUSH2 0x637 JUMPI JUMPDEST POP POP PUSH1 0x2 SLOAD PUSH1 0x1 PUSH1 0x1 PUSH1 0xA0 SHL SUB AND PUSH2 0x42FF JUMP JUMPDEST PUSH1 0x4 SLOAD SWAP1 DUP1 DUP3 GT ISZERO PUSH2 0x62F JUMPI PUSH2 0x61E SWAP2 PUSH2 0x2D52 JUMP JUMPDEST PUSH1 0x4 SSTORE PUSH1 0x40 MLOAD SWAP1 DUP2 MSTORE LOG3 PUSH1 0x1 DUP2 SSTORE DUP1 RETURN JUMPDEST POP POP DUP6 PUSH2 0x61E JUMP JUMPDEST PUSH1 0x2 SLOAD PUSH1 0x6 SLOAD PUSH0 MLOAD PUSH1 0x20 PUSH2 0x49CB PUSH0 CODECOPY PUSH0 MLOAD SWAP1 PUSH0 MSTORE SWAP3 PUSH1 0x40 SWAP3 SWAP1 SWAP2 PUSH2 0x669 SWAP2 DUP4 SWAP2 PUSH1 0x1 PUSH1 0x1 PUSH1 0xA0 SHL SUB SWAP1 DUP2 AND SWAP2 AND PUSH2 0x42FF JUMP JUMPDEST PUSH2 0x675 DUP2 PUSH1 0x8 SLOAD PUSH2 0x2BD5 JUMP JUMPDEST PUSH1 0x8 SSTORE DUP2 MLOAD SWAP1 DUP2 MSTORE DUP6 DUP11 DUP3 ADD MSTORE LOG2 DUP8 PUSH0 PUSH2 0x5F6 JUMP JUMPDEST SWAP3 PUSH2 0x699 SWAP2 PUSH2 0x609 SWAP4 SWAP5 PUSH2 0x3B13 JUMP JUMPDEST SWAP2 SWAP1 PUSH0 PUSH2 0x5DD JUMP JUMPDEST PUSH2 0x6C1 SWAP2 POP DUP6 RETURNDATASIZE DUP8 GT PUSH2 0x6C7 JUMPI JUMPDEST PUSH2 0x6B9 DUP2 DUP4 PUSH2 0x2B13 JUMP JUMPDEST DUP2 ADD SWAP1 PUSH2 0x2B36 JUMP JUMPDEST PUSH0 PUSH2 0x5C2 JUMP JUMPDEST POP RETURNDATASIZE PUSH2 0x6AF JUMP JUMPDEST PUSH1 0x40 MLOAD RETURNDATASIZE DUP9 DUP3 RETURNDATACOPY RETURNDATASIZE SWAP1 REVERT JUMPDEST SWAP2 POP PUSH0 PUSH2 0x584 JUMP JUMPDEST GT SWAP1 POP DUP2 PUSH0 PUSH2 0x57D JUMP JUMPDEST PUSH1 0x40 MLOAD PUSH3 0x461BCD PUSH1 0xE5 SHL DUP2 MSTORE PUSH1 0x20 PUSH1 0x4 DUP3 ADD MSTORE PUSH1 0x11 PUSH1 0x24 DUP3 ADD MSTORE PUSH17 0x139BC8199D5B991CC81A5B881D985D5B1D PUSH1 0x7A SHL PUSH1 0x44 DUP3 ADD MSTORE PUSH1 0x64 SWAP1 REVERT JUMPDEST POP CALLVALUE PUSH2 0x2EF JUMPI PUSH1 0x20 CALLDATASIZE PUSH1 0x3 NOT ADD SLT PUSH2 0x2EF JUMPI PUSH1 0x4 CALLDATALOAD PUSH2 0x751 PUSH1 0x1 DUP1 PUSH1 0xA0 SHL SUB PUSH1 0x1 SLOAD PUSH1 0x8 SHR AND CALLER EQ PUSH2 0x2B55 JUMP JUMPDEST DUP1 ISZERO PUSH2 0x791 JUMPI PUSH1 0x40 PUSH32 0x5CDFD4E6875894063A0C220FAF9B9C9176A915C2DFFEE5F72267D1A5D55BCBE8 SWAP2 PUSH1 0x9 SLOAD SWAP1 DUP1 PUSH1 0x9 SSTORE DUP3 MLOAD SWAP2 DUP3 MSTORE PUSH1 0x20 DUP3 ADD MSTORE LOG1 DUP1 RETURN JUMPDEST PUSH1 0x40 MLOAD PUSH3 0x461BCD PUSH1 0xE5 SHL DUP2 MSTORE PUSH1 0x20 PUSH1 0x4 DUP3 ADD MSTORE PUSH1 0x1E PUSH1 0x24 DUP3 ADD MSTORE PUSH32 0x496E76616C6964206D696E696D756D2070726F66697420666F72206665650000 PUSH1 0x44 DUP3 ADD MSTORE PUSH1 0x64 SWAP1 REVERT JUMPDEST POP CALLVALUE PUSH2 0x2EF JUMPI PUSH1 0x20 CALLDATASIZE PUSH1 0x3 NOT ADD SLT PUSH2 0x2EF JUMPI PUSH2 0x7F0 PUSH2 0x2892 JUMP JUMPDEST PUSH2 0x808 PUSH1 0x1 DUP1 PUSH1 0xA0 SHL SUB PUSH1 0x1 SLOAD PUSH1 0x8 SHR AND CALLER EQ PUSH2 0x2B55 JUMP JUMPDEST PUSH1 0x1 PUSH1 0x1 PUSH1 0xA0 SHL SUB AND DUP1 ISZERO PUSH2 0x82E JUMPI PUSH1 0x2 DUP1 SLOAD PUSH1 0x1 PUSH1 0x1 PUSH1 0xA0 SHL SUB NOT AND SWAP2 SWAP1 SWAP2 OR SWAP1 SSTORE DUP1 RETURN JUMPDEST PUSH1 0x40 MLOAD PUSH3 0x461BCD PUSH1 0xE5 SHL DUP2 MSTORE PUSH1 0x20 PUSH1 0x4 DUP3 ADD MSTORE PUSH1 0x15 PUSH1 0x24 DUP3 ADD MSTORE PUSH21 0x496E76616C69642061737365742061646472657373 PUSH1 0x58 SHL PUSH1 0x44 DUP3 ADD MSTORE PUSH1 0x64 SWAP1 REVERT JUMPDEST POP CALLVALUE PUSH2 0x2EF JUMPI DUP1 PUSH1 0x3 NOT CALLDATASIZE ADD SLT PUSH2 0x2EF JUMPI PUSH1 0x40 MLOAD PUSH1 0xD DUP1 SLOAD DUP1 DUP4 MSTORE SWAP1 DUP4 MSTORE SWAP1 SWAP2 PUSH1 0x20 DUP4 ADD SWAP2 PUSH32 0xD7B6990105719101DABEB77144F2A3385C8033ACD3AF97E9423A695E81AD1EB5 SWAP2 JUMPDEST DUP2 DUP2 LT PUSH2 0x8E2 JUMPI PUSH2 0x8DE DUP6 PUSH2 0x8CA DUP2 DUP8 SUB DUP3 PUSH2 0x2B13 JUMP JUMPDEST PUSH1 0x40 MLOAD SWAP2 DUP3 SWAP2 PUSH1 0x20 DUP4 MSTORE PUSH1 0x20 DUP4 ADD SWAP1 PUSH2 0x29CE JUMP JUMPDEST SUB SWAP1 RETURN JUMPDEST DUP3 SLOAD PUSH1 0x1 PUSH1 0x1 PUSH1 0xA0 SHL SUB AND DUP5 MSTORE PUSH1 0x20 SWAP1 SWAP4 ADD SWAP3 PUSH1 0x1 SWAP3 DUP4 ADD SWAP3 ADD PUSH2 0x8B3 JUMP JUMPDEST POP CALLVALUE PUSH2 0x2EF JUMPI PUSH1 0x20 CALLDATASIZE PUSH1 0x3 NOT ADD SLT PUSH2 0x2EF JUMPI PUSH2 0x91B PUSH2 0x2892 JUMP JUMPDEST PUSH1 0x1 SLOAD PUSH1 0x8 DUP2 SWAP1 SHR PUSH1 0x1 PUSH1 0x1 PUSH1 0xA0 SHL SUB AND SWAP1 PUSH2 0x938 CALLER DUP4 EQ PUSH2 0x2B55 JUMP JUMPDEST PUSH1 0x1 PUSH1 0x1 PUSH1 0xA0 SHL SUB DUP4 AND SWAP3 DUP4 ISZERO PUSH2 0x991 JUMPI PUSH2 0x100 PUSH1 0x1 PUSH1 0xA8 SHL SUB NOT SWAP1 SWAP2 AND PUSH1 0x8 SWAP2 SWAP1 SWAP2 SHL PUSH2 0x100 PUSH1 0x1 PUSH1 0xA8 SHL SUB AND OR PUSH1 0x1 SSTORE PUSH32 0x101B8081FF3B56BBF45DEB824D86A3B0FD38B7E3DD42421105CF8ABE9106DB0B DUP4 DUP1 LOG3 DUP1 RETURN JUMPDEST PUSH1 0x40 MLOAD PUSH3 0x461BCD PUSH1 0xE5 SHL DUP2 MSTORE PUSH1 0x20 PUSH1 0x4 DUP3 ADD MSTORE PUSH1 0x15 PUSH1 0x24 DUP3 ADD MSTORE PUSH21 0x496E76616C69642061646D696E2061646472657373 PUSH1 0x58 SHL PUSH1 0x44 DUP3 ADD MSTORE PUSH1 0x64 SWAP1 REVERT JUMPDEST POP CALLVALUE PUSH2 0x2EF JUMPI DUP1 PUSH1 0x3 NOT CALLDATASIZE ADD SLT PUSH2 0x2EF JUMPI PUSH1 0x20 PUSH1 0x40 MLOAD PUSH20 0xCF77A3BA9A5CA399B7C97C74D54E5B1BEB874E43 DUP2 MSTORE RETURN JUMPDEST POP CALLVALUE PUSH2 0x2EF JUMPI DUP1 PUSH1 0x3 NOT CALLDATASIZE ADD SLT PUSH2 0x2EF JUMPI PUSH1 0x20 PUSH2 0x410 PUSH2 0x387B JUMP JUMPDEST POP CALLVALUE PUSH2 0x2EF JUMPI DUP1 PUSH2 0xA28 CALLDATASIZE PUSH2 0x2960 JUMP JUMPDEST SWAP2 PUSH2 0xA44 PUSH1 0x1 DUP1 PUSH1 0xA0 SWAP10 SWAP7 SWAP10 SHL SUB PUSH1 0x1 SLOAD PUSH1 0x8 SHR AND CALLER EQ PUSH2 0x2B55 JUMP JUMPDEST PUSH2 0xA4C PUSH2 0x3927 JUMP JUMPDEST PUSH2 0xA57 DUP2 DUP7 EQ PUSH2 0x3353 JUMP JUMPDEST PUSH2 0xA62 DUP4 DUP7 EQ PUSH2 0x3353 JUMP JUMPDEST PUSH2 0xA6D DUP6 ISZERO ISZERO PUSH2 0x3397 JUMP JUMPDEST PUSH2 0xA76 DUP6 PUSH2 0x2FEE JUMP JUMPDEST DUP5 JUMPDEST DUP7 DUP2 LT PUSH2 0xCC1 JUMPI POP PUSH2 0xA89 DUP7 PUSH2 0x2FEE JUMP JUMPDEST SWAP8 DUP6 JUMPDEST DUP8 DUP2 LT PUSH2 0xC27 JUMPI POP PUSH0 MLOAD PUSH1 0x20 PUSH2 0x49EB PUSH0 CODECOPY PUSH0 MLOAD SWAP1 PUSH0 MSTORE EXTCODESIZE ISZERO PUSH2 0xC23 JUMPI PUSH1 0x40 MLOAD PUSH4 0x1C7BA57 PUSH1 0xE6 SHL DUP2 MSTORE SWAP5 DUP7 SWAP5 DUP7 SWAP5 DUP6 SWAP5 PUSH2 0xACE SWAP5 SWAP1 DUP12 SWAP1 DUP14 SWAP1 PUSH1 0x4 DUP10 ADD PUSH2 0x341A JUMP JUMPDEST SUB DUP2 DUP4 PUSH0 MLOAD PUSH1 0x20 PUSH2 0x49EB PUSH0 CODECOPY PUSH0 MLOAD SWAP1 PUSH0 MSTORE GAS CALL DUP1 ISZERO PUSH2 0xC18 JUMPI PUSH2 0xBFF JUMPI JUMPDEST POP JUMPDEST DUP2 DUP2 LT PUSH2 0xAFD JUMPI DUP5 PUSH1 0x1 DUP2 SSTORE DUP1 RETURN JUMPDEST PUSH1 0x24 SWAP1 PUSH1 0x20 PUSH1 0x1 PUSH1 0x1 PUSH1 0xA0 SHL SUB PUSH2 0xB1D PUSH2 0xB18 DUP5 DUP8 DUP10 PUSH2 0x33D2 JUMP JUMPDEST PUSH2 0x33E2 JUMP JUMPDEST AND PUSH1 0x40 MLOAD SWAP4 DUP5 DUP1 SWAP3 PUSH4 0x70A08231 PUSH1 0xE0 SHL DUP3 MSTORE ADDRESS PUSH1 0x4 DUP4 ADD MSTORE GAS STATICCALL SWAP2 DUP3 ISZERO PUSH2 0x6CE JUMPI DUP7 SWAP3 PUSH2 0xBC6 JUMPI JUMPDEST POP PUSH2 0xB5D PUSH1 0x1 SWAP3 PUSH2 0xB56 DUP4 DUP9 PUSH2 0x3077 JUMP JUMPDEST MLOAD SWAP1 PUSH2 0x2D52 JUMP JUMPDEST DUP1 PUSH2 0xB6A JUMPI JUMPDEST POP ADD PUSH2 0xAEE JUMP JUMPDEST PUSH2 0xB93 DUP2 DUP5 DUP1 PUSH1 0xA0 SHL SUB PUSH2 0xB82 PUSH2 0xB18 DUP7 DUP10 DUP12 PUSH2 0x33D2 JUMP JUMPDEST AND DUP6 DUP1 PUSH1 0xA0 SHL SUB PUSH1 0x6 SLOAD AND SWAP1 PUSH2 0x42FF JUMP JUMPDEST PUSH0 MLOAD PUSH1 0x20 PUSH2 0x4A6B PUSH0 CODECOPY PUSH0 MLOAD SWAP1 PUSH0 MSTORE PUSH1 0x20 DUP5 DUP1 PUSH1 0xA0 SHL SUB PUSH2 0xBB7 PUSH2 0xB18 DUP7 DUP10 DUP12 PUSH2 0x33D2 JUMP JUMPDEST AND SWAP3 PUSH1 0x40 MLOAD SWAP1 DUP2 MSTORE LOG2 PUSH0 PUSH2 0xB63 JUMP JUMPDEST SWAP2 POP PUSH1 0x20 DUP3 RETURNDATASIZE DUP3 GT PUSH2 0xBF7 JUMPI JUMPDEST DUP2 PUSH2 0xBE0 PUSH1 0x20 SWAP4 DUP4 PUSH2 0x2B13 JUMP JUMPDEST DUP2 ADD SUB SLT PUSH2 0xBF3 JUMPI SWAP1 MLOAD SWAP1 PUSH2 0xB5D PUSH2 0xB45 JUMP JUMPDEST PUSH0 DUP1 REVERT JUMPDEST RETURNDATASIZE SWAP2 POP PUSH2 0xBD3 JUMP JUMPDEST DUP2 PUSH2 0xC09 SWAP2 PUSH2 0x2B13 JUMP JUMPDEST PUSH2 0xC14 JUMPI DUP4 PUSH0 PUSH2 0xAEC JUMP JUMPDEST DUP4 DUP1 REVERT JUMPDEST PUSH1 0x40 MLOAD RETURNDATASIZE DUP5 DUP3 RETURNDATACOPY RETURNDATASIZE SWAP1 REVERT JUMPDEST DUP6 DUP1 REVERT JUMPDEST PUSH1 0x24 PUSH1 0x20 PUSH1 0x1 PUSH1 0x1 PUSH1 0xA0 SHL SUB PUSH2 0xC41 PUSH2 0xB18 DUP6 DUP14 DUP16 PUSH2 0x33D2 JUMP JUMPDEST AND PUSH1 0x40 MLOAD SWAP3 DUP4 DUP1 SWAP3 PUSH4 0x70A08231 PUSH1 0xE0 SHL DUP3 MSTORE ADDRESS PUSH1 0x4 DUP4 ADD MSTORE GAS STATICCALL SWAP1 DUP2 ISZERO PUSH2 0xCB6 JUMPI DUP9 SWAP2 PUSH2 0xC7F JUMPI JUMPDEST POP SWAP1 PUSH1 0x1 SWAP2 PUSH2 0xC78 DUP3 DUP14 PUSH2 0x3077 JUMP JUMPDEST MSTORE ADD PUSH2 0xA8C JUMP JUMPDEST SWAP2 SWAP8 POP POP PUSH1 0x20 DUP2 RETURNDATASIZE DUP3 GT PUSH2 0xCAE JUMPI JUMPDEST DUP2 PUSH2 0xC9B PUSH1 0x20 SWAP4 DUP4 PUSH2 0x2B13 JUMP JUMPDEST DUP2 ADD SUB SLT PUSH2 0xBF3 JUMPI MLOAD DUP11 SWAP7 SWAP1 PUSH1 0x1 PUSH2 0xC69 JUMP JUMPDEST RETURNDATASIZE SWAP2 POP PUSH2 0xC8E JUMP JUMPDEST PUSH1 0x40 MLOAD RETURNDATASIZE DUP11 DUP3 RETURNDATACOPY RETURNDATASIZE SWAP1 REVERT JUMPDEST SWAP4 SWAP5 POP SWAP2 SWAP3 SWAP1 SWAP2 SWAP1 PUSH1 0x1 SWAP1 PUSH2 0xCED PUSH1 0x1 PUSH1 0x1 PUSH1 0xA0 SHL SUB PUSH2 0xCE5 PUSH2 0xB18 DUP5 DUP12 DUP14 PUSH2 0x33D2 JUMP JUMPDEST AND ISZERO ISZERO PUSH2 0x2F54 JUMP JUMPDEST PUSH2 0xD03 PUSH2 0xCFB DUP3 DUP7 DUP13 PUSH2 0x33D2 JUMP JUMPDEST CALLDATALOAD ISZERO ISZERO PUSH2 0x2F98 JUMP JUMPDEST ADDRESS PUSH2 0xD0E DUP3 DUP6 PUSH2 0x3077 JUMP JUMPDEST MSTORE ADD SWAP1 DUP9 SWAP5 SWAP4 SWAP3 SWAP2 PUSH2 0xA78 JUMP JUMPDEST POP CALLVALUE PUSH2 0x2EF JUMPI PUSH1 0x60 CALLDATASIZE PUSH1 0x3 NOT ADD SLT PUSH2 0x2EF JUMPI PUSH1 0x60 PUSH2 0xD4B PUSH2 0xD3A PUSH2 0x2892 JUMP JUMPDEST PUSH2 0xD42 PUSH2 0x28A8 JUMP JUMPDEST PUSH1 0x44 CALLDATALOAD SWAP2 PUSH2 0x3752 JUMP JUMPDEST SWAP1 PUSH1 0x40 MLOAD SWAP3 ISZERO ISZERO DUP4 MSTORE PUSH1 0x20 DUP4 ADD MSTORE PUSH1 0x40 DUP3 ADD MSTORE RETURN JUMPDEST POP CALLVALUE PUSH2 0x2EF JUMPI PUSH1 0x20 CALLDATASIZE PUSH1 0x3 NOT ADD SLT PUSH2 0x2EF JUMPI PUSH2 0xD7A PUSH2 0x2892 JUMP JUMPDEST PUSH2 0xD92 PUSH1 0x1 DUP1 PUSH1 0xA0 SHL SUB PUSH1 0x1 SLOAD PUSH1 0x8 SHR AND CALLER EQ PUSH2 0x2B55 JUMP JUMPDEST PUSH1 0x1 PUSH1 0x1 PUSH1 0xA0 SHL SUB AND DUP1 DUP3 MSTORE PUSH1 0xC PUSH1 0x20 MSTORE PUSH1 0x40 DUP3 KECCAK256 SLOAD PUSH2 0xDB4 SWAP1 PUSH1 0xFF AND PUSH2 0x2A43 JUMP JUMPDEST PUSH1 0x3 SLOAD PUSH1 0x1 PUSH1 0x1 PUSH1 0xA0 SHL SUB AND DUP2 EQ PUSH2 0xEEA JUMPI DUP1 DUP3 MSTORE PUSH1 0xC PUSH1 0x20 MSTORE PUSH1 0x40 DUP3 KECCAK256 DUP1 SLOAD PUSH1 0xFF NOT AND SWAP1 SSTORE DUP2 JUMPDEST PUSH1 0xD SLOAD DUP1 DUP3 LT ISZERO PUSH2 0xEE3 JUMPI DUP3 PUSH2 0xDF1 DUP4 PUSH2 0x28BE JUMP JUMPDEST SWAP1 SLOAD PUSH1 0x3 SWAP2 SWAP1 SWAP2 SHL SHR PUSH1 0x1 PUSH1 0x1 PUSH1 0xA0 SHL SUB AND EQ PUSH2 0xE11 JUMPI POP PUSH1 0x1 ADD PUSH2 0xDDC JUMP JUMPDEST PUSH0 NOT DUP2 ADD SWAP1 DUP2 GT PUSH2 0xECF JUMPI SWAP1 PUSH2 0xE44 PUSH2 0xE2C PUSH2 0xE68 SWAP4 PUSH2 0x28BE JUMP JUMPDEST SWAP1 SLOAD PUSH1 0x3 SWAP2 SWAP1 SWAP2 SHL SHR PUSH1 0x1 PUSH1 0x1 PUSH1 0xA0 SHL SUB AND SWAP2 PUSH2 0x28BE JUMP JUMPDEST SWAP1 DUP1 SLOAD PUSH1 0x1 PUSH1 0x1 PUSH1 0xA0 SHL SUB PUSH1 0x3 SWAP4 SWAP1 SWAP4 SHL DUP4 DUP2 SHL NOT SWAP1 SWAP2 AND SWAP3 SWAP1 SWAP4 AND SWAP1 SWAP3 SHL OR SWAP1 SSTORE JUMP JUMPDEST PUSH1 0xD SLOAD DUP1 ISZERO PUSH2 0xEBB JUMPI PUSH0 NOT ADD PUSH2 0xE7D DUP2 PUSH2 0x28BE JUMP JUMPDEST DUP2 SLOAD SWAP1 PUSH1 0x1 DUP1 PUSH1 0xA0 SHL SUB SWAP1 PUSH1 0x3 SHL SHL NOT AND SWAP1 SSTORE PUSH1 0xD SSTORE JUMPDEST PUSH32 0xE71F3A50E5AD81964F352C411F1D45E35438ECD1ACECEF59AC81D9FBBF6CBC0A DUP3 DUP1 LOG2 DUP1 RETURN JUMPDEST PUSH4 0x4E487B71 PUSH1 0xE0 SHL DUP4 MSTORE PUSH1 0x31 PUSH1 0x4 MSTORE PUSH1 0x24 DUP4 REVERT JUMPDEST PUSH4 0x4E487B71 PUSH1 0xE0 SHL DUP5 MSTORE PUSH1 0x11 PUSH1 0x4 MSTORE PUSH1 0x24 DUP5 REVERT JUMPDEST POP POP PUSH2 0xE94 JUMP JUMPDEST PUSH1 0x40 MLOAD PUSH3 0x461BCD PUSH1 0xE5 SHL DUP2 MSTORE PUSH1 0x20 PUSH1 0x4 DUP3 ADD MSTORE PUSH1 0x1B PUSH1 0x24 DUP3 ADD MSTORE PUSH27 0x10D85B9B9BDD081C995B5BDD994818DD5C9C995B9D081D985D5B1D PUSH1 0x2A SHL PUSH1 0x44 DUP3 ADD MSTORE PUSH1 0x64 SWAP1 REVERT JUMPDEST POP CALLVALUE PUSH2 0x2EF JUMPI PUSH1 0x20 CALLDATASIZE PUSH1 0x3 NOT ADD SLT PUSH2 0x2EF JUMPI PUSH1 0x20 PUSH2 0xF51 PUSH2 0xF4C PUSH2 0x2892 JUMP JUMPDEST PUSH2 0x3701 JUMP JUMPDEST PUSH1 0x40 MLOAD PUSH1 0x1 PUSH1 0x1 PUSH1 0xA0 SHL SUB SWAP1 SWAP2 AND DUP2 MSTORE RETURN JUMPDEST POP CALLVALUE PUSH2 0x2EF JUMPI DUP1 PUSH1 0x3 NOT CALLDATASIZE ADD SLT PUSH2 0x2EF JUMPI PUSH1 0x20 PUSH1 0x5 SLOAD PUSH1 0x40 MLOAD SWAP1 DUP2 MSTORE RETURN JUMPDEST POP CALLVALUE PUSH2 0x2EF JUMPI DUP1 PUSH1 0x3 NOT CALLDATASIZE ADD SLT PUSH2 0x2EF JUMPI PUSH1 0x6 SLOAD PUSH1 0x40 MLOAD PUSH1 0x1 PUSH1 0x1 PUSH1 0xA0 SHL SUB SWAP1 SWAP2 AND DUP2 MSTORE PUSH1 0x20 SWAP1 RETURN JUMPDEST POP CALLVALUE PUSH2 0x2EF JUMPI DUP1 PUSH1 0x3 NOT CALLDATASIZE ADD SLT PUSH2 0x2EF JUMPI PUSH1 0x20 PUSH1 0x40 MLOAD PUSH20 0x6BFD8137E702540E7A42B74178A4A49BA43920C4 DUP2 MSTORE RETURN JUMPDEST POP CALLVALUE PUSH2 0x2EF JUMPI DUP1 PUSH1 0x3 NOT CALLDATASIZE ADD SLT PUSH2 0x2EF JUMPI PUSH1 0x20 PUSH1 0xFF PUSH1 0xB SLOAD PUSH1 0x8 SHR AND PUSH1 0x40 MLOAD SWAP1 ISZERO ISZERO DUP2 MSTORE RETURN JUMPDEST POP CALLVALUE PUSH2 0x2EF JUMPI PUSH1 0x40 CALLDATASIZE PUSH1 0x3 NOT ADD SLT PUSH2 0x2EF JUMPI PUSH2 0x1019 PUSH2 0x2892 JUMP JUMPDEST PUSH2 0x1021 PUSH2 0x28A8 JUMP JUMPDEST PUSH2 0x1039 PUSH1 0x1 DUP1 PUSH1 0xA0 SHL SUB PUSH1 0x1 SLOAD PUSH1 0x8 SHR AND CALLER EQ PUSH2 0x2B55 JUMP JUMPDEST PUSH1 0x1 PUSH1 0x1 PUSH1 0xA0 SHL SUB DUP3 AND DUP1 DUP5 MSTORE PUSH1 0xC PUSH1 0x20 MSTORE PUSH1 0x40 DUP5 KECCAK256 SLOAD SWAP1 SWAP2 SWAP1 PUSH2 0x105F SWAP1 PUSH1 0xFF AND PUSH2 0x2A43 JUMP JUMPDEST PUSH1 0x1 PUSH1 0x1 PUSH1 0xA0 SHL SUB DUP2 AND DUP1 DUP6 MSTORE PUSH1 0xC PUSH1 0x20 MSTORE PUSH1 0x40 DUP6 KECCAK256 SLOAD SWAP1 SWAP4 SWAP1 PUSH2 0x1085 SWAP1 PUSH1 0xFF AND PUSH2 0x2A43 JUMP JUMPDEST PUSH2 0x108D PUSH2 0x3927 JUMP JUMPDEST PUSH2 0x1095 PUSH2 0x3945 JUMP JUMPDEST PUSH2 0x10BA PUSH1 0x3 SLOAD PUSH2 0x10AA PUSH1 0xFF DUP3 PUSH1 0xA0 SHR AND PUSH2 0x2B8E JUMP JUMPDEST PUSH1 0x1 PUSH1 0x1 PUSH1 0xA0 SHL SUB AND DUP5 EQ PUSH2 0x36BD JUMP JUMPDEST DUP4 DUP4 EQ PUSH2 0x12A6 JUMPI PUSH2 0x10CA DUP2 PUSH2 0x3319 JUMP JUMPDEST DUP1 ISZERO PUSH2 0x1269 JUMPI PUSH2 0x10D9 SWAP2 PUSH2 0x4356 JUMP JUMPDEST PUSH1 0x40 MLOAD PUSH4 0x38D52E0F PUSH1 0xE0 SHL DUP2 MSTORE SWAP2 PUSH1 0x20 DUP4 PUSH1 0x4 DUP2 DUP8 GAS STATICCALL SWAP3 DUP4 ISZERO PUSH2 0x6CE JUMPI DUP7 SWAP4 PUSH2 0x1248 JUMPI JUMPDEST POP PUSH1 0x40 MLOAD PUSH4 0x38D52E0F PUSH1 0xE0 SHL DUP2 MSTORE SWAP2 PUSH1 0x20 DUP4 PUSH1 0x4 DUP2 DUP10 GAS STATICCALL DUP1 ISZERO PUSH2 0x123D JUMPI PUSH32 0x4CE94E8BD94F62017197BA464F629A366572732970F6FE47C76F97BB53F76303 SWAP5 PUSH1 0x20 SWAP5 DUP10 SWAP3 PUSH2 0x121E JUMPI JUMPDEST POP DUP3 PUSH1 0x1 PUSH1 0x1 PUSH1 0xA0 SHL SUB DUP3 DUP2 AND SWAP1 DUP5 AND DUP1 DUP3 SUB PUSH2 0x118F JUMPI JUMPDEST POP POP POP POP DUP2 PUSH2 0x116F SWAP3 SWAP4 PUSH2 0x3FD2 JUMP JUMPDEST PUSH1 0x3 DUP1 SLOAD PUSH1 0x1 PUSH1 0x1 PUSH1 0xA0 SHL SUB NOT AND DUP7 OR SWAP1 SSTORE PUSH1 0x40 MLOAD SWAP1 DUP2 MSTORE LOG3 PUSH1 0x1 DUP2 SSTORE DUP1 RETURN JUMPDEST PUSH1 0x2 SLOAD PUSH2 0x116F SWAP7 POP DUP6 SWAP3 PUSH1 0x1 PUSH1 0x1 PUSH1 0xA0 SHL SUB SWAP1 SWAP2 AND SWAP1 DUP2 EQ ISZERO SWAP2 DUP3 SWAP2 SWAP1 DUP3 PUSH2 0x1213 JUMPI JUMPDEST POP POP ISZERO PUSH2 0x11F5 JUMPI POP POP PUSH1 0x2 SLOAD PUSH2 0x11E9 SWAP3 PUSH2 0x11D6 SWAP3 SWAP2 PUSH1 0x1 PUSH1 0x1 PUSH1 0xA0 SHL SUB AND SWAP1 PUSH2 0x3B13 JUMP JUMPDEST PUSH1 0x2 SLOAD DUP4 SWAP1 PUSH1 0x1 PUSH1 0x1 PUSH1 0xA0 SHL SUB AND PUSH2 0x3B13 JUMP JUMPDEST DUP1 SWAP4 JUMPDEST SWAP4 SWAP3 PUSH0 DUP1 PUSH2 0x1160 JUMP JUMPDEST ISZERO PUSH2 0x120A JUMPI PUSH2 0x1203 SWAP3 PUSH2 0x3B13 JUMP JUMPDEST DUP1 SWAP4 PUSH2 0x11EC JUMP JUMPDEST PUSH2 0x1203 SWAP3 PUSH2 0x3B13 JUMP JUMPDEST EQ ISZERO SWAP1 POP PUSH0 DUP1 PUSH2 0x11B2 JUMP JUMPDEST PUSH2 0x1236 SWAP2 SWAP3 POP DUP6 RETURNDATASIZE DUP8 GT PUSH2 0x6C7 JUMPI PUSH2 0x6B9 DUP2 DUP4 PUSH2 0x2B13 JUMP JUMPDEST SWAP1 PUSH0 PUSH2 0x1148 JUMP JUMPDEST PUSH1 0x40 MLOAD RETURNDATASIZE DUP10 DUP3 RETURNDATACOPY RETURNDATASIZE SWAP1 REVERT JUMPDEST PUSH2 0x1262 SWAP2 SWAP4 POP PUSH1 0x20 RETURNDATASIZE PUSH1 0x20 GT PUSH2 0x6C7 JUMPI PUSH2 0x6B9 DUP2 DUP4 PUSH2 0x2B13 JUMP JUMPDEST SWAP2 PUSH0 PUSH2 0x10FE JUMP JUMPDEST PUSH1 0x40 MLOAD PUSH3 0x461BCD PUSH1 0xE5 SHL DUP2 MSTORE PUSH1 0x20 PUSH1 0x4 DUP3 ADD MSTORE PUSH1 0x15 PUSH1 0x24 DUP3 ADD MSTORE PUSH21 0x4E6F2066756E647320746F20726562616C616E6365 PUSH1 0x58 SHL PUSH1 0x44 DUP3 ADD MSTORE PUSH1 0x64 SWAP1 REVERT JUMPDEST PUSH1 0x40 MLOAD PUSH3 0x461BCD PUSH1 0xE5 SHL DUP2 MSTORE PUSH1 0x20 PUSH1 0x4 DUP3 ADD MSTORE PUSH1 0xA PUSH1 0x24 DUP3 ADD MSTORE PUSH10 0x14D85B59481D985D5B1D PUSH1 0xB2 SHL PUSH1 0x44 DUP3 ADD MSTORE PUSH1 0x64 SWAP1 REVERT JUMPDEST POP CALLVALUE PUSH2 0x2EF JUMPI DUP1 PUSH1 0x3 NOT CALLDATASIZE ADD SLT PUSH2 0x2EF JUMPI PUSH1 0x20 PUSH1 0x7 SLOAD PUSH1 0x40 MLOAD SWAP1 DUP2 MSTORE RETURN JUMPDEST POP CALLVALUE PUSH2 0x2EF JUMPI DUP1 PUSH1 0x3 NOT CALLDATASIZE ADD SLT PUSH2 0x2EF JUMPI PUSH1 0x20 PUSH1 0x9 SLOAD PUSH1 0x40 MLOAD SWAP1 DUP2 MSTORE RETURN JUMPDEST POP CALLVALUE PUSH2 0x2EF JUMPI DUP1 PUSH1 0x3 NOT CALLDATASIZE ADD SLT PUSH2 0x2EF JUMPI PUSH1 0x1 SLOAD PUSH1 0x40 MLOAD PUSH4 0x131BAC47 PUSH1 0xE1 SHL DUP2 MSTORE SWAP2 SWAP1 PUSH1 0x20 SWAP1 DUP4 SWAP1 DUP2 SWAP1 PUSH2 0x1358 SWAP1 PUSH1 0x8 SHR PUSH1 0x1 PUSH1 0x1 PUSH1 0xA0 SHL SUB AND ADDRESS PUSH1 0x4 DUP5 ADD PUSH2 0x3232 JUMP JUMPDEST SUB DUP2 PUSH0 MLOAD PUSH1 0x20 PUSH2 0x49EB PUSH0 CODECOPY PUSH0 MLOAD SWAP1 PUSH0 MSTORE GAS STATICCALL SWAP1 DUP2 ISZERO PUSH2 0x13B8 JUMPI SWAP1 PUSH2 0x1385 JUMPI JUMPDEST PUSH1 0x20 SWAP1 PUSH1 0x1 PUSH1 0x40 MLOAD SWAP2 EQ DUP2 MSTORE RETURN JUMPDEST POP PUSH1 0x20 DUP2 RETURNDATASIZE PUSH1 0x20 GT PUSH2 0x13B0 JUMPI JUMPDEST DUP2 PUSH2 0x139F PUSH1 0x20 SWAP4 DUP4 PUSH2 0x2B13 JUMP JUMPDEST DUP2 ADD SUB SLT PUSH2 0xBF3 JUMPI PUSH1 0x20 SWAP1 MLOAD PUSH2 0x1377 JUMP JUMPDEST RETURNDATASIZE SWAP2 POP PUSH2 0x1392 JUMP JUMPDEST PUSH1 0x40 MLOAD SWAP1 RETURNDATASIZE SWAP1 DUP3 RETURNDATACOPY RETURNDATASIZE SWAP1 REVERT JUMPDEST POP CALLVALUE PUSH2 0x2EF JUMPI DUP1 PUSH1 0x3 NOT CALLDATASIZE ADD SLT PUSH2 0x2EF JUMPI PUSH1 0x40 MLOAD PUSH32 0x0 PUSH1 0x1 PUSH1 0x1 PUSH1 0xA0 SHL SUB AND DUP2 MSTORE PUSH1 0x20 SWAP1 RETURN JUMPDEST POP CALLVALUE PUSH2 0x2EF JUMPI DUP1 PUSH1 0x3 NOT CALLDATASIZE ADD SLT PUSH2 0x2EF JUMPI PUSH1 0x20 PUSH1 0xD SLOAD PUSH1 0x40 MLOAD SWAP1 DUP2 MSTORE RETURN JUMPDEST POP CALLVALUE PUSH2 0x2EF JUMPI DUP1 PUSH1 0x3 NOT CALLDATASIZE ADD SLT PUSH2 0x2EF JUMPI PUSH1 0x20 PUSH1 0xFF PUSH1 0xB SLOAD AND PUSH1 0x40 MLOAD SWAP1 ISZERO ISZERO DUP2 MSTORE RETURN JUMPDEST POP CALLVALUE PUSH2 0x2EF JUMPI DUP1 PUSH1 0x3 NOT CALLDATASIZE ADD SLT PUSH2 0x2EF JUMPI PUSH1 0x1 DUP1 SLOAD PUSH2 0x1477 CALLER PUSH1 0x8 DUP4 SWAP1 SHR PUSH1 0x1 PUSH1 0x1 PUSH1 0xA0 SHL SUB AND EQ PUSH2 0x2B55 JUMP JUMPDEST PUSH2 0x147F PUSH2 0x3945 JUMP JUMPDEST PUSH1 0xFF NOT AND OR PUSH1 0x1 SSTORE PUSH32 0x62E78CEA01BEE320CD4E420270B5EA74000D11B0C9F74754EBDBFC544B05A258 PUSH1 0x20 PUSH1 0x40 MLOAD CALLER DUP2 MSTORE LOG1 DUP1 RETURN JUMPDEST POP CALLVALUE PUSH2 0x2EF JUMPI PUSH1 0x20 CALLDATASIZE PUSH1 0x3 NOT ADD SLT PUSH2 0x2EF JUMPI PUSH1 0x40 PUSH2 0x14D3 PUSH1 0x4 CALLDATALOAD PUSH2 0x364E JUMP JUMPDEST DUP3 MLOAD SWAP2 DUP3 MSTORE PUSH1 0x20 DUP3 ADD MSTORE RETURN JUMPDEST POP CALLVALUE PUSH2 0x2EF JUMPI PUSH1 0x20 CALLDATASIZE PUSH1 0x3 NOT ADD SLT PUSH2 0x2EF JUMPI PUSH1 0x20 PUSH2 0x1503 PUSH2 0x14FE PUSH2 0x2892 JUMP JUMPDEST PUSH2 0x35E4 JUMP JUMPDEST PUSH1 0x40 MLOAD SWAP1 ISZERO ISZERO DUP2 MSTORE RETURN JUMPDEST POP CALLVALUE PUSH2 0x2EF JUMPI PUSH1 0x20 CALLDATASIZE PUSH1 0x3 NOT ADD SLT PUSH2 0x2EF JUMPI PUSH2 0x1527 PUSH2 0x2892 JUMP JUMPDEST PUSH32 0x0 PUSH1 0x1 PUSH1 0x1 PUSH1 0xA0 SHL SUB DUP2 AND SWAP2 SWAP1 PUSH2 0x155F CALLER DUP5 EQ PUSH2 0x2A0A JUMP JUMPDEST PUSH2 0x1567 PUSH2 0x433A JUMP JUMPDEST PUSH2 0x156F PUSH2 0x3927 JUMP JUMPDEST PUSH1 0x1 PUSH1 0x1 PUSH1 0xA0 SHL SUB DUP3 AND DUP1 DUP6 MSTORE PUSH1 0xC PUSH1 0x20 MSTORE PUSH1 0x40 DUP6 KECCAK256 SLOAD SWAP1 SWAP3 SWAP1 PUSH2 0x1595 SWAP1 PUSH1 0xFF AND PUSH2 0x2A43 JUMP JUMPDEST PUSH2 0x159E DUP2 PUSH2 0x3319 JUMP JUMPDEST DUP1 PUSH2 0x15AC JUMPI JUMPDEST DUP6 PUSH1 0x1 DUP2 SSTORE DUP1 RETURN JUMPDEST PUSH2 0x15B5 SWAP2 PUSH2 0x4356 JUMP JUMPDEST PUSH1 0x40 MLOAD PUSH4 0x38D52E0F PUSH1 0xE0 SHL DUP2 MSTORE SWAP1 PUSH1 0x20 DUP3 PUSH1 0x4 DUP2 DUP8 GAS STATICCALL SWAP1 DUP2 ISZERO PUSH2 0x6CE JUMPI PUSH0 MLOAD PUSH1 0x20 PUSH2 0x4A4B PUSH0 CODECOPY PUSH0 MLOAD SWAP1 PUSH0 MSTORE SWAP4 PUSH2 0x1617 DUP7 SWAP4 PUSH2 0x1633 SWAP4 PUSH1 0x20 SWAP7 DUP12 SWAP3 PUSH2 0x16AB JUMPI JUMPDEST POP PUSH1 0x2 SLOAD PUSH1 0x1 PUSH1 0x1 PUSH1 0xA0 SHL SUB SWAP1 DUP2 AND SWAP1 DUP4 AND DUP2 SWAP1 SUB PUSH2 0x169B JUMPI JUMPDEST POP SWAP1 POP PUSH2 0x364E JUMP JUMPDEST SWAP4 DUP2 DUP6 SWAP4 SWAP3 PUSH2 0x1648 JUMPI POP POP PUSH1 0x2 SLOAD PUSH1 0x1 PUSH1 0x1 PUSH1 0xA0 SHL SUB AND PUSH2 0x42FF JUMP JUMPDEST DUP6 PUSH1 0x4 SSTORE PUSH1 0x40 MLOAD SWAP1 DUP2 MSTORE LOG3 PUSH0 DUP1 DUP1 DUP1 DUP1 PUSH2 0x15A4 JUMP JUMPDEST PUSH1 0x2 SLOAD PUSH1 0x6 SLOAD PUSH0 MLOAD PUSH1 0x20 PUSH2 0x49CB PUSH0 CODECOPY PUSH0 MLOAD SWAP1 PUSH0 MSTORE SWAP3 PUSH1 0x40 SWAP3 SWAP1 SWAP2 PUSH2 0x167A SWAP2 DUP4 SWAP2 PUSH1 0x1 PUSH1 0x1 PUSH1 0xA0 SHL SUB SWAP1 DUP2 AND SWAP2 AND PUSH2 0x42FF JUMP JUMPDEST PUSH2 0x1686 DUP2 PUSH1 0x8 SLOAD PUSH2 0x2BD5 JUMP JUMPDEST PUSH1 0x8 SSTORE DUP2 MLOAD SWAP1 DUP2 MSTORE DUP6 DUP10 DUP3 ADD MSTORE LOG2 DUP7 PUSH0 PUSH2 0x5F6 JUMP JUMPDEST PUSH2 0x16A4 SWAP3 PUSH2 0x3B13 JUMP JUMPDEST DUP1 PUSH0 PUSH2 0x160F JUMP JUMPDEST PUSH2 0x16C3 SWAP2 SWAP3 POP DUP8 RETURNDATASIZE DUP10 GT PUSH2 0x6C7 JUMPI PUSH2 0x6B9 DUP2 DUP4 PUSH2 0x2B13 JUMP JUMPDEST SWAP1 PUSH0 PUSH2 0x15F5 JUMP JUMPDEST POP CALLVALUE PUSH2 0x2EF JUMPI DUP1 PUSH1 0x3 NOT CALLDATASIZE ADD SLT PUSH2 0x2EF JUMPI PUSH1 0x20 PUSH1 0xFF PUSH1 0x3 SLOAD PUSH1 0xA0 SHR AND PUSH1 0x40 MLOAD SWAP1 ISZERO ISZERO DUP2 MSTORE RETURN JUMPDEST POP CALLVALUE PUSH2 0x2EF JUMPI PUSH1 0x20 CALLDATASIZE PUSH1 0x3 NOT ADD SLT PUSH2 0x2EF JUMPI PUSH32 0xB27C12A91635E11C22BFFA7BD8E0A8735DA52B94AAEFD7F249776C7590BA7894 PUSH1 0x40 PUSH1 0x4 CALLDATALOAD PUSH2 0x1740 PUSH1 0x1 DUP1 PUSH1 0xA0 SHL SUB PUSH1 0x1 SLOAD PUSH1 0x8 SHR AND CALLER EQ PUSH2 0x2B55 JUMP JUMPDEST PUSH1 0x7 SLOAD SWAP1 DUP1 PUSH1 0x7 SSTORE DUP3 MLOAD SWAP2 DUP3 MSTORE PUSH1 0x20 DUP3 ADD MSTORE LOG1 DUP1 RETURN JUMPDEST POP CALLVALUE PUSH2 0x2EF JUMPI DUP1 PUSH1 0x3 NOT CALLDATASIZE ADD SLT PUSH2 0x2EF JUMPI PUSH1 0x20 PUSH2 0x410 PUSH2 0x359D JUMP JUMPDEST POP CALLVALUE PUSH2 0x2EF JUMPI PUSH1 0x20 CALLDATASIZE PUSH1 0x3 NOT ADD SLT PUSH2 0x2EF JUMPI PUSH1 0x40 PUSH2 0x14D3 PUSH1 0x4 CALLDATALOAD PUSH2 0x3534 JUMP JUMPDEST POP CALLVALUE PUSH2 0x2EF JUMPI DUP1 PUSH1 0x3 NOT CALLDATASIZE ADD SLT PUSH2 0x2EF JUMPI PUSH1 0x20 PUSH1 0x8 SLOAD PUSH1 0x40 MLOAD SWAP1 DUP2 MSTORE RETURN JUMPDEST POP CALLVALUE PUSH2 0x2EF JUMPI DUP1 PUSH1 0x3 NOT CALLDATASIZE ADD SLT PUSH2 0x2EF JUMPI PUSH1 0x20 PUSH1 0xFF PUSH1 0x1 SLOAD AND PUSH1 0x40 MLOAD SWAP1 ISZERO ISZERO DUP2 MSTORE RETURN JUMPDEST POP CALLVALUE PUSH2 0x2EF JUMPI DUP1 PUSH1 0x3 NOT CALLDATASIZE ADD SLT PUSH2 0x2EF JUMPI PUSH1 0x20 PUSH1 0x40 MLOAD PUSH2 0x1F4 DUP2 MSTORE RETURN JUMPDEST POP CALLVALUE PUSH2 0x2EF JUMPI DUP1 PUSH2 0x17FE CALLDATASIZE PUSH2 0x2960 JUMP JUMPDEST SWAP1 SWAP6 SWAP2 SWAP4 SWAP5 SWAP3 SWAP6 PUSH32 0x0 SWAP5 PUSH2 0x183A PUSH1 0x1 DUP1 PUSH1 0xA0 SHL SUB DUP8 AND CALLER EQ PUSH2 0x2A0A JUMP JUMPDEST PUSH2 0x1842 PUSH2 0x3927 JUMP JUMPDEST PUSH2 0x184D DUP2 DUP9 EQ PUSH2 0x3353 JUMP JUMPDEST PUSH2 0x1858 DUP4 DUP9 EQ PUSH2 0x3353 JUMP JUMPDEST PUSH2 0x1863 DUP8 ISZERO ISZERO PUSH2 0x3397 JUMP JUMPDEST PUSH2 0x186C DUP8 PUSH2 0x2FEE JUMP JUMPDEST DUP5 JUMPDEST DUP9 DUP2 LT PUSH2 0x1A8B JUMPI POP PUSH2 0x187F DUP9 PUSH2 0x2FEE JUMP JUMPDEST SWAP9 DUP6 JUMPDEST DUP10 DUP2 LT PUSH2 0x19F4 JUMPI POP PUSH0 MLOAD PUSH1 0x20 PUSH2 0x49EB PUSH0 CODECOPY PUSH0 MLOAD SWAP1 PUSH0 MSTORE EXTCODESIZE ISZERO PUSH2 0xC23 JUMPI PUSH1 0x40 MLOAD PUSH4 0x1C7BA57 PUSH1 0xE6 SHL DUP2 MSTORE SWAP5 DUP7 SWAP5 DUP7 SWAP5 DUP6 SWAP5 PUSH2 0x18C4 SWAP5 SWAP1 DUP14 SWAP1 DUP13 SWAP1 PUSH1 0x4 DUP10 ADD PUSH2 0x341A JUMP JUMPDEST SUB DUP2 DUP4 PUSH0 MLOAD PUSH1 0x20 PUSH2 0x49EB PUSH0 CODECOPY PUSH0 MLOAD SWAP1 PUSH0 MSTORE GAS CALL DUP1 ISZERO PUSH2 0xC18 JUMPI PUSH2 0x19DB JUMPI JUMPDEST POP JUMPDEST DUP4 DUP2 LT PUSH2 0x18F3 JUMPI DUP6 PUSH1 0x1 DUP2 SSTORE DUP1 RETURN JUMPDEST PUSH1 0x24 SWAP1 PUSH1 0x20 PUSH1 0x1 PUSH1 0x1 PUSH1 0xA0 SHL SUB PUSH2 0x190E PUSH2 0xB18 DUP5 DUP10 DUP9 PUSH2 0x33D2 JUMP JUMPDEST AND PUSH1 0x40 MLOAD SWAP4 DUP5 DUP1 SWAP3 PUSH4 0x70A08231 PUSH1 0xE0 SHL DUP3 MSTORE ADDRESS PUSH1 0x4 DUP4 ADD MSTORE GAS STATICCALL SWAP2 DUP3 ISZERO PUSH2 0x123D JUMPI DUP8 SWAP3 PUSH2 0x19A6 JUMPI JUMPDEST POP PUSH2 0x1947 PUSH1 0x1 SWAP3 PUSH2 0xB56 DUP4 DUP10 PUSH2 0x3077 JUMP JUMPDEST DUP1 PUSH2 0x1954 JUMPI JUMPDEST POP ADD PUSH2 0x18E4 JUMP JUMPDEST PUSH2 0x1973 DUP2 DUP7 DUP6 DUP1 PUSH1 0xA0 SHL SUB PUSH2 0x196D PUSH2 0xB18 DUP8 DUP13 DUP12 PUSH2 0x33D2 JUMP JUMPDEST AND PUSH2 0x42FF JUMP JUMPDEST PUSH0 MLOAD PUSH1 0x20 PUSH2 0x4A6B PUSH0 CODECOPY PUSH0 MLOAD SWAP1 PUSH0 MSTORE PUSH1 0x20 DUP5 DUP1 PUSH1 0xA0 SHL SUB PUSH2 0x1997 PUSH2 0xB18 DUP7 DUP12 DUP11 PUSH2 0x33D2 JUMP JUMPDEST AND SWAP3 PUSH1 0x40 MLOAD SWAP1 DUP2 MSTORE LOG2 PUSH0 PUSH2 0x194D JUMP JUMPDEST SWAP2 POP PUSH1 0x20 DUP3 RETURNDATASIZE DUP3 GT PUSH2 0x19D3 JUMPI JUMPDEST DUP2 PUSH2 0x19C0 PUSH1 0x20 SWAP4 DUP4 PUSH2 0x2B13 JUMP JUMPDEST DUP2 ADD SUB SLT PUSH2 0xBF3 JUMPI SWAP1 MLOAD SWAP1 PUSH2 0x1947 PUSH2 0x1936 JUMP JUMPDEST RETURNDATASIZE SWAP2 POP PUSH2 0x19B3 JUMP JUMPDEST DUP2 PUSH2 0x19E5 SWAP2 PUSH2 0x2B13 JUMP JUMPDEST PUSH2 0x19F0 JUMPI DUP5 PUSH0 PUSH2 0x18E2 JUMP JUMPDEST DUP5 DUP1 REVERT JUMPDEST SWAP8 SWAP10 SWAP9 SWAP8 PUSH1 0x24 PUSH1 0x20 PUSH1 0x1 PUSH1 0x1 PUSH1 0xA0 SHL SUB PUSH2 0x1A12 PUSH2 0xB18 DUP6 DUP15 DUP15 PUSH2 0x33D2 JUMP JUMPDEST AND PUSH1 0x40 MLOAD SWAP3 DUP4 DUP1 SWAP3 PUSH4 0x70A08231 PUSH1 0xE0 SHL DUP3 MSTORE ADDRESS PUSH1 0x4 DUP4 ADD MSTORE GAS STATICCALL SWAP1 DUP2 ISZERO PUSH2 0xCB6 JUMPI DUP9 SWAP2 PUSH2 0x1A54 JUMPI JUMPDEST POP SWAP1 PUSH1 0x1 SWAP2 PUSH2 0x1A49 DUP3 DUP14 PUSH2 0x3077 JUMP JUMPDEST MSTORE ADD SWAP10 SWAP8 SWAP9 SWAP10 PUSH2 0x1882 JUMP JUMPDEST SWAP2 SWAP8 POP POP PUSH1 0x20 DUP2 RETURNDATASIZE DUP3 GT PUSH2 0x1A83 JUMPI JUMPDEST DUP2 PUSH2 0x1A70 PUSH1 0x20 SWAP4 DUP4 PUSH2 0x2B13 JUMP JUMPDEST DUP2 ADD SUB SLT PUSH2 0xBF3 JUMPI MLOAD DUP12 SWAP7 SWAP1 PUSH1 0x1 PUSH2 0x1A3A JUMP JUMPDEST RETURNDATASIZE SWAP2 POP PUSH2 0x1A63 JUMP JUMPDEST SWAP7 SWAP9 SWAP8 SWAP7 SWAP4 SWAP5 POP SWAP2 SWAP3 SWAP1 SWAP2 SWAP1 PUSH1 0x1 SWAP1 PUSH2 0x1AB3 PUSH1 0x1 PUSH1 0x1 PUSH1 0xA0 SHL SUB PUSH2 0xCE5 PUSH2 0xB18 DUP5 DUP13 DUP13 PUSH2 0x33D2 JUMP JUMPDEST PUSH2 0x1AC1 PUSH2 0xCFB DUP3 DUP7 DUP13 PUSH2 0x33D2 JUMP JUMPDEST ADDRESS PUSH2 0x1ACC DUP3 DUP6 PUSH2 0x3077 JUMP JUMPDEST MSTORE ADD SWAP1 DUP10 SWAP5 SWAP4 SWAP3 SWAP2 SWAP9 SWAP7 SWAP8 SWAP9 PUSH2 0x186E JUMP JUMPDEST POP CALLVALUE PUSH2 0x2EF JUMPI DUP1 PUSH1 0x3 NOT CALLDATASIZE ADD SLT PUSH2 0x2EF JUMPI PUSH1 0x1 SLOAD PUSH2 0x1B09 CALLER PUSH1 0x8 DUP4 SWAP1 SHR PUSH1 0x1 PUSH1 0x1 PUSH1 0xA0 SHL SUB AND EQ PUSH2 0x2B55 JUMP JUMPDEST PUSH2 0x1B11 PUSH2 0x433A JUMP JUMPDEST PUSH1 0xFF NOT AND PUSH1 0x1 SSTORE PUSH32 0x5DB9EE0A495BF2E6FF9C91A7834C1BA4FDD244A5E8AA4E537BD38AEAE4B073AA PUSH1 0x20 PUSH1 0x40 MLOAD CALLER DUP2 MSTORE LOG1 DUP1 RETURN JUMPDEST POP CALLVALUE PUSH2 0x2EF JUMPI PUSH1 0x20 CALLDATASIZE PUSH1 0x3 NOT ADD SLT PUSH2 0x2EF JUMPI PUSH1 0x20 PUSH2 0x410 PUSH2 0x1B64 PUSH2 0x2892 JUMP JUMPDEST PUSH2 0x3319 JUMP JUMPDEST POP CALLVALUE PUSH2 0x2EF JUMPI DUP1 PUSH2 0x1B79 CALLDATASIZE PUSH2 0x291A JUMP JUMPDEST SWAP2 SWAP3 PUSH2 0x1B96 PUSH1 0x1 DUP1 PUSH1 0xA0 SWAP8 SWAP5 SWAP8 SHL SUB PUSH1 0x1 SLOAD PUSH1 0x8 SHR AND CALLER EQ PUSH2 0x2B55 JUMP JUMPDEST PUSH2 0x1B9E PUSH2 0x3927 JUMP JUMPDEST PUSH1 0x1 PUSH1 0x1 PUSH1 0xA0 SHL SUB AND SWAP4 PUSH2 0x1BB3 DUP6 ISZERO ISZERO PUSH2 0x2F54 JUMP JUMPDEST PUSH2 0x1BBE DUP5 ISZERO ISZERO PUSH2 0x2F98 JUMP JUMPDEST PUSH1 0x40 SWAP4 DUP5 MLOAD SWAP4 PUSH2 0x1BCE DUP7 DUP7 PUSH2 0x2B13 JUMP JUMPDEST PUSH1 0x1 DUP6 MSTORE PUSH2 0x1C41 PUSH1 0x1F NOT DUP8 ADD SWAP4 DUP5 CALLDATASIZE PUSH1 0x20 DUP10 ADD CALLDATACOPY DUP8 MLOAD SWAP3 PUSH2 0x1BEF DUP10 DUP6 PUSH2 0x2B13 JUMP JUMPDEST PUSH1 0x1 DUP5 MSTORE DUP6 CALLDATASIZE PUSH1 0x20 DUP7 ADD CALLDATACOPY DUP9 MLOAD SWAP6 PUSH2 0x1C07 DUP11 DUP9 PUSH2 0x2B13 JUMP JUMPDEST PUSH1 0x1 DUP8 MSTORE CALLDATASIZE PUSH1 0x20 DUP9 ADD CALLDATACOPY PUSH2 0x1C19 PUSH2 0x3020 JUMP JUMPDEST SWAP5 ADDRESS PUSH2 0x1C24 DUP11 PUSH2 0x305A JUMP JUMPDEST MSTORE DUP11 PUSH2 0x1C2F DUP7 PUSH2 0x305A JUMP JUMPDEST MSTORE PUSH2 0x1C39 DUP8 PUSH2 0x305A JUMP JUMPDEST MSTORE CALLDATASIZE SWAP2 PUSH2 0x308B JUMP JUMPDEST PUSH2 0x1C4A DUP4 PUSH2 0x305A JUMP JUMPDEST MSTORE PUSH2 0x1C54 DUP3 PUSH2 0x305A JUMP JUMPDEST POP DUP6 MLOAD PUSH4 0x70A08231 PUSH1 0xE0 SHL DUP2 MSTORE ADDRESS PUSH1 0x4 DUP3 ADD MSTORE SWAP5 PUSH1 0x20 DUP7 PUSH1 0x24 DUP2 DUP12 GAS STATICCALL SWAP6 DUP7 ISZERO PUSH2 0x1DD0 JUMPI DUP6 SWAP7 PUSH2 0x1D99 JUMPI JUMPDEST POP PUSH0 MLOAD PUSH1 0x20 PUSH2 0x49EB PUSH0 CODECOPY PUSH0 MLOAD SWAP1 PUSH0 MSTORE EXTCODESIZE ISZERO PUSH2 0x19F0 JUMPI PUSH2 0x1CB3 DUP6 SWAP4 DUP9 MLOAD SWAP6 DUP7 SWAP5 DUP6 SWAP5 PUSH4 0x1C7BA57 PUSH1 0xE6 SHL DUP7 MSTORE PUSH1 0x4 DUP7 ADD PUSH2 0x30D7 JUMP JUMPDEST SUB DUP2 DUP4 PUSH0 MLOAD PUSH1 0x20 PUSH2 0x49EB PUSH0 CODECOPY PUSH0 MLOAD SWAP1 PUSH0 MSTORE GAS CALL DUP1 ISZERO PUSH2 0x1D8F JUMPI PUSH2 0x1D7A JUMPI JUMPDEST POP POP DUP2 MLOAD PUSH4 0x70A08231 PUSH1 0xE0 SHL DUP2 MSTORE ADDRESS PUSH1 0x4 DUP3 ADD MSTORE PUSH1 0x20 DUP2 PUSH1 0x24 DUP2 DUP8 GAS STATICCALL SWAP1 DUP2 ISZERO PUSH2 0x1D70 JUMPI DUP6 SWAP2 PUSH2 0x1D3A JUMPI JUMPDEST POP SWAP2 PUSH2 0x1D18 PUSH1 0x20 SWAP3 PUSH0 MLOAD PUSH1 0x20 PUSH2 0x4A6B PUSH0 CODECOPY PUSH0 MLOAD SWAP1 PUSH0 MSTORE SWAP5 PUSH2 0x2D52 JUMP JUMPDEST SWAP1 PUSH2 0x1D2E DUP3 PUSH1 0x1 DUP1 PUSH1 0xA0 SHL SUB PUSH1 0x6 SLOAD AND DUP8 PUSH2 0x42FF JUMP JUMPDEST MLOAD SWAP1 DUP2 MSTORE LOG2 PUSH1 0x1 DUP2 SSTORE DUP1 RETURN JUMPDEST SWAP3 SWAP1 POP PUSH1 0x20 DUP4 RETURNDATASIZE PUSH1 0x20 GT PUSH2 0x1D68 JUMPI JUMPDEST DUP2 PUSH2 0x1D56 PUSH1 0x20 SWAP4 DUP4 PUSH2 0x2B13 JUMP JUMPDEST DUP2 ADD SUB SLT PUSH2 0xBF3 JUMPI SWAP2 MLOAD PUSH2 0x1D18 PUSH2 0x1CFC JUMP JUMPDEST RETURNDATASIZE SWAP2 POP PUSH2 0x1D49 JUMP JUMPDEST DUP4 MLOAD RETURNDATASIZE DUP8 DUP3 RETURNDATACOPY RETURNDATASIZE SWAP1 REVERT JUMPDEST DUP2 PUSH2 0x1D84 SWAP2 PUSH2 0x2B13 JUMP JUMPDEST PUSH2 0xC14 JUMPI DUP4 PUSH0 PUSH2 0x1CD1 JUMP JUMPDEST DUP5 MLOAD RETURNDATASIZE DUP5 DUP3 RETURNDATACOPY RETURNDATASIZE SWAP1 REVERT JUMPDEST SWAP5 POP SWAP5 POP PUSH1 0x20 DUP5 RETURNDATASIZE PUSH1 0x20 GT PUSH2 0x1DC8 JUMPI JUMPDEST DUP2 PUSH2 0x1DB6 PUSH1 0x20 SWAP4 DUP4 PUSH2 0x2B13 JUMP JUMPDEST DUP2 ADD SUB SLT PUSH2 0xBF3 JUMPI DUP8 SWAP4 MLOAD SWAP5 PUSH0 PUSH2 0x1C7F JUMP JUMPDEST RETURNDATASIZE SWAP2 POP PUSH2 0x1DA9 JUMP JUMPDEST DUP8 MLOAD RETURNDATASIZE DUP8 DUP3 RETURNDATACOPY RETURNDATASIZE SWAP1 REVERT JUMPDEST POP CALLVALUE PUSH2 0x2EF JUMPI DUP1 PUSH1 0x3 NOT CALLDATASIZE ADD SLT PUSH2 0x2EF JUMPI PUSH2 0x1DF3 PUSH2 0x324C JUMP JUMPDEST DUP1 RETURN JUMPDEST POP CALLVALUE PUSH2 0x2EF JUMPI DUP1 PUSH1 0x3 NOT CALLDATASIZE ADD SLT PUSH2 0x2EF JUMPI PUSH1 0x2 SLOAD PUSH1 0x40 MLOAD PUSH1 0x1 PUSH1 0x1 PUSH1 0xA0 SHL SUB SWAP1 SWAP2 AND DUP2 MSTORE PUSH1 0x20 SWAP1 RETURN JUMPDEST POP CALLVALUE PUSH2 0x2EF JUMPI PUSH1 0x40 CALLDATASIZE PUSH1 0x3 NOT ADD SLT PUSH2 0x2EF JUMPI PUSH2 0x1E39 PUSH2 0x2892 JUMP JUMPDEST PUSH32 0x0 SWAP1 PUSH1 0x24 CALLDATALOAD SWAP1 PUSH2 0x1E73 CALLER PUSH1 0x1 PUSH1 0x1 PUSH1 0xA0 SHL SUB DUP6 AND EQ PUSH2 0x2A0A JUMP JUMPDEST PUSH2 0x1E7B PUSH2 0x3927 JUMP JUMPDEST PUSH1 0x1 PUSH1 0x1 PUSH1 0xA0 SHL SUB AND SWAP2 PUSH2 0x1E90 DUP4 ISZERO ISZERO PUSH2 0x2F54 JUMP JUMPDEST PUSH1 0x2 SLOAD PUSH1 0x1 PUSH1 0x1 PUSH1 0xA0 SHL SUB AND DUP4 EQ PUSH2 0x1FAA JUMPI PUSH1 0x40 MLOAD PUSH4 0x70A08231 PUSH1 0xE0 SHL DUP2 MSTORE ADDRESS PUSH1 0x4 DUP3 ADD MSTORE SWAP2 PUSH1 0x20 DUP4 PUSH1 0x24 DUP2 DUP8 GAS STATICCALL SWAP3 DUP4 ISZERO PUSH2 0x1F9F JUMPI DUP6 SWAP4 PUSH2 0x1F6B JUMPI JUMPDEST POP DUP3 ISZERO PUSH2 0x1F2D JUMPI DUP1 PUSH2 0x1F27 JUMPI POP DUP2 JUMPDEST DUP3 GT PUSH2 0x1EEB JUMPI PUSH2 0x479 SWAP3 PUSH2 0x42FF JUMP JUMPDEST PUSH1 0x40 MLOAD PUSH3 0x461BCD PUSH1 0xE5 SHL DUP2 MSTORE PUSH1 0x20 PUSH1 0x4 DUP3 ADD MSTORE PUSH1 0x14 PUSH1 0x24 DUP3 ADD MSTORE PUSH20 0x496E73756666696369656E742062616C616E6365 PUSH1 0x60 SHL PUSH1 0x44 DUP3 ADD MSTORE PUSH1 0x64 SWAP1 REVERT JUMPDEST SWAP2 PUSH2 0x1EDC JUMP JUMPDEST PUSH1 0x40 MLOAD PUSH3 0x461BCD PUSH1 0xE5 SHL DUP2 MSTORE PUSH1 0x20 PUSH1 0x4 DUP3 ADD MSTORE PUSH1 0x16 PUSH1 0x24 DUP3 ADD MSTORE PUSH22 0x4E6F2062616C616E636520746F207769746864726177 PUSH1 0x50 SHL PUSH1 0x44 DUP3 ADD MSTORE PUSH1 0x64 SWAP1 REVERT JUMPDEST SWAP1 SWAP3 POP PUSH1 0x20 DUP2 RETURNDATASIZE PUSH1 0x20 GT PUSH2 0x1F97 JUMPI JUMPDEST DUP2 PUSH2 0x1F87 PUSH1 0x20 SWAP4 DUP4 PUSH2 0x2B13 JUMP JUMPDEST DUP2 ADD SUB SLT PUSH2 0xBF3 JUMPI MLOAD SWAP2 PUSH0 PUSH2 0x1ECD JUMP JUMPDEST RETURNDATASIZE SWAP2 POP PUSH2 0x1F7A JUMP JUMPDEST PUSH1 0x40 MLOAD RETURNDATASIZE DUP8 DUP3 RETURNDATACOPY RETURNDATASIZE SWAP1 REVERT JUMPDEST PUSH1 0x40 MLOAD PUSH3 0x461BCD PUSH1 0xE5 SHL DUP2 MSTORE PUSH1 0x20 PUSH1 0x4 DUP3 ADD MSTORE PUSH1 0x26 PUSH1 0x24 DUP3 ADD MSTORE PUSH32 0x55736520726567756C617220776974686472617720666F72207072696D617279 PUSH1 0x44 DUP3 ADD MSTORE PUSH6 0x8185CDCD95D PUSH1 0xD2 SHL PUSH1 0x64 DUP3 ADD MSTORE PUSH1 0x84 SWAP1 REVERT JUMPDEST POP CALLVALUE PUSH2 0x2EF JUMPI DUP1 PUSH1 0x3 NOT CALLDATASIZE ADD SLT PUSH2 0x2EF JUMPI PUSH1 0x20 PUSH1 0x40 MLOAD PUSH0 MLOAD PUSH1 0x20 PUSH2 0x49EB PUSH0 CODECOPY PUSH0 MLOAD SWAP1 PUSH0 MSTORE DUP2 MSTORE RETURN JUMPDEST POP CALLVALUE PUSH2 0x2EF JUMPI DUP1 PUSH1 0x3 NOT CALLDATASIZE ADD SLT PUSH2 0x2EF JUMPI PUSH1 0x20 PUSH2 0x410 PUSH2 0x31BB JUMP JUMPDEST POP CALLVALUE PUSH2 0x2EF JUMPI DUP1 PUSH1 0x3 NOT CALLDATASIZE ADD SLT PUSH2 0x2EF JUMPI PUSH1 0x3 SLOAD PUSH1 0x40 MLOAD PUSH1 0x1 PUSH1 0x1 PUSH1 0xA0 SHL SUB SWAP1 SWAP2 AND DUP2 MSTORE PUSH1 0x20 SWAP1 RETURN JUMPDEST POP CALLVALUE PUSH2 0x2EF JUMPI PUSH1 0x20 CALLDATASIZE PUSH1 0x3 NOT ADD SLT PUSH2 0x2EF JUMPI PUSH2 0x2084 PUSH2 0x2892 JUMP JUMPDEST PUSH2 0x209C PUSH1 0x1 DUP1 PUSH1 0xA0 SHL SUB PUSH1 0x1 SLOAD PUSH1 0x8 SHR AND CALLER EQ PUSH2 0x2B55 JUMP JUMPDEST PUSH1 0x1 PUSH1 0x1 PUSH1 0xA0 SHL SUB DUP2 AND SWAP1 DUP2 ISZERO PUSH2 0x2173 JUMPI DUP2 DUP4 MSTORE PUSH1 0xC PUSH1 0x20 MSTORE PUSH1 0xFF PUSH1 0x40 DUP5 KECCAK256 SLOAD AND PUSH2 0x2136 JUMPI DUP2 DUP4 MSTORE PUSH1 0xC PUSH1 0x20 MSTORE PUSH1 0x40 DUP4 KECCAK256 DUP1 SLOAD PUSH1 0xFF NOT AND PUSH1 0x1 OR SWAP1 SSTORE PUSH1 0xD SLOAD PUSH1 0x1 PUSH1 0x40 SHL DUP2 LT ISZERO PUSH2 0x2122 JUMPI SWAP1 PUSH2 0xE44 DUP3 PUSH1 0x1 PUSH2 0x20FB SWAP5 ADD PUSH1 0xD SSTORE PUSH2 0x28BE JUMP JUMPDEST PUSH32 0x7B7EF7A864D96A85497A1ED846ADB39940DD6CCEF678FF6AC8D55505E09B8CC4 DUP3 DUP1 LOG2 DUP1 RETURN JUMPDEST PUSH4 0x4E487B71 PUSH1 0xE0 SHL DUP5 MSTORE PUSH1 0x41 PUSH1 0x4 MSTORE PUSH1 0x24 DUP5 REVERT JUMPDEST PUSH1 0x40 MLOAD PUSH3 0x461BCD PUSH1 0xE5 SHL DUP2 MSTORE PUSH1 0x20 PUSH1 0x4 DUP3 ADD MSTORE PUSH1 0x15 PUSH1 0x24 DUP3 ADD MSTORE PUSH21 0x15985D5B1D08185B1C9958591E48185B1B1BDDD959 PUSH1 0x5A SHL PUSH1 0x44 DUP3 ADD MSTORE PUSH1 0x64 SWAP1 REVERT JUMPDEST PUSH1 0x40 MLOAD PUSH3 0x461BCD PUSH1 0xE5 SHL DUP2 MSTORE PUSH1 0x20 PUSH1 0x4 DUP3 ADD MSTORE PUSH1 0x15 PUSH1 0x24 DUP3 ADD MSTORE PUSH21 0x496E76616C6964207661756C742061646472657373 PUSH1 0x58 SHL PUSH1 0x44 DUP3 ADD MSTORE PUSH1 0x64 SWAP1 REVERT JUMPDEST POP CALLVALUE PUSH2 0x2EF JUMPI DUP1 PUSH1 0x3 NOT CALLDATASIZE ADD SLT PUSH2 0x2EF JUMPI PUSH1 0x20 PUSH1 0xA SLOAD PUSH1 0x40 MLOAD SWAP1 DUP2 MSTORE RETURN JUMPDEST POP CALLVALUE PUSH2 0xBF3 JUMPI PUSH2 0x21DD CALLDATASIZE PUSH2 0x291A JUMP JUMPDEST SWAP1 SWAP3 PUSH32 0x0 SWAP2 SWAP1 PUSH2 0x2216 CALLER PUSH1 0x1 PUSH1 0x1 PUSH1 0xA0 SHL SUB DUP6 AND EQ PUSH2 0x2A0A JUMP JUMPDEST PUSH2 0x221E PUSH2 0x3927 JUMP JUMPDEST PUSH1 0x1 PUSH1 0x1 PUSH1 0xA0 SHL SUB AND SWAP4 PUSH2 0x2233 DUP6 ISZERO ISZERO PUSH2 0x2F54 JUMP JUMPDEST PUSH2 0x223E DUP5 ISZERO ISZERO PUSH2 0x2F98 JUMP JUMPDEST PUSH1 0x40 SWAP4 DUP5 MLOAD SWAP3 PUSH2 0x224E DUP7 DUP6 PUSH2 0x2B13 JUMP JUMPDEST PUSH1 0x1 DUP5 MSTORE PUSH2 0x22A4 PUSH1 0x1F NOT DUP8 ADD SWAP4 DUP5 CALLDATASIZE PUSH1 0x20 DUP9 ADD CALLDATACOPY DUP8 MLOAD SWAP3 PUSH2 0x226F DUP10 DUP6 PUSH2 0x2B13 JUMP JUMPDEST PUSH1 0x1 DUP5 MSTORE DUP6 CALLDATASIZE PUSH1 0x20 DUP7 ADD CALLDATACOPY DUP9 MLOAD SWAP6 PUSH2 0x2287 DUP11 DUP9 PUSH2 0x2B13 JUMP JUMPDEST PUSH1 0x1 DUP8 MSTORE CALLDATASIZE PUSH1 0x20 DUP9 ADD CALLDATACOPY PUSH2 0x2299 PUSH2 0x3020 JUMP JUMPDEST SWAP5 ADDRESS PUSH2 0x1C24 DUP10 PUSH2 0x305A JUMP JUMPDEST PUSH2 0x22AD DUP4 PUSH2 0x305A JUMP JUMPDEST MSTORE PUSH2 0x22B7 DUP3 PUSH2 0x305A JUMP JUMPDEST POP DUP6 MLOAD PUSH4 0x70A08231 PUSH1 0xE0 SHL DUP2 MSTORE ADDRESS PUSH1 0x4 DUP3 ADD MSTORE SWAP4 PUSH1 0x20 DUP6 PUSH1 0x24 DUP2 DUP12 GAS STATICCALL SWAP5 DUP6 ISZERO PUSH2 0x2431 JUMPI PUSH0 SWAP6 PUSH2 0x23FD JUMPI JUMPDEST POP PUSH0 MLOAD PUSH1 0x20 PUSH2 0x49EB PUSH0 CODECOPY PUSH0 MLOAD SWAP1 PUSH0 MSTORE EXTCODESIZE ISZERO PUSH2 0xBF3 JUMPI PUSH2 0x2316 PUSH0 SWAP4 DUP9 MLOAD SWAP6 DUP7 SWAP5 DUP6 SWAP5 PUSH4 0x1C7BA57 PUSH1 0xE6 SHL DUP7 MSTORE PUSH1 0x4 DUP7 ADD PUSH2 0x30D7 JUMP JUMPDEST SUB DUP2 DUP4 PUSH0 MLOAD PUSH1 0x20 PUSH2 0x49EB PUSH0 CODECOPY PUSH0 MLOAD SWAP1 PUSH0 MSTORE GAS CALL DUP1 ISZERO PUSH2 0x23F3 JUMPI PUSH2 0x23DE JUMPI JUMPDEST POP DUP3 MLOAD PUSH4 0x70A08231 PUSH1 0xE0 SHL DUP2 MSTORE ADDRESS PUSH1 0x4 DUP3 ADD MSTORE SWAP1 PUSH1 0x20 DUP3 PUSH1 0x24 DUP2 DUP9 GAS STATICCALL DUP1 ISZERO PUSH2 0x23D4 JUMPI DUP7 SWAP1 PUSH2 0x23A0 JUMPI JUMPDEST PUSH2 0x2368 SWAP3 POP PUSH2 0x2D52 JUMP JUMPDEST DUP1 PUSH2 0x2376 JUMPI JUMPDEST DUP5 PUSH1 0x1 DUP2 SSTORE DUP1 RETURN JUMPDEST PUSH0 MLOAD PUSH1 0x20 PUSH2 0x4A6B PUSH0 CODECOPY PUSH0 MLOAD SWAP1 PUSH0 MSTORE SWAP3 PUSH2 0x2392 DUP3 PUSH1 0x20 SWAP5 DUP8 PUSH2 0x42FF JUMP JUMPDEST MLOAD SWAP1 DUP2 MSTORE LOG2 PUSH0 DUP1 DUP1 DUP1 PUSH2 0x236E JUMP JUMPDEST POP PUSH1 0x20 DUP3 RETURNDATASIZE PUSH1 0x20 GT PUSH2 0x23CC JUMPI JUMPDEST DUP2 PUSH2 0x23BA PUSH1 0x20 SWAP4 DUP4 PUSH2 0x2B13 JUMP JUMPDEST DUP2 ADD SUB SLT PUSH2 0xBF3 JUMPI PUSH2 0x2368 SWAP2 MLOAD PUSH2 0x235E JUMP JUMPDEST RETURNDATASIZE SWAP2 POP PUSH2 0x23AD JUMP JUMPDEST DUP5 MLOAD RETURNDATASIZE DUP9 DUP3 RETURNDATACOPY RETURNDATASIZE SWAP1 REVERT JUMPDEST PUSH2 0x23EB SWAP2 SWAP6 POP PUSH0 SWAP1 PUSH2 0x2B13 JUMP JUMPDEST PUSH0 SWAP4 PUSH0 PUSH2 0x2334 JUMP JUMPDEST DUP5 MLOAD RETURNDATASIZE PUSH0 DUP3 RETURNDATACOPY RETURNDATASIZE SWAP1 REVERT JUMPDEST SWAP1 SWAP5 POP PUSH1 0x20 DUP2 RETURNDATASIZE PUSH1 0x20 GT PUSH2 0x2429 JUMPI JUMPDEST DUP2 PUSH2 0x2419 PUSH1 0x20 SWAP4 DUP4 PUSH2 0x2B13 JUMP JUMPDEST DUP2 ADD SUB SLT PUSH2 0xBF3 JUMPI MLOAD SWAP4 PUSH0 PUSH2 0x22E2 JUMP JUMPDEST RETURNDATASIZE SWAP2 POP PUSH2 0x240C JUMP JUMPDEST DUP8 MLOAD RETURNDATASIZE PUSH0 DUP3 RETURNDATACOPY RETURNDATASIZE SWAP1 REVERT JUMPDEST CALLVALUE PUSH2 0xBF3 JUMPI PUSH0 CALLDATASIZE PUSH1 0x3 NOT ADD SLT PUSH2 0xBF3 JUMPI PUSH1 0x20 PUSH2 0x410 PUSH2 0x2F39 JUMP JUMPDEST CALLVALUE PUSH2 0xBF3 JUMPI PUSH1 0x20 CALLDATASIZE PUSH1 0x3 NOT ADD SLT PUSH2 0xBF3 JUMPI PUSH1 0x4 CALLDATALOAD PUSH1 0xD SLOAD DUP2 LT ISZERO PUSH2 0xBF3 JUMPI PUSH2 0x247E PUSH1 0x20 SWAP2 PUSH2 0x28BE JUMP JUMPDEST SWAP1 SLOAD PUSH1 0x40 MLOAD PUSH1 0x3 SWAP3 SWAP1 SWAP3 SHL SHR PUSH1 0x1 PUSH1 0x1 PUSH1 0xA0 SHL SUB AND DUP2 MSTORE RETURN JUMPDEST CALLVALUE PUSH2 0xBF3 JUMPI PUSH0 CALLDATASIZE PUSH1 0x3 NOT ADD SLT PUSH2 0xBF3 JUMPI PUSH1 0x20 PUSH1 0x40 MLOAD PUSH0 MLOAD PUSH1 0x20 PUSH2 0x4A0B PUSH0 CODECOPY PUSH0 MLOAD SWAP1 PUSH0 MSTORE DUP2 MSTORE RETURN JUMPDEST CALLVALUE PUSH2 0xBF3 JUMPI PUSH0 CALLDATASIZE PUSH1 0x3 NOT ADD SLT PUSH2 0xBF3 JUMPI PUSH1 0x20 PUSH2 0x410 PUSH2 0x2E37 JUMP JUMPDEST CALLVALUE PUSH2 0xBF3 JUMPI PUSH0 CALLDATASIZE PUSH1 0x3 NOT ADD SLT PUSH2 0xBF3 JUMPI PUSH1 0x20 PUSH2 0x410 PUSH2 0x2DA0 JUMP JUMPDEST CALLVALUE PUSH2 0xBF3 JUMPI PUSH1 0x20 CALLDATASIZE PUSH1 0x3 NOT ADD SLT PUSH2 0xBF3 JUMPI PUSH2 0x251B PUSH1 0x1 DUP1 PUSH1 0xA0 SHL SUB PUSH1 0x1 SLOAD PUSH1 0x8 SHR AND CALLER EQ PUSH2 0x2B55 JUMP JUMPDEST PUSH2 0x2523 PUSH2 0x3927 JUMP JUMPDEST PUSH2 0x252B PUSH2 0x3945 JUMP JUMPDEST PUSH2 0x2536 PUSH1 0x4 CALLDATALOAD PUSH2 0x2BF6 JUMP JUMPDEST PUSH1 0x1 PUSH0 SSTORE STOP JUMPDEST CALLVALUE PUSH2 0xBF3 JUMPI PUSH0 CALLDATASIZE PUSH1 0x3 NOT ADD SLT PUSH2 0xBF3 JUMPI PUSH1 0x20 PUSH1 0x40 MLOAD PUSH0 MLOAD PUSH1 0x20 PUSH2 0x4A2B PUSH0 CODECOPY PUSH0 MLOAD SWAP1 PUSH0 MSTORE DUP2 MSTORE RETURN JUMPDEST CALLVALUE PUSH2 0xBF3 JUMPI PUSH1 0x40 CALLDATASIZE PUSH1 0x3 NOT ADD SLT PUSH2 0xBF3 JUMPI PUSH2 0x257C PUSH2 0x2892 JUMP JUMPDEST PUSH1 0x24 CALLDATALOAD PUSH2 0x25B3 CALLER PUSH32 0x0 PUSH1 0x1 PUSH1 0x1 PUSH1 0xA0 SHL SUB AND EQ PUSH2 0x2A0A JUMP JUMPDEST PUSH1 0x1 DUP1 PUSH1 0xA0 SHL SUB DUP3 AND SWAP2 DUP3 PUSH0 MSTORE PUSH1 0xC PUSH1 0x20 MSTORE PUSH2 0x25D5 PUSH1 0xFF PUSH1 0x40 PUSH0 KECCAK256 SLOAD AND PUSH2 0x2A43 JUMP JUMPDEST PUSH2 0x25DD PUSH2 0x3927 JUMP JUMPDEST PUSH2 0x25E5 PUSH2 0x3945 JUMP JUMPDEST PUSH1 0xFF PUSH1 0x3 SLOAD PUSH1 0xA0 SHR AND PUSH2 0x2819 JUMPI PUSH1 0xFF PUSH1 0xB SLOAD AND PUSH2 0x27CA JUMPI PUSH2 0x2607 DUP3 ISZERO ISZERO PUSH2 0x2A83 JUMP JUMPDEST PUSH1 0xA SLOAD DUP1 ISZERO PUSH2 0x2785 JUMPI DUP3 LT PUSH2 0x271A JUMPI PUSH2 0x261E PUSH2 0x324C JUMP JUMPDEST PUSH1 0x2 SLOAD PUSH2 0x2639 SWAP1 DUP4 SWAP1 ADDRESS SWAP1 CALLER SWAP1 PUSH1 0x1 PUSH1 0x1 PUSH1 0xA0 SHL SUB AND PUSH2 0x3960 JUMP JUMPDEST PUSH1 0x40 MLOAD PUSH4 0x38D52E0F PUSH1 0xE0 SHL DUP2 MSTORE SWAP1 PUSH1 0x20 DUP3 PUSH1 0x4 DUP2 DUP8 GAS STATICCALL SWAP3 DUP4 ISZERO PUSH2 0x270F JUMPI PUSH0 MLOAD PUSH1 0x20 PUSH2 0x49AB PUSH0 CODECOPY PUSH0 MLOAD SWAP1 PUSH0 MSTORE SWAP4 PUSH1 0x20 SWAP4 PUSH0 SWAP2 PUSH2 0x26F2 JUMPI JUMPDEST POP PUSH1 0x2 SLOAD SWAP2 SWAP3 DUP4 SWAP3 PUSH1 0x1 PUSH1 0x1 PUSH1 0xA0 SHL SUB SWAP1 DUP2 AND SWAP1 DUP4 AND DUP2 SWAP1 SUB PUSH2 0x26D8 JUMPI JUMPDEST POP SWAP1 DUP4 PUSH2 0x269A SWAP3 PUSH2 0x3FD2 JUMP JUMPDEST PUSH1 0x3 DUP1 SLOAD PUSH1 0x4 SWAP3 SWAP1 SWAP3 SSTORE PUSH1 0x1 PUSH1 0x1 PUSH1 0xA8 SHL SUB NOT SWAP1 SWAP2 AND DUP6 OR PUSH1 0x1 PUSH1 0xA0 SHL OR SWAP1 SSTORE PUSH1 0xB DUP1 SLOAD PUSH1 0xFF NOT AND PUSH1 0x1 OR SWAP1 SSTORE TIMESTAMP PUSH1 0x5 SSTORE PUSH1 0x40 MLOAD SWAP1 DUP2 MSTORE LOG2 PUSH1 0x1 PUSH0 SSTORE STOP JUMPDEST DUP3 SWAP2 SWAP5 POP DUP4 PUSH2 0x269A SWAP4 PUSH2 0x26EA SWAP3 PUSH2 0x3B13 JUMP JUMPDEST SWAP4 SWAP1 SWAP2 PUSH2 0x268E JUMP JUMPDEST PUSH2 0x2709 SWAP2 POP DUP5 RETURNDATASIZE DUP7 GT PUSH2 0x6C7 JUMPI PUSH2 0x6B9 DUP2 DUP4 PUSH2 0x2B13 JUMP JUMPDEST DUP7 PUSH2 0x2670 JUMP JUMPDEST PUSH1 0x40 MLOAD RETURNDATASIZE PUSH0 DUP3 RETURNDATACOPY RETURNDATASIZE SWAP1 REVERT JUMPDEST PUSH1 0x40 MLOAD PUSH3 0x461BCD PUSH1 0xE5 SHL DUP2 MSTORE PUSH1 0x20 PUSH1 0x4 DUP3 ADD MSTORE PUSH1 0x3E PUSH1 0x24 DUP3 ADD MSTORE PUSH32 0x416D6F756E74206D7573742062652067726561746572207468616E206F722065 PUSH1 0x44 DUP3 ADD MSTORE PUSH32 0x7175616C20746F20696E697469616C206465706F73697420616D6F756E740000 PUSH1 0x64 DUP3 ADD MSTORE PUSH1 0x84 SWAP1 REVERT JUMPDEST PUSH1 0x40 MLOAD PUSH3 0x461BCD PUSH1 0xE5 SHL DUP2 MSTORE PUSH1 0x20 PUSH1 0x4 DUP3 ADD MSTORE PUSH1 0x1D PUSH1 0x24 DUP3 ADD MSTORE PUSH32 0x4E6F20696E697469616C206465706F73697420616D6F756E7420736574000000 PUSH1 0x44 DUP3 ADD MSTORE PUSH1 0x64 SWAP1 REVERT JUMPDEST PUSH1 0x40 MLOAD PUSH3 0x461BCD PUSH1 0xE5 SHL DUP2 MSTORE PUSH1 0x20 PUSH1 0x4 DUP3 ADD MSTORE PUSH1 0x21 PUSH1 0x24 DUP3 ADD MSTORE PUSH32 0x496E697469616C206465706F73697420616C726561647920636F6D706C657465 PUSH1 0x44 DUP3 ADD MSTORE PUSH1 0x19 PUSH1 0xFA SHL PUSH1 0x64 DUP3 ADD MSTORE PUSH1 0x84 SWAP1 REVERT JUMPDEST PUSH1 0x40 MLOAD PUSH3 0x461BCD PUSH1 0xE5 SHL DUP2 MSTORE PUSH1 0x20 PUSH1 0x4 DUP3 ADD MSTORE PUSH1 0x1C PUSH1 0x24 DUP3 ADD MSTORE PUSH28 0x496E697469616C206465706F73697420616C7265616479206D616465 PUSH1 0x20 SHL PUSH1 0x44 DUP3 ADD MSTORE PUSH1 0x64 SWAP1 REVERT JUMPDEST CALLVALUE PUSH2 0xBF3 JUMPI PUSH0 CALLDATASIZE PUSH1 0x3 NOT ADD SLT PUSH2 0xBF3 JUMPI PUSH1 0x6 SLOAD PUSH1 0x7 SLOAD PUSH1 0x8 SLOAD PUSH1 0x1 PUSH1 0x1 PUSH1 0xA0 SHL SUB SWAP1 SWAP3 AND DUP4 MSTORE PUSH1 0x20 DUP4 ADD MSTORE PUSH1 0x40 DUP3 ADD MSTORE PUSH1 0x60 SWAP1 RETURN JUMPDEST PUSH1 0x4 CALLDATALOAD SWAP1 PUSH1 0x1 PUSH1 0x1 PUSH1 0xA0 SHL SUB DUP3 AND DUP3 SUB PUSH2 0xBF3 JUMPI JUMP JUMPDEST PUSH1 0x24 CALLDATALOAD SWAP1 PUSH1 0x1 PUSH1 0x1 PUSH1 0xA0 SHL SUB DUP3 AND DUP3 SUB PUSH2 0xBF3 JUMPI JUMP JUMPDEST PUSH1 0xD SLOAD DUP2 LT ISZERO PUSH2 0x28D6 JUMPI PUSH1 0xD PUSH0 MSTORE PUSH1 0x20 PUSH0 KECCAK256 ADD SWAP1 PUSH0 SWAP1 JUMP JUMPDEST PUSH4 0x4E487B71 PUSH1 0xE0 SHL PUSH0 MSTORE PUSH1 0x32 PUSH1 0x4 MSTORE PUSH1 0x24 PUSH0 REVERT JUMPDEST SWAP2 DUP2 PUSH1 0x1F DUP5 ADD SLT ISZERO PUSH2 0xBF3 JUMPI DUP3 CALLDATALOAD SWAP2 PUSH1 0x1 PUSH1 0x1 PUSH1 0x40 SHL SUB DUP4 GT PUSH2 0xBF3 JUMPI PUSH1 0x20 DUP1 DUP6 ADD SWAP5 DUP5 PUSH1 0x5 SHL ADD ADD GT PUSH2 0xBF3 JUMPI JUMP JUMPDEST PUSH1 0x60 PUSH1 0x3 NOT DUP3 ADD SLT PUSH2 0xBF3 JUMPI PUSH1 0x4 CALLDATALOAD PUSH1 0x1 PUSH1 0x1 PUSH1 0xA0 SHL SUB DUP2 AND DUP2 SUB PUSH2 0xBF3 JUMPI SWAP2 PUSH1 0x24 CALLDATALOAD SWAP2 PUSH1 0x44 CALLDATALOAD SWAP1 PUSH1 0x1 PUSH1 0x1 PUSH1 0x40 SHL SUB DUP3 GT PUSH2 0xBF3 JUMPI PUSH2 0x295C SWAP2 PUSH1 0x4 ADD PUSH2 0x28EA JUMP JUMPDEST SWAP1 SWAP2 JUMP JUMPDEST PUSH1 0x60 PUSH1 0x3 NOT DUP3 ADD SLT PUSH2 0xBF3 JUMPI PUSH1 0x4 CALLDATALOAD PUSH1 0x1 PUSH1 0x1 PUSH1 0x40 SHL SUB DUP2 GT PUSH2 0xBF3 JUMPI DUP2 PUSH2 0x298A SWAP2 PUSH1 0x4 ADD PUSH2 0x28EA JUMP JUMPDEST SWAP1 SWAP3 SWAP1 SWAP2 PUSH1 0x24 CALLDATALOAD PUSH1 0x1 PUSH1 0x1 PUSH1 0x40 SHL SUB DUP2 GT PUSH2 0xBF3 JUMPI DUP2 PUSH2 0x29AC SWAP2 PUSH1 0x4 ADD PUSH2 0x28EA JUMP JUMPDEST SWAP1 SWAP3 SWAP1 SWAP2 PUSH1 0x44 CALLDATALOAD SWAP1 PUSH1 0x1 PUSH1 0x1 PUSH1 0x40 SHL SUB DUP3 GT PUSH2 0xBF3 JUMPI PUSH2 0x295C SWAP2 PUSH1 0x4 ADD PUSH2 0x28EA JUMP JUMPDEST SWAP1 PUSH1 0x20 DUP1 DUP4 MLOAD SWAP3 DUP4 DUP2 MSTORE ADD SWAP3 ADD SWAP1 PUSH0 JUMPDEST DUP2 DUP2 LT PUSH2 0x29EB JUMPI POP POP POP SWAP1 JUMP JUMPDEST DUP3 MLOAD PUSH1 0x1 PUSH1 0x1 PUSH1 0xA0 SHL SUB AND DUP5 MSTORE PUSH1 0x20 SWAP4 DUP5 ADD SWAP4 SWAP1 SWAP3 ADD SWAP2 PUSH1 0x1 ADD PUSH2 0x29DE JUMP JUMPDEST ISZERO PUSH2 0x2A11 JUMPI JUMP JUMPDEST PUSH1 0x40 MLOAD PUSH3 0x461BCD PUSH1 0xE5 SHL DUP2 MSTORE PUSH1 0x20 PUSH1 0x4 DUP3 ADD MSTORE PUSH1 0xA PUSH1 0x24 DUP3 ADD MSTORE PUSH10 0x27B7363C9037BBB732B9 PUSH1 0xB1 SHL PUSH1 0x44 DUP3 ADD MSTORE PUSH1 0x64 SWAP1 REVERT JUMPDEST ISZERO PUSH2 0x2A4A JUMPI JUMP JUMPDEST PUSH1 0x40 MLOAD PUSH3 0x461BCD PUSH1 0xE5 SHL DUP2 MSTORE PUSH1 0x20 PUSH1 0x4 DUP3 ADD MSTORE PUSH1 0x11 PUSH1 0x24 DUP3 ADD MSTORE PUSH17 0x15985D5B1D081B9BDD08185B1B1BDDD959 PUSH1 0x7A SHL PUSH1 0x44 DUP3 ADD MSTORE PUSH1 0x64 SWAP1 REVERT JUMPDEST ISZERO PUSH2 0x2A8A JUMPI JUMP JUMPDEST PUSH1 0x40 MLOAD PUSH3 0x461BCD PUSH1 0xE5 SHL DUP2 MSTORE PUSH1 0x20 PUSH1 0x4 DUP3 ADD MSTORE PUSH1 0x17 PUSH1 0x24 DUP3 ADD MSTORE PUSH23 0x416D6F756E74206D75737420626520706F736974697665 PUSH1 0x48 SHL PUSH1 0x44 DUP3 ADD MSTORE PUSH1 0x64 SWAP1 REVERT JUMPDEST PUSH1 0x80 DUP2 ADD SWAP1 DUP2 LT PUSH1 0x1 PUSH1 0x1 PUSH1 0x40 SHL SUB DUP3 GT OR PUSH2 0x2AE4 JUMPI PUSH1 0x40 MSTORE JUMP JUMPDEST PUSH4 0x4E487B71 PUSH1 0xE0 SHL PUSH0 MSTORE PUSH1 0x41 PUSH1 0x4 MSTORE PUSH1 0x24 PUSH0 REVERT JUMPDEST PUSH1 0xA0 DUP2 ADD SWAP1 DUP2 LT PUSH1 0x1 PUSH1 0x1 PUSH1 0x40 SHL SUB DUP3 GT OR PUSH2 0x2AE4 JUMPI PUSH1 0x40 MSTORE JUMP JUMPDEST PUSH1 0x1F SWAP1 SWAP2 ADD PUSH1 0x1F NOT AND DUP2 ADD SWAP1 PUSH1 0x1 PUSH1 0x1 PUSH1 0x40 SHL SUB DUP3 GT SWAP1 DUP3 LT OR PUSH2 0x2AE4 JUMPI PUSH1 0x40 MSTORE JUMP JUMPDEST SWAP1 DUP2 PUSH1 0x20 SWAP2 SUB SLT PUSH2 0xBF3 JUMPI MLOAD PUSH1 0x1 PUSH1 0x1 PUSH1 0xA0 SHL SUB DUP2 AND DUP2 SUB PUSH2 0xBF3 JUMPI SWAP1 JUMP JUMPDEST ISZERO PUSH2 0x2B5C JUMPI JUMP JUMPDEST PUSH1 0x40 MLOAD PUSH3 0x461BCD PUSH1 0xE5 SHL DUP2 MSTORE PUSH1 0x20 PUSH1 0x4 DUP3 ADD MSTORE PUSH1 0xA PUSH1 0x24 DUP3 ADD MSTORE PUSH10 0x27B7363C9030B236B4B7 PUSH1 0xB1 SHL PUSH1 0x44 DUP3 ADD MSTORE PUSH1 0x64 SWAP1 REVERT JUMPDEST ISZERO PUSH2 0x2B95 JUMPI JUMP JUMPDEST PUSH1 0x40 MLOAD PUSH3 0x461BCD PUSH1 0xE5 SHL DUP2 MSTORE PUSH1 0x20 PUSH1 0x4 DUP3 ADD MSTORE PUSH1 0x18 PUSH1 0x24 DUP3 ADD MSTORE PUSH24 0x496E697469616C206465706F736974206E6F74206D616465 PUSH1 0x40 SHL PUSH1 0x44 DUP3 ADD MSTORE PUSH1 0x64 SWAP1 REVERT JUMPDEST SWAP2 SWAP1 DUP3 ADD DUP1 SWAP3 GT PUSH2 0x2BE2 JUMPI JUMP JUMPDEST PUSH4 0x4E487B71 PUSH1 0xE0 SHL PUSH0 MSTORE PUSH1 0x11 PUSH1 0x4 MSTORE PUSH1 0x24 PUSH0 REVERT JUMPDEST PUSH1 0x3 SLOAD PUSH2 0x2C08 PUSH1 0xFF DUP3 PUSH1 0xA0 SHR AND PUSH2 0x2B8E JUMP JUMPDEST PUSH2 0x2C13 DUP3 ISZERO ISZERO PUSH2 0x2A83 JUMP JUMPDEST PUSH1 0x1 PUSH1 0x1 PUSH1 0xA0 SHL SUB AND ISZERO PUSH2 0x2D1A JUMPI PUSH1 0x2 SLOAD PUSH1 0x4 SWAP2 SWAP1 PUSH2 0x2C40 SWAP1 DUP3 SWAP1 ADDRESS SWAP1 CALLER SWAP1 PUSH1 0x1 PUSH1 0x1 PUSH1 0xA0 SHL SUB AND PUSH2 0x3960 JUMP JUMPDEST PUSH1 0x3 SLOAD PUSH1 0x40 MLOAD PUSH4 0x38D52E0F PUSH1 0xE0 SHL DUP2 MSTORE SWAP3 PUSH1 0x20 SWAP2 DUP5 SWAP2 SWAP1 DUP3 SWAP1 PUSH1 0x1 PUSH1 0x1 PUSH1 0xA0 SHL SUB AND GAS STATICCALL SWAP2 DUP3 ISZERO PUSH2 0x270F JUMPI PUSH0 SWAP3 PUSH2 0x2CF9 JUMPI JUMPDEST POP PUSH1 0x2 SLOAD DUP2 SWAP1 PUSH1 0x1 PUSH1 0x1 PUSH1 0xA0 SHL SUB SWAP1 DUP2 AND SWAP1 DUP5 AND DUP2 SWAP1 SUB PUSH2 0x2CDF JUMPI JUMPDEST POP PUSH2 0x2CA8 DUP3 SWAP4 PUSH2 0x2CB0 SWAP4 PUSH1 0x1 DUP1 PUSH1 0xA0 SHL SUB PUSH1 0x3 SLOAD AND PUSH2 0x3FD2 JUMP JUMPDEST PUSH1 0x4 SLOAD PUSH2 0x2BD5 JUMP JUMPDEST PUSH1 0x4 SSTORE TIMESTAMP PUSH1 0x5 SSTORE PUSH1 0x3 SLOAD PUSH1 0x40 MLOAD SWAP2 DUP3 MSTORE PUSH1 0x1 PUSH1 0x1 PUSH1 0xA0 SHL SUB AND SWAP1 PUSH0 MLOAD PUSH1 0x20 PUSH2 0x49AB PUSH0 CODECOPY PUSH0 MLOAD SWAP1 PUSH0 MSTORE SWAP1 PUSH1 0x20 SWAP1 LOG2 JUMP JUMPDEST PUSH2 0x2CB0 SWAP3 POP PUSH2 0x2CF2 DUP3 DUP6 PUSH2 0x2CA8 SWAP4 PUSH2 0x3B13 JUMP JUMPDEST SWAP3 POP PUSH2 0x2C8E JUMP JUMPDEST PUSH2 0x2D13 SWAP2 SWAP3 POP PUSH1 0x20 RETURNDATASIZE PUSH1 0x20 GT PUSH2 0x6C7 JUMPI PUSH2 0x6B9 DUP2 DUP4 PUSH2 0x2B13 JUMP JUMPDEST SWAP1 PUSH0 PUSH2 0x2C72 JUMP JUMPDEST PUSH1 0x40 MLOAD PUSH3 0x461BCD PUSH1 0xE5 SHL DUP2 MSTORE PUSH1 0x20 PUSH1 0x4 DUP3 ADD MSTORE PUSH1 0x10 PUSH1 0x24 DUP3 ADD MSTORE PUSH16 0x139BC818DD5C9C995B9D081D985D5B1D PUSH1 0x82 SHL PUSH1 0x44 DUP3 ADD MSTORE PUSH1 0x64 SWAP1 REVERT JUMPDEST SWAP2 SWAP1 DUP3 SUB SWAP2 DUP3 GT PUSH2 0x2BE2 JUMPI JUMP JUMPDEST DUP2 DUP2 MUL SWAP3 SWAP2 DUP2 ISZERO SWAP2 DUP5 DIV EQ OR ISZERO PUSH2 0x2BE2 JUMPI JUMP JUMPDEST DUP2 ISZERO PUSH2 0x2D7C JUMPI DIV SWAP1 JUMP JUMPDEST PUSH4 0x4E487B71 PUSH1 0xE0 SHL PUSH0 MSTORE PUSH1 0x12 PUSH1 0x4 MSTORE PUSH1 0x24 PUSH0 REVERT JUMPDEST PUSH1 0x1 PUSH1 0xFF SHL DUP2 EQ PUSH2 0x2BE2 JUMPI PUSH0 SUB SWAP1 JUMP JUMPDEST PUSH1 0xFF PUSH1 0x3 SLOAD PUSH1 0xA0 SHR AND ISZERO DUP1 ISZERO PUSH2 0x2E2D JUMPI JUMPDEST PUSH2 0x2E29 JUMPI PUSH2 0x2DBD PUSH2 0x2E37 JUMP JUMPDEST PUSH1 0x4 SLOAD SWAP1 DUP2 DUP1 DUP3 LT PUSH2 0x2DF6 JUMPI PUSH2 0x2DD2 SWAP2 PUSH2 0x2D52 JUMP JUMPDEST SWAP1 PUSH3 0xF4240 DUP3 MUL SWAP2 DUP1 DUP4 DIV PUSH3 0xF4240 EQ SWAP1 ISZERO OR ISZERO PUSH2 0x2BE2 JUMPI PUSH2 0x2DF3 SWAP2 PUSH2 0x2D72 JUMP JUMPDEST SWAP1 JUMP JUMPDEST SWAP1 PUSH2 0x2E00 SWAP2 PUSH2 0x2D52 JUMP JUMPDEST PUSH3 0xF4240 DUP2 MUL SWAP1 DUP1 DUP3 DIV PUSH3 0xF4240 EQ SWAP1 ISZERO OR ISZERO PUSH2 0x2BE2 JUMPI PUSH2 0x2DF3 SWAP2 PUSH2 0x2E24 SWAP2 PUSH2 0x2D72 JUMP JUMPDEST PUSH2 0x2D90 JUMP JUMPDEST PUSH0 SWAP1 JUMP JUMPDEST POP PUSH1 0x4 SLOAD ISZERO PUSH2 0x2DB1 JUMP JUMPDEST PUSH1 0x3 SLOAD PUSH1 0x1 PUSH1 0x1 PUSH1 0xA0 SHL SUB DUP2 AND SWAP1 DUP2 ISZERO SWAP1 DUP2 ISZERO PUSH2 0x2F2A JUMPI JUMPDEST POP PUSH2 0x2F25 JUMPI PUSH1 0x40 MLOAD PUSH4 0x2F5CE345 PUSH1 0xE0 SHL DUP2 MSTORE PUSH1 0x20 DUP2 PUSH1 0x4 DUP2 ADDRESS GAS STATICCALL SWAP1 DUP2 ISZERO PUSH2 0x270F JUMPI PUSH0 SWAP2 PUSH2 0x2EF3 JUMPI JUMPDEST POP DUP1 ISZERO PUSH2 0x2EED JUMPI PUSH1 0x20 PUSH1 0x4 SWAP3 PUSH1 0x40 MLOAD SWAP4 DUP5 DUP1 SWAP3 PUSH4 0x38D52E0F PUSH1 0xE0 SHL DUP3 MSTORE GAS STATICCALL SWAP2 DUP3 ISZERO PUSH2 0x270F JUMPI PUSH0 SWAP3 PUSH2 0x2ECC JUMPI JUMPDEST POP PUSH1 0x2 SLOAD PUSH1 0x1 PUSH1 0x1 PUSH1 0xA0 SHL SUB SWAP1 DUP2 AND SWAP1 DUP4 AND DUP2 EQ PUSH2 0x2EC6 JUMPI PUSH2 0x2DF3 SWAP3 PUSH2 0x41C0 JUMP JUMPDEST POP SWAP1 POP SWAP1 JUMP JUMPDEST PUSH2 0x2EE6 SWAP2 SWAP3 POP PUSH1 0x20 RETURNDATASIZE PUSH1 0x20 GT PUSH2 0x6C7 JUMPI PUSH2 0x6B9 DUP2 DUP4 PUSH2 0x2B13 JUMP JUMPDEST SWAP1 PUSH0 PUSH2 0x2EA5 JUMP JUMPDEST POP POP PUSH0 SWAP1 JUMP JUMPDEST SWAP1 POP PUSH1 0x20 DUP2 RETURNDATASIZE PUSH1 0x20 GT PUSH2 0x2F1D JUMPI JUMPDEST DUP2 PUSH2 0x2F0E PUSH1 0x20 SWAP4 DUP4 PUSH2 0x2B13 JUMP JUMPDEST DUP2 ADD SUB SLT PUSH2 0xBF3 JUMPI MLOAD PUSH0 PUSH2 0x2E78 JUMP JUMPDEST RETURNDATASIZE SWAP2 POP PUSH2 0x2F01 JUMP JUMPDEST POP PUSH0 SWAP1 JUMP JUMPDEST PUSH1 0xFF SWAP2 POP PUSH1 0xA0 SHR AND ISZERO PUSH0 PUSH2 0x2E4F JUMP JUMPDEST PUSH1 0x3 SLOAD PUSH1 0x1 PUSH1 0x1 PUSH1 0xA0 SHL SUB AND DUP1 ISZERO PUSH2 0x2F25 JUMPI PUSH2 0x2DF3 SWAP1 PUSH2 0x3319 JUMP JUMPDEST ISZERO PUSH2 0x2F5B JUMPI JUMP JUMPDEST PUSH1 0x40 MLOAD PUSH3 0x461BCD PUSH1 0xE5 SHL DUP2 MSTORE PUSH1 0x20 PUSH1 0x4 DUP3 ADD MSTORE PUSH1 0x15 PUSH1 0x24 DUP3 ADD MSTORE PUSH21 0x496E76616C696420746F6B656E2061646472657373 PUSH1 0x58 SHL PUSH1 0x44 DUP3 ADD MSTORE PUSH1 0x64 SWAP1 REVERT JUMPDEST ISZERO PUSH2 0x2F9F JUMPI JUMP JUMPDEST PUSH1 0x40 MLOAD PUSH3 0x461BCD PUSH1 0xE5 SHL DUP2 MSTORE PUSH1 0x20 PUSH1 0x4 DUP3 ADD MSTORE PUSH1 0x10 PUSH1 0x24 DUP3 ADD MSTORE PUSH16 0x4E6F7468696E6720746F20636C61696D PUSH1 0x80 SHL PUSH1 0x44 DUP3 ADD MSTORE PUSH1 0x64 SWAP1 REVERT JUMPDEST PUSH1 0x1 PUSH1 0x1 PUSH1 0x40 SHL SUB DUP2 GT PUSH2 0x2AE4 JUMPI PUSH1 0x5 SHL PUSH1 0x20 ADD SWAP1 JUMP JUMPDEST SWAP1 PUSH2 0x2FF8 DUP3 PUSH2 0x2FD7 JUMP JUMPDEST PUSH2 0x3005 PUSH1 0x40 MLOAD SWAP2 DUP3 PUSH2 0x2B13 JUMP JUMPDEST DUP3 DUP2 MSTORE DUP1 SWAP3 PUSH2 0x3016 PUSH1 0x1F NOT SWAP2 PUSH2 0x2FD7 JUMP JUMPDEST ADD SWAP1 PUSH1 0x20 CALLDATASIZE SWAP2 ADD CALLDATACOPY JUMP JUMPDEST PUSH1 0x40 DUP1 MLOAD SWAP1 SWAP2 SWAP1 PUSH2 0x3031 DUP4 DUP3 PUSH2 0x2B13 JUMP JUMPDEST PUSH1 0x1 DUP2 MSTORE SWAP2 PUSH1 0x1F NOT ADD DUP3 PUSH0 JUMPDEST DUP3 DUP2 LT PUSH2 0x3049 JUMPI POP POP POP JUMP JUMPDEST DUP1 PUSH1 0x60 PUSH1 0x20 DUP1 SWAP4 DUP6 ADD ADD MSTORE ADD PUSH2 0x303D JUMP JUMPDEST DUP1 MLOAD ISZERO PUSH2 0x28D6 JUMPI PUSH1 0x20 ADD SWAP1 JUMP JUMPDEST DUP1 MLOAD PUSH1 0x1 LT ISZERO PUSH2 0x28D6 JUMPI PUSH1 0x40 ADD SWAP1 JUMP JUMPDEST DUP1 MLOAD DUP3 LT ISZERO PUSH2 0x28D6 JUMPI PUSH1 0x20 SWAP2 PUSH1 0x5 SHL ADD ADD SWAP1 JUMP JUMPDEST SWAP3 SWAP2 SWAP1 PUSH2 0x3097 DUP2 PUSH2 0x2FD7 JUMP JUMPDEST SWAP4 PUSH2 0x30A5 PUSH1 0x40 MLOAD SWAP6 DUP7 PUSH2 0x2B13 JUMP JUMPDEST PUSH1 0x20 DUP6 DUP4 DUP2 MSTORE ADD SWAP2 PUSH1 0x5 SHL DUP2 ADD SWAP3 DUP4 GT PUSH2 0xBF3 JUMPI SWAP1 JUMPDEST DUP3 DUP3 LT PUSH2 0x30C7 JUMPI POP POP POP JUMP JUMPDEST DUP2 CALLDATALOAD DUP2 MSTORE PUSH1 0x20 SWAP2 DUP3 ADD SWAP2 ADD PUSH2 0x30BB JUMP JUMPDEST SWAP2 PUSH2 0x30ED PUSH2 0x30FB SWAP3 PUSH1 0x80 DUP6 MSTORE PUSH1 0x80 DUP6 ADD SWAP1 PUSH2 0x29CE JUMP JUMPDEST SWAP1 DUP4 DUP3 SUB PUSH1 0x20 DUP6 ADD MSTORE PUSH2 0x29CE JUMP JUMPDEST DUP2 DUP2 SUB PUSH1 0x40 DUP4 ADD MSTORE PUSH1 0x20 DUP1 DUP5 MLOAD SWAP3 DUP4 DUP2 MSTORE ADD SWAP4 ADD SWAP1 PUSH0 JUMPDEST DUP2 DUP2 LT PUSH2 0x31A5 JUMPI POP POP POP PUSH1 0x60 DUP2 DUP4 SUB SWAP2 ADD MSTORE DUP2 MLOAD DUP1 DUP3 MSTORE PUSH1 0x20 DUP3 ADD SWAP2 PUSH1 0x20 DUP1 DUP4 PUSH1 0x5 SHL DUP4 ADD ADD SWAP5 ADD SWAP3 PUSH0 SWAP2 JUMPDEST DUP4 DUP4 LT PUSH2 0x314D JUMPI POP POP POP POP POP SWAP1 JUMP JUMPDEST SWAP1 SWAP2 SWAP3 SWAP4 SWAP5 PUSH1 0x1F NOT DUP3 DUP3 SUB ADD DUP4 MSTORE DUP6 MLOAD SWAP1 PUSH1 0x20 DUP1 DUP4 MLOAD SWAP3 DUP4 DUP2 MSTORE ADD SWAP3 ADD SWAP1 PUSH0 SWAP1 JUMPDEST DUP1 DUP3 LT PUSH2 0x318D JUMPI POP POP POP PUSH1 0x20 DUP1 PUSH1 0x1 SWAP3 SWAP8 ADD SWAP4 ADD SWAP4 ADD SWAP2 SWAP4 SWAP3 SWAP1 PUSH2 0x313E JUMP JUMPDEST SWAP1 SWAP2 SWAP3 PUSH1 0x20 DUP1 PUSH1 0x1 SWAP3 DUP7 MLOAD DUP2 MSTORE ADD SWAP5 ADD SWAP3 ADD SWAP1 PUSH2 0x316E JUMP JUMPDEST DUP3 MLOAD DUP6 MSTORE PUSH1 0x20 SWAP5 DUP6 ADD SWAP5 SWAP1 SWAP3 ADD SWAP2 PUSH1 0x1 ADD PUSH2 0x3112 JUMP JUMPDEST PUSH1 0x3 SLOAD PUSH1 0x1 PUSH1 0x1 PUSH1 0xA0 SHL SUB AND DUP1 ISZERO PUSH2 0x2F25 JUMPI PUSH1 0x20 PUSH2 0x31D8 DUP3 PUSH2 0x3319 JUMP JUMPDEST PUSH1 0x24 PUSH1 0x40 MLOAD DUP1 SWAP5 DUP2 SWAP4 PUSH4 0x3D1689D PUSH1 0xE1 SHL DUP4 MSTORE PUSH1 0x4 DUP4 ADD MSTORE GAS STATICCALL SWAP1 DUP2 ISZERO PUSH2 0x270F JUMPI PUSH0 SWAP2 PUSH2 0x3203 JUMPI POP SWAP1 JUMP JUMPDEST SWAP1 POP PUSH1 0x20 DUP2 RETURNDATASIZE PUSH1 0x20 GT PUSH2 0x322A JUMPI JUMPDEST DUP2 PUSH2 0x321E PUSH1 0x20 SWAP4 DUP4 PUSH2 0x2B13 JUMP JUMPDEST DUP2 ADD SUB SLT PUSH2 0xBF3 JUMPI MLOAD SWAP1 JUMP JUMPDEST RETURNDATASIZE SWAP2 POP PUSH2 0x3211 JUMP JUMPDEST PUSH1 0x1 PUSH1 0x1 PUSH1 0xA0 SHL SUB SWAP2 DUP3 AND DUP2 MSTORE SWAP2 AND PUSH1 0x20 DUP3 ADD MSTORE PUSH1 0x40 ADD SWAP1 JUMP JUMPDEST PUSH1 0xB SLOAD PUSH1 0xFF PUSH0 SWAP2 PUSH1 0x8 SHR AND ISZERO PUSH2 0x325F JUMPI POP JUMP JUMPDEST PUSH1 0x1 SLOAD PUSH1 0x8 SHR PUSH1 0x1 PUSH1 0x1 PUSH1 0xA0 SHL SUB AND PUSH0 MLOAD PUSH1 0x20 PUSH2 0x49EB PUSH0 CODECOPY PUSH0 MLOAD SWAP1 PUSH0 MSTORE EXTCODESIZE ISZERO PUSH2 0xBF3 JUMPI PUSH0 PUSH2 0x32A2 SWAP2 PUSH1 0x40 MLOAD DUP1 SWAP4 DUP2 SWAP3 PUSH4 0xBDAC7CA3 PUSH1 0xE0 SHL DUP4 MSTORE ADDRESS PUSH1 0x4 DUP5 ADD PUSH2 0x3232 JUMP JUMPDEST SUB DUP2 DUP4 PUSH0 MLOAD PUSH1 0x20 PUSH2 0x49EB PUSH0 CODECOPY PUSH0 MLOAD SWAP1 PUSH0 MSTORE GAS CALL DUP1 ISZERO PUSH2 0x270F JUMPI PUSH2 0x3306 JUMPI JUMPDEST POP PUSH1 0xB DUP1 SLOAD PUSH2 0xFF00 NOT AND PUSH2 0x100 OR SWAP1 SSTORE PUSH1 0x1 SLOAD PUSH1 0x8 SHR PUSH1 0x1 PUSH1 0x1 PUSH1 0xA0 SHL SUB AND SWAP1 PUSH32 0x8EA92DB3A4BB72AEE66D7D65A7C80BA70489AF194B0544456E6F35702E25F64 SWAP1 DUP1 LOG2 JUMP JUMPDEST PUSH2 0x3312 SWAP2 POP PUSH0 SWAP1 PUSH2 0x2B13 JUMP JUMPDEST PUSH0 PUSH0 PUSH2 0x32C0 JUMP JUMPDEST PUSH1 0x40 MLOAD PUSH4 0x70A08231 PUSH1 0xE0 SHL DUP2 MSTORE ADDRESS PUSH1 0x4 DUP3 ADD MSTORE SWAP1 PUSH1 0x20 SWAP1 DUP3 SWAP1 PUSH1 0x24 SWAP1 DUP3 SWAP1 PUSH1 0x1 PUSH1 0x1 PUSH1 0xA0 SHL SUB AND GAS STATICCALL SWAP1 DUP2 ISZERO PUSH2 0x270F JUMPI PUSH0 SWAP2 PUSH2 0x3203 JUMPI POP SWAP1 JUMP JUMPDEST ISZERO PUSH2 0x335A JUMPI JUMP JUMPDEST PUSH1 0x40 MLOAD PUSH3 0x461BCD PUSH1 0xE5 SHL DUP2 MSTORE PUSH1 0x20 PUSH1 0x4 DUP3 ADD MSTORE PUSH1 0x15 PUSH1 0x24 DUP3 ADD MSTORE PUSH21 0x82E4E4C2F240D8CADCCEE8D040DAD2E6DAC2E8C6D PUSH1 0x5B SHL PUSH1 0x44 DUP3 ADD MSTORE PUSH1 0x64 SWAP1 REVERT JUMPDEST ISZERO PUSH2 0x339E JUMPI JUMP JUMPDEST PUSH1 0x40 MLOAD PUSH3 0x461BCD PUSH1 0xE5 SHL DUP2 MSTORE PUSH1 0x20 PUSH1 0x4 DUP3 ADD MSTORE PUSH1 0xC PUSH1 0x24 DUP3 ADD MSTORE PUSH12 0x456D70747920617272617973 PUSH1 0xA0 SHL PUSH1 0x44 DUP3 ADD MSTORE PUSH1 0x64 SWAP1 REVERT JUMPDEST SWAP2 SWAP1 DUP2 LT ISZERO PUSH2 0x28D6 JUMPI PUSH1 0x5 SHL ADD SWAP1 JUMP JUMPDEST CALLDATALOAD PUSH1 0x1 PUSH1 0x1 PUSH1 0xA0 SHL SUB DUP2 AND DUP2 SUB PUSH2 0xBF3 JUMPI SWAP1 JUMP JUMPDEST DUP2 DUP4 MSTORE SWAP1 SWAP2 PUSH1 0x1 PUSH1 0x1 PUSH1 0xFB SHL SUB DUP4 GT PUSH2 0xBF3 JUMPI PUSH1 0x20 SWAP3 PUSH1 0x5 SHL DUP1 SWAP3 DUP5 DUP4 ADD CALLDATACOPY ADD ADD SWAP1 JUMP JUMPDEST SWAP7 SWAP5 SWAP3 SWAP1 PUSH2 0x3435 PUSH1 0x20 SWAP2 SWAP6 SWAP4 SWAP6 PUSH1 0x80 DUP11 MSTORE PUSH1 0x80 DUP11 ADD SWAP1 PUSH2 0x29CE JUMP JUMPDEST DUP9 DUP2 SUB DUP3 DUP11 ADD MSTORE DUP3 DUP2 MSTORE ADD SWAP4 SWAP1 PUSH0 SWAP1 JUMPDEST DUP1 DUP3 LT PUSH2 0x34F6 JUMPI POP POP POP SWAP1 DUP3 SWAP2 DUP7 PUSH2 0x3462 SWAP5 SUB PUSH1 0x40 DUP9 ADD MSTORE PUSH2 0x33F6 JUMP JUMPDEST SWAP3 PUSH1 0x60 DUP2 DUP6 SUB SWAP2 ADD MSTORE DUP1 DUP4 MSTORE PUSH1 0x20 DUP4 ADD SWAP1 PUSH1 0x20 DUP2 PUSH1 0x5 SHL DUP6 ADD ADD SWAP4 DUP4 PUSH0 SWAP2 PUSH1 0x1E NOT DUP3 CALLDATASIZE SUB ADD SWAP1 JUMPDEST DUP5 DUP5 LT PUSH2 0x349A JUMPI POP POP POP POP POP POP POP SWAP1 JUMP JUMPDEST SWAP1 SWAP2 SWAP3 SWAP4 SWAP5 SWAP6 SWAP7 PUSH1 0x1F NOT DUP3 DUP3 SUB ADD DUP8 MSTORE DUP8 CALLDATALOAD DUP4 DUP2 SLT ISZERO PUSH2 0xBF3 JUMPI DUP5 ADD PUSH1 0x20 DUP2 ADD SWAP2 SWAP1 CALLDATALOAD PUSH1 0x1 PUSH1 0x1 PUSH1 0x40 SHL SUB DUP2 GT PUSH2 0xBF3 JUMPI DUP1 PUSH1 0x5 SHL CALLDATASIZE SUB DUP4 SGT PUSH2 0xBF3 JUMPI PUSH2 0x34E7 PUSH1 0x20 SWAP3 DUP4 SWAP3 PUSH1 0x1 SWAP6 PUSH2 0x33F6 JUMP JUMPDEST SWAP10 ADD SWAP8 ADD SWAP6 SWAP5 ADD SWAP3 SWAP2 SWAP1 PUSH2 0x3489 JUMP JUMPDEST SWAP7 SWAP8 SWAP6 SWAP7 SWAP2 SWAP5 SWAP1 SWAP2 SWAP1 DUP6 CALLDATALOAD SWAP1 PUSH1 0x1 PUSH1 0x1 PUSH1 0xA0 SHL SUB DUP3 AND DUP3 SUB PUSH2 0xBF3 JUMPI PUSH1 0x1 PUSH1 0x1 PUSH1 0xA0 SHL SUB SWAP1 SWAP2 AND DUP2 MSTORE SWAP6 SWAP8 SWAP7 SWAP6 PUSH1 0x20 SWAP1 DUP2 ADD SWAP6 ADD SWAP2 PUSH1 0x1 ADD SWAP1 PUSH2 0x3445 JUMP JUMPDEST PUSH1 0x3 SLOAD SWAP1 PUSH1 0xFF DUP3 PUSH1 0xA0 SHR AND ISZERO DUP1 ISZERO PUSH2 0x3595 JUMPI JUMPDEST PUSH2 0x358E JUMPI PUSH2 0x3565 PUSH2 0x3556 PUSH2 0x2E37 JUMP JUMPDEST SWAP3 PUSH1 0x1 PUSH1 0x1 PUSH1 0xA0 SHL SUB AND PUSH2 0x3319 JUMP JUMPDEST DUP1 ISZERO PUSH2 0x3585 JUMPI PUSH2 0x357B PUSH2 0x3580 SWAP3 PUSH2 0x295C SWAP5 PUSH2 0x2D5F JUMP JUMPDEST PUSH2 0x2D72 JUMP JUMPDEST PUSH2 0x364E JUMP JUMPDEST POP POP POP PUSH0 SWAP1 PUSH0 SWAP1 JUMP JUMPDEST PUSH0 SWAP3 SWAP1 SWAP2 POP JUMP JUMPDEST POP DUP1 ISZERO PUSH2 0x3547 JUMP JUMPDEST PUSH1 0xFF PUSH1 0x3 SLOAD PUSH1 0xA0 SHR AND ISZERO DUP1 ISZERO PUSH2 0x35DA JUMPI JUMPDEST PUSH2 0x2E29 JUMPI PUSH2 0x35BA PUSH2 0x2E37 JUMP JUMPDEST PUSH1 0x4 SLOAD DUP1 DUP3 LT PUSH2 0x35CD JUMPI PUSH2 0x2DF3 SWAP2 PUSH2 0x2D52 JUMP JUMPDEST PUSH2 0x2DF3 SWAP2 PUSH2 0x2E24 SWAP2 PUSH2 0x2D52 JUMP JUMPDEST POP PUSH1 0x4 SLOAD ISZERO PUSH2 0x35AE JUMP JUMPDEST PUSH1 0x1 PUSH1 0x1 PUSH1 0xA0 SHL SUB AND DUP1 ISZERO PUSH2 0x2F25 JUMPI PUSH1 0x20 PUSH1 0x4 SWAP2 PUSH1 0x40 MLOAD SWAP3 DUP4 DUP1 SWAP3 PUSH4 0x38D52E0F PUSH1 0xE0 SHL DUP3 MSTORE GAS STATICCALL SWAP1 DUP2 ISZERO PUSH2 0x270F JUMPI PUSH0 SWAP2 PUSH2 0x362F JUMPI JUMPDEST POP PUSH1 0x2 SLOAD PUSH1 0x1 PUSH1 0x1 PUSH1 0xA0 SHL SUB SWAP2 DUP3 AND SWAP2 AND EQ ISZERO SWAP1 JUMP JUMPDEST PUSH2 0x3648 SWAP2 POP PUSH1 0x20 RETURNDATASIZE PUSH1 0x20 GT PUSH2 0x6C7 JUMPI PUSH2 0x6B9 DUP2 DUP4 PUSH2 0x2B13 JUMP JUMPDEST PUSH0 PUSH2 0x3619 JUMP JUMPDEST SWAP1 PUSH1 0xFF PUSH1 0x3 SLOAD PUSH1 0xA0 SHR AND ISZERO DUP1 ISZERO PUSH2 0x36B3 JUMPI JUMPDEST DUP1 ISZERO PUSH2 0x36A7 JUMPI JUMPDEST PUSH2 0x36A2 JUMPI PUSH2 0x3677 PUSH1 0x4 SLOAD DUP4 PUSH2 0x2D52 JUMP JUMPDEST PUSH1 0x9 SLOAD DUP2 GT ISZERO PUSH2 0x369C JUMPI PUSH2 0x2710 PUSH2 0x3694 PUSH2 0x2DF3 SWAP3 PUSH1 0x7 SLOAD SWAP1 PUSH2 0x2D5F JUMP JUMPDEST DIV DUP1 SWAP4 PUSH2 0x2D52 JUMP JUMPDEST POP PUSH0 SWAP2 SWAP1 JUMP JUMPDEST PUSH0 SWAP2 SWAP1 JUMP JUMPDEST POP PUSH1 0x4 SLOAD DUP3 GT ISZERO PUSH2 0x3667 JUMP JUMPDEST POP PUSH1 0x4 SLOAD ISZERO PUSH2 0x3660 JUMP JUMPDEST ISZERO PUSH2 0x36C4 JUMPI JUMP JUMPDEST PUSH1 0x40 MLOAD PUSH3 0x461BCD PUSH1 0xE5 SHL DUP2 MSTORE PUSH1 0x20 PUSH1 0x4 DUP3 ADD MSTORE PUSH1 0x15 PUSH1 0x24 DUP3 ADD MSTORE PUSH21 0x139BDD081D1A194818DD5C9C995B9D081D985D5B1D PUSH1 0x5A SHL PUSH1 0x44 DUP3 ADD MSTORE PUSH1 0x64 SWAP1 REVERT JUMPDEST PUSH1 0x1 PUSH1 0x1 PUSH1 0xA0 SHL SUB AND DUP1 ISZERO PUSH2 0x2F25 JUMPI PUSH1 0x20 PUSH1 0x4 SWAP2 PUSH1 0x40 MLOAD SWAP3 DUP4 DUP1 SWAP3 PUSH4 0x38D52E0F PUSH1 0xE0 SHL DUP3 MSTORE GAS STATICCALL SWAP1 DUP2 ISZERO PUSH2 0x270F JUMPI PUSH0 SWAP2 PUSH2 0x3739 JUMPI POP SWAP1 JUMP JUMPDEST PUSH2 0x2DF3 SWAP2 POP PUSH1 0x20 RETURNDATASIZE PUSH1 0x20 GT PUSH2 0x6C7 JUMPI PUSH2 0x6B9 DUP2 DUP4 PUSH2 0x2B13 JUMP JUMPDEST SWAP1 SWAP3 SWAP1 SWAP2 PUSH1 0x1 PUSH1 0x1 PUSH1 0xA0 SHL SUB DUP1 DUP5 AND SWAP2 SWAP1 DUP6 AND DUP3 DUP2 EQ DUP1 ISZERO PUSH2 0x3873 JUMPI JUMPDEST PUSH2 0x3864 JUMPI PUSH1 0x40 MLOAD SWAP1 PUSH4 0x79BC57D5 PUSH1 0xE0 SHL DUP3 MSTORE DUP4 PUSH1 0x4 DUP4 ADD MSTORE DUP1 PUSH1 0x24 DUP4 ADD MSTORE PUSH1 0x1 PUSH1 0x44 DUP4 ADD MSTORE PUSH1 0x20 DUP3 PUSH1 0x64 DUP2 PUSH0 MLOAD PUSH1 0x20 PUSH2 0x4A0B PUSH0 CODECOPY PUSH0 MLOAD SWAP1 PUSH0 MSTORE GAS STATICCALL SWAP2 DUP3 ISZERO PUSH2 0x270F JUMPI PUSH0 SWAP3 PUSH2 0x3843 JUMPI JUMPDEST POP PUSH1 0x40 MLOAD SWAP4 PUSH4 0x79BC57D5 PUSH1 0xE0 SHL DUP6 MSTORE PUSH1 0x4 DUP6 ADD MSTORE PUSH1 0x24 DUP5 ADD MSTORE PUSH0 PUSH1 0x44 DUP5 ADD MSTORE PUSH1 0x20 DUP4 PUSH1 0x64 DUP2 PUSH0 MLOAD PUSH1 0x20 PUSH2 0x4A0B PUSH0 CODECOPY PUSH0 MLOAD SWAP1 PUSH0 MSTORE GAS STATICCALL SWAP2 DUP3 ISZERO PUSH2 0x270F JUMPI PUSH2 0x381D SWAP4 PUSH0 SWAP4 PUSH2 0x3822 JUMPI JUMPDEST POP PUSH2 0x380B DUP2 DUP9 DUP9 PUSH2 0x45A7 JUMP JUMPDEST SWAP7 PUSH2 0x3817 DUP3 DUP3 DUP10 PUSH2 0x46FA JUMP JUMPDEST SWAP7 PUSH2 0x48A7 JUMP JUMPDEST SWAP3 SWAP2 SWAP1 JUMP JUMPDEST PUSH2 0x383C SWAP2 SWAP4 POP PUSH1 0x20 RETURNDATASIZE PUSH1 0x20 GT PUSH2 0x6C7 JUMPI PUSH2 0x6B9 DUP2 DUP4 PUSH2 0x2B13 JUMP JUMPDEST SWAP2 PUSH0 PUSH2 0x37FF JUMP JUMPDEST PUSH2 0x385D SWAP2 SWAP3 POP PUSH1 0x20 RETURNDATASIZE PUSH1 0x20 GT PUSH2 0x6C7 JUMPI PUSH2 0x6B9 DUP2 DUP4 PUSH2 0x2B13 JUMP JUMPDEST SWAP1 PUSH0 PUSH2 0x37B8 JUMP JUMPDEST POP POP POP SWAP2 POP POP PUSH1 0x1 SWAP1 PUSH0 SWAP1 PUSH0 SWAP1 JUMP JUMPDEST POP DUP2 ISZERO PUSH2 0x376F JUMP JUMPDEST PUSH1 0x40 MLOAD PUSH4 0xF8C0AE05 PUSH1 0xE0 SHL DUP2 MSTORE PUSH1 0x20 DUP2 PUSH1 0x4 DUP2 ADDRESS GAS STATICCALL SWAP1 DUP2 ISZERO PUSH2 0x270F JUMPI PUSH0 SWAP2 PUSH2 0x38BA JUMPI JUMPDEST POP DUP1 ISZERO PUSH2 0x2F25 JUMPI PUSH2 0x38B6 PUSH2 0x2710 SWAP2 PUSH1 0x7 SLOAD SWAP1 PUSH2 0x2D5F JUMP JUMPDEST DIV SWAP1 JUMP JUMPDEST SWAP1 POP PUSH1 0x20 DUP2 RETURNDATASIZE PUSH1 0x20 GT PUSH2 0x38E4 JUMPI JUMPDEST DUP2 PUSH2 0x38D5 PUSH1 0x20 SWAP4 DUP4 PUSH2 0x2B13 JUMP JUMPDEST DUP2 ADD SUB SLT PUSH2 0xBF3 JUMPI MLOAD PUSH0 PUSH2 0x389F JUMP JUMPDEST RETURNDATASIZE SWAP2 POP PUSH2 0x38C8 JUMP JUMPDEST PUSH1 0xFF PUSH1 0x3 SLOAD PUSH1 0xA0 SHR AND ISZERO DUP1 ISZERO PUSH2 0x391D JUMPI JUMPDEST PUSH2 0x2E29 JUMPI PUSH2 0x3909 PUSH2 0x2E37 JUMP JUMPDEST PUSH1 0x4 SLOAD DUP1 DUP3 GT ISZERO PUSH2 0x2EED JUMPI PUSH2 0x2DF3 SWAP2 PUSH2 0x2D52 JUMP JUMPDEST POP PUSH1 0x4 SLOAD ISZERO PUSH2 0x38FD JUMP JUMPDEST PUSH1 0x2 PUSH0 SLOAD EQ PUSH2 0x3936 JUMPI PUSH1 0x2 PUSH0 SSTORE JUMP JUMPDEST PUSH4 0x3EE5AEB5 PUSH1 0xE0 SHL PUSH0 MSTORE PUSH1 0x4 PUSH0 REVERT JUMPDEST PUSH1 0xFF PUSH1 0x1 SLOAD AND PUSH2 0x3951 JUMPI JUMP JUMPDEST PUSH4 0xD93C0665 PUSH1 0xE0 SHL PUSH0 MSTORE PUSH1 0x4 PUSH0 REVERT JUMPDEST PUSH1 0x40 MLOAD PUSH4 0x23B872DD PUSH1 0xE0 SHL PUSH1 0x20 DUP3 ADD MSTORE PUSH1 0x1 PUSH1 0x1 PUSH1 0xA0 SHL SUB SWAP3 DUP4 AND PUSH1 0x24 DUP3 ADD MSTORE SWAP3 SWAP1 SWAP2 AND PUSH1 0x44 DUP4 ADD MSTORE PUSH1 0x64 DUP1 DUP4 ADD SWAP4 SWAP1 SWAP4 MSTORE SWAP2 DUP2 MSTORE PUSH2 0x39A9 SWAP2 PUSH2 0x39A4 PUSH1 0x84 DUP4 PUSH2 0x2B13 JUMP JUMPDEST PUSH2 0x4952 JUMP JUMPDEST JUMP JUMPDEST SWAP1 DUP2 PUSH1 0x20 SWAP2 SUB SLT PUSH2 0xBF3 JUMPI MLOAD DUP1 ISZERO ISZERO DUP2 SUB PUSH2 0xBF3 JUMPI SWAP1 JUMP JUMPDEST PUSH1 0x40 DUP1 MLOAD SWAP1 SWAP2 SWAP1 PUSH2 0x39D4 DUP4 DUP3 PUSH2 0x2B13 JUMP JUMPDEST PUSH1 0x1 DUP2 MSTORE SWAP2 PUSH1 0x1F NOT ADD DUP3 PUSH0 JUMPDEST DUP3 DUP2 LT PUSH2 0x39EC JUMPI POP POP POP JUMP JUMPDEST PUSH1 0x20 SWAP1 PUSH1 0x40 MLOAD PUSH2 0x39FB DUP2 PUSH2 0x2AC9 JUMP JUMPDEST PUSH0 DUP2 MSTORE PUSH0 DUP4 DUP3 ADD MSTORE PUSH0 PUSH1 0x40 DUP3 ADD MSTORE PUSH0 PUSH1 0x60 DUP3 ADD MSTORE DUP3 DUP3 DUP6 ADD ADD MSTORE ADD PUSH2 0x39E0 JUMP JUMPDEST PUSH1 0x20 DUP2 DUP4 SUB SLT PUSH2 0xBF3 JUMPI DUP1 MLOAD SWAP1 PUSH1 0x1 PUSH1 0x1 PUSH1 0x40 SHL SUB DUP3 GT PUSH2 0xBF3 JUMPI ADD SWAP1 DUP1 PUSH1 0x1F DUP4 ADD SLT ISZERO PUSH2 0xBF3 JUMPI DUP2 MLOAD PUSH2 0x3A4E DUP2 PUSH2 0x2FD7 JUMP JUMPDEST SWAP3 PUSH2 0x3A5C PUSH1 0x40 MLOAD SWAP5 DUP6 PUSH2 0x2B13 JUMP JUMPDEST DUP2 DUP5 MSTORE PUSH1 0x20 DUP1 DUP6 ADD SWAP3 PUSH1 0x5 SHL DUP3 ADD ADD SWAP3 DUP4 GT PUSH2 0xBF3 JUMPI PUSH1 0x20 ADD SWAP1 JUMPDEST DUP3 DUP3 LT PUSH2 0x3A84 JUMPI POP POP POP SWAP1 JUMP JUMPDEST DUP2 MLOAD DUP2 MSTORE PUSH1 0x20 SWAP2 DUP3 ADD SWAP2 ADD PUSH2 0x3A77 JUMP JUMPDEST SWAP1 PUSH1 0x20 DUP1 DUP4 MLOAD SWAP3 DUP4 DUP2 MSTORE ADD SWAP3 ADD SWAP1 PUSH0 JUMPDEST DUP2 DUP2 LT PUSH2 0x3AB1 JUMPI POP POP POP SWAP1 JUMP JUMPDEST DUP3 MLOAD DUP1 MLOAD PUSH1 0x1 PUSH1 0x1 PUSH1 0xA0 SHL SUB SWAP1 DUP2 AND DUP7 MSTORE PUSH1 0x20 DUP3 DUP2 ADD MLOAD DUP3 AND DUP2 DUP9 ADD MSTORE PUSH1 0x40 DUP1 DUP5 ADD MLOAD ISZERO ISZERO SWAP1 DUP9 ADD MSTORE PUSH1 0x60 SWAP3 DUP4 ADD MLOAD SWAP1 SWAP2 AND SWAP2 DUP7 ADD SWAP2 SWAP1 SWAP2 MSTORE PUSH1 0x80 SWAP1 SWAP5 ADD SWAP4 SWAP1 SWAP3 ADD SWAP2 PUSH1 0x1 ADD PUSH2 0x3AA4 JUMP JUMPDEST PUSH1 0x40 SWAP1 PUSH2 0x2DF3 SWAP4 SWAP3 DUP2 MSTORE DUP2 PUSH1 0x20 DUP3 ADD MSTORE ADD SWAP1 PUSH2 0x3A94 JUMP JUMPDEST SWAP2 SWAP3 SWAP2 PUSH1 0x1 PUSH1 0x1 PUSH1 0xA0 SHL SUB DUP3 DUP2 AND SWAP3 SWAP1 DUP3 AND SWAP2 DUP3 DUP5 EQ PUSH2 0x3E93 JUMPI DUP6 ISZERO PUSH2 0x3E60 JUMPI PUSH1 0x40 MLOAD PUSH4 0x79BC57D5 PUSH1 0xE0 SHL DUP2 MSTORE DUP4 PUSH1 0x4 DUP3 ADD MSTORE DUP5 PUSH1 0x24 DUP3 ADD MSTORE PUSH1 0x1 PUSH1 0x44 DUP3 ADD MSTORE PUSH1 0x20 DUP2 PUSH1 0x64 DUP2 PUSH0 MLOAD PUSH1 0x20 PUSH2 0x4A0B PUSH0 CODECOPY PUSH0 MLOAD SWAP1 PUSH0 MSTORE GAS STATICCALL SWAP1 DUP2 ISZERO PUSH2 0x270F JUMPI PUSH0 SWAP2 PUSH2 0x3E41 JUMPI JUMPDEST POP PUSH1 0x40 MLOAD SWAP2 PUSH4 0x79BC57D5 PUSH1 0xE0 SHL DUP4 MSTORE DUP5 PUSH1 0x4 DUP5 ADD MSTORE DUP6 PUSH1 0x24 DUP5 ADD MSTORE PUSH0 PUSH1 0x44 DUP5 ADD MSTORE PUSH1 0x20 DUP4 PUSH1 0x64 DUP2 PUSH0 MLOAD PUSH1 0x20 PUSH2 0x4A0B PUSH0 CODECOPY PUSH0 MLOAD SWAP1 PUSH0 MSTORE GAS STATICCALL SWAP3 DUP4 ISZERO PUSH2 0x270F JUMPI PUSH0 SWAP4 PUSH2 0x3E20 JUMPI JUMPDEST POP PUSH1 0x1 PUSH1 0x1 PUSH1 0xA0 SHL SUB DUP3 AND ISZERO DUP1 ISZERO SWAP1 PUSH2 0x3E0E JUMPI JUMPDEST ISZERO PUSH2 0x3DD8 JUMPI PUSH2 0x3BE0 SWAP4 DUP9 SWAP2 PUSH2 0x48A7 JUMP JUMPDEST PUSH1 0x40 MLOAD PUSH4 0x95EA7B3 PUSH1 0xE0 SHL DUP2 MSTORE PUSH20 0xCF77A3BA9A5CA399B7C97C74D54E5B1BEB874E43 PUSH1 0x4 DUP3 ADD MSTORE PUSH1 0x24 DUP2 ADD DUP7 SWAP1 MSTORE PUSH1 0x20 DUP2 PUSH1 0x44 DUP2 PUSH0 DUP8 GAS CALL DUP1 ISZERO PUSH2 0x270F JUMPI PUSH2 0x3DAB JUMPI JUMPDEST POP PUSH2 0x3C2C PUSH2 0x39C3 JUMP JUMPDEST SWAP1 PUSH1 0x40 MLOAD SWAP1 PUSH2 0x3C3A DUP3 PUSH2 0x2AC9 JUMP JUMPDEST DUP4 DUP3 MSTORE DUP5 PUSH1 0x20 DUP4 ADD MSTORE ISZERO ISZERO PUSH1 0x40 DUP3 ADD MSTORE PUSH0 MLOAD PUSH1 0x20 PUSH2 0x4A0B PUSH0 CODECOPY PUSH0 MLOAD SWAP1 PUSH0 MSTORE PUSH1 0x60 DUP3 ADD MSTORE PUSH2 0x3C66 DUP3 PUSH2 0x305A JUMP JUMPDEST MSTORE PUSH2 0x3C70 DUP2 PUSH2 0x305A JUMP JUMPDEST POP PUSH1 0x40 MLOAD PUSH4 0x1542686B PUSH1 0xE2 SHL DUP2 MSTORE PUSH0 DUP2 DUP1 PUSH2 0x3C8F DUP6 DUP11 PUSH1 0x4 DUP5 ADD PUSH2 0x3AFC JUMP JUMPDEST SUB DUP2 PUSH20 0xCF77A3BA9A5CA399B7C97C74D54E5B1BEB874E43 GAS STATICCALL DUP1 ISZERO PUSH2 0x270F JUMPI PUSH2 0x3CBF SWAP2 PUSH0 SWAP2 PUSH2 0x3D89 JUMPI JUMPDEST POP PUSH2 0x3067 JUMP JUMPDEST MLOAD PUSH2 0x251C DUP2 MUL SWAP1 DUP1 DUP3 DIV PUSH2 0x251C EQ SWAP1 ISZERO OR ISZERO PUSH2 0x2BE2 JUMPI PUSH2 0x12C TIMESTAMP ADD DUP1 TIMESTAMP GT PUSH2 0x2BE2 JUMPI PUSH0 SWAP2 PUSH2 0x2710 SWAP2 PUSH2 0x3D19 PUSH1 0x40 MLOAD SWAP6 DUP7 SWAP5 DUP6 SWAP5 PUSH4 0xCAC88EA9 PUSH1 0xE0 SHL DUP7 MSTORE DUP13 PUSH1 0x4 DUP8 ADD MSTORE DIV PUSH1 0x24 DUP6 ADD MSTORE PUSH1 0xA0 PUSH1 0x44 DUP6 ADD MSTORE PUSH1 0xA4 DUP5 ADD SWAP1 PUSH2 0x3A94 JUMP JUMPDEST SWAP1 ADDRESS PUSH1 0x64 DUP5 ADD MSTORE PUSH1 0x84 DUP4 ADD MSTORE SUB DUP2 DUP4 PUSH20 0xCF77A3BA9A5CA399B7C97C74D54E5B1BEB874E43 GAS CALL DUP1 ISZERO PUSH2 0x270F JUMPI PUSH2 0x3D79 PUSH1 0x40 SWAP2 PUSH32 0x4AC5DF40D910FEAB74F02C4430568F99E711257906DD0DF11643DF22F2EE3CF6 SWAP4 PUSH0 SWAP2 PUSH2 0x3D89 JUMPI POP PUSH2 0x3067 JUMP JUMPDEST MLOAD SWAP6 DUP2 MLOAD SWAP1 DUP2 MSTORE DUP7 PUSH1 0x20 DUP3 ADD MSTORE LOG3 JUMP JUMPDEST PUSH2 0x3DA5 SWAP2 POP RETURNDATASIZE DUP1 PUSH0 DUP4 RETURNDATACOPY PUSH2 0x3D9D DUP2 DUP4 PUSH2 0x2B13 JUMP JUMPDEST DUP2 ADD SWAP1 PUSH2 0x3A1B JUMP JUMPDEST PUSH0 PUSH2 0x3CB9 JUMP JUMPDEST PUSH2 0x3DCC SWAP1 PUSH1 0x20 RETURNDATASIZE PUSH1 0x20 GT PUSH2 0x3DD1 JUMPI JUMPDEST PUSH2 0x3DC4 DUP2 DUP4 PUSH2 0x2B13 JUMP JUMPDEST DUP2 ADD SWAP1 PUSH2 0x39AB JUMP JUMPDEST PUSH2 0x3C23 JUMP JUMPDEST POP RETURNDATASIZE PUSH2 0x3DBA JUMP JUMPDEST PUSH1 0x40 MLOAD PUSH3 0x461BCD PUSH1 0xE5 SHL DUP2 MSTORE PUSH1 0x20 PUSH1 0x4 DUP3 ADD MSTORE PUSH1 0xE PUSH1 0x24 DUP3 ADD MSTORE PUSH14 0x139BC81C1BDBDB1CC8195E1A5CDD PUSH1 0x92 SHL PUSH1 0x44 DUP3 ADD MSTORE PUSH1 0x64 SWAP1 REVERT JUMPDEST POP PUSH1 0x1 PUSH1 0x1 PUSH1 0xA0 SHL SUB DUP4 AND ISZERO ISZERO PUSH2 0x3BD0 JUMP JUMPDEST PUSH2 0x3E3A SWAP2 SWAP4 POP PUSH1 0x20 RETURNDATASIZE PUSH1 0x20 GT PUSH2 0x6C7 JUMPI PUSH2 0x6B9 DUP2 DUP4 PUSH2 0x2B13 JUMP JUMPDEST SWAP2 PUSH0 PUSH2 0x3BBC JUMP JUMPDEST PUSH2 0x3E5A SWAP2 POP PUSH1 0x20 RETURNDATASIZE PUSH1 0x20 GT PUSH2 0x6C7 JUMPI PUSH2 0x6B9 DUP2 DUP4 PUSH2 0x2B13 JUMP JUMPDEST PUSH0 PUSH2 0x3B77 JUMP JUMPDEST PUSH1 0x40 MLOAD PUSH3 0x461BCD PUSH1 0xE5 SHL DUP2 MSTORE PUSH1 0x20 PUSH1 0x4 DUP3 ADD MSTORE PUSH1 0xB PUSH1 0x24 DUP3 ADD MSTORE PUSH11 0x16995C9BC8185B5BDD5B9D PUSH1 0xAA SHL PUSH1 0x44 DUP3 ADD MSTORE PUSH1 0x64 SWAP1 REVERT JUMPDEST PUSH1 0x40 MLOAD PUSH3 0x461BCD PUSH1 0xE5 SHL DUP2 MSTORE PUSH1 0x20 PUSH1 0x4 DUP3 ADD MSTORE PUSH1 0xA PUSH1 0x24 DUP3 ADD MSTORE PUSH10 0x29B0B6B2903A37B5B2B7 PUSH1 0xB1 SHL PUSH1 0x44 DUP3 ADD MSTORE PUSH1 0x64 SWAP1 REVERT JUMPDEST PUSH1 0x40 MLOAD PUSH1 0x60 SWAP2 SWAP1 PUSH2 0x3ED6 DUP4 DUP3 PUSH2 0x2B13 JUMP JUMPDEST PUSH1 0x2 DUP2 MSTORE SWAP2 PUSH1 0x1F NOT ADD DUP3 PUSH0 JUMPDEST DUP3 DUP2 LT PUSH2 0x3EEE JUMPI POP POP POP JUMP JUMPDEST PUSH1 0x20 SWAP1 PUSH1 0x40 MLOAD PUSH2 0x3EFD DUP2 PUSH2 0x2AF8 JUMP JUMPDEST PUSH0 DUP2 MSTORE PUSH1 0x60 DUP4 DUP3 ADD MSTORE PUSH0 PUSH1 0x40 DUP3 ADD MSTORE PUSH0 PUSH1 0x60 DUP3 ADD MSTORE PUSH0 PUSH1 0x80 DUP3 ADD MSTORE DUP3 DUP3 DUP6 ADD ADD MSTORE ADD PUSH2 0x3EE2 JUMP JUMPDEST PUSH1 0x20 DUP2 ADD PUSH1 0x20 DUP3 MSTORE DUP3 MLOAD DUP1 SWAP2 MSTORE PUSH1 0x40 DUP3 ADD SWAP2 PUSH1 0x20 PUSH1 0x40 DUP4 PUSH1 0x5 SHL DUP4 ADD ADD SWAP5 ADD SWAP3 PUSH0 SWAP2 JUMPDEST DUP4 DUP4 LT PUSH2 0x3F56 JUMPI POP POP POP POP POP SWAP1 JUMP JUMPDEST SWAP1 SWAP2 SWAP3 SWAP4 SWAP5 PUSH1 0x20 DUP1 PUSH1 0xC0 PUSH1 0x1 SWAP4 PUSH1 0x3F NOT DUP7 DUP3 SUB ADD DUP8 MSTORE DUP3 PUSH1 0x80 DUP12 MLOAD DUP8 DUP1 PUSH1 0xA0 SHL SUB DUP2 MLOAD AND DUP5 MSTORE DUP3 DUP2 ADD MLOAD PUSH1 0xA0 DUP5 DUP7 ADD MSTORE DUP1 MLOAD SWAP4 DUP5 SWAP2 DUP3 PUSH1 0xA0 DUP9 ADD MSTORE ADD DUP7 DUP7 ADD MCOPY PUSH0 DUP6 DUP5 DUP7 ADD ADD MSTORE PUSH1 0x40 DUP2 ADD MLOAD PUSH1 0x40 DUP6 ADD MSTORE PUSH1 0x60 DUP2 ADD MLOAD ISZERO ISZERO PUSH1 0x60 DUP6 ADD MSTORE ADD MLOAD PUSH1 0x80 DUP4 ADD MSTORE PUSH1 0x1F DUP1 NOT SWAP2 ADD AND ADD ADD SWAP8 ADD SWAP4 ADD SWAP4 ADD SWAP2 SWAP4 SWAP3 SWAP1 PUSH2 0x3F47 JUMP JUMPDEST PUSH1 0x40 MLOAD PUSH4 0x95EA7B3 PUSH1 0xE0 SHL DUP2 MSTORE PUSH0 MLOAD PUSH1 0x20 PUSH2 0x4A2B PUSH0 CODECOPY PUSH0 MLOAD SWAP1 PUSH0 MSTORE PUSH1 0x4 DUP3 ADD MSTORE PUSH1 0x24 DUP2 ADD DUP4 SWAP1 MSTORE PUSH1 0x1 PUSH1 0x1 PUSH1 0xA0 SHL SUB SWAP1 SWAP4 AND SWAP3 SWAP1 SWAP2 SWAP1 PUSH1 0x20 DUP2 PUSH1 0x44 DUP2 PUSH0 DUP9 GAS CALL DUP1 ISZERO PUSH2 0x270F JUMPI PUSH2 0x41A3 JUMPI JUMPDEST POP PUSH2 0x4026 PUSH2 0x3EC5 JUMP JUMPDEST SWAP3 PUSH1 0x40 MLOAD SWAP1 PUSH4 0xD96CA0B9 PUSH1 0xE0 SHL PUSH1 0x20 DUP4 ADD MSTORE PUSH1 0x24 DUP3 ADD MSTORE PUSH0 MLOAD PUSH1 0x20 PUSH2 0x4A2B PUSH0 CODECOPY PUSH0 MLOAD SWAP1 PUSH0 MSTORE PUSH1 0x44 DUP3 ADD MSTORE DUP2 PUSH1 0x64 DUP3 ADD MSTORE PUSH1 0x64 DUP2 MSTORE PUSH2 0x4065 PUSH1 0x84 DUP3 PUSH2 0x2B13 JUMP JUMPDEST PUSH1 0x40 MLOAD SWAP1 PUSH2 0x4072 DUP3 PUSH2 0x2AF8 JUMP JUMPDEST PUSH0 MLOAD PUSH1 0x20 PUSH2 0x4A2B PUSH0 CODECOPY PUSH0 MLOAD SWAP1 PUSH0 MSTORE DUP3 MSTORE PUSH1 0x20 DUP3 ADD MSTORE PUSH0 PUSH1 0x40 DUP3 ADD MSTORE PUSH0 PUSH1 0x60 DUP3 ADD MSTORE PUSH0 PUSH1 0x80 DUP3 ADD MSTORE PUSH2 0x40A2 DUP5 PUSH2 0x305A JUMP JUMPDEST MSTORE PUSH2 0x40AC DUP4 PUSH2 0x305A JUMP JUMPDEST POP PUSH1 0x40 MLOAD PUSH4 0x377AF757 PUSH1 0xE1 SHL PUSH1 0x20 DUP3 ADD MSTORE PUSH1 0x1 PUSH1 0x1 PUSH1 0xA0 SHL SUB SWAP1 SWAP3 AND PUSH1 0x24 DUP4 ADD MSTORE PUSH1 0x44 DUP3 ADD MSTORE PUSH0 NOT PUSH1 0x64 DUP3 ADD MSTORE ADDRESS PUSH1 0x84 DUP1 DUP4 ADD SWAP2 SWAP1 SWAP2 MSTORE DUP2 MSTORE PUSH2 0x40F0 PUSH1 0xA4 DUP3 PUSH2 0x2B13 JUMP JUMPDEST PUSH1 0x40 MLOAD SWAP1 PUSH2 0x40FD DUP3 PUSH2 0x2AF8 JUMP JUMPDEST PUSH0 MLOAD PUSH1 0x20 PUSH2 0x4A2B PUSH0 CODECOPY PUSH0 MLOAD SWAP1 PUSH0 MSTORE DUP3 MSTORE PUSH1 0x20 DUP3 ADD MSTORE PUSH0 PUSH1 0x40 DUP3 ADD MSTORE PUSH0 PUSH1 0x60 DUP3 ADD MSTORE PUSH0 PUSH1 0x80 DUP3 ADD MSTORE PUSH2 0x412D DUP3 PUSH2 0x3067 JUMP JUMPDEST MSTORE PUSH2 0x4137 DUP2 PUSH2 0x3067 JUMP JUMPDEST POP PUSH20 0x6BFD8137E702540E7A42B74178A4A49BA43920C4 EXTCODESIZE ISZERO PUSH2 0xBF3 JUMPI PUSH0 PUSH2 0x4172 SWAP2 PUSH1 0x40 MLOAD DUP1 SWAP4 DUP2 SWAP3 PUSH4 0x374F435D PUSH1 0xE0 SHL DUP4 MSTORE PUSH1 0x4 DUP4 ADD PUSH2 0x3F24 JUMP JUMPDEST SUB DUP2 DUP4 PUSH20 0x6BFD8137E702540E7A42B74178A4A49BA43920C4 GAS CALL DUP1 ISZERO PUSH2 0x270F JUMPI PUSH2 0x4199 JUMPI POP JUMP JUMPDEST PUSH0 PUSH2 0x39A9 SWAP2 PUSH2 0x2B13 JUMP JUMPDEST PUSH2 0x41BB SWAP1 PUSH1 0x20 RETURNDATASIZE PUSH1 0x20 GT PUSH2 0x3DD1 JUMPI PUSH2 0x3DC4 DUP2 DUP4 PUSH2 0x2B13 JUMP JUMPDEST PUSH2 0x401D JUMP JUMPDEST PUSH1 0x1 PUSH1 0x1 PUSH1 0xA0 SHL SUB DUP1 DUP3 AND SWAP4 SWAP2 SWAP3 SWAP1 DUP2 AND DUP5 DUP2 EQ DUP1 ISZERO PUSH2 0x42F7 JUMPI JUMPDEST PUSH2 0x42EF JUMPI PUSH1 0x40 MLOAD SWAP1 PUSH4 0x79BC57D5 PUSH1 0xE0 SHL DUP3 MSTORE DUP6 PUSH1 0x4 DUP4 ADD MSTORE DUP1 PUSH1 0x24 DUP4 ADD MSTORE PUSH1 0x1 PUSH1 0x44 DUP4 ADD MSTORE PUSH1 0x20 DUP3 PUSH1 0x64 DUP2 PUSH0 MLOAD PUSH1 0x20 PUSH2 0x4A0B PUSH0 CODECOPY PUSH0 MLOAD SWAP1 PUSH0 MSTORE GAS STATICCALL SWAP2 DUP3 ISZERO PUSH2 0x270F JUMPI PUSH0 SWAP3 PUSH2 0x42CE JUMPI JUMPDEST POP PUSH1 0x40 MLOAD SWAP6 PUSH4 0x79BC57D5 PUSH1 0xE0 SHL DUP8 MSTORE PUSH1 0x4 DUP8 ADD MSTORE PUSH1 0x24 DUP7 ADD MSTORE PUSH0 PUSH1 0x44 DUP7 ADD MSTORE PUSH1 0x20 DUP6 PUSH1 0x64 DUP2 PUSH0 MLOAD PUSH1 0x20 PUSH2 0x4A0B PUSH0 CODECOPY PUSH0 MLOAD SWAP1 PUSH0 MSTORE GAS STATICCALL SWAP5 DUP6 ISZERO PUSH2 0x270F JUMPI PUSH0 SWAP6 PUSH2 0x42AD JUMPI JUMPDEST POP PUSH1 0x1 PUSH1 0x1 PUSH1 0xA0 SHL SUB DUP2 AND ISZERO DUP1 PUSH2 0x429C JUMPI JUMPDEST PUSH2 0x4293 JUMPI PUSH2 0x2DF3 SWAP5 PUSH2 0x428D SWAP2 DUP5 DUP5 DUP8 PUSH2 0x48A7 JUMP JUMPDEST SWAP3 PUSH2 0x47CB JUMP JUMPDEST POP POP POP POP POP PUSH0 SWAP1 JUMP JUMPDEST POP PUSH1 0x1 PUSH1 0x1 PUSH1 0xA0 SHL SUB DUP6 AND ISZERO PUSH2 0x4279 JUMP JUMPDEST PUSH2 0x42C7 SWAP2 SWAP6 POP PUSH1 0x20 RETURNDATASIZE PUSH1 0x20 GT PUSH2 0x6C7 JUMPI PUSH2 0x6B9 DUP2 DUP4 PUSH2 0x2B13 JUMP JUMPDEST SWAP4 PUSH0 PUSH2 0x4267 JUMP JUMPDEST PUSH2 0x42E8 SWAP2 SWAP3 POP PUSH1 0x20 RETURNDATASIZE PUSH1 0x20 GT PUSH2 0x6C7 JUMPI PUSH2 0x6B9 DUP2 DUP4 PUSH2 0x2B13 JUMP JUMPDEST SWAP1 PUSH0 PUSH2 0x4224 JUMP JUMPDEST POP POP SWAP2 POP POP SWAP1 JUMP JUMPDEST POP DUP3 ISZERO PUSH2 0x41DB JUMP JUMPDEST PUSH1 0x40 MLOAD PUSH4 0xA9059CBB PUSH1 0xE0 SHL PUSH1 0x20 DUP3 ADD MSTORE PUSH1 0x1 PUSH1 0x1 PUSH1 0xA0 SHL SUB SWAP1 SWAP3 AND PUSH1 0x24 DUP4 ADD MSTORE PUSH1 0x44 DUP1 DUP4 ADD SWAP4 SWAP1 SWAP4 MSTORE SWAP2 DUP2 MSTORE PUSH2 0x39A9 SWAP2 PUSH2 0x39A4 PUSH1 0x64 DUP4 PUSH2 0x2B13 JUMP JUMPDEST PUSH1 0xFF PUSH1 0x1 SLOAD AND ISZERO PUSH2 0x4347 JUMPI JUMP JUMPDEST PUSH4 0x8DFC202B PUSH1 0xE0 SHL PUSH0 MSTORE PUSH1 0x4 PUSH0 REVERT JUMPDEST PUSH1 0x40 MLOAD PUSH4 0x266D6A83 PUSH1 0xE1 SHL DUP2 MSTORE PUSH1 0x4 DUP2 ADD DUP4 SWAP1 MSTORE SWAP2 SWAP1 PUSH1 0x1 PUSH1 0x1 PUSH1 0xA0 SHL SUB AND PUSH1 0x20 DUP4 PUSH1 0x24 DUP2 DUP5 GAS STATICCALL SWAP3 DUP4 ISZERO PUSH2 0x270F JUMPI PUSH0 SWAP4 PUSH2 0x4573 JUMPI JUMPDEST POP PUSH1 0x40 MLOAD PUSH4 0x95EA7B3 PUSH1 0xE0 SHL DUP2 MSTORE PUSH0 MLOAD PUSH1 0x20 PUSH2 0x4A2B PUSH0 CODECOPY PUSH0 MLOAD SWAP1 PUSH0 MSTORE PUSH1 0x4 DUP3 ADD MSTORE PUSH1 0x24 DUP2 ADD DUP4 SWAP1 MSTORE PUSH1 0x20 DUP2 PUSH1 0x44 DUP2 PUSH0 DUP7 GAS CALL DUP1 ISZERO PUSH2 0x270F JUMPI PUSH2 0x4556 JUMPI JUMPDEST POP PUSH2 0x43D2 PUSH2 0x3EC5 JUMP JUMPDEST SWAP2 PUSH1 0x40 MLOAD PUSH4 0xD96CA0B9 PUSH1 0xE0 SHL PUSH1 0x20 DUP3 ADD MSTORE DUP3 PUSH1 0x24 DUP3 ADD MSTORE PUSH0 MLOAD PUSH1 0x20 PUSH2 0x4A2B PUSH0 CODECOPY PUSH0 MLOAD SWAP1 PUSH0 MSTORE PUSH1 0x44 DUP3 ADD MSTORE DUP2 PUSH1 0x64 DUP3 ADD MSTORE PUSH1 0x64 DUP2 MSTORE PUSH2 0x4411 PUSH1 0x84 DUP3 PUSH2 0x2B13 JUMP JUMPDEST PUSH1 0x40 MLOAD SWAP1 PUSH2 0x441E DUP3 PUSH2 0x2AF8 JUMP JUMPDEST PUSH0 MLOAD PUSH1 0x20 PUSH2 0x4A2B PUSH0 CODECOPY PUSH0 MLOAD SWAP1 PUSH0 MSTORE DUP3 MSTORE PUSH1 0x20 DUP3 ADD MSTORE PUSH0 PUSH1 0x40 DUP3 ADD MSTORE PUSH0 PUSH1 0x60 DUP3 ADD MSTORE PUSH0 PUSH1 0x80 DUP3 ADD MSTORE PUSH2 0x444E DUP5 PUSH2 0x305A JUMP JUMPDEST MSTORE PUSH2 0x4458 DUP4 PUSH2 0x305A JUMP JUMPDEST POP PUSH1 0x40 MLOAD SWAP2 PUSH4 0x53FB7303 PUSH1 0xE1 SHL PUSH1 0x20 DUP5 ADD MSTORE PUSH1 0x24 DUP4 ADD MSTORE PUSH1 0x44 DUP3 ADD MSTORE PUSH0 PUSH1 0x64 DUP3 ADD MSTORE ADDRESS PUSH1 0x84 DUP3 ADD MSTORE PUSH0 MLOAD PUSH1 0x20 PUSH2 0x4A2B PUSH0 CODECOPY PUSH0 MLOAD SWAP1 PUSH0 MSTORE PUSH1 0xA4 DUP3 ADD MSTORE PUSH1 0xA4 DUP2 MSTORE PUSH2 0x44A2 PUSH1 0xC4 DUP3 PUSH2 0x2B13 JUMP JUMPDEST PUSH1 0x40 MLOAD SWAP1 PUSH2 0x44AF DUP3 PUSH2 0x2AF8 JUMP JUMPDEST PUSH0 MLOAD PUSH1 0x20 PUSH2 0x4A2B PUSH0 CODECOPY PUSH0 MLOAD SWAP1 PUSH0 MSTORE DUP3 MSTORE PUSH1 0x20 DUP3 ADD MSTORE PUSH0 PUSH1 0x40 DUP3 ADD MSTORE PUSH0 PUSH1 0x60 DUP3 ADD MSTORE PUSH0 PUSH1 0x80 DUP3 ADD MSTORE PUSH2 0x44DF DUP3 PUSH2 0x3067 JUMP JUMPDEST MSTORE PUSH2 0x44E9 DUP2 PUSH2 0x3067 JUMP JUMPDEST POP PUSH20 0x6BFD8137E702540E7A42B74178A4A49BA43920C4 EXTCODESIZE ISZERO PUSH2 0xBF3 JUMPI PUSH0 PUSH2 0x4524 SWAP2 PUSH1 0x40 MLOAD DUP1 SWAP4 DUP2 SWAP3 PUSH4 0x374F435D PUSH1 0xE0 SHL DUP4 MSTORE PUSH1 0x4 DUP4 ADD PUSH2 0x3F24 JUMP JUMPDEST SUB DUP2 DUP4 PUSH20 0x6BFD8137E702540E7A42B74178A4A49BA43920C4 GAS CALL DUP1 ISZERO PUSH2 0x270F JUMPI PUSH2 0x454C JUMPI POP SWAP1 JUMP JUMPDEST PUSH0 PUSH2 0x2DF3 SWAP2 PUSH2 0x2B13 JUMP JUMPDEST PUSH2 0x456E SWAP1 PUSH1 0x20 RETURNDATASIZE PUSH1 0x20 GT PUSH2 0x3DD1 JUMPI PUSH2 0x3DC4 DUP2 DUP4 PUSH2 0x2B13 JUMP JUMPDEST PUSH2 0x43C9 JUMP JUMPDEST SWAP1 SWAP3 POP PUSH1 0x20 DUP2 RETURNDATASIZE PUSH1 0x20 GT PUSH2 0x459F JUMPI JUMPDEST DUP2 PUSH2 0x458F PUSH1 0x20 SWAP4 DUP4 PUSH2 0x2B13 JUMP JUMPDEST DUP2 ADD SUB SLT PUSH2 0xBF3 JUMPI MLOAD SWAP2 PUSH0 PUSH2 0x438C JUMP JUMPDEST RETURNDATASIZE SWAP2 POP PUSH2 0x4582 JUMP JUMPDEST PUSH1 0x40 MLOAD PUSH4 0x79BC57D5 PUSH1 0xE0 SHL DUP2 MSTORE PUSH1 0x1 PUSH1 0x1 PUSH1 0xA0 SHL SUB DUP1 DUP4 AND PUSH1 0x4 DUP4 ADD MSTORE DUP4 AND PUSH1 0x24 DUP3 ADD MSTORE PUSH1 0x1 PUSH1 0x44 DUP3 ADD MSTORE SWAP1 SWAP2 SWAP1 PUSH1 0x20 DUP2 PUSH1 0x64 DUP2 PUSH0 MLOAD PUSH1 0x20 PUSH2 0x4A0B PUSH0 CODECOPY PUSH0 MLOAD SWAP1 PUSH0 MSTORE GAS STATICCALL SWAP1 DUP2 ISZERO PUSH2 0x270F JUMPI PUSH0 SWAP2 PUSH2 0x46DB JUMPI JUMPDEST POP PUSH1 0x1 PUSH1 0x1 PUSH1 0xA0 SHL SUB AND ISZERO PUSH2 0x46D4 JUMPI PUSH2 0x4680 SWAP3 PUSH0 SWAP3 PUSH2 0x4616 PUSH2 0x39C3 JUMP JUMPDEST SWAP3 PUSH1 0x40 MLOAD SWAP2 PUSH2 0x4624 DUP4 PUSH2 0x2AC9 JUMP JUMPDEST PUSH1 0x1 PUSH1 0x1 PUSH1 0xA0 SHL SUB SWAP1 DUP2 AND DUP4 MSTORE AND PUSH1 0x20 DUP3 ADD MSTORE PUSH1 0x1 PUSH1 0x40 DUP3 ADD MSTORE PUSH0 MLOAD PUSH1 0x20 PUSH2 0x4A0B PUSH0 CODECOPY PUSH0 MLOAD SWAP1 PUSH0 MSTORE PUSH1 0x60 DUP3 ADD MSTORE PUSH2 0x465A DUP4 PUSH2 0x305A JUMP JUMPDEST MSTORE PUSH2 0x4664 DUP3 PUSH2 0x305A JUMP JUMPDEST POP PUSH1 0x40 MLOAD PUSH4 0x1542686B PUSH1 0xE2 SHL DUP2 MSTORE SWAP4 DUP5 SWAP3 DUP4 SWAP3 PUSH1 0x4 DUP5 ADD PUSH2 0x3AFC JUMP JUMPDEST SUB DUP2 PUSH20 0xCF77A3BA9A5CA399B7C97C74D54E5B1BEB874E43 GAS STATICCALL PUSH0 SWAP2 DUP2 PUSH2 0x46B8 JUMPI JUMPDEST POP PUSH2 0x46AB JUMPI POP PUSH0 SWAP1 JUMP JUMPDEST PUSH2 0x46B4 SWAP1 PUSH2 0x3067 JUMP JUMPDEST MLOAD SWAP1 JUMP JUMPDEST PUSH2 0x46CD SWAP2 SWAP3 POP RETURNDATASIZE DUP1 PUSH0 DUP4 RETURNDATACOPY PUSH2 0x3D9D DUP2 DUP4 PUSH2 0x2B13 JUMP JUMPDEST SWAP1 PUSH0 PUSH2 0x46A1 JUMP JUMPDEST POP POP POP PUSH0 SWAP1 JUMP JUMPDEST PUSH2 0x46F4 SWAP2 POP PUSH1 0x20 RETURNDATASIZE PUSH1 0x20 GT PUSH2 0x6C7 JUMPI PUSH2 0x6B9 DUP2 DUP4 PUSH2 0x2B13 JUMP JUMPDEST PUSH0 PUSH2 0x45F9 JUMP JUMPDEST PUSH1 0x40 MLOAD PUSH4 0x79BC57D5 PUSH1 0xE0 SHL DUP2 MSTORE PUSH1 0x1 PUSH1 0x1 PUSH1 0xA0 SHL SUB DUP1 DUP4 AND PUSH1 0x4 DUP4 ADD MSTORE DUP4 AND PUSH1 0x24 DUP3 ADD MSTORE PUSH0 PUSH1 0x44 DUP3 ADD MSTORE SWAP1 SWAP2 SWAP1 PUSH1 0x20 DUP2 PUSH1 0x64 DUP2 PUSH0 MLOAD PUSH1 0x20 PUSH2 0x4A0B PUSH0 CODECOPY PUSH0 MLOAD SWAP1 PUSH0 MSTORE GAS STATICCALL SWAP1 DUP2 ISZERO PUSH2 0x270F JUMPI PUSH0 SWAP2 PUSH2 0x47AC JUMPI JUMPDEST POP PUSH1 0x1 PUSH1 0x1 PUSH1 0xA0 SHL SUB AND ISZERO PUSH2 0x46D4 JUMPI PUSH2 0x4680 SWAP3 PUSH0 SWAP3 PUSH2 0x4768 PUSH2 0x39C3 JUMP JUMPDEST SWAP3 PUSH1 0x40 MLOAD SWAP2 PUSH2 0x4776 DUP4 PUSH2 0x2AC9 JUMP JUMPDEST PUSH1 0x1 PUSH1 0x1 PUSH1 0xA0 SHL SUB SWAP1 DUP2 AND DUP4 MSTORE AND PUSH1 0x20 DUP3 ADD MSTORE PUSH1 0x40 DUP2 ADD DUP5 SWAP1 MSTORE PUSH0 MLOAD PUSH1 0x20 PUSH2 0x4A0B PUSH0 CODECOPY PUSH0 MLOAD SWAP1 PUSH0 MSTORE PUSH1 0x60 DUP3 ADD MSTORE PUSH2 0x465A DUP4 PUSH2 0x305A JUMP JUMPDEST PUSH2 0x47C5 SWAP2 POP PUSH1 0x20 RETURNDATASIZE PUSH1 0x20 GT PUSH2 0x6C7 JUMPI PUSH2 0x6B9 DUP2 DUP4 PUSH2 0x2B13 JUMP JUMPDEST PUSH0 PUSH2 0x474B JUMP JUMPDEST PUSH1 0x40 MLOAD PUSH4 0x79BC57D5 PUSH1 0xE0 SHL DUP2 MSTORE PUSH1 0x1 PUSH1 0x1 PUSH1 0xA0 SHL SUB DUP3 DUP2 AND PUSH1 0x4 DUP4 ADD MSTORE DUP4 AND PUSH1 0x24 DUP3 ADD MSTORE DUP5 ISZERO ISZERO PUSH1 0x44 DUP3 ADD MSTORE SWAP1 SWAP4 SWAP3 SWAP1 PUSH1 0x20 DUP2 PUSH1 0x64 DUP2 PUSH0 MLOAD PUSH1 0x20 PUSH2 0x4A0B PUSH0 CODECOPY PUSH0 MLOAD SWAP1 PUSH0 MSTORE GAS STATICCALL SWAP1 DUP2 ISZERO PUSH2 0x270F JUMPI PUSH0 SWAP2 PUSH2 0x4888 JUMPI JUMPDEST POP PUSH1 0x1 PUSH1 0x1 PUSH1 0xA0 SHL SUB AND ISZERO PUSH2 0x4880 JUMPI PUSH2 0x4680 SWAP4 PUSH0 SWAP4 PUSH2 0x483C PUSH2 0x39C3 JUMP JUMPDEST SWAP4 PUSH1 0x40 MLOAD SWAP3 PUSH2 0x484A DUP5 PUSH2 0x2AC9 JUMP JUMPDEST PUSH1 0x1 PUSH1 0x1 PUSH1 0xA0 SHL SUB SWAP1 DUP2 AND DUP5 MSTORE AND PUSH1 0x20 DUP4 ADD MSTORE ISZERO ISZERO PUSH1 0x40 DUP3 ADD MSTORE PUSH0 MLOAD PUSH1 0x20 PUSH2 0x4A0B PUSH0 CODECOPY PUSH0 MLOAD SWAP1 PUSH0 MSTORE PUSH1 0x60 DUP3 ADD MSTORE PUSH2 0x465A DUP4 PUSH2 0x305A JUMP JUMPDEST POP POP POP POP PUSH0 SWAP1 JUMP JUMPDEST PUSH2 0x48A1 SWAP2 POP PUSH1 0x20 RETURNDATASIZE PUSH1 0x20 GT PUSH2 0x6C7 JUMPI PUSH2 0x6B9 DUP2 DUP4 PUSH2 0x2B13 JUMP JUMPDEST PUSH0 PUSH2 0x481F JUMP JUMPDEST PUSH1 0x1 PUSH1 0x1 PUSH1 0xA0 SHL SUB SWAP1 SWAP4 AND ISZERO SWAP4 DUP5 DUP1 PUSH2 0x4940 JUMPI JUMPDEST PUSH2 0x4293 JUMPI PUSH1 0x1 PUSH1 0x1 PUSH1 0xA0 SHL SUB AND ISZERO SWAP3 DUP4 DUP1 PUSH2 0x4938 JUMPI JUMPDEST PUSH2 0x492E JUMPI PUSH0 SWAP4 PUSH0 SWAP6 ISZERO PUSH2 0x491B JUMPI JUMPDEST ISZERO PUSH2 0x4907 JUMPI JUMPDEST POP POP POP PUSH2 0x3E9 DUP2 MUL SWAP1 DUP1 DUP3 DIV PUSH2 0x3E9 EQ SWAP1 ISZERO OR ISZERO PUSH2 0x2BE2 JUMPI PUSH2 0x3E8 SWAP1 DIV LT ISZERO SWAP1 JUMP JUMPDEST PUSH2 0x4912 SWAP4 SWAP5 POP PUSH2 0x46FA JUMP JUMPDEST SWAP1 PUSH0 DUP1 DUP1 PUSH2 0x48E5 JUMP JUMPDEST SWAP4 POP PUSH2 0x4928 DUP4 DUP4 DUP4 PUSH2 0x45A7 JUMP JUMPDEST SWAP4 PUSH2 0x48DF JUMP JUMPDEST POP POP POP POP POP PUSH1 0x1 SWAP1 JUMP JUMPDEST POP DUP5 ISZERO PUSH2 0x48D1 JUMP JUMPDEST POP PUSH1 0x1 PUSH1 0x1 PUSH1 0xA0 SHL SUB DUP2 AND ISZERO ISZERO PUSH2 0x48BB JUMP JUMPDEST SWAP1 PUSH0 PUSH1 0x20 SWAP2 DUP3 DUP2 MLOAD SWAP2 ADD DUP3 DUP6 GAS CALL ISZERO PUSH2 0x270F JUMPI PUSH0 MLOAD RETURNDATASIZE PUSH2 0x49A1 JUMPI POP PUSH1 0x1 PUSH1 0x1 PUSH1 0xA0 SHL SUB DUP2 AND EXTCODESIZE ISZERO JUMPDEST PUSH2 0x4981 JUMPI POP JUMP JUMPDEST PUSH4 0x5274AFE7 PUSH1 0xE0 SHL PUSH0 SWAP1 DUP2 MSTORE PUSH1 0x1 PUSH1 0x1 PUSH1 0xA0 SHL SUB SWAP2 SWAP1 SWAP2 AND PUSH1 0x4 MSTORE PUSH1 0x24 SWAP1 REVERT JUMPDEST PUSH1 0x1 EQ ISZERO PUSH2 0x497A JUMP INVALID BYTE 0xA8 DUP6 0x27 SWAP9 PUSH23 0x80F71E6ACE8F3D2AB4871DB1862850458125715E5175F0 DUP9 0xC6 MULMOD LT DUP6 AND 0xDD 0xCF JUMPDEST LOG4 EXTCODECOPY 0xEA PUSH12 0xB2CD5FF6D59AC196C1C86CCB SWAP2 PUSH25 0x332B9DD72D1CA5610000000000000000000000003EF3D8BA38 0xEB RJUMPI 0x8DB1 CALLER 0xCE 0xC1 ADDMOD DELEGATECALL DATALOADN 0x4CE0 0xD 0xD9 0xAE STOP STOP STOP STOP STOP STOP STOP STOP STOP STOP STOP STOP TIMESTAMP 0xD 0xD3 DUP2 0xB3 BYTE 0xEF PUSH7 0x83DB6B902084CB 0xF INVALID 0xCE BLOCKHASH 0xDA STOP STOP STOP STOP STOP STOP STOP STOP STOP STOP STOP STOP 0xB9 DUP13 SWAP5 DUP13 STATICCALL 0x24 SMOD 0x2E PC SWAP4 JUMPDEST 0xC0 DIV 0xA8 0xA7 0xB3 PUSH23 0xAE746A2717EAD6B9200DD235AAD468C9809EA400FE33AC PUSH10 0xB5BFAA6D3E90FC922B63 SWAP9 PUSH1 0x12 0x2B 0xA7 0x4D RJUMP 0xC62D 0xA8 0xA5 SWAP14 SWAP13 EOFCREATE 0xEB PUSH19 0xC5D6B04357FA52BB7C972B5CF80DA6FD60A264 PUSH10 0x706673582212206A6EAE 0xCF PUSH18 0x3938FE765568D6C497B77B9ADDE7BB8CAD28 PUSH12 0x953CFBEBAC0D6A2364736F6C PUSH4 0x4300081E STOP CALLER DUP12 RJUMP 0x79C MSTORE8 AND MSIZE EQ SGT PREVRANDAO 0xCD 0x1F 0xD0 LOG4 CALLCODE DUP5 NOT BLOBHASH PUSH32 0x9722A3DAAFE3B4186F6B6457E0A26469706673582212204529BFDD9FDD8938ED GT 0xCA TIMESTAMP SWAP3 SDIV 0xBF 0xC5 0xE 0xD4 PUSH5 0x7749706FDC MULMOD 0xC3 0x27 MSIZE CALLDATALOAD ADDRESS RETURN MOD PUSH5 0x736F6C6343 STOP ADDMOD 0x1E STOP CALLER "},"methodIdentifiers":{"computeVaultAddress(address,address,address,address[],address,uint256,uint256,bytes32)":"4c8210c9","deployVault(address,address,address,address[],address,uint256,uint256,bytes32)":"9e56ae2a","deployVaultWithNonce(address,address,address,address[],address,uint256,uint256,uint256)":"e3997033","deployedVaults(address,bytes32)":"c8f3f909","deploymentFee()":"f2cff57f","emergencyWithdraw()":"db2e21bc","feeRecipient()":"46904840","generateDeterministicSalt(address,uint256)":"cb1b7d90","getOwnerVaults(address)":"3a0f555d","getTotalVaults()":"5486f100","getVaultIndicesByOwner(address)":"921d4eb4","getVaultInfo(uint256)":"b1ba9620","isFactoryVault(address)":"58c62442","isVaultFromFactory(address)":"2f6071c7","owner()":"8da5cb5b","ownerVaults(address,uint256)":"0c90d7b5","pause()":"8456cb59","paused()":"5c975abb","registerCrossChainVault(address,address,address,uint256,bytes32)":"0121bfe3","renounceOwnership()":"715018a6","setDeploymentFee(uint256)":"d002462b","setFeeRecipient(address)":"e74b981b","transferOwnership(address)":"f2fde38b","unpause()":"3f4ba83a","vaultRegistry(uint256)":"9a9748cf","vaultsByOwner(address,uint256)":"1a0121db"}}}}}