{
  "_format": "hh-sol-artifact-1",
  "contractName": "UserVault_V2",
  "sourceName": "contracts/olderVaultV2.sol",
  "abi": [
    {
      "inputs": [
        {
          "internalType": "address",
          "name": "_owner",
          "type": "address"
        },
        {
          "internalType": "address",
          "name": "_admin",
          "type": "address"
        },
        {
          "internalType": "address",
          "name": "_asset",
          "type": "address"
        },
        {
          "internalType": "address[]",
          "name": "_initialVaults",
          "type": "address[]"
        },
        {
          "internalType": "address",
          "name": "_revenueAddress",
          "type": "address"
        },
        {
          "internalType": "uint256",
          "name": "_feePercentage",
          "type": "uint256"
        },
        {
          "internalType": "uint256",
          "name": "_initialDepositAmount",
          "type": "uint256"
        }
      ],
      "stateMutability": "nonpayable",
      "type": "constructor"
    },
    {
      "inputs": [],
      "name": "EnforcedPause",
      "type": "error"
    },
    {
      "inputs": [],
      "name": "ExpectedPause",
      "type": "error"
    },
    {
      "inputs": [],
      "name": "ReentrancyGuardReentrantCall",
      "type": "error"
    },
    {
      "inputs": [
        {
          "internalType": "address",
          "name": "token",
          "type": "address"
        }
      ],
      "name": "SafeERC20FailedOperation",
      "type": "error"
    },
    {
      "anonymous": false,
      "inputs": [
        {
          "indexed": true,
          "internalType": "address",
          "name": "oldAdmin",
          "type": "address"
        },
        {
          "indexed": true,
          "internalType": "address",
          "name": "newAdmin",
          "type": "address"
        }
      ],
      "name": "AdminUpdated",
      "type": "event"
    },
    {
      "anonymous": false,
      "inputs": [
        {
          "indexed": true,
          "internalType": "address",
          "name": "fromAsset",
          "type": "address"
        },
        {
          "indexed": true,
          "internalType": "address",
          "name": "toAsset",
          "type": "address"
        },
        {
          "indexed": false,
          "internalType": "uint256",
          "name": "amountIn",
          "type": "uint256"
        },
        {
          "indexed": false,
          "internalType": "uint256",
          "name": "amountOut",
          "type": "uint256"
        }
      ],
      "name": "AssetSwapped",
      "type": "event"
    },
    {
      "anonymous": false,
      "inputs": [
        {
          "indexed": true,
          "internalType": "address",
          "name": "vault",
          "type": "address"
        },
        {
          "indexed": false,
          "internalType": "uint256",
          "name": "feeAmount",
          "type": "uint256"
        },
        {
          "indexed": false,
          "internalType": "uint256",
          "name": "userAmount",
          "type": "uint256"
        }
      ],
      "name": "FeeCollected",
      "type": "event"
    },
    {
      "anonymous": false,
      "inputs": [
        {
          "indexed": false,
          "internalType": "uint256",
          "name": "oldFee",
          "type": "uint256"
        },
        {
          "indexed": false,
          "internalType": "uint256",
          "name": "newFee",
          "type": "uint256"
        }
      ],
      "name": "FeePercentageUpdated",
      "type": "event"
    },
    {
      "anonymous": false,
      "inputs": [
        {
          "indexed": true,
          "internalType": "address",
          "name": "vault",
          "type": "address"
        },
        {
          "indexed": false,
          "internalType": "uint256",
          "name": "amount",
          "type": "uint256"
        }
      ],
      "name": "InitialDeposit",
      "type": "event"
    },
    {
      "anonymous": false,
      "inputs": [
        {
          "indexed": true,
          "internalType": "address",
          "name": "vault",
          "type": "address"
        },
        {
          "indexed": false,
          "internalType": "uint256",
          "name": "amount",
          "type": "uint256"
        }
      ],
      "name": "InitialDepositExecuted",
      "type": "event"
    },
    {
      "anonymous": false,
      "inputs": [
        {
          "indexed": false,
          "internalType": "address",
          "name": "account",
          "type": "address"
        }
      ],
      "name": "Paused",
      "type": "event"
    },
    {
      "anonymous": false,
      "inputs": [
        {
          "indexed": true,
          "internalType": "address",
          "name": "fromVault",
          "type": "address"
        },
        {
          "indexed": true,
          "internalType": "address",
          "name": "toVault",
          "type": "address"
        },
        {
          "indexed": false,
          "internalType": "uint256",
          "name": "amount",
          "type": "uint256"
        }
      ],
      "name": "PeriodicDeposit",
      "type": "event"
    },
    {
      "anonymous": false,
      "inputs": [
        {
          "indexed": true,
          "internalType": "address",
          "name": "fromVault",
          "type": "address"
        },
        {
          "indexed": true,
          "internalType": "address",
          "name": "toVault",
          "type": "address"
        },
        {
          "indexed": false,
          "internalType": "uint256",
          "name": "profit",
          "type": "uint256"
        },
        {
          "indexed": false,
          "internalType": "uint256",
          "name": "feeAmount",
          "type": "uint256"
        }
      ],
      "name": "RebalanceFeeCollected",
      "type": "event"
    },
    {
      "anonymous": false,
      "inputs": [
        {
          "indexed": true,
          "internalType": "address",
          "name": "fromVault",
          "type": "address"
        },
        {
          "indexed": true,
          "internalType": "address",
          "name": "toVault",
          "type": "address"
        },
        {
          "indexed": false,
          "internalType": "uint256",
          "name": "amount",
          "type": "uint256"
        }
      ],
      "name": "Rebalanced",
      "type": "event"
    },
    {
      "anonymous": false,
      "inputs": [
        {
          "indexed": true,
          "internalType": "address",
          "name": "oldAddress",
          "type": "address"
        },
        {
          "indexed": true,
          "internalType": "address",
          "name": "newAddress",
          "type": "address"
        }
      ],
      "name": "RevenueAddressUpdated",
      "type": "event"
    },
    {
      "anonymous": false,
      "inputs": [
        {
          "indexed": false,
          "internalType": "address",
          "name": "account",
          "type": "address"
        }
      ],
      "name": "Unpaused",
      "type": "event"
    },
    {
      "anonymous": false,
      "inputs": [
        {
          "indexed": true,
          "internalType": "address",
          "name": "vault",
          "type": "address"
        }
      ],
      "name": "VaultAdded",
      "type": "event"
    },
    {
      "anonymous": false,
      "inputs": [
        {
          "indexed": true,
          "internalType": "address",
          "name": "vault",
          "type": "address"
        }
      ],
      "name": "VaultRemoved",
      "type": "event"
    },
    {
      "anonymous": false,
      "inputs": [
        {
          "indexed": true,
          "internalType": "address",
          "name": "vault",
          "type": "address"
        },
        {
          "indexed": true,
          "internalType": "address",
          "name": "recipient",
          "type": "address"
        },
        {
          "indexed": false,
          "internalType": "uint256",
          "name": "amount",
          "type": "uint256"
        }
      ],
      "name": "Withdrawal",
      "type": "event"
    },
    {
      "inputs": [],
      "name": "AERODROME_FACTORY",
      "outputs": [
        {
          "internalType": "address",
          "name": "",
          "type": "address"
        }
      ],
      "stateMutability": "view",
      "type": "function"
    },
    {
      "inputs": [],
      "name": "AERODROME_ROUTER",
      "outputs": [
        {
          "internalType": "address",
          "name": "",
          "type": "address"
        }
      ],
      "stateMutability": "view",
      "type": "function"
    },
    {
      "inputs": [],
      "name": "DEPOSIT_INTERVAL",
      "outputs": [
        {
          "internalType": "uint256",
          "name": "",
          "type": "uint256"
        }
      ],
      "stateMutability": "view",
      "type": "function"
    },
    {
      "inputs": [],
      "name": "MAX_FEE_PERCENTAGE",
      "outputs": [
        {
          "internalType": "uint256",
          "name": "",
          "type": "uint256"
        }
      ],
      "stateMutability": "view",
      "type": "function"
    },
    {
      "inputs": [],
      "name": "MIN_PROFIT_FOR_FEE",
      "outputs": [
        {
          "internalType": "uint256",
          "name": "",
          "type": "uint256"
        }
      ],
      "stateMutability": "view",
      "type": "function"
    },
    {
      "inputs": [],
      "name": "REBALANCE_FEE_PERCENTAGE",
      "outputs": [
        {
          "internalType": "uint256",
          "name": "",
          "type": "uint256"
        }
      ],
      "stateMutability": "view",
      "type": "function"
    },
    {
      "inputs": [],
      "name": "SLIPPAGE_TOLERANCE",
      "outputs": [
        {
          "internalType": "uint256",
          "name": "",
          "type": "uint256"
        }
      ],
      "stateMutability": "view",
      "type": "function"
    },
    {
      "inputs": [
        {
          "internalType": "address",
          "name": "vault",
          "type": "address"
        }
      ],
      "name": "addVault",
      "outputs": [],
      "stateMutability": "nonpayable",
      "type": "function"
    },
    {
      "inputs": [],
      "name": "admin",
      "outputs": [
        {
          "internalType": "address",
          "name": "",
          "type": "address"
        }
      ],
      "stateMutability": "view",
      "type": "function"
    },
    {
      "inputs": [
        {
          "internalType": "uint256",
          "name": "",
          "type": "uint256"
        }
      ],
      "name": "allowedVaults",
      "outputs": [
        {
          "internalType": "address",
          "name": "",
          "type": "address"
        }
      ],
      "stateMutability": "view",
      "type": "function"
    },
    {
      "inputs": [],
      "name": "asset",
      "outputs": [
        {
          "internalType": "address",
          "name": "",
          "type": "address"
        }
      ],
      "stateMutability": "view",
      "type": "function"
    },
    {
      "inputs": [
        {
          "internalType": "uint256",
          "name": "totalAmount",
          "type": "uint256"
        }
      ],
      "name": "calculateFeeFromProfit",
      "outputs": [
        {
          "internalType": "uint256",
          "name": "feeAmount",
          "type": "uint256"
        },
        {
          "internalType": "uint256",
          "name": "userAmount",
          "type": "uint256"
        }
      ],
      "stateMutability": "view",
      "type": "function"
    },
    {
      "inputs": [],
      "name": "canDeposit",
      "outputs": [
        {
          "internalType": "bool",
          "name": "",
          "type": "bool"
        }
      ],
      "stateMutability": "view",
      "type": "function"
    },
    {
      "inputs": [],
      "name": "currentVault",
      "outputs": [
        {
          "internalType": "address",
          "name": "",
          "type": "address"
        }
      ],
      "stateMutability": "view",
      "type": "function"
    },
    {
      "inputs": [
        {
          "internalType": "address",
          "name": "bestVault",
          "type": "address"
        }
      ],
      "name": "deposit",
      "outputs": [],
      "stateMutability": "nonpayable",
      "type": "function"
    },
    {
      "inputs": [
        {
          "internalType": "address",
          "name": "vault",
          "type": "address"
        }
      ],
      "name": "emergencyWithdraw",
      "outputs": [],
      "stateMutability": "nonpayable",
      "type": "function"
    },
    {
      "inputs": [],
      "name": "feePercentage",
      "outputs": [
        {
          "internalType": "uint256",
          "name": "",
          "type": "uint256"
        }
      ],
      "stateMutability": "view",
      "type": "function"
    },
    {
      "inputs": [],
      "name": "getAllowedVaults",
      "outputs": [
        {
          "internalType": "address[]",
          "name": "",
          "type": "address[]"
        }
      ],
      "stateMutability": "view",
      "type": "function"
    },
    {
      "inputs": [],
      "name": "getAllowedVaultsCount",
      "outputs": [
        {
          "internalType": "uint256",
          "name": "",
          "type": "uint256"
        }
      ],
      "stateMutability": "view",
      "type": "function"
    },
    {
      "inputs": [],
      "name": "getCurrentVaultAssets",
      "outputs": [
        {
          "internalType": "uint256",
          "name": "",
          "type": "uint256"
        }
      ],
      "stateMutability": "view",
      "type": "function"
    },
    {
      "inputs": [],
      "name": "getCurrentVaultAssetsInPrimaryAsset",
      "outputs": [
        {
          "internalType": "uint256",
          "name": "",
          "type": "uint256"
        }
      ],
      "stateMutability": "view",
      "type": "function"
    },
    {
      "inputs": [],
      "name": "getCurrentVaultBalance",
      "outputs": [
        {
          "internalType": "uint256",
          "name": "",
          "type": "uint256"
        }
      ],
      "stateMutability": "view",
      "type": "function"
    },
    {
      "inputs": [],
      "name": "getFeeInfo",
      "outputs": [
        {
          "internalType": "address",
          "name": "_revenueAddress",
          "type": "address"
        },
        {
          "internalType": "uint256",
          "name": "_feePercentage",
          "type": "uint256"
        },
        {
          "internalType": "uint256",
          "name": "_totalFeesCollected",
          "type": "uint256"
        }
      ],
      "stateMutability": "view",
      "type": "function"
    },
    {
      "inputs": [
        {
          "internalType": "address",
          "name": "tokenIn",
          "type": "address"
        },
        {
          "internalType": "address",
          "name": "tokenOut",
          "type": "address"
        },
        {
          "internalType": "uint256",
          "name": "amountIn",
          "type": "uint256"
        }
      ],
      "name": "getOptimalPoolInfo",
      "outputs": [
        {
          "internalType": "bool",
          "name": "useStable",
          "type": "bool"
        },
        {
          "internalType": "uint256",
          "name": "stableOutput",
          "type": "uint256"
        },
        {
          "internalType": "uint256",
          "name": "volatileOutput",
          "type": "uint256"
        }
      ],
      "stateMutability": "view",
      "type": "function"
    },
    {
      "inputs": [],
      "name": "getPotentialFee",
      "outputs": [
        {
          "internalType": "uint256",
          "name": "",
          "type": "uint256"
        }
      ],
      "stateMutability": "view",
      "type": "function"
    },
    {
      "inputs": [],
      "name": "getProfit",
      "outputs": [
        {
          "internalType": "int256",
          "name": "",
          "type": "int256"
        }
      ],
      "stateMutability": "view",
      "type": "function"
    },
    {
      "inputs": [],
      "name": "getProfitPercentage",
      "outputs": [
        {
          "internalType": "int256",
          "name": "",
          "type": "int256"
        }
      ],
      "stateMutability": "view",
      "type": "function"
    },
    {
      "inputs": [],
      "name": "getTaxableProfit",
      "outputs": [
        {
          "internalType": "uint256",
          "name": "",
          "type": "uint256"
        }
      ],
      "stateMutability": "view",
      "type": "function"
    },
    {
      "inputs": [
        {
          "internalType": "address",
          "name": "vault",
          "type": "address"
        }
      ],
      "name": "getVaultAsset",
      "outputs": [
        {
          "internalType": "address",
          "name": "",
          "type": "address"
        }
      ],
      "stateMutability": "view",
      "type": "function"
    },
    {
      "inputs": [
        {
          "internalType": "uint256",
          "name": "withdrawAmount",
          "type": "uint256"
        }
      ],
      "name": "getWithdrawFeePreview",
      "outputs": [
        {
          "internalType": "uint256",
          "name": "feeAmount",
          "type": "uint256"
        },
        {
          "internalType": "uint256",
          "name": "userAmount",
          "type": "uint256"
        }
      ],
      "stateMutability": "view",
      "type": "function"
    },
    {
      "inputs": [],
      "name": "hasInitialDeposit",
      "outputs": [
        {
          "internalType": "bool",
          "name": "",
          "type": "bool"
        }
      ],
      "stateMutability": "view",
      "type": "function"
    },
    {
      "inputs": [
        {
          "internalType": "address",
          "name": "vault",
          "type": "address"
        },
        {
          "internalType": "uint256",
          "name": "amount",
          "type": "uint256"
        }
      ],
      "name": "initialDeposit",
      "outputs": [],
      "stateMutability": "nonpayable",
      "type": "function"
    },
    {
      "inputs": [],
      "name": "initialDepositAmount",
      "outputs": [
        {
          "internalType": "uint256",
          "name": "",
          "type": "uint256"
        }
      ],
      "stateMutability": "view",
      "type": "function"
    },
    {
      "inputs": [],
      "name": "initialDepositMade",
      "outputs": [
        {
          "internalType": "bool",
          "name": "",
          "type": "bool"
        }
      ],
      "stateMutability": "view",
      "type": "function"
    },
    {
      "inputs": [
        {
          "internalType": "address",
          "name": "",
          "type": "address"
        }
      ],
      "name": "isAllowedVault",
      "outputs": [
        {
          "internalType": "bool",
          "name": "",
          "type": "bool"
        }
      ],
      "stateMutability": "view",
      "type": "function"
    },
    {
      "inputs": [],
      "name": "lastDepositTime",
      "outputs": [
        {
          "internalType": "uint256",
          "name": "",
          "type": "uint256"
        }
      ],
      "stateMutability": "view",
      "type": "function"
    },
    {
      "inputs": [
        {
          "internalType": "address",
          "name": "vault",
          "type": "address"
        }
      ],
      "name": "needsSwap",
      "outputs": [
        {
          "internalType": "bool",
          "name": "",
          "type": "bool"
        }
      ],
      "stateMutability": "view",
      "type": "function"
    },
    {
      "inputs": [],
      "name": "owner",
      "outputs": [
        {
          "internalType": "address",
          "name": "",
          "type": "address"
        }
      ],
      "stateMutability": "view",
      "type": "function"
    },
    {
      "inputs": [],
      "name": "pause",
      "outputs": [],
      "stateMutability": "nonpayable",
      "type": "function"
    },
    {
      "inputs": [],
      "name": "paused",
      "outputs": [
        {
          "internalType": "bool",
          "name": "",
          "type": "bool"
        }
      ],
      "stateMutability": "view",
      "type": "function"
    },
    {
      "inputs": [
        {
          "internalType": "address",
          "name": "fromVault",
          "type": "address"
        },
        {
          "internalType": "address",
          "name": "toVault",
          "type": "address"
        }
      ],
      "name": "rebalanceToVault",
      "outputs": [],
      "stateMutability": "nonpayable",
      "type": "function"
    },
    {
      "inputs": [
        {
          "internalType": "address",
          "name": "vault",
          "type": "address"
        }
      ],
      "name": "removeVault",
      "outputs": [],
      "stateMutability": "nonpayable",
      "type": "function"
    },
    {
      "inputs": [],
      "name": "revenueAddress",
      "outputs": [
        {
          "internalType": "address",
          "name": "",
          "type": "address"
        }
      ],
      "stateMutability": "view",
      "type": "function"
    },
    {
      "inputs": [],
      "name": "timeUntilNextDeposit",
      "outputs": [
        {
          "internalType": "uint256",
          "name": "",
          "type": "uint256"
        }
      ],
      "stateMutability": "view",
      "type": "function"
    },
    {
      "inputs": [],
      "name": "totalDeposited",
      "outputs": [
        {
          "internalType": "uint256",
          "name": "",
          "type": "uint256"
        }
      ],
      "stateMutability": "view",
      "type": "function"
    },
    {
      "inputs": [],
      "name": "totalFeesCollected",
      "outputs": [
        {
          "internalType": "uint256",
          "name": "",
          "type": "uint256"
        }
      ],
      "stateMutability": "view",
      "type": "function"
    },
    {
      "inputs": [],
      "name": "unpause",
      "outputs": [],
      "stateMutability": "nonpayable",
      "type": "function"
    },
    {
      "inputs": [
        {
          "internalType": "address",
          "name": "newAdmin",
          "type": "address"
        }
      ],
      "name": "updateAdmin",
      "outputs": [],
      "stateMutability": "nonpayable",
      "type": "function"
    },
    {
      "inputs": [
        {
          "internalType": "uint256",
          "name": "newFeePercentage",
          "type": "uint256"
        }
      ],
      "name": "updateFeePercentage",
      "outputs": [],
      "stateMutability": "nonpayable",
      "type": "function"
    },
    {
      "inputs": [
        {
          "internalType": "address",
          "name": "newRevenueAddress",
          "type": "address"
        }
      ],
      "name": "updateRevenueAddress",
      "outputs": [],
      "stateMutability": "nonpayable",
      "type": "function"
    },
    {
      "inputs": [
        {
          "internalType": "address",
          "name": "vault",
          "type": "address"
        },
        {
          "internalType": "uint256",
          "name": "amount",
          "type": "uint256"
        }
      ],
      "name": "withdraw",
      "outputs": [],
      "stateMutability": "nonpayable",
      "type": "function"
    }
  ],
  "bytecode": "0x60c0604052346104b25761384280380380610019816104b6565b92833981019060e0818303126104b257610032816104db565b9061003f602082016104db565b9161004c604083016104db565b60608301516001600160401b0381116104b25783019480601f870112156104b2578551956001600160401b038711610245578660051b906020806100918185016104b6565b809a815201928201019283116104b257602001905b82821061049a575050506100bc608084016104db565b60a084015160c09094015160015f5594906001600160a01b03841615610465576001600160a01b03821615610430576001600160a01b038316156103fb578651156103c2576001600160a01b031692831561037d576103e885116103495785156103055760805260018054610100600160a81b031916600892831b610100600160a81b031617905560a091909152600580546001600160a01b03191692909217909155600691909155555f5b815181101561029e576001600160a01b0361018382846104ef565b511615610259576001600160a01b0361019c82846104ef565b51165f908152600a60205260409020805460ff191660011790556001600160a01b036101c882846104ef565b511690600b549168010000000000000000831015610245576001830180600b5583101561023157600b5f527f0175b7a638427703f0dbe7bb9bbf987a2551717b34e79f33b5b1008d1fa01db990920180546001600160a01b031916909217909155600101610168565b634e487b7160e01b5f52603260045260245ffd5b634e487b7160e01b5f52604160045260245ffd5b60405162461bcd60e51b815260206004820152601560248201527f496e76616c6964207661756c74206164647265737300000000000000000000006044820152606490fd5b60405161333e908161050482396080518181816103d50152818161065101528181610f85015281816110cd0152611710015260a0518181816104ce01528181610d4e0152818161119c01528181611463015281816117ae01528181611e1b01526120a90152f35b606460405162461bcd60e51b815260206004820152602060248201527f496e697469616c206465706f736974206d75737420626520706f7369746976656044820152fd5b60405162461bcd60e51b815260206004820152600c60248201526b08ccaca40e8dede40d0d2ced60a31b6044820152606490fd5b60405162461bcd60e51b815260206004820152601760248201527f496e76616c696420726576656e756520616464726573730000000000000000006044820152606490fd5b60405162461bcd60e51b81526020600482015260116024820152704e6f20696e697469616c207661756c747360781b6044820152606490fd5b60405162461bcd60e51b815260206004820152600d60248201526c125b9d985b1a5908185cdcd95d609a1b6044820152606490fd5b60405162461bcd60e51b815260206004820152600d60248201526c24b73b30b634b21030b236b4b760991b6044820152606490fd5b60405162461bcd60e51b815260206004820152600d60248201526c24b73b30b634b21037bbb732b960991b6044820152606490fd5b602080916104a7846104db565b8152019101906100a6565b5f80fd5b6040519190601f01601f191682016001600160401b0381118382101761024557604052565b51906001600160a01b03821682036104b257565b80518210156102315760209160051b01019056fe6080806040526004361015610012575f80fd5b5f3560e01c90816202eab714611b2a575080630147cb7b146116ed5780630b61905f146116d35780630d2b32c7146116b957806310f55679146113e357806315cb51ce146116925780631746a22b146116505780631ec06ecc1461163657806321edd09714611619578063256b5a02146114d45780632b0c6c45146114ac5780632f5ce3451461149257806338d52e0f1461144e5780633f4ba83a146113e85780634c203786146113e3578063558e44d3146113c75780635a46d32f146113ad5780635c975abb1461138b57806360c6d8ae1461136e57806366aeb1c114611350578063679dffb4146113365780636cad3fb0146112945780636db4b69d1461126f5780636ff1c9bc146110b257806372a7d477146110855780637f68237a1461105b5780638456cb5914610ff35780638bbed95814610fd15780638c8d944f14610fb45780638da5cb5b14610f70578063a001ecdd14610f53578063a3c1eb8b14610c4e578063b410908d14610c26578063b723bcc314610c09578063bd28f35114610bec578063ca9d67c814610bb7578063ceb68c23146109fe578063d0e56347146109ba578063d81b464b146109a0578063db37bab414610972578063e2f273bd146108a7578063e44fef95146107fc578063e78a5875146107b9578063edcf63161461079c578063f340fa0114610635578063f3fef3a3146103ba578063f851a4401461038e578063f8c0ae051461036c578063fd8120941461032f578063fdd288591461026d5763ff50abdc1461024c575f80fd5b34610269575f366003190112610269576020600354604051908152f35b5f80fd5b3461026957602036600319011261026957610286611b5f565b61029e60018060a01b0360015460081c163314611ee4565b6001600160a01b031680156102f057600580546001600160a01b0319811683179091556001600160a01b03167f9c18ec49f4aa2c93ab2db0f2f75da25811971a22646a4da0409e945bd48e8af75f80a3005b60405162461bcd60e51b8152602060048201526017602482015276496e76616c696420726576656e7565206164647265737360481b6044820152606490fd5b34610269576020366003190112610269576001600160a01b03610350611b5f565b165f52600a602052602060ff60405f2054166040519015158152f35b34610269575f3660031901126102695760206103866125a8565b604051908152f35b34610269575f3660031901126102695760015460405160089190911c6001600160a01b03168152602090f35b34610269576040366003190112610269576103d3611b5f565b7f00000000000000000000000000000000000000000000000000000000000000006001600160a01b03811691602435919061040f338514611bd3565b60018060a01b03811692835f52600a60205261043160ff60405f205416611c0c565b6104396125e3565b610441612601565b61046660025461045660ff8260a01c16612169565b6001600160a01b031685146121b0565b61046f82612c4a565b9182156105fc57610492928215818482156105f2575b50506105ea575b50612c84565b906040516338d52e0f60e01b8152602081600481875afa9182156105df575f5160206132c95f395f51905f529360209386935f916105b2575b507f00000000000000000000000000000000000000000000000000000000000000006001600160a01b038181169290811683900361059d575b50508192610514610525936120f9565b9581879492610552575b5050612e29565b600354908082111561054a5761053a91611cb6565b600355604051908152a360015f55005b50505f61053a565b6005545f5160206132895f395f51905f529160409161057c9082906001600160a01b031687612e29565b61058881600754611c4c565b6007558151908152868b820152a2888b61051e565b926105ab91610525946127d3565b9189610504565b6105d29150853d87116105d8575b6105ca8183611c74565b810190611c97565b886104cb565b503d6105c0565b6040513d5f823e3d90fd5b91508661048c565b1190508189610485565b60405162461bcd60e51b8152602060048201526011602482015270139bc8199d5b991cc81a5b881d985d5b1d607a1b6044820152606490fd5b346102695760203660031901126102695761064e611b5f565b337f00000000000000000000000000000000000000000000000000000000000000006001600160a01b0316148015610782575b15610747576001600160a01b0381165f908152600a60205260409020546106aa9060ff16611c0c565b6004546201518081018082116107335742109081159161072a575b50156106ea576106e4906106d76125e3565b6106df612601565b612423565b60015f55005b60405162461bcd60e51b815260206004820152601860248201527711195c1bdcda5d081a5b9d195c9d985b081b9bdd081b595d60421b6044820152606490fd5b905015826106c5565b634e487b7160e01b5f52601160045260245ffd5b60405162461bcd60e51b815260206004820152601360248201527227b7363c9037bbb732b91037b91030b236b4b760691b6044820152606490fd5b506001543360089190911c6001600160a01b031614610681565b34610269575f366003190112610269576020604051629896808152f35b34610269575f3660031901126102695760045462015180810190818111610733576020914210908115916107f3575b506040519015158152f35b905015826107e8565b34610269575f36600319011261026957604051806020600b5492838152018092600b5f5260205f20905f5b818110610888575050508161083d910382611c74565b604051918291602083019060208452518091526040830191905f5b818110610866575050500390f35b82516001600160a01b0316845285945060209384019390920191600101610858565b82546001600160a01b0316845260209093019260019283019201610827565b34610269576020366003190112610269576108c0611b5f565b600154600881901c6001600160a01b0316906108dd338314611ee4565b6001600160a01b03831692831561093557610100600160a81b031990911660089190911b610100600160a81b0316176001557f101b8081ff3b56bbf45deb824d86a3b0fd38b7e3dd42421105cf8abe9106db0b5f80a3005b60405162461bcd60e51b8152602060048201526015602482015274496e76616c69642061646d696e206164647265737360581b6044820152606490fd5b34610269575f36600319011261026957602060405173cf77a3ba9a5ca399b7c97c74d54e5b1beb874e438152f35b34610269575f3660031901126102695760206103866123b2565b346102695760603660031901126102695760606109e96109d8611b5f565b6109e0611b75565b60443591612289565b90604051921515835260208301526040820152f35b3461026957602036600319011261026957610a17611b5f565b610a2f60018060a01b0360015460081c163314611ee4565b6001600160a01b03165f818152600a6020526040902054610a529060ff16611c0c565b6002546001600160a01b03168114610b74575f818152600a60205260408120805460ff191690555b600b549081811015610b6d5782610a9082611ba7565b905460039190911b1c6001600160a01b031614610ab1576001915001610a7a565b5f19820191821161073357610ae3610acb610b0793611ba7565b905460039190911b1c6001600160a01b031691611ba7565b9080546001600160a01b0360039390931b83811b199091169290931690921b179055565b600b548015610b59575f1901610b1c81611ba7565b81549060018060a01b039060031b1b19169055600b555b7fe71f3a50e5ad81964f352c411f1d45e35438ecd1acecef59ac81d9fbbf6cbc0a5f80a2005b634e487b7160e01b5f52603160045260245ffd5b5050610b33565b60405162461bcd60e51b815260206004820152601b60248201527a10d85b9b9bdd081c995b5bdd994818dd5c9c995b9d081d985d5b1d602a1b6044820152606490fd5b34610269576020366003190112610269576020610bda610bd5611b5f565b612238565b6040516001600160a01b039091168152f35b34610269575f366003190112610269576020600454604051908152f35b34610269575f366003190112610269576020604051620151808152f35b34610269575f366003190112610269576005546040516001600160a01b039091168152602090f35b3461026957604036600319011261026957610c67611b5f565b610c6f611b75565b610c8760018060a01b0360015460081c163314611ee4565b60018060a01b03821690815f52600a602052610ca960ff60405f205416611c0c565b60018060a01b03811692835f52600a602052610ccb60ff60405f205416611c0c565b610cd36125e3565b610cdb612601565b610d00600254610cf060ff8260a01c16612169565b6001600160a01b031684146121b0565b838314610f215780610d14610d2592612c4a565b90610d208215156121f4565b612c84565b6040516338d52e0f60e01b81529091602082600481875afa9182156105df575f92610f00575b507f000000000000000000000000000000000000000000000000000000000000000092916001600160a01b038085169184918691908116849003610eec575b50505082600354808211610e4a575b50506040516338d52e0f60e01b8152926020846004818a5afa9081156105df575f5160206132e95f395f51905f52956020955f93610e2b575b5090928391906001600160a01b03841603610e14575b505081610df59293612b85565b600280546001600160a01b03191686179055604051908152a360015f55005b610df593509082610e24926127d3565b9188610de8565b610e43919350863d88116105d8576105ca8183611c74565b9189610dd2565b610e549082611cb6565b6101f481028181046101f414821517156107335788916127108992049384610e7f575b505050610d99565b84975090610ed685604093610ec27fa9e2d36289e8eb47bd6121c0058a0ba6fda9c98026a9bd634b6c008799484efd96979860018060a01b03600554168b612e29565b610ece82600754611c4c565b600755611cb6565b9782519182526020820152a38686868280610e77565b610ef79395506127d3565b91868481610d8a565b610f1a91925060203d6020116105d8576105ca8183611c74565b9085610d4b565b60405162461bcd60e51b815260206004820152600a60248201526914d85b59481d985d5b1d60b21b6044820152606490fd5b34610269575f366003190112610269576020600654604051908152f35b34610269575f366003190112610269576040517f00000000000000000000000000000000000000000000000000000000000000006001600160a01b03168152602090f35b34610269575f366003190112610269576020600b54604051908152f35b34610269575f36600319011261026957602060ff600954166040519015158152f35b34610269575f366003190112610269576001805461101f33600883901c6001600160a01b031614611ee4565b611027612601565b60ff1916176001557f62e78cea01bee320cd4e420270b5ea74000d11b0c9f74754ebdbfc544b05a2586020604051338152a1005b346102695760203660031901126102695760406110796004356120f9565b82519182526020820152f35b346102695760203660031901126102695760206110a86110a3611b5f565b612071565b6040519015158152f35b34610269576020366003190112610269576110cb611b5f565b7f00000000000000000000000000000000000000000000000000000000000000006001600160a01b0381169190611103338414611bd3565b61110b612e0d565b6111136125e3565b60018060a01b03821691825f52600a60205261113560ff60405f205416611c0c565b61113e81612c4a565b806111495760015f55005b61115291612c84565b906040516338d52e0f60e01b8152602081600481875afa80156105df575f5160206132c95f395f51905f52936020936111d26111e29388955f91611252575b506001600160a01b037f000000000000000000000000000000000000000000000000000000000000000081811695918316869003611242575b5090506120f9565b94818694926111f7575050612e29565b5f600355604051908152a380808080806106e4565b6005545f5160206132895f395f51905f52916040916112219082906001600160a01b031687612e29565b61122d81600754611c4c565b6007558151908152868a820152a2878a61051e565b61124b926127d3565b808b6111ca565b6112699150873d89116105d8576105ca8183611c74565b8a611191565b34610269575f36600319011261026957602060ff60025460a01c166040519015158152f35b34610269576020366003190112610269576004356112c060018060a01b0360015460081c163314611ee4565b6103e881116113025760407fb27c12a91635e11c22bffa7bd8e0a8735da52b94aaefd7f249776c7590ba789491600654908060065582519182526020820152a1005b60405162461bcd60e51b815260206004820152600c60248201526b08ccaca40e8dede40d0d2ced60a31b6044820152606490fd5b34610269575f36600319011261026957602061038661202a565b34610269576020366003190112610269576040611079600435611fbd565b34610269575f366003190112610269576020600754604051908152f35b34610269575f36600319011261026957602060ff600154166040519015158152f35b34610269575f366003190112610269576020610386611f94565b34610269575f3660031901126102695760206040516103e88152f35b611b8b565b34610269575f3660031901126102695760015461141333600883901c6001600160a01b031614611ee4565b61141b612e0d565b60ff19166001557f5db9ee0a495bf2e6ff9c91a7834c1ba4fdd244a5e8aa4e537bd38aeae4b073aa6020604051338152a1005b34610269575f366003190112610269576040517f00000000000000000000000000000000000000000000000000000000000000006001600160a01b03168152602090f35b34610269575f366003190112610269576020610386611f1d565b34610269575f366003190112610269576002546040516001600160a01b039091168152602090f35b34610269576020366003190112610269576114ed611b5f565b61150560018060a01b0360015460081c163314611ee4565b6001600160a01b0381169081156115dc57815f52600a60205260ff60405f20541661159f575f828152600a60205260409020805460ff19166001179055600b5490600160401b82101561158b57610ae38260016115659401600b55611ba7565b7f7b7ef7a864d96a85497a1ed846adb39940dd6ccef678ff6ac8d55505e09b8cc45f80a2005b634e487b7160e01b5f52604160045260245ffd5b60405162461bcd60e51b815260206004820152601560248201527415985d5b1d08185b1c9958591e48185b1b1bddd959605a1b6044820152606490fd5b60405162461bcd60e51b8152602060048201526015602482015274496e76616c6964207661756c74206164647265737360581b6044820152606490fd5b34610269575f366003190112610269576020600854604051908152f35b34610269575f366003190112610269576020610386611ec9565b3461026957602036600319011261026957600435600b5481101561026957611679602091611ba7565b905460405160039290921b1c6001600160a01b03168152f35b34610269575f3660031901126102695760206040515f5160206132a95f395f51905f528152f35b34610269575f366003190112610269576020610386611daa565b34610269575f366003190112610269576020610386611d04565b3461026957604036600319011261026957611706611b5f565b6024359061173e337f00000000000000000000000000000000000000000000000000000000000000006001600160a01b031614611bd3565b60018060a01b03811691825f52600a60205261176060ff60405f205416611c0c565b6117686125e3565b611770612601565b6009548160ff821615611abd575b50508015611a81576040516323b872dd60e01b6020820152336024820152306044820152606480820183905281527f000000000000000000000000000000000000000000000000000000000000000091906001600160a01b038316906117ef906117e9608482611c74565b82613210565b6040516338d52e0f60e01b815290602082600481895afa9182156105df575f92611a60575b50919283926001600160a01b038316811415919082611a4d575b8760025460ff8160a01c16155f146118935750505050509061186283926020945f5160206132695f395f51905f5296612b85565b600280546003929092556001600160a81b03199091168517600160a01b17905542600455604051908152a260015f55005b9397949695929492939192916001600160a01b031614611a24576002546118c2906001600160a01b0316612c4a565b80156119e85760025460049392916118e2916001600160a01b0316612c84565b6002546040516338d52e0f60e01b81529460209186919082906001600160a01b03165afa9182156105df575f5160206132695f395f51905f52996020998861195e898f99978e976119929d8c9b5f5160206132e95f395f51905f529b5f946119c9575b506001600160a01b038416036119b9575b509050611c4c565b926119a5575b50816119709293612b85565b600280546001600160a01b03191685179055604051908152a35b600354611c4c565b60035542600455604051908152a26106e4565b61197092826119b3926127d3565b91611964565b6119c2926127d3565b8084611956565b6119e19194508b3d8d116105d8576105ca8183611c74565b925f611945565b505f5160206132695f395f51905f5296506119929350611a0d91509484602096612b85565b600280546001600160a01b0319168717905561198a565b5f5160206132695f395f51905f5296506119929350611a4891509484602096612b85565b61198a565b9450611a5a8484836127d3565b9461182e565b611a7a91925060203d6020116105d8576105ca8183611c74565b9086611814565b60405162461bcd60e51b8152602060048201526014602482015273139bc8185b5bdd5b9d081d1bc819195c1bdcda5d60621b6044820152606490fd5b6008549192508115611ae557600191611ad591611c4c565b9160ff191617600955838061177e565b60405162461bcd60e51b815260206004820152601d60248201527f4e6f20696e697469616c206465706f73697420616d6f756e74207365740000006044820152606490fd5b34610269575f366003190112610269576005546006546007546001600160a01b03909216835260208301526040820152606090f35b600435906001600160a01b038216820361026957565b602435906001600160a01b038216820361026957565b34610269575f3660031901126102695760206040516101f48152f35b600b54811015611bbf57600b5f5260205f2001905f90565b634e487b7160e01b5f52603260045260245ffd5b15611bda57565b60405162461bcd60e51b815260206004820152600a60248201526927b7363c9037bbb732b960b11b6044820152606490fd5b15611c1357565b60405162461bcd60e51b815260206004820152601160248201527015985d5b1d081b9bdd08185b1b1bddd959607a1b6044820152606490fd5b9190820180921161073357565b608081019081106001600160401b0382111761158b57604052565b601f909101601f19168101906001600160401b0382119082101761158b57604052565b9081602091031261026957516001600160a01b03811681036102695790565b9190820391821161073357565b8181029291811591840414171561073357565b8115611ce0570490565b634e487b7160e01b5f52601260045260245ffd5b600160ff1b8114610733575f0390565b60ff60025460a01c16158015611d91575b611d8d57611d21611daa565b6003549081808210611d5a57611d3691611cb6565b90620f4240820291808304620f4240149015171561073357611d5791611cd6565b90565b90611d6491611cb6565b620f4240810290808204620f4240149015171561073357611d5791611d8891611cd6565b611cf4565b5f90565b5060035415611d15565b90816020910312610269575190565b6002546001600160a01b038116908115908115611eba575b50611eb557604051632f5ce34560e01b8152602081600481305afa9081156105df575f91611e83575b508015611e7d576020600492604051938480926338d52e0f60e01b82525afa9182156105df575f92611e5c575b507f00000000000000000000000000000000000000000000000000000000000000006001600160a01b0383811690821614611e5657611d5792612cce565b50905090565b611e7691925060203d6020116105d8576105ca8183611c74565b905f611e18565b50505f90565b90506020813d602011611ead575b81611e9e60209383611c74565b8101031261026957515f611deb565b3d9150611e91565b505f90565b60ff915060a01c16155f611dc2565b6002546001600160a01b03168015611eb557611d5790612c4a565b15611eeb57565b60405162461bcd60e51b815260206004820152600a60248201526927b7363c9030b236b4b760b11b6044820152606490fd5b6002546001600160a01b03168015611eb5576020611f3a82612c4a565b6024604051809481936303d1689d60e11b835260048301525afa9081156105df575f91611f65575090565b90506020813d602011611f8c575b81611f8060209383611c74565b81010312610269575190565b3d9150611f73565b6004548015611eb5576201518081018091116107335780421015611eb557611d57904290611cb6565b6002549060ff8260a01c16158015612022575b61201b57611fee611fdf611daa565b926001600160a01b0316612c4a565b8015612012576120046120099261200e94611cc3565b611cd6565b6120f9565b9091565b5050505f905f90565b5f92909150565b508015611fd0565b60ff60025460a01c16158015612067575b611d8d57612047611daa565b60035480821061205a57611d5791611cb6565b611d5791611d8891611cb6565b506003541561203b565b6001600160a01b03168015611eb5576020600491604051928380926338d52e0f60e01b82525afa9081156105df575f916120da575b507f00000000000000000000000000000000000000000000000000000000000000006001600160a01b039081169116141590565b6120f3915060203d6020116105d8576105ca8183611c74565b5f6120a6565b9060ff60025460a01c1615801561215f575b8015612153575b61214e5761212260035483611cb6565b6298968081111561214857612710612140611d579260065490611cc3565b048093611cb6565b505f9190565b5f9190565b50600354821115612112565b506003541561210b565b1561217057565b60405162461bcd60e51b8152602060048201526018602482015277496e697469616c206465706f736974206e6f74206d61646560401b6044820152606490fd5b156121b757565b60405162461bcd60e51b8152602060048201526015602482015274139bdd081d1a194818dd5c9c995b9d081d985d5b1d605a1b6044820152606490fd5b156121fb57565b60405162461bcd60e51b81526020600482015260156024820152744e6f2066756e647320746f20726562616c616e636560581b6044820152606490fd5b6001600160a01b03168015611eb5576020600491604051928380926338d52e0f60e01b82525afa9081156105df575f91612270575090565b611d57915060203d6020116105d8576105ca8183611c74565b909290916001600160a01b038084169190851682811480156123aa575b61239b57604051906379bc57d560e01b8252836004830152806024830152600160448301526020826064815f5160206132a95f395f51905f525afa9182156105df575f9261237a575b50604051936379bc57d560e01b8552600485015260248401525f60448401526020836064815f5160206132a95f395f51905f525afa9182156105df57612354935f93612359575b50612342818888612e65565b9661234e828289612fb8565b96613165565b929190565b61237391935060203d6020116105d8576105ca8183611c74565b915f612336565b61239491925060203d6020116105d8576105ca8183611c74565b905f6122ef565b5050509150506001905f905f90565b5081156122a6565b60405163f8c0ae0560e01b8152602081600481305afa9081156105df575f916123f1575b508015611eb5576123ed6127109160065490611cc3565b0490565b90506020813d60201161241b575b8161240c60209383611c74565b8101031261026957515f6123d6565b3d91506123ff565b60025461243560ff8260a01c16612169565b61244260035415156121f4565b6001600160a01b038281169291169082821461259f5761246182612c4a565b9182612481575b50505060018060a01b0319600254161760025542600455565b60049261248d91612c84565b6002546040516338d52e0f60e01b81529360209185919082906001600160a01b03165afa9283156105df575f9361257e575b506040516338d52e0f60e01b815292602084600481885afa9081156105df5785945f9261255d575b506001600160a01b0382811690821603612549575b50816125089293612b85565b6002546040519182526001600160a01b0316907f31accdbf14eddbe4e8220e420ec5151c1ef1895bee03e2ba7b9403837bda611e90602090a35f8080612468565b6125089282612557926127d3565b916124fc565b61257791925060203d6020116105d8576105ca8183611c74565b905f6124e7565b61259891935060203d6020116105d8576105ca8183611c74565b915f6124bf565b50505042600455565b60ff60025460a01c161580156125d9575b611d8d576125c5611daa565b60035480821115611e7d57611d5791611cb6565b50600354156125b9565b60025f54146125f25760025f55565b633ee5aeb560e01b5f5260045ffd5b60ff6001541661260d57565b63d93c066560e01b5f5260045ffd5b90816020910312610269575180151581036102695790565b6001600160a01b039091168152602081019190915260400190565b6001600160401b03811161158b5760051b60200190565b604080519091906126778382611c74565b6001815291601f1901825f5b82811061268f57505050565b60209060405161269e81611c59565b5f81525f838201525f60408201525f606082015282828501015201612683565b805115611bbf5760200190565b805160011015611bbf5760400190565b602081830312610269578051906001600160401b03821161026957019080601f8301121561026957815161270e8161264f565b9261271c6040519485611c74565b81845260208085019260051b82010192831161026957602001905b8282106127445750505090565b8151815260209182019101612737565b90602080835192838152019201905f5b8181106127715750505090565b825180516001600160a01b0390811686526020828101518216818801526040808401511515908801526060928301519091169186019190915260809094019390920191600101612764565b604090611d57939281528160208201520190612754565b9192916001600160a01b038281169290821691828414612b53578515612b20576040516379bc57d560e01b8152836004820152846024820152600160448201526020816064815f5160206132a95f395f51905f525afa9081156105df575f91612b01575b50604051916379bc57d560e01b83528460048401528560248401525f60448401526020836064815f5160206132a95f395f51905f525afa9283156105df575f93612ae0575b506001600160a01b03821615801590612ace575b15612a98576128a0938891613165565b60405163095ea7b360e01b815273cf77a3ba9a5ca399b7c97c74d54e5b1beb874e436004820152602481018690526020816044815f875af180156105df57612a6b575b506128ec612666565b90604051906128fa82611c59565b838252846020830152151560408201525f5160206132a95f395f51905f526060820152612926826126be565b52612930816126be565b50604051631542686b60e21b81525f818061294f858a600484016127bc565b038173cf77a3ba9a5ca399b7c97c74d54e5b1beb874e435afa80156105df5761297f915f91612a49575b506126cb565b5161251c81029080820461251c14901517156107335761012c4201804211610733575f91612710916129d9604051958694859463cac88ea960e01b86528c600487015204602485015260a0604485015260a4840190612754565b90306064840152608483015203818373cf77a3ba9a5ca399b7c97c74d54e5b1beb874e435af180156105df57612a396040917f4ac5df40d910feab74f02c4430568f99e711257906dd0df11643df22f2ee3cf6935f91612a4957506126cb565b51958151908152866020820152a3565b612a6591503d805f833e612a5d8183611c74565b8101906126db565b5f612979565b612a8c9060203d602011612a91575b612a848183611c74565b81019061261c565b6128e3565b503d612a7a565b60405162461bcd60e51b815260206004820152600e60248201526d139bc81c1bdbdb1cc8195e1a5cdd60921b6044820152606490fd5b506001600160a01b0383161515612890565b612afa91935060203d6020116105d8576105ca8183611c74565b915f61287c565b612b1a915060203d6020116105d8576105ca8183611c74565b5f612837565b60405162461bcd60e51b815260206004820152600b60248201526a16995c9bc8185b5bdd5b9d60aa1b6044820152606490fd5b60405162461bcd60e51b815260206004820152600a60248201526929b0b6b2903a37b5b2b760b11b6044820152606490fd5b60405163095ea7b360e01b815291926020908390815f81612baa898860048401612634565b03926001600160a01b03165af180156105df575f93602093604492612c2f575b50604051636e553f6560e01b815260048101919091523060248201529384928391906001600160a01b03165af180156105df57612c045750565b612c259060203d602011612c28575b612c1d8183611c74565b810190611d9b565b50565b503d612c13565b612c4590853d8711612a9157612a848183611c74565b612bca565b6040516370a0823160e01b815230600482015290602090829060249082906001600160a01b03165afa9081156105df575f91611f65575090565b604051635d043b2960e11b8152600481019290925230602483018190526044830152602090829060649082905f906001600160a01b03165af19081156105df575f91611f65575090565b6001600160a01b038082169391929081168481148015612e05575b612dfd57604051906379bc57d560e01b8252856004830152806024830152600160448301526020826064815f5160206132a95f395f51905f525afa9182156105df575f92612ddc575b50604051956379bc57d560e01b8752600487015260248601525f60448601526020856064815f5160206132a95f395f51905f525afa9485156105df575f95612dbb575b506001600160a01b0381161580612daa575b612da157611d5794612d9b91848487613165565b92613089565b50505050505f90565b506001600160a01b03851615612d87565b612dd591955060203d6020116105d8576105ca8183611c74565b935f612d75565b612df691925060203d6020116105d8576105ca8183611c74565b905f612d32565b505091505090565b508215612ce9565b60ff6001541615612e1a57565b638dfc202b60e01b5f5260045ffd5b612e5e612e639392612e5060405194859263a9059cbb60e01b602085015260248401612634565b03601f198101845283611c74565b613210565b565b6040516379bc57d560e01b81526001600160a01b03808316600483015283166024820152600160448201529091906020816064815f5160206132a95f395f51905f525afa9081156105df575f91612f99575b506001600160a01b031615612f9257612f3e925f92612ed4612666565b9260405191612ee283611c59565b6001600160a01b039081168352166020820152600160408201525f5160206132a95f395f51905f526060820152612f18836126be565b52612f22826126be565b50604051631542686b60e21b81529384928392600484016127bc565b038173cf77a3ba9a5ca399b7c97c74d54e5b1beb874e435afa5f9181612f76575b50612f6957505f90565b612f72906126cb565b5190565b612f8b9192503d805f833e612a5d8183611c74565b905f612f5f565b5050505f90565b612fb2915060203d6020116105d8576105ca8183611c74565b5f612eb7565b6040516379bc57d560e01b81526001600160a01b038083166004830152831660248201525f60448201529091906020816064815f5160206132a95f395f51905f525afa9081156105df575f9161306a575b506001600160a01b031615612f9257612f3e925f92613026612666565b926040519161303483611c59565b6001600160a01b039081168352166020820152604081018490525f5160206132a95f395f51905f526060820152612f18836126be565b613083915060203d6020116105d8576105ca8183611c74565b5f613009565b6040516379bc57d560e01b81526001600160a01b038281166004830152831660248201528415156044820152909392906020816064815f5160206132a95f395f51905f525afa9081156105df575f91613146575b506001600160a01b03161561313e57612f3e935f936130fa612666565b936040519261310884611c59565b6001600160a01b039081168452166020830152151560408201525f5160206132a95f395f51905f526060820152612f18836126be565b505050505f90565b61315f915060203d6020116105d8576105ca8183611c74565b5f6130dd565b6001600160a01b03909316159384806131fe575b612da1576001600160a01b0316159283806131f6575b6131ec575f935f95156131d9575b156131c5575b5050506103e98102908082046103e91490151715610733576103e89004101590565b6131d0939450612fb8565b905f80806131a3565b93506131e6838383612e65565b9361319d565b5050505050600190565b50841561318f565b506001600160a01b0381161515613179565b905f602091828151910182855af1156105df575f513d61325f57506001600160a01b0381163b155b61323f5750565b635274afe760e01b5f9081526001600160a01b0391909116600452602490fd5b6001141561323856fe1aa88527987680f71e6ace8f3d2ab4871db1862850458125715e5175f088c609108516ddcf5ba43cea6bb2cd5ff6d59ac196c1c86ccb9178332b9dd72d1ca561000000000000000000000000420dd381b31aef6683db6b902084cb0ffece40da2717ead6b9200dd235aad468c9809ea400fe33ac69b5bfaa6d3e90fc922b63984ce94e8bd94f62017197ba464f629a366572732970f6fe47c76f97bb53f76303a26469706673582212208900498105a7a79c3232562d6577502b20ab557dc1c7e399acabf8398e16a95d64736f6c634300081e0033",
  "linkReferences": {},
  "deployedLinkReferences": {}
}